{
  "contractName": "YandaToken",
  "abi": [
    {
      "inputs": [],
      "stateMutability": "nonpayable",
      "type": "constructor"
    },
    {
      "anonymous": false,
      "inputs": [
        {
          "indexed": true,
          "internalType": "address",
          "name": "customer",
          "type": "address"
        },
        {
          "indexed": true,
          "internalType": "address",
          "name": "service",
          "type": "address"
        },
        {
          "indexed": true,
          "internalType": "string",
          "name": "productId",
          "type": "string"
        },
        {
          "indexed": false,
          "internalType": "string",
          "name": "data",
          "type": "string"
        }
      ],
      "name": "Action",
      "type": "event"
    },
    {
      "anonymous": false,
      "inputs": [
        {
          "indexed": true,
          "internalType": "address",
          "name": "owner",
          "type": "address"
        },
        {
          "indexed": true,
          "internalType": "address",
          "name": "spender",
          "type": "address"
        },
        {
          "indexed": false,
          "internalType": "uint256",
          "name": "value",
          "type": "uint256"
        }
      ],
      "name": "Approval",
      "type": "event"
    },
    {
      "anonymous": false,
      "inputs": [
        {
          "indexed": true,
          "internalType": "address",
          "name": "customer",
          "type": "address"
        },
        {
          "indexed": true,
          "internalType": "address",
          "name": "service",
          "type": "address"
        },
        {
          "indexed": false,
          "internalType": "string",
          "name": "productId",
          "type": "string"
        },
        {
          "indexed": false,
          "internalType": "bool",
          "name": "success",
          "type": "bool"
        }
      ],
      "name": "Complete",
      "type": "event"
    },
    {
      "anonymous": false,
      "inputs": [
        {
          "indexed": true,
          "internalType": "address",
          "name": "delegator",
          "type": "address"
        },
        {
          "indexed": true,
          "internalType": "address",
          "name": "fromDelegate",
          "type": "address"
        },
        {
          "indexed": true,
          "internalType": "address",
          "name": "toDelegate",
          "type": "address"
        }
      ],
      "name": "DelegateChanged",
      "type": "event"
    },
    {
      "anonymous": false,
      "inputs": [
        {
          "indexed": true,
          "internalType": "address",
          "name": "delegate",
          "type": "address"
        },
        {
          "indexed": false,
          "internalType": "uint256",
          "name": "previousBalance",
          "type": "uint256"
        },
        {
          "indexed": false,
          "internalType": "uint256",
          "name": "newBalance",
          "type": "uint256"
        }
      ],
      "name": "DelegateVotesChanged",
      "type": "event"
    },
    {
      "anonymous": false,
      "inputs": [
        {
          "indexed": true,
          "internalType": "address",
          "name": "customer",
          "type": "address"
        },
        {
          "indexed": true,
          "internalType": "address",
          "name": "service",
          "type": "address"
        },
        {
          "indexed": true,
          "internalType": "string",
          "name": "productId",
          "type": "string"
        },
        {
          "indexed": false,
          "internalType": "uint256",
          "name": "weiAmount",
          "type": "uint256"
        }
      ],
      "name": "Deposit",
      "type": "event"
    },
    {
      "anonymous": false,
      "inputs": [
        {
          "indexed": true,
          "internalType": "address",
          "name": "previousOwner",
          "type": "address"
        },
        {
          "indexed": true,
          "internalType": "address",
          "name": "newOwner",
          "type": "address"
        }
      ],
      "name": "OwnershipTransferred",
      "type": "event"
    },
    {
      "anonymous": false,
      "inputs": [
        {
          "indexed": false,
          "internalType": "address",
          "name": "account",
          "type": "address"
        }
      ],
      "name": "Paused",
      "type": "event"
    },
    {
      "anonymous": false,
      "inputs": [
        {
          "indexed": true,
          "internalType": "address",
          "name": "customer",
          "type": "address"
        },
        {
          "indexed": true,
          "internalType": "address",
          "name": "service",
          "type": "address"
        },
        {
          "indexed": false,
          "internalType": "string",
          "name": "productId",
          "type": "string"
        }
      ],
      "name": "Terminate",
      "type": "event"
    },
    {
      "anonymous": false,
      "inputs": [
        {
          "indexed": true,
          "internalType": "address",
          "name": "from",
          "type": "address"
        },
        {
          "indexed": true,
          "internalType": "address",
          "name": "to",
          "type": "address"
        },
        {
          "indexed": false,
          "internalType": "uint256",
          "name": "value",
          "type": "uint256"
        }
      ],
      "name": "Transfer",
      "type": "event"
    },
    {
      "anonymous": false,
      "inputs": [
        {
          "indexed": false,
          "internalType": "address",
          "name": "account",
          "type": "address"
        }
      ],
      "name": "Unpaused",
      "type": "event"
    },
    {
      "inputs": [],
      "name": "DOMAIN_SEPARATOR",
      "outputs": [
        {
          "internalType": "bytes32",
          "name": "",
          "type": "bytes32"
        }
      ],
      "stateMutability": "view",
      "type": "function",
      "constant": true
    },
    {
      "inputs": [
        {
          "internalType": "address",
          "name": "owner",
          "type": "address"
        },
        {
          "internalType": "address",
          "name": "spender",
          "type": "address"
        }
      ],
      "name": "allowance",
      "outputs": [
        {
          "internalType": "uint256",
          "name": "",
          "type": "uint256"
        }
      ],
      "stateMutability": "view",
      "type": "function",
      "constant": true
    },
    {
      "inputs": [
        {
          "internalType": "address",
          "name": "spender",
          "type": "address"
        },
        {
          "internalType": "uint256",
          "name": "amount",
          "type": "uint256"
        }
      ],
      "name": "approve",
      "outputs": [
        {
          "internalType": "bool",
          "name": "",
          "type": "bool"
        }
      ],
      "stateMutability": "nonpayable",
      "type": "function"
    },
    {
      "inputs": [
        {
          "internalType": "address",
          "name": "account",
          "type": "address"
        }
      ],
      "name": "balanceOf",
      "outputs": [
        {
          "internalType": "uint256",
          "name": "",
          "type": "uint256"
        }
      ],
      "stateMutability": "view",
      "type": "function",
      "constant": true
    },
    {
      "inputs": [
        {
          "internalType": "address",
          "name": "account",
          "type": "address"
        },
        {
          "internalType": "uint32",
          "name": "pos",
          "type": "uint32"
        }
      ],
      "name": "checkpoints",
      "outputs": [
        {
          "components": [
            {
              "internalType": "uint32",
              "name": "fromBlock",
              "type": "uint32"
            },
            {
              "internalType": "uint224",
              "name": "votes",
              "type": "uint224"
            }
          ],
          "internalType": "struct ERC20Votes.Checkpoint",
          "name": "",
          "type": "tuple"
        }
      ],
      "stateMutability": "view",
      "type": "function",
      "constant": true
    },
    {
      "inputs": [],
      "name": "decimals",
      "outputs": [
        {
          "internalType": "uint8",
          "name": "",
          "type": "uint8"
        }
      ],
      "stateMutability": "view",
      "type": "function",
      "constant": true
    },
    {
      "inputs": [
        {
          "internalType": "address",
          "name": "spender",
          "type": "address"
        },
        {
          "internalType": "uint256",
          "name": "subtractedValue",
          "type": "uint256"
        }
      ],
      "name": "decreaseAllowance",
      "outputs": [
        {
          "internalType": "bool",
          "name": "",
          "type": "bool"
        }
      ],
      "stateMutability": "nonpayable",
      "type": "function"
    },
    {
      "inputs": [
        {
          "internalType": "address",
          "name": "delegatee",
          "type": "address"
        }
      ],
      "name": "delegate",
      "outputs": [],
      "stateMutability": "nonpayable",
      "type": "function"
    },
    {
      "inputs": [
        {
          "internalType": "address",
          "name": "delegatee",
          "type": "address"
        },
        {
          "internalType": "uint256",
          "name": "nonce",
          "type": "uint256"
        },
        {
          "internalType": "uint256",
          "name": "expiry",
          "type": "uint256"
        },
        {
          "internalType": "uint8",
          "name": "v",
          "type": "uint8"
        },
        {
          "internalType": "bytes32",
          "name": "r",
          "type": "bytes32"
        },
        {
          "internalType": "bytes32",
          "name": "s",
          "type": "bytes32"
        }
      ],
      "name": "delegateBySig",
      "outputs": [],
      "stateMutability": "nonpayable",
      "type": "function"
    },
    {
      "inputs": [
        {
          "internalType": "address",
          "name": "account",
          "type": "address"
        }
      ],
      "name": "delegates",
      "outputs": [
        {
          "internalType": "address",
          "name": "",
          "type": "address"
        }
      ],
      "stateMutability": "view",
      "type": "function",
      "constant": true
    },
    {
      "inputs": [
        {
          "internalType": "uint256",
          "name": "blockNumber",
          "type": "uint256"
        }
      ],
      "name": "getPastTotalSupply",
      "outputs": [
        {
          "internalType": "uint256",
          "name": "",
          "type": "uint256"
        }
      ],
      "stateMutability": "view",
      "type": "function",
      "constant": true
    },
    {
      "inputs": [
        {
          "internalType": "address",
          "name": "account",
          "type": "address"
        },
        {
          "internalType": "uint256",
          "name": "blockNumber",
          "type": "uint256"
        }
      ],
      "name": "getPastVotes",
      "outputs": [
        {
          "internalType": "uint256",
          "name": "",
          "type": "uint256"
        }
      ],
      "stateMutability": "view",
      "type": "function",
      "constant": true
    },
    {
      "inputs": [
        {
          "internalType": "address",
          "name": "account",
          "type": "address"
        }
      ],
      "name": "getVotes",
      "outputs": [
        {
          "internalType": "uint256",
          "name": "",
          "type": "uint256"
        }
      ],
      "stateMutability": "view",
      "type": "function",
      "constant": true
    },
    {
      "inputs": [
        {
          "internalType": "address",
          "name": "spender",
          "type": "address"
        },
        {
          "internalType": "uint256",
          "name": "addedValue",
          "type": "uint256"
        }
      ],
      "name": "increaseAllowance",
      "outputs": [
        {
          "internalType": "bool",
          "name": "",
          "type": "bool"
        }
      ],
      "stateMutability": "nonpayable",
      "type": "function"
    },
    {
      "inputs": [],
      "name": "name",
      "outputs": [
        {
          "internalType": "string",
          "name": "",
          "type": "string"
        }
      ],
      "stateMutability": "view",
      "type": "function",
      "constant": true
    },
    {
      "inputs": [
        {
          "internalType": "address",
          "name": "owner",
          "type": "address"
        }
      ],
      "name": "nonces",
      "outputs": [
        {
          "internalType": "uint256",
          "name": "",
          "type": "uint256"
        }
      ],
      "stateMutability": "view",
      "type": "function",
      "constant": true
    },
    {
      "inputs": [
        {
          "internalType": "address",
          "name": "account",
          "type": "address"
        }
      ],
      "name": "numCheckpoints",
      "outputs": [
        {
          "internalType": "uint32",
          "name": "",
          "type": "uint32"
        }
      ],
      "stateMutability": "view",
      "type": "function",
      "constant": true
    },
    {
      "inputs": [],
      "name": "owner",
      "outputs": [
        {
          "internalType": "address",
          "name": "",
          "type": "address"
        }
      ],
      "stateMutability": "view",
      "type": "function",
      "constant": true
    },
    {
      "inputs": [],
      "name": "paused",
      "outputs": [
        {
          "internalType": "bool",
          "name": "",
          "type": "bool"
        }
      ],
      "stateMutability": "view",
      "type": "function",
      "constant": true
    },
    {
      "inputs": [
        {
          "internalType": "address",
          "name": "owner",
          "type": "address"
        },
        {
          "internalType": "address",
          "name": "spender",
          "type": "address"
        },
        {
          "internalType": "uint256",
          "name": "value",
          "type": "uint256"
        },
        {
          "internalType": "uint256",
          "name": "deadline",
          "type": "uint256"
        },
        {
          "internalType": "uint8",
          "name": "v",
          "type": "uint8"
        },
        {
          "internalType": "bytes32",
          "name": "r",
          "type": "bytes32"
        },
        {
          "internalType": "bytes32",
          "name": "s",
          "type": "bytes32"
        }
      ],
      "name": "permit",
      "outputs": [],
      "stateMutability": "nonpayable",
      "type": "function"
    },
    {
      "inputs": [
        {
          "internalType": "address",
          "name": "",
          "type": "address"
        }
      ],
      "name": "processes",
      "outputs": [
        {
          "internalType": "enum YandaToken.State",
          "name": "state",
          "type": "uint8"
        },
        {
          "internalType": "uint256",
          "name": "cost",
          "type": "uint256"
        },
        {
          "internalType": "address",
          "name": "service",
          "type": "address"
        },
        {
          "internalType": "string",
          "name": "productId",
          "type": "string"
        },
        {
          "internalType": "string",
          "name": "productData",
          "type": "string"
        },
        {
          "internalType": "uint256",
          "name": "validations",
          "type": "uint256"
        },
        {
          "internalType": "uint256",
          "name": "failedValidations",
          "type": "uint256"
        }
      ],
      "stateMutability": "view",
      "type": "function",
      "constant": true
    },
    {
      "inputs": [],
      "name": "renounceOwnership",
      "outputs": [],
      "stateMutability": "nonpayable",
      "type": "function"
    },
    {
      "inputs": [
        {
          "internalType": "address",
          "name": "",
          "type": "address"
        }
      ],
      "name": "services",
      "outputs": [
        {
          "internalType": "uint256",
          "name": "validationShare",
          "type": "uint256"
        },
        {
          "internalType": "uint256",
          "name": "commissionShare",
          "type": "uint256"
        }
      ],
      "stateMutability": "view",
      "type": "function",
      "constant": true
    },
    {
      "inputs": [],
      "name": "symbol",
      "outputs": [
        {
          "internalType": "string",
          "name": "",
          "type": "string"
        }
      ],
      "stateMutability": "view",
      "type": "function",
      "constant": true
    },
    {
      "inputs": [],
      "name": "totalSupply",
      "outputs": [
        {
          "internalType": "uint256",
          "name": "",
          "type": "uint256"
        }
      ],
      "stateMutability": "view",
      "type": "function",
      "constant": true
    },
    {
      "inputs": [
        {
          "internalType": "address",
          "name": "sender",
          "type": "address"
        },
        {
          "internalType": "address",
          "name": "recipient",
          "type": "address"
        },
        {
          "internalType": "uint256",
          "name": "amount",
          "type": "uint256"
        }
      ],
      "name": "transferFrom",
      "outputs": [
        {
          "internalType": "bool",
          "name": "",
          "type": "bool"
        }
      ],
      "stateMutability": "nonpayable",
      "type": "function"
    },
    {
      "inputs": [
        {
          "internalType": "address",
          "name": "newOwner",
          "type": "address"
        }
      ],
      "name": "transferOwnership",
      "outputs": [],
      "stateMutability": "nonpayable",
      "type": "function"
    },
    {
      "inputs": [
        {
          "internalType": "address",
          "name": "",
          "type": "address"
        }
      ],
      "name": "validators",
      "outputs": [
        {
          "internalType": "bool",
          "name": "",
          "type": "bool"
        }
      ],
      "stateMutability": "view",
      "type": "function",
      "constant": true
    },
    {
      "inputs": [],
      "name": "pause",
      "outputs": [],
      "stateMutability": "nonpayable",
      "type": "function"
    },
    {
      "inputs": [],
      "name": "unpause",
      "outputs": [],
      "stateMutability": "nonpayable",
      "type": "function"
    },
    {
      "inputs": [
        {
          "internalType": "address",
          "name": "to",
          "type": "address"
        },
        {
          "internalType": "uint256",
          "name": "amount",
          "type": "uint256"
        }
      ],
      "name": "mint",
      "outputs": [],
      "stateMutability": "nonpayable",
      "type": "function"
    },
    {
      "inputs": [
        {
          "internalType": "address",
          "name": "recipient",
          "type": "address"
        },
        {
          "internalType": "uint256",
          "name": "amount",
          "type": "uint256"
        }
      ],
      "name": "transfer",
      "outputs": [
        {
          "internalType": "bool",
          "name": "",
          "type": "bool"
        }
      ],
      "stateMutability": "nonpayable",
      "type": "function"
    },
    {
      "inputs": [
        {
          "internalType": "address",
          "name": "service",
          "type": "address"
        },
        {
          "internalType": "address[]",
          "name": "vList",
          "type": "address[]"
        },
        {
          "internalType": "uint256",
          "name": "vShare",
          "type": "uint256"
        },
        {
          "internalType": "uint256",
          "name": "cShare",
          "type": "uint256"
        }
      ],
      "name": "addService",
      "outputs": [],
      "stateMutability": "nonpayable",
      "type": "function"
    },
    {
      "inputs": [
        {
          "internalType": "address[]",
          "name": "vList",
          "type": "address[]"
        }
      ],
      "name": "setValidators",
      "outputs": [],
      "stateMutability": "nonpayable",
      "type": "function"
    },
    {
      "inputs": [
        {
          "internalType": "address",
          "name": "service",
          "type": "address"
        },
        {
          "internalType": "uint256",
          "name": "amount",
          "type": "uint256"
        },
        {
          "internalType": "string",
          "name": "productId",
          "type": "string"
        },
        {
          "internalType": "string",
          "name": "data",
          "type": "string"
        }
      ],
      "name": "createProcess",
      "outputs": [
        {
          "internalType": "bool",
          "name": "",
          "type": "bool"
        }
      ],
      "stateMutability": "nonpayable",
      "type": "function"
    },
    {
      "inputs": [
        {
          "internalType": "address",
          "name": "customer",
          "type": "address"
        },
        {
          "internalType": "string",
          "name": "productId",
          "type": "string"
        },
        {
          "internalType": "string",
          "name": "data",
          "type": "string"
        }
      ],
      "name": "declareAction",
      "outputs": [],
      "stateMutability": "nonpayable",
      "type": "function"
    },
    {
      "inputs": [
        {
          "internalType": "address",
          "name": "customer",
          "type": "address"
        }
      ],
      "name": "startTermination",
      "outputs": [],
      "stateMutability": "nonpayable",
      "type": "function"
    },
    {
      "inputs": [
        {
          "internalType": "address",
          "name": "customer",
          "type": "address"
        },
        {
          "internalType": "bool",
          "name": "passed",
          "type": "bool"
        }
      ],
      "name": "validateTermination",
      "outputs": [],
      "stateMutability": "nonpayable",
      "type": "function"
    }
  ],
  "bytecode": "0x6101406040527f6e71edae12b1b97f4d1f60370fef10105fa2faae0126114a169c64845d6126c9610120523480156200003757600080fd5b506040518060400160405280600a8152602001692cb0b73230aa37b5b2b760b11b81525080604051806040016040528060018152602001603160f81b8152506040518060400160405280600a8152602001692cb0b73230aa37b5b2b760b11b8152506040518060400160405280600381526020016216539160ea1b8152508160039080519060200190620000cd929190620008bd565b508051620000e3906004906020840190620008bd565b50506005805460ff1916905550620000fb3362000190565b815160208084019190912082519183019190912060c082905260e08190524660a0527f8b73c3c69bb8fe3d512ecc4cf759cc79239f7b179b0ffacaa9a75d522b39400f6200014b818484620001ea565b60805261010052506200018a935033925062000168915050601290565b6200017590600a620009c1565b6200018490620186a062000aac565b62000234565b62000b3b565b600580546001600160a01b03838116610100818102610100600160a81b031985161790945560405193909204169182907f8be0079c531659141344cd1fd0a4f28419497f9722a3daafe3b4186f6b6457e090600090a35050565b6040805160208101859052908101839052606081018290524660808201523060a082015260009060c0016040516020818303038152906040528051906020012090505b9392505050565b6200024b82826200024f60201b62001d581760201c565b5050565b6200026682826200030660201b62001de81760201c565b6001600160e01b036200027a620004038216565b1115620002e75760405162461bcd60e51b815260206004820152603060248201527f4552433230566f7465733a20746f74616c20737570706c79207269736b73206f60448201526f766572666c6f77696e6720766f74657360801b60648201526084015b60405180910390fd5b62000300600962001edb6200040960201b178362000417565b50505050565b6001600160a01b0382166200035e5760405162461bcd60e51b815260206004820152601f60248201527f45524332303a206d696e7420746f20746865207a65726f2061646472657373006044820152606401620002de565b6200036c60008383620005ed565b806002600082825462000380919062000959565b90915550506001600160a01b03821660009081526020819052604081208054839290620003af90849062000959565b90915550506040518181526001600160a01b038316906000907fddf252ad1be2c89b69c2b068fc378daa952ba7f163c4a11628f55a4df523b3ef9060200160405180910390a36200024b6000838362000652565b60025490565b60006200022d828462000959565b8254600090819080156200047557856200043360018362000ace565b815481106200045257634e487b7160e01b600052603260045260246000fd5b60009182526020909120015464010000000090046001600160e01b031662000478565b60005b6001600160e01b031692506200048f83858760201c565b9150600081118015620004df57504386620004ac60018462000ace565b81548110620004cb57634e487b7160e01b600052603260045260246000fd5b60009182526020909120015463ffffffff16145b156200055f57620004fb826200066a60201b62001ee71760201c565b866200050960018462000ace565b815481106200052857634e487b7160e01b600052603260045260246000fd5b9060005260206000200160000160046101000a8154816001600160e01b0302191690836001600160e01b03160217905550620005e4565b8560405180604001604052806200058143620006d960201b62001f541760201c565b63ffffffff168152602001620005a2856200066a60201b62001ee71760201c565b6001600160e01b0390811690915282546001810184556000938452602093849020835194909301519091166401000000000263ffffffff909316929092179101555b50935093915050565b60055460ff1615620006355760405162461bcd60e51b815260206004820152601060248201526f14185d5cd8589b194e881c185d5cd95960821b6044820152606401620002de565b6200064d8383836200064d60201b62001fb91760201c565b505050565b6200064d8383836200074060201b62001fbe1760201c565b60006001600160e01b03821115620006d55760405162461bcd60e51b815260206004820152602760248201527f53616665436173743a2076616c756520646f65736e27742066697420696e20326044820152663234206269747360c81b6064820152608401620002de565b5090565b600063ffffffff821115620006d55760405162461bcd60e51b815260206004820152602660248201527f53616665436173743a2076616c756520646f65736e27742066697420696e203360448201526532206269747360d01b6064820152608401620002de565b620007588383836200064d60201b62001fb91760201c565b6001600160a01b038381166000908152600760205260408082205485841683529120546200064d92918216911683818314801590620007975750600081115b156200064d576001600160a01b0383161562000824576001600160a01b038316600090815260086020908152604082208291620007e19190620008af901b62001fd9178562000417565b91509150846001600160a01b031660008051602062004604833981519152838360405162000819929190918252602082015260400190565b60405180910390a250505b6001600160a01b038216156200064d576001600160a01b03821660009081526008602090815260408220829162000868919062000409901b62001edb178562000417565b91509150836001600160a01b0316600080516020620046048339815191528383604051620008a0929190918252602082015260400190565b60405180910390a25050505050565b60006200022d828462000ace565b828054620008cb9062000ae8565b90600052602060002090601f016020900481019282620008ef57600085556200093a565b82601f106200090a57805160ff19168380011785556200093a565b828001600101855582156200093a579182015b828111156200093a5782518255916020019190600101906200091d565b50620006d59291505b80821115620006d5576000815560010162000943565b600082198211156200096f576200096f62000b25565b500190565b80825b6001808611620009885750620009b8565b8187048211156200099d576200099d62000b25565b80861615620009ab57918102915b9490941c93800262000977565b94509492505050565b60006200022d60001960ff851684600082620009e0575060016200022d565b81620009ef575060006200022d565b816001811462000a08576002811462000a135762000a47565b60019150506200022d565b60ff84111562000a275762000a2762000b25565b6001841b91508482111562000a405762000a4062000b25565b506200022d565b5060208310610133831016604e8410600b841016171562000a7f575081810a8381111562000a795762000a7962000b25565b6200022d565b62000a8e848484600162000974565b80860482111562000aa35762000aa362000b25565b02949350505050565b600081600019048311821515161562000ac95762000ac962000b25565b500290565b60008282101562000ae35762000ae362000b25565b500390565b600181811c9082168062000afd57607f821691505b6020821081141562000b1f57634e487b7160e01b600052602260045260246000fd5b50919050565b634e487b7160e01b600052601160045260246000fd5b60805160a05160c05160e0516101005161012051613a7962000b8b6000396000611249015260006123400152600061238f0152600061236a015260006122ec015260006123150152613a796000f3fe608060405234801561001057600080fd5b50600436106102325760003560e01c8063715018a611610130578063a457c2d7116100b8578063e3fdfaee1161007c578063e3fdfaee1461051c578063f1127ed81461052f578063f2fde38b1461056c578063f47554571461057f578063fa52c7d8146105a557610232565b8063a457c2d714610497578063a9059cbb146104aa578063c3cda520146104bd578063d505accf146104d0578063dd62ed3e146104e357610232565b80638da5cb5b116100ff5780638da5cb5b1461043f5780638e539e8c146104565780639300c9261461046957806395d89b411461047c5780639ab24eb01461048457610232565b8063715018a6146104095780637ecebe00146104115780638456cb59146104245780638a3c11ea1461042c57610232565b80633a46b1a8116101be5780635c19a95c116101825780635c19a95c1461035b5780635c975abb1461036e5780636d966d01146103795780636fcfff45146103b857806370a08231146103e057610232565b80633a46b1a8146102ef5780633f4ba83a1461030257806340c10f191461030a57806344715aaa1461031d578063587cde1e1461033057610232565b806323b872dd1161020557806323b872dd1461029f578063313ce567146102b2578063354a7dd5146102c15780633644e515146102d457806339509351146102dc57610232565b806306fdde0314610237578063074d5a9a14610255578063095ea7b31461026a57806318160ddd1461028d575b600080fd5b61023f6105c8565b60405161024c91906138c0565b60405180910390f35b610268610263366004613326565b61065b565b005b61027d61027836600461352d565b610781565b604051901515815260200161024c565b6002545b60405190815260200161024c565b61027d6102ad366004613372565b610797565b6040516012815260200161024c565b61027d6102cf366004613556565b610841565b6102916109d7565b61027d6102ea36600461352d565b6109e6565b6102916102fd36600461352d565b610a22565b610268610a9c565b61026861031836600461352d565b610ad6565b61026861032b366004613416565b610b14565b61034361033e366004613326565b610be4565b6040516001600160a01b03909116815260200161024c565b610268610369366004613326565b610c05565b60055460ff1661027d565b6103a3610387366004613326565b600b602052600090815260409020600181015460029091015482565b6040805192835260208301919091520161024c565b6103cb6103c6366004613326565b610c12565b60405163ffffffff909116815260200161024c565b6102916103ee366004613326565b6001600160a01b031660009081526020819052604090205490565b610268610c3a565b61029161041f366004613326565b610c74565b610268610c92565b61026861043a3660046134af565b610cca565b61034360055461010090046001600160a01b031690565b6102916104643660046136c3565b610d65565b610268610477366004613667565b610dc1565b61023f610e15565b610291610492366004613326565b610e24565b61027d6104a536600461352d565b610eb9565b61027d6104b836600461352d565b610f52565b6102686104cb3660046135dd565b6110bf565b6102686104de3660046133ad565b6111f5565b6102916104f1366004613340565b6001600160a01b03918216600090815260016020908152604080832093909416825291909152205490565b61026861052a366004613479565b611359565b61054261053d366004613634565b611acd565b60408051825163ffffffff1681526020928301516001600160e01b0316928101929092520161024c565b61026861057a366004613326565b611b5f565b61059261058d366004613326565b611bfd565b60405161024c979695949392919061381c565b61027d6105b3366004613326565b600c6020526000908152604090205460ff1681565b6060600380546105d7906139cf565b80601f0160208091040260200160405190810160405280929190818152602001828054610603906139cf565b80156106505780601f1061062557610100808354040283529160200191610650565b820191906000526020600020905b81548152906001019060200180831161063357829003601f168201915b505050505090505b90565b336000908152600b60205260409020600101546106935760405162461bcd60e51b815260040161068a9061393f565b60405180910390fd5b60016001600160a01b0382166000908152600a602052604090205460ff1660028111156106d057634e487b7160e01b600052602160045260246000fd5b1461071d5760405162461bcd60e51b815260206004820152601860248201527f43616e6e6f74207374617274207465726d696e6174696f6e0000000000000000604482015260640161068a565b6001600160a01b0381166000818152600a602052604090819020805460ff1916600217815590513392917f426b7efed52a7e3dcb0ed591d02e61bf0d8c251c2bd963f3808c6288b6d5caf79161077691600301906138d3565b60405180910390a350565b600061078e338484611fe5565b50600192915050565b60006107a4848484612109565b6001600160a01b0384166000908152600160209081526040808320338452909152902054828110156108295760405162461bcd60e51b815260206004820152602860248201527f45524332303a207472616e7366657220616d6f756e74206578636565647320616044820152676c6c6f77616e636560c01b606482015260840161068a565b6108368533858403611fe5565b506001949350505050565b6001600160a01b0386166000908152600b6020526040812060010154156109c9576040805160e081019091528060008152602001878152602001886001600160a01b0316815260200186868080601f016020809104026020016040519081016040528093929190818152602001838380828437600092019190915250505090825250604080516020601f870181900481028201810190925285815291810191908690869081908401838280828437600092018290525093855250505060208083018290526040928301829052338252600a90522081518154829060ff1916600183600281111561094157634e487b7160e01b600052602160045260246000fd5b0217905550602082810151600183015560408301516002830180546001600160a01b0319166001600160a01b039092169190911790556060830151805161098e92600385019201906130ff565b50608082015180516109aa9160048401916020909101906130ff565b5060a0820151600582015560c0909101516006909101555060016109cd565b5060005b9695505050505050565b60006109e16122e8565b905090565b3360008181526001602090815260408083206001600160a01b0387168452909152812054909161078e918590610a1d908690613980565b611fe5565b6000438210610a735760405162461bcd60e51b815260206004820152601f60248201527f4552433230566f7465733a20626c6f636b206e6f7420796574206d696e656400604482015260640161068a565b6001600160a01b0383166000908152600860205260409020610a9590836123df565b9392505050565b6005546001600160a01b03610100909104163314610acc5760405162461bcd60e51b815260040161068a9061390a565b610ad46124b8565b565b6005546001600160a01b03610100909104163314610b065760405162461bcd60e51b815260040161068a9061390a565b610b10828261254b565b5050565b6005546001600160a01b03610100909104163314610b445760405162461bcd60e51b815260040161068a9061390a565b60405180606001604052808585808060200260200160405190810160405280939291908181526020018383602002808284376000920182905250938552505050602080830186905260409283018590526001600160a01b0389168252600b8152919020825180519192610bbc9284929091019061317f565b5060208201516001820155604090910151600290910155610bdd8484612555565b5050505050565b6001600160a01b03808216600090815260076020526040902054165b919050565b610c0f3382612630565b50565b6001600160a01b038116600090815260086020526040812054610c3490611f54565b92915050565b6005546001600160a01b03610100909104163314610c6a5760405162461bcd60e51b815260040161068a9061390a565b610ad460006126c6565b6001600160a01b038116600090815260066020526040812054610c34565b6005546001600160a01b03610100909104163314610cc25760405162461bcd60e51b815260040161068a9061390a565b610ad4612720565b336000908152600b6020526040902060010154610cf95760405162461bcd60e51b815260040161068a9061393f565b8383604051610d0992919061379d565b6040518091039020336001600160a01b0316866001600160a01b03167feae9271f8fe118b30a31a6fe313a060029adc5eeb1eb8bcd40df93c32fc4eb458585604051610d56929190613891565b60405180910390a45050505050565b6000438210610db65760405162461bcd60e51b815260206004820152601f60248201527f4552433230566f7465733a20626c6f636b206e6f7420796574206d696e656400604482015260640161068a565b610c346009836123df565b336000908152600b6020526040902060010154610df05760405162461bcd60e51b815260040161068a9061393f565b336000908152600b60205260409020610e0a9083836131d4565b50610b108282612555565b6060600480546105d7906139cf565b6001600160a01b0381166000908152600860205260408120548015610ea6576001600160a01b0383166000908152600860205260409020610e666001836139b8565b81548110610e8457634e487b7160e01b600052603260045260246000fd5b60009182526020909120015464010000000090046001600160e01b0316610ea9565b60005b6001600160e01b03169392505050565b3360009081526001602090815260408083206001600160a01b038616845290915281205482811015610f3b5760405162461bcd60e51b815260206004820152602560248201527f45524332303a2064656372656173656420616c6c6f77616e63652062656c6f77604482015264207a65726f60d81b606482015260840161068a565b610f483385858403611fe5565b5060019392505050565b60006001600160a01b0383163014156110b657336000908152600a602052604081205460ff166002811115610f9757634e487b7160e01b600052602160045260246000fd5b1461100a5760405162461bcd60e51b815260206004820152603760248201527f596f75206861766520616e6f74686572206163746976652070726f636573732c60448201527f20706c656173652066696e697368206974206669727374000000000000000000606482015260840161068a565b611016335b8484612109565b336000908152600a602052604090819020805460ff19166001178155905161104191600301906137ad565b6040805191829003909120336000908152600a60205291909120600201546001600160a01b031661106f3390565b6001600160a01b03167f2dc24880b34b2026fb1cd0231e65ef42ca1c78e4efdd9711b7629740206bfa46856040516110a991815260200190565b60405180910390a461078e565b61078e3361100f565b8342111561110f5760405162461bcd60e51b815260206004820152601d60248201527f4552433230566f7465733a207369676e61747572652065787069726564000000604482015260640161068a565b604080517fe48329057bfd03d55e49b547132e39cffd9c1820ad7b9d4c5307691425d15adf60208201526001600160a01b038816918101919091526060810186905260808101859052600090611189906111819060a0016040516020818303038152906040528051906020012061279b565b8585856127e9565b905061119481612811565b86146111e25760405162461bcd60e51b815260206004820152601960248201527f4552433230566f7465733a20696e76616c6964206e6f6e636500000000000000604482015260640161068a565b6111ec8188612630565b50505050505050565b834211156112455760405162461bcd60e51b815260206004820152601d60248201527f45524332305065726d69743a206578706972656420646561646c696e65000000604482015260640161068a565b60007f00000000000000000000000000000000000000000000000000000000000000008888886112748c612811565b6040805160208101969096526001600160a01b0394851690860152929091166060840152608083015260a082015260c0810186905260e00160405160208183030381529060405280519060200120905060006112cf8261279b565b905060006112df828787876127e9565b9050896001600160a01b0316816001600160a01b0316146113425760405162461bcd60e51b815260206004820152601e60248201527f45524332305065726d69743a20696e76616c6964207369676e61747572650000604482015260640161068a565b61134d8a8a8a611fe5565b50505050505050505050565b336000908152600c602052604090205460ff1615156001146113c95760405162461bcd60e51b815260206004820152602360248201527f4f6e6c792076616c696461746f722063616e2063616c6c2074686973206d65746044820152621a1bd960ea1b606482015260840161068a565b60026001600160a01b0383166000908152600a602052604090205460ff16600281111561140657634e487b7160e01b600052602160045260246000fd5b146114535760405162461bcd60e51b815260206004820152601860248201527f43616e6e6f742076616c69646174652064656c69766172790000000000000000604482015260640161068a565b8015611490576001600160a01b0382166000908152600a60205260408120600501805460019290611485908490613980565b909155506114c29050565b6001600160a01b0382166000908152600a602052604081206006018054600192906114bc908490613980565b90915550505b6001600160a01b038083166000908152600a602090815260408083206002908101549094168352600b9091529020546114fb9190613998565b6001600160a01b0383166000908152600a60205260409020600501541115611804576001600160a01b038083166000818152600a6020818152604080842060028101549096168452600b82528320600190810154948452919052909201546115639190613998565b6001600160a01b038085166000908152600a60209081526040808320600201549093168252600b815282822083518154608093810282018401909552606081018581529596509294611611949192849284918401828280156115ee57602002820191906000526020600020905b81546001600160a01b031681526001909101906020018083116115d0575b505050505081526020016001820154815260200160028201548152505083612839565b6001600160a01b038086166000818152600a602081815260408084206002808201549097168552600b83529084209095015493835252600190920154929350909161165c9190613998565b6001600160a01b038681166000908152600a60205260409081902060020154905163a9059cbb60e01b81529116600482015260248101829052909150309063a9059cbb90604401602060405180830381600087803b1580156116bd57600080fd5b505af11580156116d1573d6000803e3d6000fd5b505050506040513d601f19601f820116820180604052508101906116f591906136a7565b506001600160a01b0385166000908152600a602052604090206001015461173490309083906117259086906139b8565b61172f91906139b8565b61293b565b6001600160a01b038086166000818152600a6020526040908190206002810154915191909316927f936acf07f9d71277f73d74c43435f18ac3df682d3020a9206a454735db68a7a99161178d91600301906001906138e6565b60405180910390a36001600160a01b0385166000908152600a60205260408120805460ff19168155600181018290556002810180546001600160a01b0319169055906117dc6003830182613227565b6117ea600483016000613227565b600582016000905560068201600090555050505050610b10565b6001600160a01b038083166000908152600a602090815260408083206002908101549094168352600b90915290205461183d9190613998565b6001600160a01b0383166000908152600a602052604090206006015410610b10576001600160a01b038083166000818152600a6020818152604080842060028101549096168452600b82528320600190810154948452919052909201546118a49190613998565b6001600160a01b038085166000908152600a60209081526040808320600201549093168252600b815282822083518154608093810282018401909552606081018581529596509294611950949192849284918401828280156115ee576020028201919060005260206000209081546001600160a01b031681526001909101906020018083116115d057505050505081526020016001820154815260200160028201548152505083612839565b6001600160a01b0385166000908152600a6020526040902060010154909150309063a9059cbb9086906119849085906139b8565b6040516001600160e01b031960e085901b1681526001600160a01b0390921660048301526024820152604401602060405180830381600087803b1580156119ca57600080fd5b505af11580156119de573d6000803e3d6000fd5b505050506040513d601f19601f82011682018060405250810190611a0291906136a7565b506001600160a01b038085166000818152600a60205260408082206002810154915191909416937f936acf07f9d71277f73d74c43435f18ac3df682d3020a9206a454735db68a7a992611a5a926003909201916138e6565b60405180910390a36001600160a01b0384166000908152600a60205260408120805460ff19168155600181018290556002810180546001600160a01b031916905590611aa96003830182613227565b611ab7600483016000613227565b5060006005820181905560069091015550505050565b60408051808201909152600080825260208201526001600160a01b0383166000908152600860205260409020805463ffffffff8416908110611b1f57634e487b7160e01b600052603260045260246000fd5b60009182526020918290206040805180820190915291015463ffffffff8116825264010000000090046001600160e01b0316918101919091529392505050565b6005546001600160a01b03610100909104163314611b8f5760405162461bcd60e51b815260040161068a9061390a565b6001600160a01b038116611bf45760405162461bcd60e51b815260206004820152602660248201527f4f776e61626c653a206e6577206f776e657220697320746865207a65726f206160448201526564647265737360d01b606482015260840161068a565b610c0f816126c6565b600a60205260009081526040902080546001820154600283015460038401805460ff9094169492936001600160a01b039092169291611c3b906139cf565b80601f0160208091040260200160405190810160405280929190818152602001828054611c67906139cf565b8015611cb45780601f10611c8957610100808354040283529160200191611cb4565b820191906000526020600020905b815481529060010190602001808311611c9757829003601f168201915b505050505090806004018054611cc9906139cf565b80601f0160208091040260200160405190810160405280929190818152602001828054611cf5906139cf565b8015611d425780601f10611d1757610100808354040283529160200191611d42565b820191906000526020600020905b815481529060010190602001808311611d2557829003601f168201915b5050505050908060050154908060060154905087565b611d628282611de8565b6002546001600160e01b031015611dd45760405162461bcd60e51b815260206004820152603060248201527f4552433230566f7465733a20746f74616c20737570706c79207269736b73206f60448201526f766572666c6f77696e6720766f74657360801b606482015260840161068a565b611de26009611edb83612945565b50505050565b6001600160a01b038216611e3e5760405162461bcd60e51b815260206004820152601f60248201527f45524332303a206d696e7420746f20746865207a65726f206164647265737300604482015260640161068a565b611e4a60008383612ae8565b8060026000828254611e5c9190613980565b90915550506001600160a01b03821660009081526020819052604081208054839290611e89908490613980565b90915550506040518181526001600160a01b038316906000907fddf252ad1be2c89b69c2b068fc378daa952ba7f163c4a11628f55a4df523b3ef9060200160405180910390a3610b1060008383612b33565b6000610a958284613980565b60006001600160e01b03821115611f505760405162461bcd60e51b815260206004820152602760248201527f53616665436173743a2076616c756520646f65736e27742066697420696e20326044820152663234206269747360c81b606482015260840161068a565b5090565b600063ffffffff821115611f505760405162461bcd60e51b815260206004820152602660248201527f53616665436173743a2076616c756520646f65736e27742066697420696e203360448201526532206269747360d01b606482015260840161068a565b505050565b611fb9611fca84610be4565b611fd384610be4565b83612b3e565b6000610a9582846139b8565b6001600160a01b0383166120475760405162461bcd60e51b8152602060048201526024808201527f45524332303a20617070726f76652066726f6d20746865207a65726f206164646044820152637265737360e01b606482015260840161068a565b6001600160a01b0382166120a85760405162461bcd60e51b815260206004820152602260248201527f45524332303a20617070726f766520746f20746865207a65726f206164647265604482015261737360f01b606482015260840161068a565b6001600160a01b0383811660008181526001602090815260408083209487168084529482529182902085905590518481527f8c5be1e5ebec7d5bd14f71427d1e84f3dd0314c0f7b2291e5b200ac8c7c3b925910160405180910390a3505050565b6001600160a01b03831661216d5760405162461bcd60e51b815260206004820152602560248201527f45524332303a207472616e736665722066726f6d20746865207a65726f206164604482015264647265737360d81b606482015260840161068a565b6001600160a01b0382166121cf5760405162461bcd60e51b815260206004820152602360248201527f45524332303a207472616e7366657220746f20746865207a65726f206164647260448201526265737360e81b606482015260840161068a565b6121da838383612ae8565b6001600160a01b038316600090815260208190526040902054818110156122525760405162461bcd60e51b815260206004820152602660248201527f45524332303a207472616e7366657220616d6f756e7420657863656564732062604482015265616c616e636560d01b606482015260840161068a565b6001600160a01b03808516600090815260208190526040808220858503905591851681529081208054849290612289908490613980565b92505081905550826001600160a01b0316846001600160a01b03167fddf252ad1be2c89b69c2b068fc378daa952ba7f163c4a11628f55a4df523b3ef846040516122d591815260200190565b60405180910390a3611de2848484612b33565b60007f000000000000000000000000000000000000000000000000000000000000000046141561233957507f0000000000000000000000000000000000000000000000000000000000000000610658565b50604080517f00000000000000000000000000000000000000000000000000000000000000006020808301919091527f0000000000000000000000000000000000000000000000000000000000000000828401527f000000000000000000000000000000000000000000000000000000000000000060608301524660808301523060a0808401919091528351808403909101815260c09092019092528051910120610658565b8154600090815b818110156124515760006123fa8284612c7b565b90508486828154811061241d57634e487b7160e01b600052603260045260246000fd5b60009182526020909120015463ffffffff16111561243d5780925061244b565b612448816001613980565b91505b506123e6565b81156124a357846124636001846139b8565b8154811061248157634e487b7160e01b600052603260045260246000fd5b60009182526020909120015464010000000090046001600160e01b03166124a6565b60005b6001600160e01b031695945050505050565b60055460ff166125015760405162461bcd60e51b815260206004820152601460248201527314185d5cd8589b194e881b9bdd081c185d5cd95960621b604482015260640161068a565b6005805460ff191690557f5db9ee0a495bf2e6ff9c91a7834c1ba4fdd244a5e8aa4e537bd38aeae4b073aa335b6040516001600160a01b03909116815260200160405180910390a1565b610b108282611d58565b60005b81811015611fb957600c600084848481811061258457634e487b7160e01b600052603260045260246000fd5b90506020020160208101906125999190613326565b6001600160a01b0316815260208101919091526040016000205460ff1661261e576001600c60008585858181106125e057634e487b7160e01b600052603260045260246000fd5b90506020020160208101906125f59190613326565b6001600160a01b031681526020810191909152604001600020805460ff19169115159190911790555b8061262881613a04565b915050612558565b600061263b83610be4565b9050600061265e846001600160a01b031660009081526020819052604090205490565b6001600160a01b0385811660008181526007602052604080822080546001600160a01b031916898616908117909155905194955093928616927f3134e8a2e6d97e929a7e54011ea5485d7d196dd5f0ba4d4ef95803e8e3fc257f9190a4611de2828483612b3e565b600580546001600160a01b03838116610100818102610100600160a81b031985161790945560405193909204169182907f8be0079c531659141344cd1fd0a4f28419497f9722a3daafe3b4186f6b6457e090600090a35050565b60055460ff16156127665760405162461bcd60e51b815260206004820152601060248201526f14185d5cd8589b194e881c185d5cd95960821b604482015260640161068a565b6005805460ff191660011790557f62e78cea01bee320cd4e420270b5ea74000d11b0c9f74754ebdbfc544b05a25861252e3390565b6000610c346127a86122e8565b8360405161190160f01b6020820152602281018390526042810182905260009060620160405160208183030381529060405280519060200120905092915050565b60008060006127fa87878787612c96565b9150915061280781612d83565b5095945050505050565b6001600160a01b03811660009081526006602052604090208054600181018255905b50919050565b8151516000908190819061284d9085613998565b905060005b8551518110156129315785518051309163a9059cbb918490811061288657634e487b7160e01b600052603260045260246000fd5b6020026020010151846040518363ffffffff1660e01b81526004016128c09291906001600160a01b03929092168252602082015260400190565b602060405180830381600087803b1580156128da57600080fd5b505af11580156128ee573d6000803e3d6000fd5b505050506040513d601f19601f8201168201806040525081019061291291906136a7565b5061291d8284613980565b92508061292981613a04565b915050612852565b5090949350505050565b610b108282612f86565b82546000908190801561299e578561295e6001836139b8565b8154811061297c57634e487b7160e01b600052603260045260246000fd5b60009182526020909120015464010000000090046001600160e01b03166129a1565b60005b6001600160e01b031692506129ba83858763ffffffff16565b9150600081118015612a06575043866129d46001846139b8565b815481106129f257634e487b7160e01b600052603260045260246000fd5b60009182526020909120015463ffffffff16145b15612a7457612a1482611ee7565b86612a206001846139b8565b81548110612a3e57634e487b7160e01b600052603260045260246000fd5b9060005260206000200160000160046101000a8154816001600160e01b0302191690836001600160e01b03160217905550612adf565b856040518060400160405280612a8943611f54565b63ffffffff168152602001612a9d85611ee7565b6001600160e01b0390811690915282546001810184556000938452602093849020835194909301519091166401000000000263ffffffff909316929092179101555b50935093915050565b60055460ff1615612b2e5760405162461bcd60e51b815260206004820152601060248201526f14185d5cd8589b194e881c185d5cd95960821b604482015260640161068a565b611fb9565b611fb9838383611fbe565b816001600160a01b0316836001600160a01b031614158015612b605750600081115b15611fb9576001600160a01b03831615612bee576001600160a01b03831660009081526008602052604081208190612b9b90611fd985612945565b91509150846001600160a01b03167fdec2bacdd2f05b59de34da9b523dff8be42e5e38e818c82fdb0bae774387a7248383604051612be3929190918252602082015260400190565b60405180910390a250505b6001600160a01b03821615611fb9576001600160a01b03821660009081526008602052604081208190612c2490611edb85612945565b91509150836001600160a01b03167fdec2bacdd2f05b59de34da9b523dff8be42e5e38e818c82fdb0bae774387a7248383604051612c6c929190918252602082015260400190565b60405180910390a25050505050565b6000612c8a6002848418613998565b610a9590848416613980565b6000807f7fffffffffffffffffffffffffffffff5d576e7357a4501ddfe92f46681b20a0831115612ccd5750600090506003612d7a565b8460ff16601b14158015612ce557508460ff16601c14155b15612cf65750600090506004612d7a565b6040805160008082526020820180845289905260ff881692820192909252606081018690526080810185905260019060a0016020604051602081039080840390855afa158015612d4a573d6000803e3d6000fd5b5050604051601f1901519150506001600160a01b038116612d7357600060019250925050612d7a565b9150600090505b94509492505050565b6000816004811115612da557634e487b7160e01b600052602160045260246000fd5b1415612db057610c0f565b6001816004811115612dd257634e487b7160e01b600052602160045260246000fd5b1415612e205760405162461bcd60e51b815260206004820152601860248201527f45434453413a20696e76616c6964207369676e61747572650000000000000000604482015260640161068a565b6002816004811115612e4257634e487b7160e01b600052602160045260246000fd5b1415612e905760405162461bcd60e51b815260206004820152601f60248201527f45434453413a20696e76616c6964207369676e6174757265206c656e67746800604482015260640161068a565b6003816004811115612eb257634e487b7160e01b600052602160045260246000fd5b1415612f0b5760405162461bcd60e51b815260206004820152602260248201527f45434453413a20696e76616c6964207369676e6174757265202773272076616c604482015261756560f01b606482015260840161068a565b6004816004811115612f2d57634e487b7160e01b600052602160045260246000fd5b1415610c0f5760405162461bcd60e51b815260206004820152602260248201527f45434453413a20696e76616c6964207369676e6174757265202776272076616c604482015261756560f01b606482015260840161068a565b612f908282612f9e565b611de26009611fd983612945565b6001600160a01b038216612ffe5760405162461bcd60e51b815260206004820152602160248201527f45524332303a206275726e2066726f6d20746865207a65726f206164647265736044820152607360f81b606482015260840161068a565b61300a82600083612ae8565b6001600160a01b0382166000908152602081905260409020548181101561307e5760405162461bcd60e51b815260206004820152602260248201527f45524332303a206275726e20616d6f756e7420657863656564732062616c616e604482015261636560f01b606482015260840161068a565b6001600160a01b03831660009081526020819052604081208383039055600280548492906130ad9084906139b8565b90915550506040518281526000906001600160a01b038516907fddf252ad1be2c89b69c2b068fc378daa952ba7f163c4a11628f55a4df523b3ef9060200160405180910390a3611fb983600084612b33565b82805461310b906139cf565b90600052602060002090601f01602090048101928261312d5760008555613173565b82601f1061314657805160ff1916838001178555613173565b82800160010185558215613173579182015b82811115613173578251825591602001919060010190613158565b50611f5092915061325f565b828054828255906000526020600020908101928215613173579160200282015b8281111561317357825182546001600160a01b0319166001600160a01b0390911617825560209092019160019091019061319f565b828054828255906000526020600020908101928215613173579160200282015b828111156131735781546001600160a01b0319166001600160a01b038435161782556020909201916001909101906131f4565b508054613233906139cf565b6000825580601f106132455750610c0f565b601f016020900490600052602060002090810190610c0f91905b5b80821115611f505760008155600101613260565b80356001600160a01b0381168114610c0057600080fd5b60008083601f84011261329c578182fd5b50813567ffffffffffffffff8111156132b3578182fd5b6020830191508360208260051b85010111156132ce57600080fd5b9250929050565b60008083601f8401126132e6578182fd5b50813567ffffffffffffffff8111156132fd578182fd5b6020830191508360208285010111156132ce57600080fd5b803560ff81168114610c0057600080fd5b600060208284031215613337578081fd5b610a9582613274565b60008060408385031215613352578081fd5b61335b83613274565b915061336960208401613274565b90509250929050565b600080600060608486031215613386578081fd5b61338f84613274565b925061339d60208501613274565b9150604084013590509250925092565b600080600080600080600060e0888a0312156133c7578283fd5b6133d088613274565b96506133de60208901613274565b955060408801359450606088013593506133fa60808901613315565b925060a0880135915060c0880135905092959891949750929550565b60008060008060006080868803121561342d578081fd5b61343686613274565b9450602086013567ffffffffffffffff811115613451578182fd5b61345d8882890161328b565b9699909850959660408101359660609091013595509350505050565b6000806040838503121561348b578182fd5b61349483613274565b915060208301356134a481613a35565b809150509250929050565b6000806000806000606086880312156134c6578081fd5b6134cf86613274565b9450602086013567ffffffffffffffff808211156134eb578283fd5b6134f789838a016132d5565b9096509450604088013591508082111561350f578283fd5b5061351c888289016132d5565b969995985093965092949392505050565b6000806040838503121561353f578182fd5b61354883613274565b946020939093013593505050565b6000806000806000806080878903121561356e578182fd5b61357787613274565b955060208701359450604087013567ffffffffffffffff8082111561359a578384fd5b6135a68a838b016132d5565b909650945060608901359150808211156135be578384fd5b506135cb89828a016132d5565b979a9699509497509295939492505050565b60008060008060008060c087890312156135f5578182fd5b6135fe87613274565b9550602087013594506040870135935061361a60608801613315565b92506080870135915060a087013590509295509295509295565b60008060408385031215613646578182fd5b61364f83613274565b9150602083013563ffffffff811681146134a4578182fd5b60008060208385031215613679578182fd5b823567ffffffffffffffff81111561368f578283fd5b61369b8582860161328b565b90969095509350505050565b6000602082840312156136b8578081fd5b8151610a9581613a35565b6000602082840312156136d4578081fd5b5035919050565b60008151808452815b81811015613700576020818501810151868301820152016136e4565b818111156137115782602083870101525b50601f01601f19169290920160200192915050565b60008154613733816139cf565b808552602060018381168015613750576001811461376457613792565b60ff19851688840152604088019550613792565b866000528260002060005b8581101561378a5781548a820186015290830190840161376f565b890184019650505b505050505092915050565b6000828483379101908152919050565b60008083546137bb816139cf565b600182811680156137d357600181146137e457613810565b60ff19841687528287019450613810565b8786526020808720875b858110156138075781548a8201529084019082016137ee565b50505082870194505b50929695505050505050565b60006003891061383a57634e487b7160e01b81526021600452602481fd5b888252602082018890526001600160a01b038716604083015260e060608301819052613868908301876136db565b828103608084015261387a81876136db565b60a0840195909552505060c0015295945050505050565b60006020825282602083015282846040840137818301604090810191909152601f909201601f19160101919050565b600060208252610a9560208301846136db565b600060208252610a956020830184613726565b6000604082526138f96040830185613726565b905082151560208301529392505050565b6020808252818101527f4f776e61626c653a2063616c6c6572206973206e6f7420746865206f776e6572604082015260600190565b60208082526021908201527f4f6e6c7920736572766963652063616e2063616c6c2074686973206d6574686f6040820152601960fa1b606082015260800190565b6000821982111561399357613993613a1f565b500190565b6000826139b357634e487b7160e01b81526012600452602481fd5b500490565b6000828210156139ca576139ca613a1f565b500390565b600181811c908216806139e357607f821691505b6020821081141561283357634e487b7160e01b600052602260045260246000fd5b6000600019821415613a1857613a18613a1f565b5060010190565b634e487b7160e01b600052601160045260246000fd5b8015158114610c0f57600080fdfea2646970667358221220a858724004c6fa7cec90c12b5f23b48c0db54b98df6e54c1dd3c3588488a2de764736f6c63430008030033dec2bacdd2f05b59de34da9b523dff8be42e5e38e818c82fdb0bae774387a724",
  "immutableReferences": {
    "1518": [
      {
        "length": 32,
        "start": 4681
      }
    ],
    "2164": [
      {
        "length": 32,
        "start": 8981
      }
    ],
    "2166": [
      {
        "length": 32,
        "start": 8940
      }
    ],
    "2168": [
      {
        "length": 32,
        "start": 9066
      }
    ],
    "2170": [
      {
        "length": 32,
        "start": 9103
      }
    ],
    "2172": [
      {
        "length": 32,
        "start": 9024
      }
    ]
  },
  "source": "// SPDX-License-Identifier: MIT\npragma solidity ^0.8.3;\n\nimport \"@openzeppelin/contracts/token/ERC20/ERC20.sol\";\nimport \"@openzeppelin/contracts/security/Pausable.sol\";\nimport \"@openzeppelin/contracts/access/Ownable.sol\";\nimport \"@openzeppelin/contracts/token/ERC20/extensions/draft-ERC20Permit.sol\";\nimport \"@openzeppelin/contracts/token/ERC20/extensions/ERC20Votes.sol\";\n\n\ncontract YandaToken is ERC20, Pausable, Ownable, ERC20Permit, ERC20Votes {\n    enum State { AWAITING_TRANSFER, AWAITING_TERMINATION, AWAITING_VALIDATION }\n    struct Process {\n        State state;\n        uint cost;\n        address service;\n        string productId;\n        string productData;\n        uint validations;\n        uint failedValidations;\n    }\n    struct Service {\n        address[] validators;\n        uint validationShare;\n        uint commissionShare;\n    }\n    mapping(address => Process) public processes;\n    mapping(address => Service) public services;\n    mapping(address => bool) public validators;\n\n    event Deposit(\n        address indexed customer,\n        address indexed service,\n        string indexed productId,\n        uint256 weiAmount\n    );\n    event Action(\n        address indexed customer,\n        address indexed service,\n        string indexed productId,\n        string data\n    );\n    event Terminate(\n        address indexed customer,\n        address indexed service,\n        string productId\n    );\n    event Complete(\n        address indexed customer,\n        address indexed service, \n        string productId,\n        bool success\n    );\n\n    modifier onlyService() {\n        require(services[msg.sender].validationShare > 0, \"Only service can call this method\");\n        _;\n    }\n\n    modifier onlyValidator() {\n        require(validators[msg.sender] == true, \"Only validator can call this method\");\n        _;\n    }\n\n    constructor() ERC20(\"YandaToken\", \"YND\") ERC20Permit(\"YandaToken\") {\n        _mint(msg.sender, 100000 * 10 ** decimals());\n    }\n\n    function pause() public onlyOwner {\n        _pause();\n    }\n\n    function unpause() public onlyOwner {\n        _unpause();\n    }\n\n    function mint(address to, uint256 amount) public onlyOwner {\n        _mint(to, amount);\n    }\n\n    function _beforeTokenTransfer(address from, address to, uint256 amount)\n        internal\n        whenNotPaused\n        override\n    {\n        super._beforeTokenTransfer(from, to, amount);\n    }\n\n    // The following functions are overrides required by Solidity.\n\n    function _afterTokenTransfer(address from, address to, uint256 amount)\n        internal\n        override(ERC20, ERC20Votes)\n    {\n        super._afterTokenTransfer(from, to, amount);\n    }\n\n    function _mint(address to, uint256 amount)\n        internal\n        override(ERC20, ERC20Votes)\n    {\n        super._mint(to, amount);\n    }\n\n    function _burn(address account, uint256 amount)\n        internal\n        override(ERC20, ERC20Votes)\n    {\n        super._burn(account, amount);\n    }\n    \n    function transfer(address recipient, uint256 amount) public virtual override returns (bool) {\n        if(recipient == address(this)) {\n            require(\n                processes[msg.sender].state == State.AWAITING_TRANSFER,\n                \"You have another active process, please finish it first\"\n            );\n\n            _transfer(_msgSender(), recipient, amount);\n            processes[msg.sender].state = State.AWAITING_TERMINATION;\n\n            emit Deposit(\n                _msgSender(),\n                processes[msg.sender].service,\n                processes[msg.sender].productId,\n                amount\n            );\n        } else {\n            _transfer(_msgSender(), recipient, amount);\n        }\n        return true;\n    }\n\n    function _updateValidatorsMapping(address[] calldata new_validators) internal {\n        for(uint i=0; i < new_validators.length; i++) {\n            if(!validators[new_validators[i]]) {\n                validators[new_validators[i]] = true;\n            }\n        }\n    }\n\n    function addService(address service, address[] calldata vList, uint vShare, uint cShare)\n        public\n        onlyOwner\n    {\n        services[service] = Service({\n            validators: vList,\n            validationShare: vShare,\n            commissionShare: cShare\n        });\n        _updateValidatorsMapping(vList);\n    }\n\n    function setValidators(address[] calldata vList) public onlyService {\n        services[msg.sender].validators = vList;\n        _updateValidatorsMapping(vList);\n    }\n\n    function createProcess(address service, uint256 amount, string calldata productId, string calldata data)\n        public returns(bool)\n    {\n        if(services[service].validationShare > 0) {\n            processes[msg.sender] = Process({\n                state: State.AWAITING_TRANSFER,\n                cost: amount,\n                service: service,\n                productId: productId,\n                productData: data,\n                validations: 0,\n                failedValidations: 0\n            });\n            return true;\n        } else {\n            return false;\n        }\n    }\n\n    function declareAction(address customer, string calldata productId, string calldata data)\n        public onlyService\n    {\n        emit Action(customer, msg.sender, productId, data);\n    }\n\n    function startTermination(address customer) public onlyService {\n        require(processes[customer].state == State.AWAITING_TERMINATION, \"Cannot start termination\");\n        processes[customer].state = State.AWAITING_VALIDATION;\n        emit Terminate(customer, msg.sender, processes[customer].productId);\n    }\n\n    function _rewardValidators(Service memory service, uint256 amount) internal returns(uint256) {\n        uint256 rewards_sum = 0;\n        uint256 reward = amount / service.validators.length;\n\n        for(uint i=0; i < service.validators.length; i++) {\n            this.transfer(payable(service.validators[i]), reward);\n            rewards_sum += reward;\n        }\n        return rewards_sum;\n    }\n\n    function validateTermination(address customer, bool passed) public onlyValidator {\n        require(processes[customer].state == State.AWAITING_VALIDATION, \"Cannot validate delivary\");\n        \n        if(passed) {\n            processes[customer].validations += 1;\n        } else {\n            processes[customer].failedValidations += 1;\n        }\n\n        if(processes[customer].validations > services[processes[customer].service].validators.length / 2) {\n            // Reward validators\n            uint256 reward_amount = processes[customer].cost / services[processes[customer].service].validationShare;\n            uint256 executed_amount = _rewardValidators(services[processes[customer].service], reward_amount);\n            // Pay service commission\n            uint256 commission_amount = processes[customer].cost / services[processes[customer].service].commissionShare;\n            this.transfer(payable(processes[customer].service), commission_amount);\n            // Burn remaining funds\n            _burn(address(this), processes[customer].cost - executed_amount - commission_amount);\n            emit Complete(customer, processes[customer].service, processes[customer].productId, true);\n            // Delete completed process\n            delete processes[customer];\n        } else {\n            if(processes[customer].failedValidations >= services[processes[customer].service].validators.length / 2) {\n                // Reward validators\n                uint256 reward_amount = processes[customer].cost / services[processes[customer].service].validationShare;\n                uint256 executed_amount = _rewardValidators(services[processes[customer].service], reward_amount);\n                // Make refund\n                this.transfer(payable(customer), processes[customer].cost - executed_amount);\n                emit Complete(customer, processes[customer].service, processes[customer].productId, false);\n                // Delete completed process\n                delete processes[customer];\n            }\n        }\n    }\n\n}\n",
  "sourcePath": "/Users/daniel/Code/Work/Yanda/celo/network/contracts/YandaToken.sol",
  "compiler": {
    "name": "solc",
    "version": "0.8.3+commit.8d00100c.Emscripten.clang"
  },
  "schemaVersion": "3.4.3",
  "updatedAt": "2021-10-22T10:38:15.365Z",
  "networkType": "ethereum",
  "devdoc": {
    "kind": "dev",
    "methods": {
      "DOMAIN_SEPARATOR()": {
        "details": "See {IERC20Permit-DOMAIN_SEPARATOR}."
      },
      "allowance(address,address)": {
        "details": "See {IERC20-allowance}."
      },
      "approve(address,uint256)": {
        "details": "See {IERC20-approve}. Requirements: - `spender` cannot be the zero address."
      },
      "balanceOf(address)": {
        "details": "See {IERC20-balanceOf}."
      },
      "checkpoints(address,uint32)": {
        "details": "Get the `pos`-th checkpoint for `account`."
      },
      "decimals()": {
        "details": "Returns the number of decimals used to get its user representation. For example, if `decimals` equals `2`, a balance of `505` tokens should be displayed to a user as `5.05` (`505 / 10 ** 2`). Tokens usually opt for a value of 18, imitating the relationship between Ether and Wei. This is the value {ERC20} uses, unless this function is overridden; NOTE: This information is only used for _display_ purposes: it in no way affects any of the arithmetic of the contract, including {IERC20-balanceOf} and {IERC20-transfer}."
      },
      "decreaseAllowance(address,uint256)": {
        "details": "Atomically decreases the allowance granted to `spender` by the caller. This is an alternative to {approve} that can be used as a mitigation for problems described in {IERC20-approve}. Emits an {Approval} event indicating the updated allowance. Requirements: - `spender` cannot be the zero address. - `spender` must have allowance for the caller of at least `subtractedValue`."
      },
      "delegate(address)": {
        "details": "Delegate votes from the sender to `delegatee`."
      },
      "delegateBySig(address,uint256,uint256,uint8,bytes32,bytes32)": {
        "details": "Delegates votes from signer to `delegatee`"
      },
      "delegates(address)": {
        "details": "Get the address `account` is currently delegating to."
      },
      "getPastTotalSupply(uint256)": {
        "details": "Retrieve the `totalSupply` at the end of `blockNumber`. Note, this value is the sum of all balances. It is but NOT the sum of all the delegated votes! Requirements: - `blockNumber` must have been already mined"
      },
      "getPastVotes(address,uint256)": {
        "details": "Retrieve the number of votes for `account` at the end of `blockNumber`. Requirements: - `blockNumber` must have been already mined"
      },
      "getVotes(address)": {
        "details": "Gets the current votes balance for `account`"
      },
      "increaseAllowance(address,uint256)": {
        "details": "Atomically increases the allowance granted to `spender` by the caller. This is an alternative to {approve} that can be used as a mitigation for problems described in {IERC20-approve}. Emits an {Approval} event indicating the updated allowance. Requirements: - `spender` cannot be the zero address."
      },
      "name()": {
        "details": "Returns the name of the token."
      },
      "nonces(address)": {
        "details": "See {IERC20Permit-nonces}."
      },
      "numCheckpoints(address)": {
        "details": "Get number of checkpoints for `account`."
      },
      "owner()": {
        "details": "Returns the address of the current owner."
      },
      "paused()": {
        "details": "Returns true if the contract is paused, and false otherwise."
      },
      "permit(address,address,uint256,uint256,uint8,bytes32,bytes32)": {
        "details": "See {IERC20Permit-permit}."
      },
      "renounceOwnership()": {
        "details": "Leaves the contract without owner. It will not be possible to call `onlyOwner` functions anymore. Can only be called by the current owner. NOTE: Renouncing ownership will leave the contract without an owner, thereby removing any functionality that is only available to the owner."
      },
      "symbol()": {
        "details": "Returns the symbol of the token, usually a shorter version of the name."
      },
      "totalSupply()": {
        "details": "See {IERC20-totalSupply}."
      },
      "transfer(address,uint256)": {
        "details": "See {IERC20-transfer}. Requirements: - `recipient` cannot be the zero address. - the caller must have a balance of at least `amount`."
      },
      "transferFrom(address,address,uint256)": {
        "details": "See {IERC20-transferFrom}. Emits an {Approval} event indicating the updated allowance. This is not required by the EIP. See the note at the beginning of {ERC20}. Requirements: - `sender` and `recipient` cannot be the zero address. - `sender` must have a balance of at least `amount`. - the caller must have allowance for ``sender``'s tokens of at least `amount`."
      },
      "transferOwnership(address)": {
        "details": "Transfers ownership of the contract to a new account (`newOwner`). Can only be called by the current owner."
      }
    },
    "version": 1
  },
  "userdoc": {
    "kind": "user",
    "methods": {},
    "version": 1
  }
}