{
  "contractName": "YandaToken",
  "abi": [
    {
      "inputs": [],
      "stateMutability": "nonpayable",
      "type": "constructor"
    },
    {
      "anonymous": false,
      "inputs": [
        {
          "indexed": true,
          "internalType": "address",
          "name": "customer",
          "type": "address"
        },
        {
          "indexed": true,
          "internalType": "address",
          "name": "service",
          "type": "address"
        },
        {
          "indexed": true,
          "internalType": "bytes32",
          "name": "productId",
          "type": "bytes32"
        },
        {
          "indexed": false,
          "internalType": "string",
          "name": "data",
          "type": "string"
        }
      ],
      "name": "Action",
      "type": "event"
    },
    {
      "anonymous": false,
      "inputs": [
        {
          "indexed": true,
          "internalType": "address",
          "name": "owner",
          "type": "address"
        },
        {
          "indexed": true,
          "internalType": "address",
          "name": "spender",
          "type": "address"
        },
        {
          "indexed": false,
          "internalType": "uint256",
          "name": "value",
          "type": "uint256"
        }
      ],
      "name": "Approval",
      "type": "event"
    },
    {
      "anonymous": false,
      "inputs": [
        {
          "indexed": true,
          "internalType": "address",
          "name": "customer",
          "type": "address"
        },
        {
          "indexed": true,
          "internalType": "address",
          "name": "service",
          "type": "address"
        },
        {
          "indexed": true,
          "internalType": "bytes32",
          "name": "productId",
          "type": "bytes32"
        },
        {
          "indexed": false,
          "internalType": "bool",
          "name": "success",
          "type": "bool"
        }
      ],
      "name": "Complete",
      "type": "event"
    },
    {
      "anonymous": false,
      "inputs": [
        {
          "indexed": true,
          "internalType": "address",
          "name": "delegator",
          "type": "address"
        },
        {
          "indexed": true,
          "internalType": "address",
          "name": "fromDelegate",
          "type": "address"
        },
        {
          "indexed": true,
          "internalType": "address",
          "name": "toDelegate",
          "type": "address"
        }
      ],
      "name": "DelegateChanged",
      "type": "event"
    },
    {
      "anonymous": false,
      "inputs": [
        {
          "indexed": true,
          "internalType": "address",
          "name": "delegate",
          "type": "address"
        },
        {
          "indexed": false,
          "internalType": "uint256",
          "name": "previousBalance",
          "type": "uint256"
        },
        {
          "indexed": false,
          "internalType": "uint256",
          "name": "newBalance",
          "type": "uint256"
        }
      ],
      "name": "DelegateVotesChanged",
      "type": "event"
    },
    {
      "anonymous": false,
      "inputs": [
        {
          "indexed": true,
          "internalType": "address",
          "name": "customer",
          "type": "address"
        },
        {
          "indexed": true,
          "internalType": "address",
          "name": "service",
          "type": "address"
        },
        {
          "indexed": true,
          "internalType": "bytes32",
          "name": "productId",
          "type": "bytes32"
        },
        {
          "indexed": false,
          "internalType": "uint256",
          "name": "weiAmount",
          "type": "uint256"
        }
      ],
      "name": "Deposit",
      "type": "event"
    },
    {
      "anonymous": false,
      "inputs": [
        {
          "indexed": true,
          "internalType": "address",
          "name": "previousOwner",
          "type": "address"
        },
        {
          "indexed": true,
          "internalType": "address",
          "name": "newOwner",
          "type": "address"
        }
      ],
      "name": "OwnershipTransferred",
      "type": "event"
    },
    {
      "anonymous": false,
      "inputs": [
        {
          "indexed": false,
          "internalType": "address",
          "name": "account",
          "type": "address"
        }
      ],
      "name": "Paused",
      "type": "event"
    },
    {
      "anonymous": false,
      "inputs": [
        {
          "indexed": true,
          "internalType": "address",
          "name": "customer",
          "type": "address"
        },
        {
          "indexed": true,
          "internalType": "address",
          "name": "service",
          "type": "address"
        },
        {
          "indexed": true,
          "internalType": "bytes32",
          "name": "productId",
          "type": "bytes32"
        }
      ],
      "name": "Terminate",
      "type": "event"
    },
    {
      "anonymous": false,
      "inputs": [
        {
          "indexed": true,
          "internalType": "address",
          "name": "from",
          "type": "address"
        },
        {
          "indexed": true,
          "internalType": "address",
          "name": "to",
          "type": "address"
        },
        {
          "indexed": false,
          "internalType": "uint256",
          "name": "value",
          "type": "uint256"
        }
      ],
      "name": "Transfer",
      "type": "event"
    },
    {
      "anonymous": false,
      "inputs": [
        {
          "indexed": false,
          "internalType": "address",
          "name": "account",
          "type": "address"
        }
      ],
      "name": "Unpaused",
      "type": "event"
    },
    {
      "inputs": [],
      "name": "DOMAIN_SEPARATOR",
      "outputs": [
        {
          "internalType": "bytes32",
          "name": "",
          "type": "bytes32"
        }
      ],
      "stateMutability": "view",
      "type": "function",
      "constant": true
    },
    {
      "inputs": [
        {
          "internalType": "address",
          "name": "owner",
          "type": "address"
        },
        {
          "internalType": "address",
          "name": "spender",
          "type": "address"
        }
      ],
      "name": "allowance",
      "outputs": [
        {
          "internalType": "uint256",
          "name": "",
          "type": "uint256"
        }
      ],
      "stateMutability": "view",
      "type": "function",
      "constant": true
    },
    {
      "inputs": [
        {
          "internalType": "address",
          "name": "spender",
          "type": "address"
        },
        {
          "internalType": "uint256",
          "name": "amount",
          "type": "uint256"
        }
      ],
      "name": "approve",
      "outputs": [
        {
          "internalType": "bool",
          "name": "",
          "type": "bool"
        }
      ],
      "stateMutability": "nonpayable",
      "type": "function"
    },
    {
      "inputs": [
        {
          "internalType": "address",
          "name": "account",
          "type": "address"
        }
      ],
      "name": "balanceOf",
      "outputs": [
        {
          "internalType": "uint256",
          "name": "",
          "type": "uint256"
        }
      ],
      "stateMutability": "view",
      "type": "function",
      "constant": true
    },
    {
      "inputs": [
        {
          "internalType": "address",
          "name": "account",
          "type": "address"
        },
        {
          "internalType": "uint32",
          "name": "pos",
          "type": "uint32"
        }
      ],
      "name": "checkpoints",
      "outputs": [
        {
          "components": [
            {
              "internalType": "uint32",
              "name": "fromBlock",
              "type": "uint32"
            },
            {
              "internalType": "uint224",
              "name": "votes",
              "type": "uint224"
            }
          ],
          "internalType": "struct ERC20Votes.Checkpoint",
          "name": "",
          "type": "tuple"
        }
      ],
      "stateMutability": "view",
      "type": "function",
      "constant": true
    },
    {
      "inputs": [],
      "name": "decimals",
      "outputs": [
        {
          "internalType": "uint8",
          "name": "",
          "type": "uint8"
        }
      ],
      "stateMutability": "view",
      "type": "function",
      "constant": true
    },
    {
      "inputs": [
        {
          "internalType": "address",
          "name": "spender",
          "type": "address"
        },
        {
          "internalType": "uint256",
          "name": "subtractedValue",
          "type": "uint256"
        }
      ],
      "name": "decreaseAllowance",
      "outputs": [
        {
          "internalType": "bool",
          "name": "",
          "type": "bool"
        }
      ],
      "stateMutability": "nonpayable",
      "type": "function"
    },
    {
      "inputs": [
        {
          "internalType": "address",
          "name": "delegatee",
          "type": "address"
        }
      ],
      "name": "delegate",
      "outputs": [],
      "stateMutability": "nonpayable",
      "type": "function"
    },
    {
      "inputs": [
        {
          "internalType": "address",
          "name": "delegatee",
          "type": "address"
        },
        {
          "internalType": "uint256",
          "name": "nonce",
          "type": "uint256"
        },
        {
          "internalType": "uint256",
          "name": "expiry",
          "type": "uint256"
        },
        {
          "internalType": "uint8",
          "name": "v",
          "type": "uint8"
        },
        {
          "internalType": "bytes32",
          "name": "r",
          "type": "bytes32"
        },
        {
          "internalType": "bytes32",
          "name": "s",
          "type": "bytes32"
        }
      ],
      "name": "delegateBySig",
      "outputs": [],
      "stateMutability": "nonpayable",
      "type": "function"
    },
    {
      "inputs": [
        {
          "internalType": "address",
          "name": "account",
          "type": "address"
        }
      ],
      "name": "delegates",
      "outputs": [
        {
          "internalType": "address",
          "name": "",
          "type": "address"
        }
      ],
      "stateMutability": "view",
      "type": "function",
      "constant": true
    },
    {
      "inputs": [
        {
          "internalType": "address",
          "name": "",
          "type": "address"
        }
      ],
      "name": "depositingProducts",
      "outputs": [
        {
          "internalType": "bytes32",
          "name": "",
          "type": "bytes32"
        }
      ],
      "stateMutability": "view",
      "type": "function",
      "constant": true
    },
    {
      "inputs": [
        {
          "internalType": "uint256",
          "name": "blockNumber",
          "type": "uint256"
        }
      ],
      "name": "getPastTotalSupply",
      "outputs": [
        {
          "internalType": "uint256",
          "name": "",
          "type": "uint256"
        }
      ],
      "stateMutability": "view",
      "type": "function",
      "constant": true
    },
    {
      "inputs": [
        {
          "internalType": "address",
          "name": "account",
          "type": "address"
        },
        {
          "internalType": "uint256",
          "name": "blockNumber",
          "type": "uint256"
        }
      ],
      "name": "getPastVotes",
      "outputs": [
        {
          "internalType": "uint256",
          "name": "",
          "type": "uint256"
        }
      ],
      "stateMutability": "view",
      "type": "function",
      "constant": true
    },
    {
      "inputs": [
        {
          "internalType": "address",
          "name": "account",
          "type": "address"
        }
      ],
      "name": "getVotes",
      "outputs": [
        {
          "internalType": "uint256",
          "name": "",
          "type": "uint256"
        }
      ],
      "stateMutability": "view",
      "type": "function",
      "constant": true
    },
    {
      "inputs": [
        {
          "internalType": "address",
          "name": "spender",
          "type": "address"
        },
        {
          "internalType": "uint256",
          "name": "addedValue",
          "type": "uint256"
        }
      ],
      "name": "increaseAllowance",
      "outputs": [
        {
          "internalType": "bool",
          "name": "",
          "type": "bool"
        }
      ],
      "stateMutability": "nonpayable",
      "type": "function"
    },
    {
      "inputs": [],
      "name": "name",
      "outputs": [
        {
          "internalType": "string",
          "name": "",
          "type": "string"
        }
      ],
      "stateMutability": "view",
      "type": "function",
      "constant": true
    },
    {
      "inputs": [
        {
          "internalType": "address",
          "name": "owner",
          "type": "address"
        }
      ],
      "name": "nonces",
      "outputs": [
        {
          "internalType": "uint256",
          "name": "",
          "type": "uint256"
        }
      ],
      "stateMutability": "view",
      "type": "function",
      "constant": true
    },
    {
      "inputs": [
        {
          "internalType": "address",
          "name": "account",
          "type": "address"
        }
      ],
      "name": "numCheckpoints",
      "outputs": [
        {
          "internalType": "uint32",
          "name": "",
          "type": "uint32"
        }
      ],
      "stateMutability": "view",
      "type": "function",
      "constant": true
    },
    {
      "inputs": [],
      "name": "owner",
      "outputs": [
        {
          "internalType": "address",
          "name": "",
          "type": "address"
        }
      ],
      "stateMutability": "view",
      "type": "function",
      "constant": true
    },
    {
      "inputs": [],
      "name": "paused",
      "outputs": [
        {
          "internalType": "bool",
          "name": "",
          "type": "bool"
        }
      ],
      "stateMutability": "view",
      "type": "function",
      "constant": true
    },
    {
      "inputs": [
        {
          "internalType": "address",
          "name": "owner",
          "type": "address"
        },
        {
          "internalType": "address",
          "name": "spender",
          "type": "address"
        },
        {
          "internalType": "uint256",
          "name": "value",
          "type": "uint256"
        },
        {
          "internalType": "uint256",
          "name": "deadline",
          "type": "uint256"
        },
        {
          "internalType": "uint8",
          "name": "v",
          "type": "uint8"
        },
        {
          "internalType": "bytes32",
          "name": "r",
          "type": "bytes32"
        },
        {
          "internalType": "bytes32",
          "name": "s",
          "type": "bytes32"
        }
      ],
      "name": "permit",
      "outputs": [],
      "stateMutability": "nonpayable",
      "type": "function"
    },
    {
      "inputs": [
        {
          "internalType": "address",
          "name": "",
          "type": "address"
        },
        {
          "internalType": "bytes32",
          "name": "",
          "type": "bytes32"
        }
      ],
      "name": "processes",
      "outputs": [
        {
          "internalType": "enum YandaToken.State",
          "name": "state",
          "type": "uint8"
        },
        {
          "internalType": "uint256",
          "name": "cost",
          "type": "uint256"
        },
        {
          "internalType": "address",
          "name": "service",
          "type": "address"
        },
        {
          "internalType": "bytes32",
          "name": "productId",
          "type": "bytes32"
        },
        {
          "internalType": "string",
          "name": "productData",
          "type": "string"
        },
        {
          "internalType": "uint256",
          "name": "validations",
          "type": "uint256"
        },
        {
          "internalType": "uint256",
          "name": "failedValidations",
          "type": "uint256"
        }
      ],
      "stateMutability": "view",
      "type": "function",
      "constant": true
    },
    {
      "inputs": [],
      "name": "renounceOwnership",
      "outputs": [],
      "stateMutability": "nonpayable",
      "type": "function"
    },
    {
      "inputs": [
        {
          "internalType": "address",
          "name": "",
          "type": "address"
        }
      ],
      "name": "services",
      "outputs": [
        {
          "internalType": "uint256",
          "name": "validationShare",
          "type": "uint256"
        },
        {
          "internalType": "uint256",
          "name": "commissionShare",
          "type": "uint256"
        },
        {
          "internalType": "uint256",
          "name": "validatorVersion",
          "type": "uint256"
        }
      ],
      "stateMutability": "view",
      "type": "function",
      "constant": true
    },
    {
      "inputs": [],
      "name": "symbol",
      "outputs": [
        {
          "internalType": "string",
          "name": "",
          "type": "string"
        }
      ],
      "stateMutability": "view",
      "type": "function",
      "constant": true
    },
    {
      "inputs": [],
      "name": "totalSupply",
      "outputs": [
        {
          "internalType": "uint256",
          "name": "",
          "type": "uint256"
        }
      ],
      "stateMutability": "view",
      "type": "function",
      "constant": true
    },
    {
      "inputs": [
        {
          "internalType": "address",
          "name": "sender",
          "type": "address"
        },
        {
          "internalType": "address",
          "name": "recipient",
          "type": "address"
        },
        {
          "internalType": "uint256",
          "name": "amount",
          "type": "uint256"
        }
      ],
      "name": "transferFrom",
      "outputs": [
        {
          "internalType": "bool",
          "name": "",
          "type": "bool"
        }
      ],
      "stateMutability": "nonpayable",
      "type": "function"
    },
    {
      "inputs": [
        {
          "internalType": "address",
          "name": "newOwner",
          "type": "address"
        }
      ],
      "name": "transferOwnership",
      "outputs": [],
      "stateMutability": "nonpayable",
      "type": "function"
    },
    {
      "inputs": [
        {
          "internalType": "address",
          "name": "",
          "type": "address"
        }
      ],
      "name": "validators",
      "outputs": [
        {
          "internalType": "uint256",
          "name": "requests",
          "type": "uint256"
        },
        {
          "internalType": "uint256",
          "name": "validations",
          "type": "uint256"
        }
      ],
      "stateMutability": "view",
      "type": "function",
      "constant": true
    },
    {
      "inputs": [],
      "name": "pause",
      "outputs": [],
      "stateMutability": "nonpayable",
      "type": "function"
    },
    {
      "inputs": [],
      "name": "unpause",
      "outputs": [],
      "stateMutability": "nonpayable",
      "type": "function"
    },
    {
      "inputs": [
        {
          "internalType": "address",
          "name": "to",
          "type": "address"
        },
        {
          "internalType": "uint256",
          "name": "amount",
          "type": "uint256"
        }
      ],
      "name": "mint",
      "outputs": [],
      "stateMutability": "nonpayable",
      "type": "function"
    },
    {
      "inputs": [
        {
          "internalType": "address",
          "name": "recipient",
          "type": "address"
        },
        {
          "internalType": "uint256",
          "name": "amount",
          "type": "uint256"
        }
      ],
      "name": "transfer",
      "outputs": [
        {
          "internalType": "bool",
          "name": "",
          "type": "bool"
        }
      ],
      "stateMutability": "nonpayable",
      "type": "function"
    },
    {
      "inputs": [
        {
          "internalType": "address",
          "name": "service",
          "type": "address"
        },
        {
          "internalType": "address[]",
          "name": "vList",
          "type": "address[]"
        },
        {
          "internalType": "uint256",
          "name": "vShare",
          "type": "uint256"
        },
        {
          "internalType": "uint256",
          "name": "cShare",
          "type": "uint256"
        },
        {
          "internalType": "uint256",
          "name": "vVer",
          "type": "uint256"
        }
      ],
      "name": "addService",
      "outputs": [],
      "stateMutability": "nonpayable",
      "type": "function"
    },
    {
      "inputs": [
        {
          "internalType": "address[]",
          "name": "vList",
          "type": "address[]"
        }
      ],
      "name": "setValidators",
      "outputs": [],
      "stateMutability": "nonpayable",
      "type": "function"
    },
    {
      "inputs": [
        {
          "internalType": "uint256",
          "name": "vVer",
          "type": "uint256"
        }
      ],
      "name": "setValidatorVer",
      "outputs": [],
      "stateMutability": "nonpayable",
      "type": "function"
    },
    {
      "inputs": [
        {
          "internalType": "address",
          "name": "service",
          "type": "address"
        },
        {
          "internalType": "uint256",
          "name": "amount",
          "type": "uint256"
        },
        {
          "internalType": "bytes32",
          "name": "productId",
          "type": "bytes32"
        },
        {
          "internalType": "string",
          "name": "data",
          "type": "string"
        }
      ],
      "name": "createProcess",
      "outputs": [],
      "stateMutability": "nonpayable",
      "type": "function"
    },
    {
      "inputs": [
        {
          "internalType": "address",
          "name": "customer",
          "type": "address"
        },
        {
          "internalType": "bytes32",
          "name": "productId",
          "type": "bytes32"
        },
        {
          "internalType": "string",
          "name": "data",
          "type": "string"
        }
      ],
      "name": "declareAction",
      "outputs": [],
      "stateMutability": "nonpayable",
      "type": "function"
    },
    {
      "inputs": [
        {
          "internalType": "address",
          "name": "customer",
          "type": "address"
        },
        {
          "internalType": "bytes32",
          "name": "productId",
          "type": "bytes32"
        }
      ],
      "name": "startTermination",
      "outputs": [],
      "stateMutability": "nonpayable",
      "type": "function"
    },
    {
      "inputs": [
        {
          "internalType": "address",
          "name": "customer",
          "type": "address"
        },
        {
          "internalType": "bytes32",
          "name": "productId",
          "type": "bytes32"
        },
        {
          "internalType": "bool",
          "name": "passed",
          "type": "bool"
        }
      ],
      "name": "validateTermination",
      "outputs": [],
      "stateMutability": "nonpayable",
      "type": "function"
    },
    {
      "inputs": [
        {
          "internalType": "uint256",
          "name": "amount",
          "type": "uint256"
        }
      ],
      "name": "claimToken",
      "outputs": [
        {
          "internalType": "bool",
          "name": "",
          "type": "bool"
        }
      ],
      "stateMutability": "nonpayable",
      "type": "function"
    }
  ],
  "bytecode": "0x6101406040527f6e71edae12b1b97f4d1f60370fef10105fa2faae0126114a169c64845d6126c9610120523480156200003757600080fd5b506040518060400160405280600a8152602001692cb0b73230aa37b5b2b760b11b81525080604051806040016040528060018152602001603160f81b8152506040518060400160405280600a8152602001692cb0b73230aa37b5b2b760b11b8152506040518060400160405280600381526020016216539160ea1b8152508160039080519060200190620000cd929190620008bf565b508051620000e3906004906020840190620008bf565b50506005805460ff1916905550620000fb3362000192565b815160208084019190912082519183019190912060c082905260e08190524660a0527f8b73c3c69bb8fe3d512ecc4cf759cc79239f7b179b0ffacaa9a75d522b39400f6200014b818484620001ec565b60805261010052506200018c935033925062000168915050601290565b6200017590600a620009c3565b620001869064174876e80062000aae565b62000236565b62000b3d565b600580546001600160a01b03838116610100818102610100600160a81b031985161790945560405193909204169182907f8be0079c531659141344cd1fd0a4f28419497f9722a3daafe3b4186f6b6457e090600090a35050565b6040805160208101859052908101839052606081018290524660808201523060a082015260009060c0016040516020818303038152906040528051906020012090505b9392505050565b6200024d82826200025160201b620021171760201c565b5050565b6200026882826200030860201b620021a71760201c565b6001600160e01b036200027c620004058216565b1115620002e95760405162461bcd60e51b815260206004820152603060248201527f4552433230566f7465733a20746f74616c20737570706c79207269736b73206f60448201526f766572666c6f77696e6720766f74657360801b60648201526084015b60405180910390fd5b6200030260096200229a6200040b60201b178362000419565b50505050565b6001600160a01b038216620003605760405162461bcd60e51b815260206004820152601f60248201527f45524332303a206d696e7420746f20746865207a65726f2061646472657373006044820152606401620002e0565b6200036e60008383620005ef565b80600260008282546200038291906200095b565b90915550506001600160a01b03821660009081526020819052604081208054839290620003b19084906200095b565b90915550506040518181526001600160a01b038316906000907fddf252ad1be2c89b69c2b068fc378daa952ba7f163c4a11628f55a4df523b3ef9060200160405180910390a36200024d6000838362000654565b60025490565b60006200022f82846200095b565b8254600090819080156200047757856200043560018362000ad0565b815481106200045457634e487b7160e01b600052603260045260246000fd5b60009182526020909120015464010000000090046001600160e01b03166200047a565b60005b6001600160e01b031692506200049183858760201c565b9150600081118015620004e157504386620004ae60018462000ad0565b81548110620004cd57634e487b7160e01b600052603260045260246000fd5b60009182526020909120015463ffffffff16145b156200056157620004fd826200066c60201b620022a61760201c565b866200050b60018462000ad0565b815481106200052a57634e487b7160e01b600052603260045260246000fd5b9060005260206000200160000160046101000a8154816001600160e01b0302191690836001600160e01b03160217905550620005e6565b8560405180604001604052806200058343620006db60201b620023131760201c565b63ffffffff168152602001620005a4856200066c60201b620022a61760201c565b6001600160e01b0390811690915282546001810184556000938452602093849020835194909301519091166401000000000263ffffffff909316929092179101555b50935093915050565b60055460ff1615620006375760405162461bcd60e51b815260206004820152601060248201526f14185d5cd8589b194e881c185d5cd95960821b6044820152606401620002e0565b6200064f8383836200064f60201b620017211760201c565b505050565b6200064f8383836200074260201b620023781760201c565b60006001600160e01b03821115620006d75760405162461bcd60e51b815260206004820152602760248201527f53616665436173743a2076616c756520646f65736e27742066697420696e20326044820152663234206269747360c81b6064820152608401620002e0565b5090565b600063ffffffff821115620006d75760405162461bcd60e51b815260206004820152602660248201527f53616665436173743a2076616c756520646f65736e27742066697420696e203360448201526532206269747360d01b6064820152608401620002e0565b6200075a8383836200064f60201b620017211760201c565b6001600160a01b038381166000908152600760205260408082205485841683529120546200064f92918216911683818314801590620007995750600081115b156200064f576001600160a01b0383161562000826576001600160a01b038316600090815260086020908152604082208291620007e39190620008b1901b62002393178562000419565b91509150846001600160a01b031660008051602062004abd83398151915283836040516200081b929190918252602082015260400190565b60405180910390a250505b6001600160a01b038216156200064f576001600160a01b0382166000908152600860209081526040822082916200086a91906200040b901b6200229a178562000419565b91509150836001600160a01b031660008051602062004abd8339815191528383604051620008a2929190918252602082015260400190565b60405180910390a25050505050565b60006200022f828462000ad0565b828054620008cd9062000aea565b90600052602060002090601f016020900481019282620008f157600085556200093c565b82601f106200090c57805160ff19168380011785556200093c565b828001600101855582156200093c579182015b828111156200093c5782518255916020019190600101906200091f565b50620006d79291505b80821115620006d7576000815560010162000945565b6000821982111562000971576200097162000b27565b500190565b80825b60018086116200098a5750620009ba565b8187048211156200099f576200099f62000b27565b80861615620009ad57918102915b9490941c93800262000979565b94509492505050565b60006200022f60001960ff851684600082620009e2575060016200022f565b81620009f1575060006200022f565b816001811462000a0a576002811462000a155762000a49565b60019150506200022f565b60ff84111562000a295762000a2962000b27565b6001841b91508482111562000a425762000a4262000b27565b506200022f565b5060208310610133831016604e8410600b841016171562000a81575081810a8381111562000a7b5762000a7b62000b27565b6200022f565b62000a90848484600162000976565b80860482111562000aa55762000aa562000b27565b02949350505050565b600081600019048311821515161562000acb5762000acb62000b27565b500290565b60008282101562000ae55762000ae562000b27565b500390565b600181811c9082168062000aff57607f821691505b6020821081141562000b2157634e487b7160e01b600052602260045260246000fd5b50919050565b634e487b7160e01b600052601160045260246000fd5b60805160a05160c05160e0516101005161012051613f3062000b8d6000396000611df901526000612783015260006127d2015260006127ad0152600061272f015260006127580152613f306000f3fe608060405234801561001057600080fd5b50600436106102535760003560e01c806373b4bd6f11610146578063a9059cbb116100c3578063dd62ed3e11610087578063dd62ed3e1461054b578063e4a7c46f14610584578063ebd30af4146105a4578063f1127ed8146105ca578063f2fde38b14610607578063fa52c7d81461061a57610253565b8063a9059cbb146104ec578063a9e7c2e5146104ff578063c0f99d6714610512578063c3cda52014610525578063d505accf1461053857610253565b80638e539e8c1161010a5780638e539e8c146104985780639300c926146104ab57806395d89b41146104be5780639ab24eb0146104c6578063a457c2d7146104d957610253565b806373b4bd6f146104405780637ecebe00146104535780638456cb591461046657806389bf146a1461046e5780638da5cb5b1461048157610253565b80633f4ba83a116101d457806363de06f81161019857806363de06f8146103875780636d966d011461039a5780636fcfff45146103e757806370a082311461040f578063715018a61461043857610253565b80633f4ba83a1461032357806340c10f191461032b578063587cde1e1461033e5780635c19a95c146103695780635c975abb1461037c57610253565b806323b872dd1161021b57806323b872dd146102d3578063313ce567146102e65780633644e515146102f557806339509351146102fd5780633a46b1a81461031057610253565b806304f32b5d1461025857806306fdde031461026d578063095ea7b31461028b5780630e53e633146102ae57806318160ddd146102c1575b600080fd5b61026b610266366004613abf565b610656565b005b6102756106e2565b6040516102829190613d7a565b60405180910390f35b61029e610299366004613a53565b610775565b6040519015158152602001610282565b61026b6102bc366004613a53565b61078b565b6002545b604051908152602001610282565b61029e6102e1366004613939565b610952565b60405160128152602001610282565b6102c56109fc565b61029e61030b366004613a53565b610a0b565b6102c561031e366004613a53565b610a47565b61026b610ac1565b61026b610339366004613a53565b610afb565b61035161034c3660046138c9565b610b39565b6040516001600160a01b039091168152602001610282565b61026b6103773660046138c9565b610b5a565b60055460ff1661029e565b61026b610395366004613c6b565b610b67565b6103cc6103a83660046138c9565b600c6020526000908152604090206001810154600282015460039092015490919083565b60408051938452602084019290925290820152606001610282565b6103fa6103f53660046138c9565b610bab565b60405163ffffffff9091168152602001610282565b6102c561041d3660046138c9565b6001600160a01b031660009081526020819052604090205490565b61026b610bd3565b61026b61044e366004613b19565b610c0d565b6102c56104613660046138c9565b610ef4565b61026b610f12565b61026b61047c366004613a7e565b610f4a565b61035160055461010090046001600160a01b031690565b6102c56104a6366004613c6b565b611726565b61026b6104b9366004613c0f565b611782565b6102756117cb565b6102c56104d43660046138c9565b6117da565b61029e6104e7366004613a53565b61186f565b61029e6104fa366004613a53565b611908565b61029e61050d366004613c6b565b611a75565b61026b6105203660046139e6565b611b96565b61026b610533366004613b81565b611c6f565b61026b610546366004613979565b611da5565b6102c5610559366004613901565b6001600160a01b03918216600090815260016020908152604080832093909416825291909152205490565b6102c56105923660046138c9565b600b6020526000908152604090205481565b6105b76105b2366004613a53565b611f09565b6040516102829796959493929190613ce6565b6105dd6105d8366004613bda565b611fe7565b60408051825163ffffffff1681526020928301516001600160e01b03169281019290925201610282565b61026b6106153660046138c9565b612079565b6106416106283660046138c9565b600d602052600090815260409020805460019091015482565b60408051928352602083019190915201610282565b336000908152600c602052604090206001015461068e5760405162461bcd60e51b815260040161068590613dc2565b60405180910390fd5b82336001600160a01b0316856001600160a01b03167fb67fab32200b6a6d186136689c0b4c4072ae0bd5dd17b98fb8105d1b9747939985856040516106d4929190613d4b565b60405180910390a450505050565b6060600380546106f190613e71565b80601f016020809104026020016040519081016040528092919081815260200182805461071d90613e71565b801561076a5780601f1061073f5761010080835404028352916020019161076a565b820191906000526020600020905b81548152906001019060200180831161074d57829003601f168201915b505050505090505b90565b600061078233848461239f565b50600192915050565b336000908152600c60205260409020600101546107ba5760405162461bcd60e51b815260040161068590613dc2565b60016001600160a01b0383166000908152600a6020908152604080832085845290915290205460ff16600381111561080257634e487b7160e01b600052602160045260246000fd5b1461084f5760405162461bcd60e51b815260206004820152601860248201527f43616e6e6f74207374617274207465726d696e6174696f6e00000000000000006044820152606401610685565b6001600160a01b038281166000908152600a6020908152604080832085845282528083208054600260ff199091168117825501549093168252600c8152908290208251815460a09381028201840190945260808101848152610916949193849284918401828280156108ea57602002820191906000526020600020905b81546001600160a01b031681526001909101906020018083116108cc575b5050505050815260200160018201548152602001600282015481526020016003820154815250506124c3565b604051819033906001600160a01b038516907f3dc016b59ffc70a71e689716c312b2b7415f9e4f11803ff7cc3730801811497a90600090a45050565b600061095f84848461254c565b6001600160a01b0384166000908152600160209081526040808320338452909152902054828110156109e45760405162461bcd60e51b815260206004820152602860248201527f45524332303a207472616e7366657220616d6f756e74206578636565647320616044820152676c6c6f77616e636560c01b6064820152608401610685565b6109f1853385840361239f565b506001949350505050565b6000610a0661272b565b905090565b3360008181526001602090815260408083206001600160a01b03871684529091528120549091610782918590610a42908690613e03565b61239f565b6000438210610a985760405162461bcd60e51b815260206004820152601f60248201527f4552433230566f7465733a20626c6f636b206e6f7420796574206d696e6564006044820152606401610685565b6001600160a01b0383166000908152600860205260409020610aba9083612822565b9392505050565b6005546001600160a01b03610100909104163314610af15760405162461bcd60e51b815260040161068590613d8d565b610af96128fb565b565b6005546001600160a01b03610100909104163314610b2b5760405162461bcd60e51b815260040161068590613d8d565b610b35828261298e565b5050565b6001600160a01b03808216600090815260076020526040902054165b919050565b610b643382612998565b50565b336000908152600c6020526040902060010154610b965760405162461bcd60e51b815260040161068590613dc2565b336000908152600c6020526040902060030155565b6001600160a01b038116600090815260086020526040812054610bcd90612313565b92915050565b6005546001600160a01b03610100909104163314610c035760405162461bcd60e51b815260040161068590613d8d565b610af96000612a2e565b6001600160a01b0385166000908152600c6020526040902060010154610c815760405162461bcd60e51b815260206004820152602360248201527f52657175657374656420736572766963652061646472657373206e6f7420666f6044820152621d5b9960ea1b6064820152608401610685565b336000908152600a602090815260408083208684529091529020600201546001600160a01b031615610d0c5760405162461bcd60e51b815260206004820152602e60248201527f50726f636573732077697468207370656369666965642070726f64756374496460448201526d08185b1c9958591e48195e1a5cdd60921b6064820152608401610685565b6040805160e081019091528060008152602001858152602001866001600160a01b0316815260200184815260200183838080601f016020809104026020016040519081016040528093929190818152602001838380828437600092018290525093855250505060208083018290526040928301829052338252600a815282822087835290522081518154829060ff19166001836003811115610dbe57634e487b7160e01b600052602160045260246000fd5b0217905550602082810151600183015560408301516002830180546001600160a01b0319166001600160a01b039092169190911790556060830151600383015560808301518051610e1592600485019201906136b5565b5060a0820151600582015560c090910151600690910155336000908152600a60209081526040808320600b835281842054845290915281205460ff166003811115610e7057634e487b7160e01b600052602160045260246000fd5b1415610ede57336000908152600a60209081526040808320600b83528184205484529091528120805460ff19168155600181018290556002810180546001600160a01b03191690556003810182905590610ecd6004830182613735565b506000600582018190556006909101555b5050336000908152600b60205260409020555050565b6001600160a01b038116600090815260066020526040812054610bcd565b6005546001600160a01b03610100909104163314610f425760405162461bcd60e51b815260040161068590613d8d565b610af9612a88565b336000908152600d6020526040902054610fb25760405162461bcd60e51b815260206004820152602360248201527f4f6e6c792076616c696461746f722063616e2063616c6c2074686973206d65746044820152621a1bd960ea1b6064820152608401610685565b60026001600160a01b0384166000908152600a6020908152604080832086845290915290205460ff166003811115610ffa57634e487b7160e01b600052602160045260246000fd5b10156110485760405162461bcd60e51b815260206004820152601860248201527f43616e6e6f742076616c69646174652064656c697661727900000000000000006044820152606401610685565b8015611090576001600160a01b0383166000908152600a602090815260408083208584529091528120600501805460019290611085908490613e03565b909155506110cd9050565b6001600160a01b0383166000908152600a6020908152604080832085845290915281206006018054600192906110c7908490613e03565b90915550505b336000908152600d6020526040812060019081018054919290916110f2908490613e03565b90915550600290506001600160a01b0384166000908152600a6020908152604080832086845290915290205460ff16600381111561114057634e487b7160e01b600052602160045260246000fd5b1415611721576001600160a01b038084166000908152600a6020908152604080832086845282528083206002908101549094168352600c9091529020546111879190613e1b565b6001600160a01b0384166000908152600a60209081526040808320868452909152902060050154111561147c576001600160a01b038381166000908152600a60209081526040808320868452808352818420805460ff1916600317815560028101549095168452600c835290832060019081015487855291909252920154909161121091613e1b565b6001600160a01b038086166000908152600a602090815260408083208884528252808320600201549093168252600c81528282208351815460a0938102820184019095526080810185815295965092946112d0949192849284918401828280156112a357602002820191906000526020600020905b81546001600160a01b03168152600190910190602001808311611285575b50505050508152602001600182015481526020016002820154815260200160038201548152505083612b03565b6001600160a01b038087166000908152600a602090815260408083208984528083528184206002808201549096168552600c8452918420909401548984529390915260010154929350916113249190613e1b565b6001600160a01b038781166000908152600a602090815260408083208a84529091529081902060020154905163a9059cbb60e01b81529116600482015260248101829052909150309063a9059cbb90604401602060405180830381600087803b15801561139057600080fd5b505af11580156113a4573d6000803e3d6000fd5b505050506040513d601f19601f820116820180604052508101906113c89190613c4f565b506001600160a01b0386166000908152600a602090815260408083208884529091529020600101546114129030908390611403908690613e5a565b61140d9190613e5a565b612d1a565b6001600160a01b038681166000818152600a602090815260408083208a84528252918290206002015491516001815289949290921692917f5c2cc6518d5891ba2f9c21f49d712982ba12450a2a8adeb21e4a41f85a995b70910160405180910390a4505050611721565b6001600160a01b038084166000908152600a6020908152604080832086845282528083206002908101549094168352600c9091529020546114bd9190613e1b565b6001600160a01b0384166000908152600a6020908152604080832086845290915290206006015410611721576001600160a01b038381166000908152600a60209081526040808320868452808352818420805460ff1916600317815560028101549095168452600c835290832060019081015487855291909252920154909161154591613e1b565b6001600160a01b038086166000908152600a602090815260408083208884528252808320600201549093168252600c81528282208351815460a093810282018401909552608081018581529596509294611603949192849284918401828280156112a3576020028201919060005260206000209081546001600160a01b031681526001909101906020018083116112855750505050508152602001600182015481526020016002820154815260200160038201548152505083612b03565b6001600160a01b0386166000908152600a60209081526040808320888452909152902060010154909150309063a9059cbb908790611642908590613e5a565b6040516001600160e01b031960e085901b1681526001600160a01b0390921660048301526024820152604401602060405180830381600087803b15801561168857600080fd5b505af115801561169c573d6000803e3d6000fd5b505050506040513d601f19601f820116820180604052508101906116c09190613c4f565b506001600160a01b038581166000818152600a60209081526040808320898452825280832060020154905192835288941692917f5c2cc6518d5891ba2f9c21f49d712982ba12450a2a8adeb21e4a41f85a995b70910160405180910390a450505b505050565b60004382106117775760405162461bcd60e51b815260206004820152601f60248201527f4552433230566f7465733a20626c6f636b206e6f7420796574206d696e6564006044820152606401610685565b610bcd600983612822565b336000908152600c60205260409020600101546117b15760405162461bcd60e51b815260040161068590613dc2565b336000908152600c60205260409020611721908383613771565b6060600480546106f190613e71565b6001600160a01b038116600090815260086020526040812054801561185c576001600160a01b038316600090815260086020526040902061181c600183613e5a565b8154811061183a57634e487b7160e01b600052603260045260246000fd5b60009182526020909120015464010000000090046001600160e01b031661185f565b60005b6001600160e01b03169392505050565b3360009081526001602090815260408083206001600160a01b0386168452909152812054828110156118f15760405162461bcd60e51b815260206004820152602560248201527f45524332303a2064656372656173656420616c6c6f77616e63652062656c6f77604482015264207a65726f60d81b6064820152608401610685565b6118fe338585840361239f565b5060019392505050565b60006001600160a01b038316301415611a6c57336000908152600a60209081526040808320600b835281842054845290915281205460ff16600381111561195f57634e487b7160e01b600052602160045260246000fd5b146119dc5760405162461bcd60e51b815260206004820152604160248201527f596f7520646f6e277420686176652061206465706f736974206177616974696e60448201527f672070726f636573732c20706c656173652063726561746520697420666972736064820152601d60fa1b608482015260a401610685565b6119e8335b848461254c565b336000818152600a60209081526040808320600b835281842080548552908352818420805460ff19166001179055548352918290206003810154600290910154925186815290936001600160a01b0390931692917f1f0f1dee49a1720a0d98e3a0575a04dd9f143ff5e29555c3085471c1c70eed5b910160405180910390a4610782565b610782336119e1565b6040516370a0823160e01b81523360048201526000906801158e460913d000009030906370a082319060240160206040518083038186803b158015611ab957600080fd5b505afa158015611acd573d6000803e3d6000fd5b505050506040513d601f19601f82011682018060405250810190611af19190613c83565b108015611b06575068056bc75e2d6310000082105b15611b8e57611b86306001600160a01b0316638da5cb5b6040518163ffffffff1660e01b815260040160206040518083038186803b158015611b4757600080fd5b505afa158015611b5b573d6000803e3d6000fd5b505050506040513d601f19601f82011682018060405250810190611b7f91906138e5565b338461254c565b506001610b55565b506000610b55565b6005546001600160a01b03610100909104163314611bc65760405162461bcd60e51b815260040161068590613d8d565b604051806080016040528086868080602002602001604051908101604052809392919081815260200183836020028082843760009201829052509385525050506020808301879052604080840187905260609093018590526001600160a01b038a168252600c8152919020825180519192611c46928492909101906137c4565b506020820151600182015560408201516002820155606090910151600390910155505050505050565b83421115611cbf5760405162461bcd60e51b815260206004820152601d60248201527f4552433230566f7465733a207369676e617475726520657870697265640000006044820152606401610685565b604080517fe48329057bfd03d55e49b547132e39cffd9c1820ad7b9d4c5307691425d15adf60208201526001600160a01b038816918101919091526060810186905260808101859052600090611d3990611d319060a00160405160208183030381529060405280519060200120612d24565b858585612d72565b9050611d4481612d9a565b8614611d925760405162461bcd60e51b815260206004820152601960248201527f4552433230566f7465733a20696e76616c6964206e6f6e6365000000000000006044820152606401610685565b611d9c8188612998565b50505050505050565b83421115611df55760405162461bcd60e51b815260206004820152601d60248201527f45524332305065726d69743a206578706972656420646561646c696e650000006044820152606401610685565b60007f0000000000000000000000000000000000000000000000000000000000000000888888611e248c612d9a565b6040805160208101969096526001600160a01b0394851690860152929091166060840152608083015260a082015260c0810186905260e0016040516020818303038152906040528051906020012090506000611e7f82612d24565b90506000611e8f82878787612d72565b9050896001600160a01b0316816001600160a01b031614611ef25760405162461bcd60e51b815260206004820152601e60248201527f45524332305065726d69743a20696e76616c6964207369676e617475726500006044820152606401610685565b611efd8a8a8a61239f565b50505050505050505050565b600a6020908152600092835260408084209091529082529020805460018201546002830154600384015460048501805460ff9095169593946001600160a01b03909316939192611f5890613e71565b80601f0160208091040260200160405190810160405280929190818152602001828054611f8490613e71565b8015611fd15780601f10611fa657610100808354040283529160200191611fd1565b820191906000526020600020905b815481529060010190602001808311611fb457829003601f168201915b5050505050908060050154908060060154905087565b60408051808201909152600080825260208201526001600160a01b0383166000908152600860205260409020805463ffffffff841690811061203957634e487b7160e01b600052603260045260246000fd5b60009182526020918290206040805180820190915291015463ffffffff8116825264010000000090046001600160e01b0316918101919091529392505050565b6005546001600160a01b036101009091041633146120a95760405162461bcd60e51b815260040161068590613d8d565b6001600160a01b03811661210e5760405162461bcd60e51b815260206004820152602660248201527f4f776e61626c653a206e6577206f776e657220697320746865207a65726f206160448201526564647265737360d01b6064820152608401610685565b610b6481612a2e565b61212182826121a7565b6002546001600160e01b0310156121935760405162461bcd60e51b815260206004820152603060248201527f4552433230566f7465733a20746f74616c20737570706c79207269736b73206f60448201526f766572666c6f77696e6720766f74657360801b6064820152608401610685565b6121a1600961229a83612dc2565b50505050565b6001600160a01b0382166121fd5760405162461bcd60e51b815260206004820152601f60248201527f45524332303a206d696e7420746f20746865207a65726f2061646472657373006044820152606401610685565b61220960008383612f65565b806002600082825461221b9190613e03565b90915550506001600160a01b03821660009081526020819052604081208054839290612248908490613e03565b90915550506040518181526001600160a01b038316906000907fddf252ad1be2c89b69c2b068fc378daa952ba7f163c4a11628f55a4df523b3ef9060200160405180910390a3610b3560008383612fb0565b6000610aba8284613e03565b60006001600160e01b0382111561230f5760405162461bcd60e51b815260206004820152602760248201527f53616665436173743a2076616c756520646f65736e27742066697420696e20326044820152663234206269747360c81b6064820152608401610685565b5090565b600063ffffffff82111561230f5760405162461bcd60e51b815260206004820152602660248201527f53616665436173743a2076616c756520646f65736e27742066697420696e203360448201526532206269747360d01b6064820152608401610685565b61172161238484610b39565b61238d84610b39565b83612fbb565b6000610aba8284613e5a565b6001600160a01b0383166124015760405162461bcd60e51b8152602060048201526024808201527f45524332303a20617070726f76652066726f6d20746865207a65726f206164646044820152637265737360e01b6064820152608401610685565b6001600160a01b0382166124625760405162461bcd60e51b815260206004820152602260248201527f45524332303a20617070726f766520746f20746865207a65726f206164647265604482015261737360f01b6064820152608401610685565b6001600160a01b0383811660008181526001602090815260408083209487168084529482529182902085905590518481527f8c5be1e5ebec7d5bd14f71427d1e84f3dd0314c0f7b2291e5b200ac8c7c3b925910160405180910390a3505050565b60005b815151811015610b35576001600d6000846000015184815181106124fa57634e487b7160e01b600052603260045260246000fd5b60200260200101516001600160a01b03166001600160a01b0316815260200190815260200160002060000160008282546125349190613e03565b9091555081905061254481613ea6565b9150506124c6565b6001600160a01b0383166125b05760405162461bcd60e51b815260206004820152602560248201527f45524332303a207472616e736665722066726f6d20746865207a65726f206164604482015264647265737360d81b6064820152608401610685565b6001600160a01b0382166126125760405162461bcd60e51b815260206004820152602360248201527f45524332303a207472616e7366657220746f20746865207a65726f206164647260448201526265737360e81b6064820152608401610685565b61261d838383612f65565b6001600160a01b038316600090815260208190526040902054818110156126955760405162461bcd60e51b815260206004820152602660248201527f45524332303a207472616e7366657220616d6f756e7420657863656564732062604482015265616c616e636560d01b6064820152608401610685565b6001600160a01b038085166000908152602081905260408082208585039055918516815290812080548492906126cc908490613e03565b92505081905550826001600160a01b0316846001600160a01b03167fddf252ad1be2c89b69c2b068fc378daa952ba7f163c4a11628f55a4df523b3ef8460405161271891815260200190565b60405180910390a36121a1848484612fb0565b60007f000000000000000000000000000000000000000000000000000000000000000046141561277c57507f0000000000000000000000000000000000000000000000000000000000000000610772565b50604080517f00000000000000000000000000000000000000000000000000000000000000006020808301919091527f0000000000000000000000000000000000000000000000000000000000000000828401527f000000000000000000000000000000000000000000000000000000000000000060608301524660808301523060a0808401919091528351808403909101815260c09092019092528051910120610772565b8154600090815b8181101561289457600061283d82846130f8565b90508486828154811061286057634e487b7160e01b600052603260045260246000fd5b60009182526020909120015463ffffffff1611156128805780925061288e565b61288b816001613e03565b91505b50612829565b81156128e657846128a6600184613e5a565b815481106128c457634e487b7160e01b600052603260045260246000fd5b60009182526020909120015464010000000090046001600160e01b03166128e9565b60005b6001600160e01b031695945050505050565b60055460ff166129445760405162461bcd60e51b815260206004820152601460248201527314185d5cd8589b194e881b9bdd081c185d5cd95960621b6044820152606401610685565b6005805460ff191690557f5db9ee0a495bf2e6ff9c91a7834c1ba4fdd244a5e8aa4e537bd38aeae4b073aa335b6040516001600160a01b03909116815260200160405180910390a1565b610b358282612117565b60006129a383610b39565b905060006129c6846001600160a01b031660009081526020819052604090205490565b6001600160a01b0385811660008181526007602052604080822080546001600160a01b031916898616908117909155905194955093928616927f3134e8a2e6d97e929a7e54011ea5485d7d196dd5f0ba4d4ef95803e8e3fc257f9190a46121a1828483612fbb565b600580546001600160a01b03838116610100818102610100600160a81b031985161790945560405193909204169182907f8be0079c531659141344cd1fd0a4f28419497f9722a3daafe3b4186f6b6457e090600090a35050565b60055460ff1615612ace5760405162461bcd60e51b815260206004820152601060248201526f14185d5cd8589b194e881c185d5cd95960821b6044820152606401610685565b6005805460ff191660011790557f62e78cea01bee320cd4e420270b5ea74000d11b0c9f74754ebdbfc544b05a2586129713390565b60008080612b1085613113565b905060005b855151811015612d10576000306001600160a01b03166370a0823188600001518481518110612b5457634e487b7160e01b600052603260045260246000fd5b60200260200101516040518263ffffffff1660e01b8152600401612b8791906001600160a01b0391909116815260200190565b60206040518083038186803b158015612b9f57600080fd5b505afa158015612bb3573d6000803e3d6000fd5b505050506040513d601f19601f82011682018060405250810190612bd79190613c83565b90508015612cfd576000612beb8285613e1b565b612bf59088613e1b565b90506000612c2e89600001518581518110612c2057634e487b7160e01b600052603260045260246000fd5b6020026020010151836131f4565b90508015612cfa5788518051309163a9059cbb9187908110612c6057634e487b7160e01b600052603260045260246000fd5b6020026020010151836040518363ffffffff1660e01b8152600401612c9a9291906001600160a01b03929092168252602082015260400190565b602060405180830381600087803b158015612cb457600080fd5b505af1158015612cc8573d6000803e3d6000fd5b505050506040513d601f19601f82011682018060405250810190612cec9190613c4f565b50612cf78187613e03565b95505b50505b5080612d0881613ea6565b915050612b15565b5090949350505050565b610b35828261324c565b6000610bcd612d3161272b565b8360405161190160f01b6020820152602281018390526042810182905260009060620160405160208183030381529060405280519060200120905092915050565b6000806000612d8387878787613264565b91509150612d9081613351565b5095945050505050565b6001600160a01b03811660009081526006602052604090208054600181018255905b50919050565b825460009081908015612e1b5785612ddb600183613e5a565b81548110612df957634e487b7160e01b600052603260045260246000fd5b60009182526020909120015464010000000090046001600160e01b0316612e1e565b60005b6001600160e01b03169250612e3783858763ffffffff16565b9150600081118015612e8357504386612e51600184613e5a565b81548110612e6f57634e487b7160e01b600052603260045260246000fd5b60009182526020909120015463ffffffff16145b15612ef157612e91826122a6565b86612e9d600184613e5a565b81548110612ebb57634e487b7160e01b600052603260045260246000fd5b9060005260206000200160000160046101000a8154816001600160e01b0302191690836001600160e01b03160217905550612f5c565b856040518060400160405280612f0643612313565b63ffffffff168152602001612f1a856122a6565b6001600160e01b0390811690915282546001810184556000938452602093849020835194909301519091166401000000000263ffffffff909316929092179101555b50935093915050565b60055460ff1615612fab5760405162461bcd60e51b815260206004820152601060248201526f14185d5cd8589b194e881c185d5cd95960821b6044820152606401610685565b611721565b611721838383612378565b816001600160a01b0316836001600160a01b031614158015612fdd5750600081115b15611721576001600160a01b0383161561306b576001600160a01b038316600090815260086020526040812081906130189061239385612dc2565b91509150846001600160a01b03167fdec2bacdd2f05b59de34da9b523dff8be42e5e38e818c82fdb0bae774387a7248383604051613060929190918252602082015260400190565b60405180910390a250505b6001600160a01b03821615611721576001600160a01b038216600090815260086020526040812081906130a19061229a85612dc2565b91509150836001600160a01b03167fdec2bacdd2f05b59de34da9b523dff8be42e5e38e818c82fdb0bae774387a72483836040516130e9929190918252602082015260400190565b60405180910390a25050505050565b60006131076002848418613e1b565b610aba90848416613e03565b600080805b8351518110156131ed578351805130916370a08231918490811061314c57634e487b7160e01b600052603260045260246000fd5b60200260200101516040518263ffffffff1660e01b815260040161317f91906001600160a01b0391909116815260200190565b60206040518083038186803b15801561319757600080fd5b505afa1580156131ab573d6000803e3d6000fd5b505050506040513d601f19601f820116820180604052508101906131cf9190613c83565b6131d99083613e03565b9150806131e581613ea6565b915050613118565b5092915050565b6001600160a01b0382166000908152600d602052604081208054600190910154829190613222906064613e3b565b61322c9190613e1b565b9050606461323a8285613e3b565b6132449190613e1b565b949350505050565b6132568282613554565b6121a1600961239383612dc2565b6000807f7fffffffffffffffffffffffffffffff5d576e7357a4501ddfe92f46681b20a083111561329b5750600090506003613348565b8460ff16601b141580156132b357508460ff16601c14155b156132c45750600090506004613348565b6040805160008082526020820180845289905260ff881692820192909252606081018690526080810185905260019060a0016020604051602081039080840390855afa158015613318573d6000803e3d6000fd5b5050604051601f1901519150506001600160a01b03811661334157600060019250925050613348565b9150600090505b94509492505050565b600081600481111561337357634e487b7160e01b600052602160045260246000fd5b141561337e57610b64565b60018160048111156133a057634e487b7160e01b600052602160045260246000fd5b14156133ee5760405162461bcd60e51b815260206004820152601860248201527f45434453413a20696e76616c6964207369676e617475726500000000000000006044820152606401610685565b600281600481111561341057634e487b7160e01b600052602160045260246000fd5b141561345e5760405162461bcd60e51b815260206004820152601f60248201527f45434453413a20696e76616c6964207369676e6174757265206c656e677468006044820152606401610685565b600381600481111561348057634e487b7160e01b600052602160045260246000fd5b14156134d95760405162461bcd60e51b815260206004820152602260248201527f45434453413a20696e76616c6964207369676e6174757265202773272076616c604482015261756560f01b6064820152608401610685565b60048160048111156134fb57634e487b7160e01b600052602160045260246000fd5b1415610b645760405162461bcd60e51b815260206004820152602260248201527f45434453413a20696e76616c6964207369676e6174757265202776272076616c604482015261756560f01b6064820152608401610685565b6001600160a01b0382166135b45760405162461bcd60e51b815260206004820152602160248201527f45524332303a206275726e2066726f6d20746865207a65726f206164647265736044820152607360f81b6064820152608401610685565b6135c082600083612f65565b6001600160a01b038216600090815260208190526040902054818110156136345760405162461bcd60e51b815260206004820152602260248201527f45524332303a206275726e20616d6f756e7420657863656564732062616c616e604482015261636560f01b6064820152608401610685565b6001600160a01b0383166000908152602081905260408120838303905560028054849290613663908490613e5a565b90915550506040518281526000906001600160a01b038516907fddf252ad1be2c89b69c2b068fc378daa952ba7f163c4a11628f55a4df523b3ef9060200160405180910390a361172183600084612fb0565b8280546136c190613e71565b90600052602060002090601f0160209004810192826136e35760008555613729565b82601f106136fc57805160ff1916838001178555613729565b82800160010185558215613729579182015b8281111561372957825182559160200191906001019061370e565b5061230f929150613819565b50805461374190613e71565b6000825580601f106137535750610b64565b601f016020900490600052602060002090810190610b649190613819565b828054828255906000526020600020908101928215613729579160200282015b828111156137295781546001600160a01b0319166001600160a01b03843516178255602090920191600190910190613791565b828054828255906000526020600020908101928215613729579160200282015b8281111561372957825182546001600160a01b0319166001600160a01b039091161782556020909201916001909101906137e4565b5b8082111561230f576000815560010161381a565b60008083601f84011261383f578182fd5b50813567ffffffffffffffff811115613856578182fd5b6020830191508360208260051b850101111561387157600080fd5b9250929050565b60008083601f840112613889578182fd5b50813567ffffffffffffffff8111156138a0578182fd5b60208301915083602082850101111561387157600080fd5b803560ff81168114610b5557600080fd5b6000602082840312156138da578081fd5b8135610aba81613ed7565b6000602082840312156138f6578081fd5b8151610aba81613ed7565b60008060408385031215613913578081fd5b823561391e81613ed7565b9150602083013561392e81613ed7565b809150509250929050565b60008060006060848603121561394d578081fd5b833561395881613ed7565b9250602084013561396881613ed7565b929592945050506040919091013590565b600080600080600080600060e0888a031215613993578283fd5b873561399e81613ed7565b965060208801356139ae81613ed7565b955060408801359450606088013593506139ca608089016138b8565b925060a0880135915060c0880135905092959891949750929550565b60008060008060008060a087890312156139fe578182fd5b8635613a0981613ed7565b9550602087013567ffffffffffffffff811115613a24578283fd5b613a3089828a0161382e565b979a90995096976040810135976060820135975060809091013595509350505050565b60008060408385031215613a65578182fd5b8235613a7081613ed7565b946020939093013593505050565b600080600060608486031215613a92578283fd5b8335613a9d81613ed7565b9250602084013591506040840135613ab481613eec565b809150509250925092565b60008060008060608587031215613ad4578384fd5b8435613adf81613ed7565b935060208501359250604085013567ffffffffffffffff811115613b01578283fd5b613b0d87828801613878565b95989497509550505050565b600080600080600060808688031215613b30578283fd5b8535613b3b81613ed7565b94506020860135935060408601359250606086013567ffffffffffffffff811115613b64578182fd5b613b7088828901613878565b969995985093965092949392505050565b60008060008060008060c08789031215613b99578384fd5b8635613ba481613ed7565b95506020870135945060408701359350613bc0606088016138b8565b92506080870135915060a087013590509295509295509295565b60008060408385031215613bec578182fd5b8235613bf781613ed7565b9150602083013563ffffffff8116811461392e578182fd5b60008060208385031215613c21578182fd5b823567ffffffffffffffff811115613c37578283fd5b613c438582860161382e565b90969095509350505050565b600060208284031215613c60578081fd5b8151610aba81613eec565b600060208284031215613c7c578081fd5b5035919050565b600060208284031215613c94578081fd5b5051919050565b60008151808452815b81811015613cc057602081850181015186830182015201613ca4565b81811115613cd15782602083870101525b50601f01601f19169290920160200192915050565b600060048910613d0457634e487b7160e01b81526021600452602481fd5b88825287602083015260018060a01b038716604083015285606083015260e06080830152613d3560e0830186613c9b565b60a08301949094525060c0015295945050505050565b60006020825282602083015282846040840137818301604090810191909152601f909201601f19160101919050565b600060208252610aba6020830184613c9b565b6020808252818101527f4f776e61626c653a2063616c6c6572206973206e6f7420746865206f776e6572604082015260600190565b60208082526021908201527f4f6e6c7920736572766963652063616e2063616c6c2074686973206d6574686f6040820152601960fa1b606082015260800190565b60008219821115613e1657613e16613ec1565b500190565b600082613e3657634e487b7160e01b81526012600452602481fd5b500490565b6000816000190483118215151615613e5557613e55613ec1565b500290565b600082821015613e6c57613e6c613ec1565b500390565b600181811c90821680613e8557607f821691505b60208210811415612dbc57634e487b7160e01b600052602260045260246000fd5b6000600019821415613eba57613eba613ec1565b5060010190565b634e487b7160e01b600052601160045260246000fd5b6001600160a01b0381168114610b6457600080fd5b8015158114610b6457600080fdfea264697066735822122010e275a58b4c6826825b07a41aa384611c39821fc7342c8a3e8258aa47df837e64736f6c63430008030033dec2bacdd2f05b59de34da9b523dff8be42e5e38e818c82fdb0bae774387a724",
  "immutableReferences": {
    "1518": [
      {
        "length": 32,
        "start": 7673
      }
    ],
    "2164": [
      {
        "length": 32,
        "start": 10072
      }
    ],
    "2166": [
      {
        "length": 32,
        "start": 10031
      }
    ],
    "2168": [
      {
        "length": 32,
        "start": 10157
      }
    ],
    "2170": [
      {
        "length": 32,
        "start": 10194
      }
    ],
    "2172": [
      {
        "length": 32,
        "start": 10115
      }
    ]
  },
  "source": "// SPDX-License-Identifier: MIT\npragma solidity ^0.8.3;\n\nimport \"@openzeppelin/contracts/token/ERC20/ERC20.sol\";\nimport \"@openzeppelin/contracts/security/Pausable.sol\";\nimport \"@openzeppelin/contracts/access/Ownable.sol\";\nimport \"@openzeppelin/contracts/token/ERC20/extensions/draft-ERC20Permit.sol\";\nimport \"@openzeppelin/contracts/token/ERC20/extensions/ERC20Votes.sol\";\n\n\ncontract YandaToken is ERC20, Pausable, Ownable, ERC20Permit, ERC20Votes {\n    enum State { AWAITING_TRANSFER, AWAITING_TERMINATION, AWAITING_VALIDATION, COMPLETED }\n    struct Process {\n        State state;\n        uint cost;\n        address service;\n        bytes32 productId;\n        string productData;\n        uint validations;\n        uint failedValidations;\n    }\n    struct Service {\n        address[] validators;\n        uint validationShare;\n        uint commissionShare;\n        uint validatorVersion;\n    }\n    struct Validator {\n        uint requests;\n        uint validations;\n    }\n    mapping(address => mapping(bytes32 => Process)) public processes;\n    mapping(address => bytes32) public depositingProducts;\n    mapping(address => Service) public services;\n    mapping(address => Validator) public validators;\n\n    event Deposit(\n        address indexed customer,\n        address indexed service,\n        bytes32 indexed productId,\n        uint256 weiAmount\n    );\n    event Action(\n        address indexed customer,\n        address indexed service,\n        bytes32 indexed productId,\n        string data\n    );\n    event Terminate(\n        address indexed customer,\n        address indexed service,\n        bytes32 indexed productId\n    );\n    event Complete(\n        address indexed customer,\n        address indexed service, \n        bytes32 indexed productId,\n        bool success\n    );\n\n    modifier onlyService() {\n        require(services[msg.sender].validationShare > 0, \"Only service can call this method\");\n        _;\n    }\n\n    modifier onlyValidator() {\n        require(validators[msg.sender].requests > 0, \"Only validator can call this method\");\n        _;\n    }\n\n    constructor() ERC20(\"YandaToken\", \"YND\") ERC20Permit(\"YandaToken\") {\n        _mint(msg.sender, 100000000000 * 10 ** decimals());\n    }\n\n    function pause() public onlyOwner {\n        _pause();\n    }\n\n    function unpause() public onlyOwner {\n        _unpause();\n    }\n\n    function mint(address to, uint256 amount) public onlyOwner {\n        _mint(to, amount);\n    }\n\n    function _beforeTokenTransfer(address from, address to, uint256 amount)\n        internal\n        whenNotPaused\n        override\n    {\n        super._beforeTokenTransfer(from, to, amount);\n    }\n\n    // The following functions are overrides required by Solidity.\n\n    function _afterTokenTransfer(address from, address to, uint256 amount)\n        internal\n        override(ERC20, ERC20Votes)\n    {\n        super._afterTokenTransfer(from, to, amount);\n    }\n\n    function _mint(address to, uint256 amount)\n        internal\n        override(ERC20, ERC20Votes)\n    {\n        super._mint(to, amount);\n    }\n\n    function _burn(address account, uint256 amount)\n        internal\n        override(ERC20, ERC20Votes)\n    {\n        super._burn(account, amount);\n    }\n    \n    function transfer(address recipient, uint256 amount) public virtual override returns (bool) {\n        if(recipient == address(this)) {\n            require(\n                processes[msg.sender][depositingProducts[msg.sender]].state == State.AWAITING_TRANSFER,\n                \"You don't have a deposit awaiting process, please create it first\"\n            );\n\n            _transfer(_msgSender(), recipient, amount);\n            processes[msg.sender][depositingProducts[msg.sender]].state = State.AWAITING_TERMINATION;\n\n            emit Deposit(\n                _msgSender(),\n                processes[msg.sender][depositingProducts[msg.sender]].service,\n                processes[msg.sender][depositingProducts[msg.sender]].productId,\n                amount\n            );\n        } else {\n            _transfer(_msgSender(), recipient, amount);\n        }\n        return true;\n    }\n\n    function addService(address service, address[] calldata vList, uint vShare, uint cShare, uint vVer)\n        public\n        onlyOwner\n    {\n        services[service] = Service({\n            validators: vList,\n            validationShare: vShare,\n            commissionShare: cShare,\n            validatorVersion: vVer\n        });\n    }\n\n    function setValidators(address[] calldata vList) public onlyService {\n        services[msg.sender].validators = vList;\n    }\n\n    function setValidatorVer(uint vVer) public onlyService {\n        services[msg.sender].validatorVersion = vVer;\n    }\n\n    function createProcess(address service, uint256 amount, bytes32 productId, string calldata data) public {\n        require(services[service].validationShare > 0, 'Requested service address not found');\n        require(processes[msg.sender][productId].service == address(0), 'Process with specified productId already exist');\n\n        processes[msg.sender][productId] = Process({\n            state: State.AWAITING_TRANSFER,\n            cost: amount,\n            service: service,\n            productId: productId,\n            productData: data,\n            validations: 0,\n            failedValidations: 0\n        });\n        if(depositingProducts[msg.sender].length > 0) {\n            // Delete previous product if still waits for a deposit\n            if(processes[msg.sender][depositingProducts[msg.sender]].state == State.AWAITING_TRANSFER) {\n                delete processes[msg.sender][depositingProducts[msg.sender]];\n            }\n        }\n        depositingProducts[msg.sender] = productId;\n    }\n\n    function declareAction(address customer, bytes32 productId, string calldata data)\n        public onlyService\n    {\n        emit Action(customer, msg.sender, productId, data);\n    }\n\n    function _updateValidatorsScore(Service memory service) internal {\n        for(uint i=0; i < service.validators.length; i++) { \n            validators[service.validators[i]].requests += 1;\n        }\n    }\n\n    function startTermination(address customer, bytes32 productId) public onlyService {\n        require(processes[customer][productId].state == State.AWAITING_TERMINATION, \"Cannot start termination\");\n        processes[customer][productId].state = State.AWAITING_VALIDATION;\n        // Update validators requests score\n        _updateValidatorsScore(services[processes[customer][productId].service]);\n        // Emit Terminate event to trigger validators\n        emit Terminate(customer, msg.sender, productId);\n    }\n\n    function _validatorsHolding(Service memory service) view internal returns(uint256) {\n        uint256 result = 0;\n        for(uint i=0; i < service.validators.length; i++) { \n            result += this.balanceOf(service.validators[i]);\n        }\n        return result;\n    }\n\n    function _scoredReward(address validator, uint256 reward) view internal returns(uint256) {\n        uint256 score = (validators[validator].validations * 100) /  validators[validator].requests;\n        return (reward * score) / 100;\n    }\n\n    function _rewardValidators(Service memory service, uint256 amount) internal returns(uint256) {\n        uint256 rewards_sum = 0;\n        // Sum of validators YND token balances\n        uint256 holdings = _validatorsHolding(service);\n\n        for(uint i=0; i < service.validators.length; i++) {\n            uint256 validator_balance = this.balanceOf(service.validators[i]);\n            if(validator_balance > 0) {\n                uint256 reward = amount / (holdings / validator_balance);\n                // Reward after scoring filter\n                uint256 scored_reward = _scoredReward(service.validators[i], reward);\n                if(scored_reward > 0) {\n                    this.transfer(payable(service.validators[i]), scored_reward);\n                    rewards_sum += scored_reward;\n                }\n            }\n        }\n        return rewards_sum;\n    }\n\n    function validateTermination(address customer, bytes32 productId, bool passed) public onlyValidator {\n        require(processes[customer][productId].state >= State.AWAITING_VALIDATION, \"Cannot validate delivary\");\n        \n        if(passed) {\n            processes[customer][productId].validations += 1;\n        } else {\n            processes[customer][productId].failedValidations += 1;\n        }\n        // Update validator score\n        validators[msg.sender].validations += 1;\n\n        if(processes[customer][productId].state == State.AWAITING_VALIDATION) {\n            if(processes[customer][productId].validations > services[processes[customer][productId].service].validators.length / 2) {\n                // Update process state to COMPLETED\n                processes[customer][productId].state = State.COMPLETED;\n                // Reward validators\n                uint256 reward_amount = processes[customer][productId].cost / services[processes[customer][productId].service].validationShare;\n                uint256 executed_amount = _rewardValidators(services[processes[customer][productId].service], reward_amount);\n                // Pay service commission\n                uint256 commission_amount = processes[customer][productId].cost / services[processes[customer][productId].service].commissionShare;\n                this.transfer(payable(processes[customer][productId].service), commission_amount);\n                // Burn remaining funds\n                _burn(address(this), processes[customer][productId].cost - executed_amount - commission_amount);\n                emit Complete(customer, processes[customer][productId].service, productId, true);\n            } else {\n                if(processes[customer][productId].failedValidations >= services[processes[customer][productId].service].validators.length / 2) {\n                    // Update process state to COMPLETED\n                    processes[customer][productId].state = State.COMPLETED;\n                    // Reward validators\n                    uint256 reward_amount = processes[customer][productId].cost / services[processes[customer][productId].service].validationShare;\n                    uint256 executed_amount = _rewardValidators(services[processes[customer][productId].service], reward_amount);\n                    // Make refund\n                    this.transfer(payable(customer), processes[customer][productId].cost - executed_amount);\n                    emit Complete(customer, processes[customer][productId].service, productId, false);\n                }\n            }\n        }\n    }\n\n    function claimToken(uint256 amount) public returns (bool) {\n        if(this.balanceOf(msg.sender) < 20 ether && amount < 100 ether) {\n            _transfer(this.owner(), _msgSender(), amount);\n            return true;\n        } else {\n            return false;\n        }\n    }\n}\n",
  "sourcePath": "/Users/daniel/Code/Work/Yanda/celo/contract/contracts/YandaToken.sol",
  "compiler": {
    "name": "solc",
    "version": "0.8.3+commit.8d00100c.Emscripten.clang"
  },
  "schemaVersion": "3.4.3",
  "updatedAt": "2021-11-19T14:01:20.681Z",
  "networkType": "ethereum",
  "devdoc": {
    "kind": "dev",
    "methods": {
      "DOMAIN_SEPARATOR()": {
        "details": "See {IERC20Permit-DOMAIN_SEPARATOR}."
      },
      "allowance(address,address)": {
        "details": "See {IERC20-allowance}."
      },
      "approve(address,uint256)": {
        "details": "See {IERC20-approve}. Requirements: - `spender` cannot be the zero address."
      },
      "balanceOf(address)": {
        "details": "See {IERC20-balanceOf}."
      },
      "checkpoints(address,uint32)": {
        "details": "Get the `pos`-th checkpoint for `account`."
      },
      "decimals()": {
        "details": "Returns the number of decimals used to get its user representation. For example, if `decimals` equals `2`, a balance of `505` tokens should be displayed to a user as `5.05` (`505 / 10 ** 2`). Tokens usually opt for a value of 18, imitating the relationship between Ether and Wei. This is the value {ERC20} uses, unless this function is overridden; NOTE: This information is only used for _display_ purposes: it in no way affects any of the arithmetic of the contract, including {IERC20-balanceOf} and {IERC20-transfer}."
      },
      "decreaseAllowance(address,uint256)": {
        "details": "Atomically decreases the allowance granted to `spender` by the caller. This is an alternative to {approve} that can be used as a mitigation for problems described in {IERC20-approve}. Emits an {Approval} event indicating the updated allowance. Requirements: - `spender` cannot be the zero address. - `spender` must have allowance for the caller of at least `subtractedValue`."
      },
      "delegate(address)": {
        "details": "Delegate votes from the sender to `delegatee`."
      },
      "delegateBySig(address,uint256,uint256,uint8,bytes32,bytes32)": {
        "details": "Delegates votes from signer to `delegatee`"
      },
      "delegates(address)": {
        "details": "Get the address `account` is currently delegating to."
      },
      "getPastTotalSupply(uint256)": {
        "details": "Retrieve the `totalSupply` at the end of `blockNumber`. Note, this value is the sum of all balances. It is but NOT the sum of all the delegated votes! Requirements: - `blockNumber` must have been already mined"
      },
      "getPastVotes(address,uint256)": {
        "details": "Retrieve the number of votes for `account` at the end of `blockNumber`. Requirements: - `blockNumber` must have been already mined"
      },
      "getVotes(address)": {
        "details": "Gets the current votes balance for `account`"
      },
      "increaseAllowance(address,uint256)": {
        "details": "Atomically increases the allowance granted to `spender` by the caller. This is an alternative to {approve} that can be used as a mitigation for problems described in {IERC20-approve}. Emits an {Approval} event indicating the updated allowance. Requirements: - `spender` cannot be the zero address."
      },
      "name()": {
        "details": "Returns the name of the token."
      },
      "nonces(address)": {
        "details": "See {IERC20Permit-nonces}."
      },
      "numCheckpoints(address)": {
        "details": "Get number of checkpoints for `account`."
      },
      "owner()": {
        "details": "Returns the address of the current owner."
      },
      "paused()": {
        "details": "Returns true if the contract is paused, and false otherwise."
      },
      "permit(address,address,uint256,uint256,uint8,bytes32,bytes32)": {
        "details": "See {IERC20Permit-permit}."
      },
      "renounceOwnership()": {
        "details": "Leaves the contract without owner. It will not be possible to call `onlyOwner` functions anymore. Can only be called by the current owner. NOTE: Renouncing ownership will leave the contract without an owner, thereby removing any functionality that is only available to the owner."
      },
      "symbol()": {
        "details": "Returns the symbol of the token, usually a shorter version of the name."
      },
      "totalSupply()": {
        "details": "See {IERC20-totalSupply}."
      },
      "transfer(address,uint256)": {
        "details": "See {IERC20-transfer}. Requirements: - `recipient` cannot be the zero address. - the caller must have a balance of at least `amount`."
      },
      "transferFrom(address,address,uint256)": {
        "details": "See {IERC20-transferFrom}. Emits an {Approval} event indicating the updated allowance. This is not required by the EIP. See the note at the beginning of {ERC20}. Requirements: - `sender` and `recipient` cannot be the zero address. - `sender` must have a balance of at least `amount`. - the caller must have allowance for ``sender``'s tokens of at least `amount`."
      },
      "transferOwnership(address)": {
        "details": "Transfers ownership of the contract to a new account (`newOwner`). Can only be called by the current owner."
      }
    },
    "version": 1
  },
  "userdoc": {
    "kind": "user",
    "methods": {},
    "version": 1
  }
}