{
  "contractName": "YandaToken",
  "abi": [
    {
      "inputs": [],
      "stateMutability": "nonpayable",
      "type": "constructor"
    },
    {
      "anonymous": false,
      "inputs": [
        {
          "indexed": true,
          "internalType": "address",
          "name": "customer",
          "type": "address"
        },
        {
          "indexed": true,
          "internalType": "address",
          "name": "service",
          "type": "address"
        },
        {
          "indexed": true,
          "internalType": "bytes32",
          "name": "productId",
          "type": "bytes32"
        },
        {
          "indexed": false,
          "internalType": "string",
          "name": "data",
          "type": "string"
        }
      ],
      "name": "Action",
      "type": "event"
    },
    {
      "anonymous": false,
      "inputs": [
        {
          "indexed": true,
          "internalType": "address",
          "name": "owner",
          "type": "address"
        },
        {
          "indexed": true,
          "internalType": "address",
          "name": "spender",
          "type": "address"
        },
        {
          "indexed": false,
          "internalType": "uint256",
          "name": "value",
          "type": "uint256"
        }
      ],
      "name": "Approval",
      "type": "event"
    },
    {
      "anonymous": false,
      "inputs": [
        {
          "indexed": true,
          "internalType": "address",
          "name": "customer",
          "type": "address"
        },
        {
          "indexed": true,
          "internalType": "address",
          "name": "service",
          "type": "address"
        },
        {
          "indexed": true,
          "internalType": "bytes32",
          "name": "productId",
          "type": "bytes32"
        },
        {
          "indexed": false,
          "internalType": "bool",
          "name": "success",
          "type": "bool"
        }
      ],
      "name": "Complete",
      "type": "event"
    },
    {
      "anonymous": false,
      "inputs": [
        {
          "indexed": true,
          "internalType": "address",
          "name": "delegator",
          "type": "address"
        },
        {
          "indexed": true,
          "internalType": "address",
          "name": "fromDelegate",
          "type": "address"
        },
        {
          "indexed": true,
          "internalType": "address",
          "name": "toDelegate",
          "type": "address"
        }
      ],
      "name": "DelegateChanged",
      "type": "event"
    },
    {
      "anonymous": false,
      "inputs": [
        {
          "indexed": true,
          "internalType": "address",
          "name": "delegate",
          "type": "address"
        },
        {
          "indexed": false,
          "internalType": "uint256",
          "name": "previousBalance",
          "type": "uint256"
        },
        {
          "indexed": false,
          "internalType": "uint256",
          "name": "newBalance",
          "type": "uint256"
        }
      ],
      "name": "DelegateVotesChanged",
      "type": "event"
    },
    {
      "anonymous": false,
      "inputs": [
        {
          "indexed": true,
          "internalType": "address",
          "name": "customer",
          "type": "address"
        },
        {
          "indexed": true,
          "internalType": "address",
          "name": "service",
          "type": "address"
        },
        {
          "indexed": true,
          "internalType": "bytes32",
          "name": "productId",
          "type": "bytes32"
        },
        {
          "indexed": false,
          "internalType": "uint256",
          "name": "weiAmount",
          "type": "uint256"
        }
      ],
      "name": "Deposit",
      "type": "event"
    },
    {
      "anonymous": false,
      "inputs": [
        {
          "indexed": true,
          "internalType": "address",
          "name": "previousOwner",
          "type": "address"
        },
        {
          "indexed": true,
          "internalType": "address",
          "name": "newOwner",
          "type": "address"
        }
      ],
      "name": "OwnershipTransferred",
      "type": "event"
    },
    {
      "anonymous": false,
      "inputs": [
        {
          "indexed": false,
          "internalType": "address",
          "name": "account",
          "type": "address"
        }
      ],
      "name": "Paused",
      "type": "event"
    },
    {
      "anonymous": false,
      "inputs": [
        {
          "indexed": true,
          "internalType": "address",
          "name": "customer",
          "type": "address"
        },
        {
          "indexed": true,
          "internalType": "address",
          "name": "service",
          "type": "address"
        },
        {
          "indexed": true,
          "internalType": "bytes32",
          "name": "productId",
          "type": "bytes32"
        }
      ],
      "name": "Terminate",
      "type": "event"
    },
    {
      "anonymous": false,
      "inputs": [
        {
          "indexed": true,
          "internalType": "address",
          "name": "from",
          "type": "address"
        },
        {
          "indexed": true,
          "internalType": "address",
          "name": "to",
          "type": "address"
        },
        {
          "indexed": false,
          "internalType": "uint256",
          "name": "value",
          "type": "uint256"
        }
      ],
      "name": "Transfer",
      "type": "event"
    },
    {
      "anonymous": false,
      "inputs": [
        {
          "indexed": false,
          "internalType": "address",
          "name": "account",
          "type": "address"
        }
      ],
      "name": "Unpaused",
      "type": "event"
    },
    {
      "inputs": [],
      "name": "DOMAIN_SEPARATOR",
      "outputs": [
        {
          "internalType": "bytes32",
          "name": "",
          "type": "bytes32"
        }
      ],
      "stateMutability": "view",
      "type": "function",
      "constant": true
    },
    {
      "inputs": [
        {
          "internalType": "address",
          "name": "owner",
          "type": "address"
        },
        {
          "internalType": "address",
          "name": "spender",
          "type": "address"
        }
      ],
      "name": "allowance",
      "outputs": [
        {
          "internalType": "uint256",
          "name": "",
          "type": "uint256"
        }
      ],
      "stateMutability": "view",
      "type": "function",
      "constant": true
    },
    {
      "inputs": [
        {
          "internalType": "address",
          "name": "spender",
          "type": "address"
        },
        {
          "internalType": "uint256",
          "name": "amount",
          "type": "uint256"
        }
      ],
      "name": "approve",
      "outputs": [
        {
          "internalType": "bool",
          "name": "",
          "type": "bool"
        }
      ],
      "stateMutability": "nonpayable",
      "type": "function"
    },
    {
      "inputs": [
        {
          "internalType": "address",
          "name": "account",
          "type": "address"
        }
      ],
      "name": "balanceOf",
      "outputs": [
        {
          "internalType": "uint256",
          "name": "",
          "type": "uint256"
        }
      ],
      "stateMutability": "view",
      "type": "function",
      "constant": true
    },
    {
      "inputs": [
        {
          "internalType": "address",
          "name": "account",
          "type": "address"
        },
        {
          "internalType": "uint32",
          "name": "pos",
          "type": "uint32"
        }
      ],
      "name": "checkpoints",
      "outputs": [
        {
          "components": [
            {
              "internalType": "uint32",
              "name": "fromBlock",
              "type": "uint32"
            },
            {
              "internalType": "uint224",
              "name": "votes",
              "type": "uint224"
            }
          ],
          "internalType": "struct ERC20Votes.Checkpoint",
          "name": "",
          "type": "tuple"
        }
      ],
      "stateMutability": "view",
      "type": "function",
      "constant": true
    },
    {
      "inputs": [],
      "name": "decimals",
      "outputs": [
        {
          "internalType": "uint8",
          "name": "",
          "type": "uint8"
        }
      ],
      "stateMutability": "view",
      "type": "function",
      "constant": true
    },
    {
      "inputs": [
        {
          "internalType": "address",
          "name": "spender",
          "type": "address"
        },
        {
          "internalType": "uint256",
          "name": "subtractedValue",
          "type": "uint256"
        }
      ],
      "name": "decreaseAllowance",
      "outputs": [
        {
          "internalType": "bool",
          "name": "",
          "type": "bool"
        }
      ],
      "stateMutability": "nonpayable",
      "type": "function"
    },
    {
      "inputs": [
        {
          "internalType": "address",
          "name": "delegatee",
          "type": "address"
        }
      ],
      "name": "delegate",
      "outputs": [],
      "stateMutability": "nonpayable",
      "type": "function"
    },
    {
      "inputs": [
        {
          "internalType": "address",
          "name": "delegatee",
          "type": "address"
        },
        {
          "internalType": "uint256",
          "name": "nonce",
          "type": "uint256"
        },
        {
          "internalType": "uint256",
          "name": "expiry",
          "type": "uint256"
        },
        {
          "internalType": "uint8",
          "name": "v",
          "type": "uint8"
        },
        {
          "internalType": "bytes32",
          "name": "r",
          "type": "bytes32"
        },
        {
          "internalType": "bytes32",
          "name": "s",
          "type": "bytes32"
        }
      ],
      "name": "delegateBySig",
      "outputs": [],
      "stateMutability": "nonpayable",
      "type": "function"
    },
    {
      "inputs": [
        {
          "internalType": "address",
          "name": "account",
          "type": "address"
        }
      ],
      "name": "delegates",
      "outputs": [
        {
          "internalType": "address",
          "name": "",
          "type": "address"
        }
      ],
      "stateMutability": "view",
      "type": "function",
      "constant": true
    },
    {
      "inputs": [
        {
          "internalType": "address",
          "name": "",
          "type": "address"
        }
      ],
      "name": "depositingProducts",
      "outputs": [
        {
          "internalType": "bytes32",
          "name": "",
          "type": "bytes32"
        }
      ],
      "stateMutability": "view",
      "type": "function",
      "constant": true
    },
    {
      "inputs": [
        {
          "internalType": "uint256",
          "name": "blockNumber",
          "type": "uint256"
        }
      ],
      "name": "getPastTotalSupply",
      "outputs": [
        {
          "internalType": "uint256",
          "name": "",
          "type": "uint256"
        }
      ],
      "stateMutability": "view",
      "type": "function",
      "constant": true
    },
    {
      "inputs": [
        {
          "internalType": "address",
          "name": "account",
          "type": "address"
        },
        {
          "internalType": "uint256",
          "name": "blockNumber",
          "type": "uint256"
        }
      ],
      "name": "getPastVotes",
      "outputs": [
        {
          "internalType": "uint256",
          "name": "",
          "type": "uint256"
        }
      ],
      "stateMutability": "view",
      "type": "function",
      "constant": true
    },
    {
      "inputs": [
        {
          "internalType": "address",
          "name": "account",
          "type": "address"
        }
      ],
      "name": "getVotes",
      "outputs": [
        {
          "internalType": "uint256",
          "name": "",
          "type": "uint256"
        }
      ],
      "stateMutability": "view",
      "type": "function",
      "constant": true
    },
    {
      "inputs": [
        {
          "internalType": "address",
          "name": "spender",
          "type": "address"
        },
        {
          "internalType": "uint256",
          "name": "addedValue",
          "type": "uint256"
        }
      ],
      "name": "increaseAllowance",
      "outputs": [
        {
          "internalType": "bool",
          "name": "",
          "type": "bool"
        }
      ],
      "stateMutability": "nonpayable",
      "type": "function"
    },
    {
      "inputs": [],
      "name": "name",
      "outputs": [
        {
          "internalType": "string",
          "name": "",
          "type": "string"
        }
      ],
      "stateMutability": "view",
      "type": "function",
      "constant": true
    },
    {
      "inputs": [
        {
          "internalType": "address",
          "name": "owner",
          "type": "address"
        }
      ],
      "name": "nonces",
      "outputs": [
        {
          "internalType": "uint256",
          "name": "",
          "type": "uint256"
        }
      ],
      "stateMutability": "view",
      "type": "function",
      "constant": true
    },
    {
      "inputs": [
        {
          "internalType": "address",
          "name": "account",
          "type": "address"
        }
      ],
      "name": "numCheckpoints",
      "outputs": [
        {
          "internalType": "uint32",
          "name": "",
          "type": "uint32"
        }
      ],
      "stateMutability": "view",
      "type": "function",
      "constant": true
    },
    {
      "inputs": [],
      "name": "owner",
      "outputs": [
        {
          "internalType": "address",
          "name": "",
          "type": "address"
        }
      ],
      "stateMutability": "view",
      "type": "function",
      "constant": true
    },
    {
      "inputs": [],
      "name": "paused",
      "outputs": [
        {
          "internalType": "bool",
          "name": "",
          "type": "bool"
        }
      ],
      "stateMutability": "view",
      "type": "function",
      "constant": true
    },
    {
      "inputs": [
        {
          "internalType": "address",
          "name": "owner",
          "type": "address"
        },
        {
          "internalType": "address",
          "name": "spender",
          "type": "address"
        },
        {
          "internalType": "uint256",
          "name": "value",
          "type": "uint256"
        },
        {
          "internalType": "uint256",
          "name": "deadline",
          "type": "uint256"
        },
        {
          "internalType": "uint8",
          "name": "v",
          "type": "uint8"
        },
        {
          "internalType": "bytes32",
          "name": "r",
          "type": "bytes32"
        },
        {
          "internalType": "bytes32",
          "name": "s",
          "type": "bytes32"
        }
      ],
      "name": "permit",
      "outputs": [],
      "stateMutability": "nonpayable",
      "type": "function"
    },
    {
      "inputs": [
        {
          "internalType": "address",
          "name": "",
          "type": "address"
        },
        {
          "internalType": "bytes32",
          "name": "",
          "type": "bytes32"
        }
      ],
      "name": "processes",
      "outputs": [
        {
          "internalType": "enum YandaToken.State",
          "name": "state",
          "type": "uint8"
        },
        {
          "internalType": "uint256",
          "name": "cost",
          "type": "uint256"
        },
        {
          "internalType": "address",
          "name": "service",
          "type": "address"
        },
        {
          "internalType": "bytes32",
          "name": "productId",
          "type": "bytes32"
        },
        {
          "internalType": "string",
          "name": "productData",
          "type": "string"
        },
        {
          "internalType": "uint256",
          "name": "validations",
          "type": "uint256"
        },
        {
          "internalType": "uint256",
          "name": "failedValidations",
          "type": "uint256"
        }
      ],
      "stateMutability": "view",
      "type": "function",
      "constant": true
    },
    {
      "inputs": [],
      "name": "renounceOwnership",
      "outputs": [],
      "stateMutability": "nonpayable",
      "type": "function"
    },
    {
      "inputs": [
        {
          "internalType": "address",
          "name": "",
          "type": "address"
        }
      ],
      "name": "services",
      "outputs": [
        {
          "internalType": "uint256",
          "name": "validationShare",
          "type": "uint256"
        },
        {
          "internalType": "uint256",
          "name": "commissionShare",
          "type": "uint256"
        }
      ],
      "stateMutability": "view",
      "type": "function",
      "constant": true
    },
    {
      "inputs": [],
      "name": "symbol",
      "outputs": [
        {
          "internalType": "string",
          "name": "",
          "type": "string"
        }
      ],
      "stateMutability": "view",
      "type": "function",
      "constant": true
    },
    {
      "inputs": [],
      "name": "totalSupply",
      "outputs": [
        {
          "internalType": "uint256",
          "name": "",
          "type": "uint256"
        }
      ],
      "stateMutability": "view",
      "type": "function",
      "constant": true
    },
    {
      "inputs": [
        {
          "internalType": "address",
          "name": "sender",
          "type": "address"
        },
        {
          "internalType": "address",
          "name": "recipient",
          "type": "address"
        },
        {
          "internalType": "uint256",
          "name": "amount",
          "type": "uint256"
        }
      ],
      "name": "transferFrom",
      "outputs": [
        {
          "internalType": "bool",
          "name": "",
          "type": "bool"
        }
      ],
      "stateMutability": "nonpayable",
      "type": "function"
    },
    {
      "inputs": [
        {
          "internalType": "address",
          "name": "newOwner",
          "type": "address"
        }
      ],
      "name": "transferOwnership",
      "outputs": [],
      "stateMutability": "nonpayable",
      "type": "function"
    },
    {
      "inputs": [
        {
          "internalType": "address",
          "name": "",
          "type": "address"
        }
      ],
      "name": "validators",
      "outputs": [
        {
          "internalType": "uint256",
          "name": "requests",
          "type": "uint256"
        },
        {
          "internalType": "uint256",
          "name": "validations",
          "type": "uint256"
        }
      ],
      "stateMutability": "view",
      "type": "function",
      "constant": true
    },
    {
      "inputs": [],
      "name": "pause",
      "outputs": [],
      "stateMutability": "nonpayable",
      "type": "function"
    },
    {
      "inputs": [],
      "name": "unpause",
      "outputs": [],
      "stateMutability": "nonpayable",
      "type": "function"
    },
    {
      "inputs": [
        {
          "internalType": "address",
          "name": "to",
          "type": "address"
        },
        {
          "internalType": "uint256",
          "name": "amount",
          "type": "uint256"
        }
      ],
      "name": "mint",
      "outputs": [],
      "stateMutability": "nonpayable",
      "type": "function"
    },
    {
      "inputs": [
        {
          "internalType": "address",
          "name": "recipient",
          "type": "address"
        },
        {
          "internalType": "uint256",
          "name": "amount",
          "type": "uint256"
        }
      ],
      "name": "transfer",
      "outputs": [
        {
          "internalType": "bool",
          "name": "",
          "type": "bool"
        }
      ],
      "stateMutability": "nonpayable",
      "type": "function"
    },
    {
      "inputs": [
        {
          "internalType": "address",
          "name": "service",
          "type": "address"
        },
        {
          "internalType": "address[]",
          "name": "vList",
          "type": "address[]"
        },
        {
          "internalType": "uint256",
          "name": "vShare",
          "type": "uint256"
        },
        {
          "internalType": "uint256",
          "name": "cShare",
          "type": "uint256"
        }
      ],
      "name": "addService",
      "outputs": [],
      "stateMutability": "nonpayable",
      "type": "function"
    },
    {
      "inputs": [
        {
          "internalType": "address[]",
          "name": "vList",
          "type": "address[]"
        }
      ],
      "name": "setValidators",
      "outputs": [],
      "stateMutability": "nonpayable",
      "type": "function"
    },
    {
      "inputs": [
        {
          "internalType": "address",
          "name": "service",
          "type": "address"
        },
        {
          "internalType": "uint256",
          "name": "amount",
          "type": "uint256"
        },
        {
          "internalType": "bytes32",
          "name": "productId",
          "type": "bytes32"
        },
        {
          "internalType": "string",
          "name": "data",
          "type": "string"
        }
      ],
      "name": "createProcess",
      "outputs": [],
      "stateMutability": "nonpayable",
      "type": "function"
    },
    {
      "inputs": [
        {
          "internalType": "address",
          "name": "customer",
          "type": "address"
        },
        {
          "internalType": "bytes32",
          "name": "productId",
          "type": "bytes32"
        },
        {
          "internalType": "string",
          "name": "data",
          "type": "string"
        }
      ],
      "name": "declareAction",
      "outputs": [],
      "stateMutability": "nonpayable",
      "type": "function"
    },
    {
      "inputs": [
        {
          "internalType": "address",
          "name": "customer",
          "type": "address"
        },
        {
          "internalType": "bytes32",
          "name": "productId",
          "type": "bytes32"
        }
      ],
      "name": "startTermination",
      "outputs": [],
      "stateMutability": "nonpayable",
      "type": "function"
    },
    {
      "inputs": [
        {
          "internalType": "address",
          "name": "customer",
          "type": "address"
        },
        {
          "internalType": "bytes32",
          "name": "productId",
          "type": "bytes32"
        },
        {
          "internalType": "bool",
          "name": "passed",
          "type": "bool"
        }
      ],
      "name": "validateTermination",
      "outputs": [],
      "stateMutability": "nonpayable",
      "type": "function"
    }
  ],
  "bytecode": "0x6101406040527f6e71edae12b1b97f4d1f60370fef10105fa2faae0126114a169c64845d6126c9610120523480156200003757600080fd5b506040518060400160405280600a8152602001692cb0b73230aa37b5b2b760b11b81525080604051806040016040528060018152602001603160f81b8152506040518060400160405280600a8152602001692cb0b73230aa37b5b2b760b11b8152506040518060400160405280600381526020016216539160ea1b8152508160039080519060200190620000cd929190620008bd565b508051620000e3906004906020840190620008bd565b50506005805460ff1916905550620000fb3362000190565b815160208084019190912082519183019190912060c082905260e08190524660a0527f8b73c3c69bb8fe3d512ecc4cf759cc79239f7b179b0ffacaa9a75d522b39400f6200014b818484620001ea565b60805261010052506200018a935033925062000168915050601290565b6200017590600a620009c1565b6200018490620186a062000aac565b62000234565b62000b3b565b600580546001600160a01b03838116610100818102610100600160a81b031985161790945560405193909204169182907f8be0079c531659141344cd1fd0a4f28419497f9722a3daafe3b4186f6b6457e090600090a35050565b6040805160208101859052908101839052606081018290524660808201523060a082015260009060c0016040516020818303038152906040528051906020012090505b9392505050565b6200024b82826200024f60201b62001f221760201c565b5050565b6200026682826200030660201b62001fb21760201c565b6001600160e01b036200027a620004038216565b1115620002e75760405162461bcd60e51b815260206004820152603060248201527f4552433230566f7465733a20746f74616c20737570706c79207269736b73206f60448201526f766572666c6f77696e6720766f74657360801b60648201526084015b60405180910390fd5b620003006009620020a56200040960201b178362000417565b50505050565b6001600160a01b0382166200035e5760405162461bcd60e51b815260206004820152601f60248201527f45524332303a206d696e7420746f20746865207a65726f2061646472657373006044820152606401620002de565b6200036c60008383620005ed565b806002600082825462000380919062000959565b90915550506001600160a01b03821660009081526020819052604081208054839290620003af90849062000959565b90915550506040518181526001600160a01b038316906000907fddf252ad1be2c89b69c2b068fc378daa952ba7f163c4a11628f55a4df523b3ef9060200160405180910390a36200024b6000838362000652565b60025490565b60006200022d828462000959565b8254600090819080156200047557856200043360018362000ace565b815481106200045257634e487b7160e01b600052603260045260246000fd5b60009182526020909120015464010000000090046001600160e01b031662000478565b60005b6001600160e01b031692506200048f83858760201c565b9150600081118015620004df57504386620004ac60018462000ace565b81548110620004cb57634e487b7160e01b600052603260045260246000fd5b60009182526020909120015463ffffffff16145b156200055f57620004fb826200066a60201b620020b11760201c565b866200050960018462000ace565b815481106200052857634e487b7160e01b600052603260045260246000fd5b9060005260206000200160000160046101000a8154816001600160e01b0302191690836001600160e01b03160217905550620005e4565b8560405180604001604052806200058143620006d960201b6200211e1760201c565b63ffffffff168152602001620005a2856200066a60201b620020b11760201c565b6001600160e01b0390811690915282546001810184556000938452602093849020835194909301519091166401000000000263ffffffff909316929092179101555b50935093915050565b60055460ff1615620006355760405162461bcd60e51b815260206004820152601060248201526f14185d5cd8589b194e881c185d5cd95960821b6044820152606401620002de565b6200064d8383836200064d60201b620017261760201c565b505050565b6200064d8383836200074060201b620021831760201c565b60006001600160e01b03821115620006d55760405162461bcd60e51b815260206004820152602760248201527f53616665436173743a2076616c756520646f65736e27742066697420696e20326044820152663234206269747360c81b6064820152608401620002de565b5090565b600063ffffffff821115620006d55760405162461bcd60e51b815260206004820152602660248201527f53616665436173743a2076616c756520646f65736e27742066697420696e203360448201526532206269747360d01b6064820152608401620002de565b620007588383836200064d60201b620017261760201c565b6001600160a01b038381166000908152600760205260408082205485841683529120546200064d92918216911683818314801590620007975750600081115b156200064d576001600160a01b0383161562000824576001600160a01b038316600090815260086020908152604082208291620007e19190620008af901b6200219e178562000417565b91509150846001600160a01b031660008051602062004890833981519152838360405162000819929190918252602082015260400190565b60405180910390a250505b6001600160a01b038216156200064d576001600160a01b03821660009081526008602090815260408220829162000868919062000409901b620020a5178562000417565b91509150836001600160a01b0316600080516020620048908339815191528383604051620008a0929190918252602082015260400190565b60405180910390a25050505050565b60006200022d828462000ace565b828054620008cb9062000ae8565b90600052602060002090601f016020900481019282620008ef57600085556200093a565b82601f106200090a57805160ff19168380011785556200093a565b828001600101855582156200093a579182015b828111156200093a5782518255916020019190600101906200091d565b50620006d59291505b80821115620006d5576000815560010162000943565b600082198211156200096f576200096f62000b25565b500190565b80825b6001808611620009885750620009b8565b8187048211156200099d576200099d62000b25565b80861615620009ab57918102915b9490941c93800262000977565b94509492505050565b60006200022d60001960ff851684600082620009e0575060016200022d565b81620009ef575060006200022d565b816001811462000a08576002811462000a135762000a47565b60019150506200022d565b60ff84111562000a275762000a2762000b25565b6001841b91508482111562000a405762000a4062000b25565b506200022d565b5060208310610133831016604e8410600b841016171562000a7f575081810a8381111562000a795762000a7962000b25565b6200022d565b62000a8e848484600162000974565b80860482111562000aa35762000aa362000b25565b02949350505050565b600081600019048311821515161562000ac95762000ac962000b25565b500290565b60008282101562000ae35762000ae362000b25565b500390565b600181811c9082168062000afd57607f821691505b6020821081141562000b1f57634e487b7160e01b600052602260045260246000fd5b50919050565b634e487b7160e01b600052601160045260246000fd5b60805160a05160c05160e0516101005161012051613d0562000b8b6000396000611c040152600061258e015260006125dd015260006125b80152600061253a015260006125630152613d056000f3fe608060405234801561001057600080fd5b506004361061023d5760003560e01c8063715018a61161013b578063a457c2d7116100b8578063e4a7c46f1161007c578063e4a7c46f1461053a578063ebd30af41461055a578063f1127ed814610580578063f2fde38b146105bd578063fa52c7d8146105d05761023d565b8063a457c2d7146104b5578063a9059cbb146104c8578063c3cda520146104db578063d505accf146104ee578063dd62ed3e146105015761023d565b80638da5cb5b116100ff5780638da5cb5b1461045d5780638e539e8c146104745780639300c9261461048757806395d89b411461049a5780639ab24eb0146104a25761023d565b8063715018a61461041457806373b4bd6f1461041c5780637ecebe001461042f5780638456cb591461044257806389bf146a1461044a5761023d565b80633a46b1a8116101c95780635c19a95c1161018d5780635c19a95c146103665780635c975abb146103795780636d966d01146103845780636fcfff45146103c357806370a08231146103eb5761023d565b80633a46b1a8146102fa5780633f4ba83a1461030d57806340c10f191461031557806344715aaa14610328578063587cde1e1461033b5761023d565b806318160ddd1161021057806318160ddd146102ab57806323b872dd146102bd578063313ce567146102d05780633644e515146102df57806339509351146102e75761023d565b806304f32b5d1461024257806306fdde0314610257578063095ea7b3146102755780630e53e63314610298575b600080fd5b6102556102503660046138a6565b6105f7565b005b61025f610683565b60405161026c9190613b64565b60405180910390f35b61028861028336600461383e565b610716565b604051901515815260200161026c565b6102556102a636600461383e565b61072c565b6002545b60405190815260200161026c565b6102886102cb366004613737565b6108e9565b6040516012815260200161026c565b6102af610993565b6102886102f536600461383e565b6109a2565b6102af61030836600461383e565b6109de565b610255610a58565b61025561032336600461383e565b610a92565b6102556103363660046137db565b610ad0565b61034e6103493660046136eb565b610b96565b6040516001600160a01b03909116815260200161026c565b6102556103743660046136eb565b610bb7565b60055460ff16610288565b6103ae6103923660046136eb565b600c602052600090815260409020600181015460029091015482565b6040805192835260208301919091520161026c565b6103d66103d13660046136eb565b610bc4565b60405163ffffffff909116815260200161026c565b6102af6103f93660046136eb565b6001600160a01b031660009081526020819052604090205490565b610255610bec565b61025561042a3660046138fe565b610c26565b6102af61043d3660046136eb565b610f0d565b610255610f2b565b610255610458366004613867565b610f63565b61034e60055461010090046001600160a01b031690565b6102af610482366004613a55565b61172b565b6102556104953660046139f9565b611787565b61025f6117d0565b6102af6104b03660046136eb565b6117df565b6102886104c336600461383e565b611874565b6102886104d636600461383e565b61190d565b6102556104e9366004613964565b611a7a565b6102556104fc366004613772565b611bb0565b6102af61050f366004613705565b6001600160a01b03918216600090815260016020908152604080832093909416825291909152205490565b6102af6105483660046136eb565b600b6020526000908152604090205481565b61056d61056836600461383e565b611d14565b60405161026c9796959493929190613ad0565b61059361058e3660046139bb565b611df2565b60408051825163ffffffff1681526020928301516001600160e01b0316928101929092520161026c565b6102556105cb3660046136eb565b611e84565b6103ae6105de3660046136eb565b600d602052600090815260409020805460019091015482565b336000908152600c602052604090206001015461062f5760405162461bcd60e51b815260040161062690613bac565b60405180910390fd5b82336001600160a01b0316856001600160a01b03167fb67fab32200b6a6d186136689c0b4c4072ae0bd5dd17b98fb8105d1b974793998585604051610675929190613b35565b60405180910390a450505050565b60606003805461069290613c5b565b80601f01602080910402602001604051908101604052809291908181526020018280546106be90613c5b565b801561070b5780601f106106e05761010080835404028352916020019161070b565b820191906000526020600020905b8154815290600101906020018083116106ee57829003601f168201915b505050505090505b90565b60006107233384846121aa565b50600192915050565b336000908152600c602052604090206001015461075b5760405162461bcd60e51b815260040161062690613bac565b60016001600160a01b0383166000908152600a6020908152604080832085845290915290205460ff1660038111156107a357634e487b7160e01b600052602160045260246000fd5b146107f05760405162461bcd60e51b815260206004820152601860248201527f43616e6e6f74207374617274207465726d696e6174696f6e00000000000000006044820152606401610626565b6001600160a01b038281166000908152600a6020908152604080832085845282528083208054600260ff199091168117825501549093168252600c81529082902082518154608093810282018401909452606081018481526108ad9491938492849184018282801561088b57602002820191906000526020600020905b81546001600160a01b0316815260019091019060200180831161086d575b50505050508152602001600182015481526020016002820154815250506122ce565b604051819033906001600160a01b038516907f3dc016b59ffc70a71e689716c312b2b7415f9e4f11803ff7cc3730801811497a90600090a45050565b60006108f6848484612357565b6001600160a01b03841660009081526001602090815260408083203384529091529020548281101561097b5760405162461bcd60e51b815260206004820152602860248201527f45524332303a207472616e7366657220616d6f756e74206578636565647320616044820152676c6c6f77616e636560c01b6064820152608401610626565b61098885338584036121aa565b506001949350505050565b600061099d612536565b905090565b3360008181526001602090815260408083206001600160a01b038716845290915281205490916107239185906109d9908690613bed565b6121aa565b6000438210610a2f5760405162461bcd60e51b815260206004820152601f60248201527f4552433230566f7465733a20626c6f636b206e6f7420796574206d696e6564006044820152606401610626565b6001600160a01b0383166000908152600860205260409020610a51908361262d565b9392505050565b6005546001600160a01b03610100909104163314610a885760405162461bcd60e51b815260040161062690613b77565b610a90612706565b565b6005546001600160a01b03610100909104163314610ac25760405162461bcd60e51b815260040161062690613b77565b610acc8282612799565b5050565b6005546001600160a01b03610100909104163314610b005760405162461bcd60e51b815260040161062690613b77565b60405180606001604052808585808060200260200160405190810160405280939291908181526020018383602002808284376000920182905250938552505050602080830186905260409283018590526001600160a01b0389168252600c8152919020825180519192610b78928492909101906134c0565b50602082015160018201556040909101516002909101555050505050565b6001600160a01b03808216600090815260076020526040902054165b919050565b610bc133826127a3565b50565b6001600160a01b038116600090815260086020526040812054610be69061211e565b92915050565b6005546001600160a01b03610100909104163314610c1c5760405162461bcd60e51b815260040161062690613b77565b610a906000612839565b6001600160a01b0385166000908152600c6020526040902060010154610c9a5760405162461bcd60e51b815260206004820152602360248201527f52657175657374656420736572766963652061646472657373206e6f7420666f6044820152621d5b9960ea1b6064820152608401610626565b336000908152600a602090815260408083208684529091529020600201546001600160a01b031615610d255760405162461bcd60e51b815260206004820152602e60248201527f50726f636573732077697468207370656369666965642070726f64756374496460448201526d08185b1c9958591e48195e1a5cdd60921b6064820152608401610626565b6040805160e081019091528060008152602001858152602001866001600160a01b0316815260200184815260200183838080601f016020809104026020016040519081016040528093929190818152602001838380828437600092018290525093855250505060208083018290526040928301829052338252600a815282822087835290522081518154829060ff19166001836003811115610dd757634e487b7160e01b600052602160045260246000fd5b0217905550602082810151600183015560408301516002830180546001600160a01b0319166001600160a01b039092169190911790556060830151600383015560808301518051610e2e9260048501920190613521565b5060a0820151600582015560c090910151600690910155336000908152600a60209081526040808320600b835281842054845290915281205460ff166003811115610e8957634e487b7160e01b600052602160045260246000fd5b1415610ef757336000908152600a60209081526040808320600b83528184205484529091528120805460ff19168155600181018290556002810180546001600160a01b03191690556003810182905590610ee66004830182613595565b506000600582018190556006909101555b5050336000908152600b60205260409020555050565b6001600160a01b038116600090815260066020526040812054610be6565b6005546001600160a01b03610100909104163314610f5b5760405162461bcd60e51b815260040161062690613b77565b610a90612893565b336000908152600d6020526040902054610fcb5760405162461bcd60e51b815260206004820152602360248201527f4f6e6c792076616c696461746f722063616e2063616c6c2074686973206d65746044820152621a1bd960ea1b6064820152608401610626565b60026001600160a01b0384166000908152600a6020908152604080832086845290915290205460ff16600381111561101357634e487b7160e01b600052602160045260246000fd5b10156110615760405162461bcd60e51b815260206004820152601860248201527f43616e6e6f742076616c69646174652064656c697661727900000000000000006044820152606401610626565b80156110a9576001600160a01b0383166000908152600a60209081526040808320858452909152812060050180546001929061109e908490613bed565b909155506110e69050565b6001600160a01b0383166000908152600a6020908152604080832085845290915281206006018054600192906110e0908490613bed565b90915550505b336000908152600d60205260408120600190810180549192909161110b908490613bed565b90915550600290506001600160a01b0384166000908152600a6020908152604080832086845290915290205460ff16600381111561115957634e487b7160e01b600052602160045260246000fd5b1415611726576001600160a01b038084166000908152600a6020908152604080832086845282528083206002908101549094168352600c9091529020546111a09190613c05565b6001600160a01b0384166000908152600a60209081526040808320868452909152902060050154111561148b576001600160a01b038381166000908152600a60209081526040808320868452808352818420805460ff1916600317815560028101549095168452600c835290832060019081015487855291909252920154909161122991613c05565b6001600160a01b038086166000908152600a602090815260408083208884528252808320600201549093168252600c8152828220835181546080938102820184019095526060810185815295965092946112df949192849284918401828280156112bc57602002820191906000526020600020905b81546001600160a01b0316815260019091019060200180831161129e575b50505050508152602001600182015481526020016002820154815250508361290e565b6001600160a01b038087166000908152600a602090815260408083208984528083528184206002808201549096168552600c8452918420909401548984529390915260010154929350916113339190613c05565b6001600160a01b038781166000908152600a602090815260408083208a84529091529081902060020154905163a9059cbb60e01b81529116600482015260248101829052909150309063a9059cbb90604401602060405180830381600087803b15801561139f57600080fd5b505af11580156113b3573d6000803e3d6000fd5b505050506040513d601f19601f820116820180604052508101906113d79190613a39565b506001600160a01b0386166000908152600a602090815260408083208884529091529020600101546114219030908390611412908690613c44565b61141c9190613c44565b612b25565b6001600160a01b038681166000818152600a602090815260408083208a84528252918290206002015491516001815289949290921692917f5c2cc6518d5891ba2f9c21f49d712982ba12450a2a8adeb21e4a41f85a995b70910160405180910390a4505050611726565b6001600160a01b038084166000908152600a6020908152604080832086845282528083206002908101549094168352600c9091529020546114cc9190613c05565b6001600160a01b0384166000908152600a6020908152604080832086845290915290206006015410611726576001600160a01b038381166000908152600a60209081526040808320868452808352818420805460ff1916600317815560028101549095168452600c835290832060019081015487855291909252920154909161155491613c05565b6001600160a01b038086166000908152600a602090815260408083208884528252808320600201549093168252600c815282822083518154608093810282018401909552606081018581529596509294611608949192849284918401828280156112bc576020028201919060005260206000209081546001600160a01b0316815260019091019060200180831161129e5750505050508152602001600182015481526020016002820154815250508361290e565b6001600160a01b0386166000908152600a60209081526040808320888452909152902060010154909150309063a9059cbb908790611647908590613c44565b6040516001600160e01b031960e085901b1681526001600160a01b0390921660048301526024820152604401602060405180830381600087803b15801561168d57600080fd5b505af11580156116a1573d6000803e3d6000fd5b505050506040513d601f19601f820116820180604052508101906116c59190613a39565b506001600160a01b038581166000818152600a60209081526040808320898452825280832060020154905192835288941692917f5c2cc6518d5891ba2f9c21f49d712982ba12450a2a8adeb21e4a41f85a995b70910160405180910390a450505b505050565b600043821061177c5760405162461bcd60e51b815260206004820152601f60248201527f4552433230566f7465733a20626c6f636b206e6f7420796574206d696e6564006044820152606401610626565b610be660098361262d565b336000908152600c60205260409020600101546117b65760405162461bcd60e51b815260040161062690613bac565b336000908152600c602052604090206117269083836135d1565b60606004805461069290613c5b565b6001600160a01b0381166000908152600860205260408120548015611861576001600160a01b0383166000908152600860205260409020611821600183613c44565b8154811061183f57634e487b7160e01b600052603260045260246000fd5b60009182526020909120015464010000000090046001600160e01b0316611864565b60005b6001600160e01b03169392505050565b3360009081526001602090815260408083206001600160a01b0386168452909152812054828110156118f65760405162461bcd60e51b815260206004820152602560248201527f45524332303a2064656372656173656420616c6c6f77616e63652062656c6f77604482015264207a65726f60d81b6064820152608401610626565b61190333858584036121aa565b5060019392505050565b60006001600160a01b038316301415611a7157336000908152600a60209081526040808320600b835281842054845290915281205460ff16600381111561196457634e487b7160e01b600052602160045260246000fd5b146119e15760405162461bcd60e51b815260206004820152604160248201527f596f7520646f6e277420686176652061206465706f736974206177616974696e60448201527f672070726f636573732c20706c656173652063726561746520697420666972736064820152601d60fa1b608482015260a401610626565b6119ed335b8484612357565b336000818152600a60209081526040808320600b835281842080548552908352818420805460ff19166001179055548352918290206003810154600290910154925186815290936001600160a01b0390931692917f1f0f1dee49a1720a0d98e3a0575a04dd9f143ff5e29555c3085471c1c70eed5b910160405180910390a4610723565b610723336119e6565b83421115611aca5760405162461bcd60e51b815260206004820152601d60248201527f4552433230566f7465733a207369676e617475726520657870697265640000006044820152606401610626565b604080517fe48329057bfd03d55e49b547132e39cffd9c1820ad7b9d4c5307691425d15adf60208201526001600160a01b038816918101919091526060810186905260808101859052600090611b4490611b3c9060a00160405160208183030381529060405280519060200120612b2f565b858585612b7d565b9050611b4f81612ba5565b8614611b9d5760405162461bcd60e51b815260206004820152601960248201527f4552433230566f7465733a20696e76616c6964206e6f6e6365000000000000006044820152606401610626565b611ba781886127a3565b50505050505050565b83421115611c005760405162461bcd60e51b815260206004820152601d60248201527f45524332305065726d69743a206578706972656420646561646c696e650000006044820152606401610626565b60007f0000000000000000000000000000000000000000000000000000000000000000888888611c2f8c612ba5565b6040805160208101969096526001600160a01b0394851690860152929091166060840152608083015260a082015260c0810186905260e0016040516020818303038152906040528051906020012090506000611c8a82612b2f565b90506000611c9a82878787612b7d565b9050896001600160a01b0316816001600160a01b031614611cfd5760405162461bcd60e51b815260206004820152601e60248201527f45524332305065726d69743a20696e76616c6964207369676e617475726500006044820152606401610626565b611d088a8a8a6121aa565b50505050505050505050565b600a6020908152600092835260408084209091529082529020805460018201546002830154600384015460048501805460ff9095169593946001600160a01b03909316939192611d6390613c5b565b80601f0160208091040260200160405190810160405280929190818152602001828054611d8f90613c5b565b8015611ddc5780601f10611db157610100808354040283529160200191611ddc565b820191906000526020600020905b815481529060010190602001808311611dbf57829003601f168201915b5050505050908060050154908060060154905087565b60408051808201909152600080825260208201526001600160a01b0383166000908152600860205260409020805463ffffffff8416908110611e4457634e487b7160e01b600052603260045260246000fd5b60009182526020918290206040805180820190915291015463ffffffff8116825264010000000090046001600160e01b0316918101919091529392505050565b6005546001600160a01b03610100909104163314611eb45760405162461bcd60e51b815260040161062690613b77565b6001600160a01b038116611f195760405162461bcd60e51b815260206004820152602660248201527f4f776e61626c653a206e6577206f776e657220697320746865207a65726f206160448201526564647265737360d01b6064820152608401610626565b610bc181612839565b611f2c8282611fb2565b6002546001600160e01b031015611f9e5760405162461bcd60e51b815260206004820152603060248201527f4552433230566f7465733a20746f74616c20737570706c79207269736b73206f60448201526f766572666c6f77696e6720766f74657360801b6064820152608401610626565b611fac60096120a583612bcd565b50505050565b6001600160a01b0382166120085760405162461bcd60e51b815260206004820152601f60248201527f45524332303a206d696e7420746f20746865207a65726f2061646472657373006044820152606401610626565b61201460008383612d70565b80600260008282546120269190613bed565b90915550506001600160a01b03821660009081526020819052604081208054839290612053908490613bed565b90915550506040518181526001600160a01b038316906000907fddf252ad1be2c89b69c2b068fc378daa952ba7f163c4a11628f55a4df523b3ef9060200160405180910390a3610acc60008383612dbb565b6000610a518284613bed565b60006001600160e01b0382111561211a5760405162461bcd60e51b815260206004820152602760248201527f53616665436173743a2076616c756520646f65736e27742066697420696e20326044820152663234206269747360c81b6064820152608401610626565b5090565b600063ffffffff82111561211a5760405162461bcd60e51b815260206004820152602660248201527f53616665436173743a2076616c756520646f65736e27742066697420696e203360448201526532206269747360d01b6064820152608401610626565b61172661218f84610b96565b61219884610b96565b83612dc6565b6000610a518284613c44565b6001600160a01b03831661220c5760405162461bcd60e51b8152602060048201526024808201527f45524332303a20617070726f76652066726f6d20746865207a65726f206164646044820152637265737360e01b6064820152608401610626565b6001600160a01b03821661226d5760405162461bcd60e51b815260206004820152602260248201527f45524332303a20617070726f766520746f20746865207a65726f206164647265604482015261737360f01b6064820152608401610626565b6001600160a01b0383811660008181526001602090815260408083209487168084529482529182902085905590518481527f8c5be1e5ebec7d5bd14f71427d1e84f3dd0314c0f7b2291e5b200ac8c7c3b925910160405180910390a3505050565b60005b815151811015610acc576001600d60008460000151848151811061230557634e487b7160e01b600052603260045260246000fd5b60200260200101516001600160a01b03166001600160a01b03168152602001908152602001600020600001600082825461233f9190613bed565b9091555081905061234f81613c90565b9150506122d1565b6001600160a01b0383166123bb5760405162461bcd60e51b815260206004820152602560248201527f45524332303a207472616e736665722066726f6d20746865207a65726f206164604482015264647265737360d81b6064820152608401610626565b6001600160a01b03821661241d5760405162461bcd60e51b815260206004820152602360248201527f45524332303a207472616e7366657220746f20746865207a65726f206164647260448201526265737360e81b6064820152608401610626565b612428838383612d70565b6001600160a01b038316600090815260208190526040902054818110156124a05760405162461bcd60e51b815260206004820152602660248201527f45524332303a207472616e7366657220616d6f756e7420657863656564732062604482015265616c616e636560d01b6064820152608401610626565b6001600160a01b038085166000908152602081905260408082208585039055918516815290812080548492906124d7908490613bed565b92505081905550826001600160a01b0316846001600160a01b03167fddf252ad1be2c89b69c2b068fc378daa952ba7f163c4a11628f55a4df523b3ef8460405161252391815260200190565b60405180910390a3611fac848484612dbb565b60007f000000000000000000000000000000000000000000000000000000000000000046141561258757507f0000000000000000000000000000000000000000000000000000000000000000610713565b50604080517f00000000000000000000000000000000000000000000000000000000000000006020808301919091527f0000000000000000000000000000000000000000000000000000000000000000828401527f000000000000000000000000000000000000000000000000000000000000000060608301524660808301523060a0808401919091528351808403909101815260c09092019092528051910120610713565b8154600090815b8181101561269f5760006126488284612f03565b90508486828154811061266b57634e487b7160e01b600052603260045260246000fd5b60009182526020909120015463ffffffff16111561268b57809250612699565b612696816001613bed565b91505b50612634565b81156126f157846126b1600184613c44565b815481106126cf57634e487b7160e01b600052603260045260246000fd5b60009182526020909120015464010000000090046001600160e01b03166126f4565b60005b6001600160e01b031695945050505050565b60055460ff1661274f5760405162461bcd60e51b815260206004820152601460248201527314185d5cd8589b194e881b9bdd081c185d5cd95960621b6044820152606401610626565b6005805460ff191690557f5db9ee0a495bf2e6ff9c91a7834c1ba4fdd244a5e8aa4e537bd38aeae4b073aa335b6040516001600160a01b03909116815260200160405180910390a1565b610acc8282611f22565b60006127ae83610b96565b905060006127d1846001600160a01b031660009081526020819052604090205490565b6001600160a01b0385811660008181526007602052604080822080546001600160a01b031916898616908117909155905194955093928616927f3134e8a2e6d97e929a7e54011ea5485d7d196dd5f0ba4d4ef95803e8e3fc257f9190a4611fac828483612dc6565b600580546001600160a01b03838116610100818102610100600160a81b031985161790945560405193909204169182907f8be0079c531659141344cd1fd0a4f28419497f9722a3daafe3b4186f6b6457e090600090a35050565b60055460ff16156128d95760405162461bcd60e51b815260206004820152601060248201526f14185d5cd8589b194e881c185d5cd95960821b6044820152606401610626565b6005805460ff191660011790557f62e78cea01bee320cd4e420270b5ea74000d11b0c9f74754ebdbfc544b05a25861277c3390565b6000808061291b85612f1e565b905060005b855151811015612b1b576000306001600160a01b03166370a082318860000151848151811061295f57634e487b7160e01b600052603260045260246000fd5b60200260200101516040518263ffffffff1660e01b815260040161299291906001600160a01b0391909116815260200190565b60206040518083038186803b1580156129aa57600080fd5b505afa1580156129be573d6000803e3d6000fd5b505050506040513d601f19601f820116820180604052508101906129e29190613a6d565b90508015612b085760006129f68285613c05565b612a009088613c05565b90506000612a3989600001518581518110612a2b57634e487b7160e01b600052603260045260246000fd5b602002602001015183612fff565b90508015612b055788518051309163a9059cbb9187908110612a6b57634e487b7160e01b600052603260045260246000fd5b6020026020010151836040518363ffffffff1660e01b8152600401612aa59291906001600160a01b03929092168252602082015260400190565b602060405180830381600087803b158015612abf57600080fd5b505af1158015612ad3573d6000803e3d6000fd5b505050506040513d601f19601f82011682018060405250810190612af79190613a39565b50612b028187613bed565b95505b50505b5080612b1381613c90565b915050612920565b5090949350505050565b610acc8282613057565b6000610be6612b3c612536565b8360405161190160f01b6020820152602281018390526042810182905260009060620160405160208183030381529060405280519060200120905092915050565b6000806000612b8e8787878761306f565b91509150612b9b8161315c565b5095945050505050565b6001600160a01b03811660009081526006602052604090208054600181018255905b50919050565b825460009081908015612c265785612be6600183613c44565b81548110612c0457634e487b7160e01b600052603260045260246000fd5b60009182526020909120015464010000000090046001600160e01b0316612c29565b60005b6001600160e01b03169250612c4283858763ffffffff16565b9150600081118015612c8e57504386612c5c600184613c44565b81548110612c7a57634e487b7160e01b600052603260045260246000fd5b60009182526020909120015463ffffffff16145b15612cfc57612c9c826120b1565b86612ca8600184613c44565b81548110612cc657634e487b7160e01b600052603260045260246000fd5b9060005260206000200160000160046101000a8154816001600160e01b0302191690836001600160e01b03160217905550612d67565b856040518060400160405280612d114361211e565b63ffffffff168152602001612d25856120b1565b6001600160e01b0390811690915282546001810184556000938452602093849020835194909301519091166401000000000263ffffffff909316929092179101555b50935093915050565b60055460ff1615612db65760405162461bcd60e51b815260206004820152601060248201526f14185d5cd8589b194e881c185d5cd95960821b6044820152606401610626565b611726565b611726838383612183565b816001600160a01b0316836001600160a01b031614158015612de85750600081115b15611726576001600160a01b03831615612e76576001600160a01b03831660009081526008602052604081208190612e239061219e85612bcd565b91509150846001600160a01b03167fdec2bacdd2f05b59de34da9b523dff8be42e5e38e818c82fdb0bae774387a7248383604051612e6b929190918252602082015260400190565b60405180910390a250505b6001600160a01b03821615611726576001600160a01b03821660009081526008602052604081208190612eac906120a585612bcd565b91509150836001600160a01b03167fdec2bacdd2f05b59de34da9b523dff8be42e5e38e818c82fdb0bae774387a7248383604051612ef4929190918252602082015260400190565b60405180910390a25050505050565b6000612f126002848418613c05565b610a5190848416613bed565b600080805b835151811015612ff8578351805130916370a082319184908110612f5757634e487b7160e01b600052603260045260246000fd5b60200260200101516040518263ffffffff1660e01b8152600401612f8a91906001600160a01b0391909116815260200190565b60206040518083038186803b158015612fa257600080fd5b505afa158015612fb6573d6000803e3d6000fd5b505050506040513d601f19601f82011682018060405250810190612fda9190613a6d565b612fe49083613bed565b915080612ff081613c90565b915050612f23565b5092915050565b6001600160a01b0382166000908152600d60205260408120805460019091015482919061302d906064613c25565b6130379190613c05565b905060646130458285613c25565b61304f9190613c05565b949350505050565b613061828261335f565b611fac600961219e83612bcd565b6000807f7fffffffffffffffffffffffffffffff5d576e7357a4501ddfe92f46681b20a08311156130a65750600090506003613153565b8460ff16601b141580156130be57508460ff16601c14155b156130cf5750600090506004613153565b6040805160008082526020820180845289905260ff881692820192909252606081018690526080810185905260019060a0016020604051602081039080840390855afa158015613123573d6000803e3d6000fd5b5050604051601f1901519150506001600160a01b03811661314c57600060019250925050613153565b9150600090505b94509492505050565b600081600481111561317e57634e487b7160e01b600052602160045260246000fd5b141561318957610bc1565b60018160048111156131ab57634e487b7160e01b600052602160045260246000fd5b14156131f95760405162461bcd60e51b815260206004820152601860248201527f45434453413a20696e76616c6964207369676e617475726500000000000000006044820152606401610626565b600281600481111561321b57634e487b7160e01b600052602160045260246000fd5b14156132695760405162461bcd60e51b815260206004820152601f60248201527f45434453413a20696e76616c6964207369676e6174757265206c656e677468006044820152606401610626565b600381600481111561328b57634e487b7160e01b600052602160045260246000fd5b14156132e45760405162461bcd60e51b815260206004820152602260248201527f45434453413a20696e76616c6964207369676e6174757265202773272076616c604482015261756560f01b6064820152608401610626565b600481600481111561330657634e487b7160e01b600052602160045260246000fd5b1415610bc15760405162461bcd60e51b815260206004820152602260248201527f45434453413a20696e76616c6964207369676e6174757265202776272076616c604482015261756560f01b6064820152608401610626565b6001600160a01b0382166133bf5760405162461bcd60e51b815260206004820152602160248201527f45524332303a206275726e2066726f6d20746865207a65726f206164647265736044820152607360f81b6064820152608401610626565b6133cb82600083612d70565b6001600160a01b0382166000908152602081905260409020548181101561343f5760405162461bcd60e51b815260206004820152602260248201527f45524332303a206275726e20616d6f756e7420657863656564732062616c616e604482015261636560f01b6064820152608401610626565b6001600160a01b038316600090815260208190526040812083830390556002805484929061346e908490613c44565b90915550506040518281526000906001600160a01b038516907fddf252ad1be2c89b69c2b068fc378daa952ba7f163c4a11628f55a4df523b3ef9060200160405180910390a361172683600084612dbb565b828054828255906000526020600020908101928215613515579160200282015b8281111561351557825182546001600160a01b0319166001600160a01b039091161782556020909201916001909101906134e0565b5061211a929150613624565b82805461352d90613c5b565b90600052602060002090601f01602090048101928261354f5760008555613515565b82601f1061356857805160ff1916838001178555613515565b82800160010185558215613515579182015b8281111561351557825182559160200191906001019061357a565b5080546135a190613c5b565b6000825580601f106135b35750610bc1565b601f016020900490600052602060002090810190610bc19190613624565b828054828255906000526020600020908101928215613515579160200282015b828111156135155781546001600160a01b0319166001600160a01b038435161782556020909201916001909101906135f1565b5b8082111561211a5760008155600101613625565b80356001600160a01b0381168114610bb257600080fd5b60008083601f840112613661578182fd5b50813567ffffffffffffffff811115613678578182fd5b6020830191508360208260051b850101111561369357600080fd5b9250929050565b60008083601f8401126136ab578182fd5b50813567ffffffffffffffff8111156136c2578182fd5b60208301915083602082850101111561369357600080fd5b803560ff81168114610bb257600080fd5b6000602082840312156136fc578081fd5b610a5182613639565b60008060408385031215613717578081fd5b61372083613639565b915061372e60208401613639565b90509250929050565b60008060006060848603121561374b578081fd5b61375484613639565b925061376260208501613639565b9150604084013590509250925092565b600080600080600080600060e0888a03121561378c578283fd5b61379588613639565b96506137a360208901613639565b955060408801359450606088013593506137bf608089016136da565b925060a0880135915060c0880135905092959891949750929550565b6000806000806000608086880312156137f2578081fd5b6137fb86613639565b9450602086013567ffffffffffffffff811115613816578182fd5b61382288828901613650565b9699909850959660408101359660609091013595509350505050565b60008060408385031215613850578182fd5b61385983613639565b946020939093013593505050565b60008060006060848603121561387b578283fd5b61388484613639565b925060208401359150604084013561389b81613cc1565b809150509250925092565b600080600080606085870312156138bb578384fd5b6138c485613639565b935060208501359250604085013567ffffffffffffffff8111156138e6578283fd5b6138f28782880161369a565b95989497509550505050565b600080600080600060808688031215613915578081fd5b61391e86613639565b94506020860135935060408601359250606086013567ffffffffffffffff811115613947578182fd5b6139538882890161369a565b969995985093965092949392505050565b60008060008060008060c0878903121561397c578384fd5b61398587613639565b955060208701359450604087013593506139a1606088016136da565b92506080870135915060a087013590509295509295509295565b600080604083850312156139cd578182fd5b6139d683613639565b9150602083013563ffffffff811681146139ee578182fd5b809150509250929050565b60008060208385031215613a0b578182fd5b823567ffffffffffffffff811115613a21578283fd5b613a2d85828601613650565b90969095509350505050565b600060208284031215613a4a578081fd5b8151610a5181613cc1565b600060208284031215613a66578081fd5b5035919050565b600060208284031215613a7e578081fd5b5051919050565b60008151808452815b81811015613aaa57602081850181015186830182015201613a8e565b81811115613abb5782602083870101525b50601f01601f19169290920160200192915050565b600060048910613aee57634e487b7160e01b81526021600452602481fd5b88825287602083015260018060a01b038716604083015285606083015260e06080830152613b1f60e0830186613a85565b60a08301949094525060c0015295945050505050565b60006020825282602083015282846040840137818301604090810191909152601f909201601f19160101919050565b600060208252610a516020830184613a85565b6020808252818101527f4f776e61626c653a2063616c6c6572206973206e6f7420746865206f776e6572604082015260600190565b60208082526021908201527f4f6e6c7920736572766963652063616e2063616c6c2074686973206d6574686f6040820152601960fa1b606082015260800190565b60008219821115613c0057613c00613cab565b500190565b600082613c2057634e487b7160e01b81526012600452602481fd5b500490565b6000816000190483118215151615613c3f57613c3f613cab565b500290565b600082821015613c5657613c56613cab565b500390565b600181811c90821680613c6f57607f821691505b60208210811415612bc757634e487b7160e01b600052602260045260246000fd5b6000600019821415613ca457613ca4613cab565b5060010190565b634e487b7160e01b600052601160045260246000fd5b8015158114610bc157600080fdfea2646970667358221220be94e33102b7465bcf67c45e7c7bff304ad5ed89694b9ae8954a02bc25e94ce164736f6c63430008030033dec2bacdd2f05b59de34da9b523dff8be42e5e38e818c82fdb0bae774387a724",
  "immutableReferences": {
    "1518": [
      {
        "length": 32,
        "start": 7172
      }
    ],
    "2164": [
      {
        "length": 32,
        "start": 9571
      }
    ],
    "2166": [
      {
        "length": 32,
        "start": 9530
      }
    ],
    "2168": [
      {
        "length": 32,
        "start": 9656
      }
    ],
    "2170": [
      {
        "length": 32,
        "start": 9693
      }
    ],
    "2172": [
      {
        "length": 32,
        "start": 9614
      }
    ]
  },
  "source": "// SPDX-License-Identifier: MIT\npragma solidity ^0.8.3;\n\nimport \"@openzeppelin/contracts/token/ERC20/ERC20.sol\";\nimport \"@openzeppelin/contracts/security/Pausable.sol\";\nimport \"@openzeppelin/contracts/access/Ownable.sol\";\nimport \"@openzeppelin/contracts/token/ERC20/extensions/draft-ERC20Permit.sol\";\nimport \"@openzeppelin/contracts/token/ERC20/extensions/ERC20Votes.sol\";\n\n\ncontract YandaToken is ERC20, Pausable, Ownable, ERC20Permit, ERC20Votes {\n    enum State { AWAITING_TRANSFER, AWAITING_TERMINATION, AWAITING_VALIDATION, COMPLETED }\n    struct Process {\n        State state;\n        uint cost;\n        address service;\n        bytes32 productId;\n        string productData;\n        uint validations;\n        uint failedValidations;\n    }\n    struct Service {\n        address[] validators;\n        uint validationShare;\n        uint commissionShare;\n    }\n    struct Validator {\n        uint requests;\n        uint validations;\n    }\n    mapping(address => mapping(bytes32 => Process)) public processes;\n    mapping(address => bytes32) public depositingProducts;\n    mapping(address => Service) public services;\n    mapping(address => Validator) public validators;\n\n    event Deposit(\n        address indexed customer,\n        address indexed service,\n        bytes32 indexed productId,\n        uint256 weiAmount\n    );\n    event Action(\n        address indexed customer,\n        address indexed service,\n        bytes32 indexed productId,\n        string data\n    );\n    event Terminate(\n        address indexed customer,\n        address indexed service,\n        bytes32 indexed productId\n    );\n    event Complete(\n        address indexed customer,\n        address indexed service, \n        bytes32 indexed productId,\n        bool success\n    );\n\n    modifier onlyService() {\n        require(services[msg.sender].validationShare > 0, \"Only service can call this method\");\n        _;\n    }\n\n    modifier onlyValidator() {\n        require(validators[msg.sender].requests > 0, \"Only validator can call this method\");\n        _;\n    }\n\n    constructor() ERC20(\"YandaToken\", \"YND\") ERC20Permit(\"YandaToken\") {\n        _mint(msg.sender, 100000 * 10 ** decimals());\n    }\n\n    function pause() public onlyOwner {\n        _pause();\n    }\n\n    function unpause() public onlyOwner {\n        _unpause();\n    }\n\n    function mint(address to, uint256 amount) public onlyOwner {\n        _mint(to, amount);\n    }\n\n    function _beforeTokenTransfer(address from, address to, uint256 amount)\n        internal\n        whenNotPaused\n        override\n    {\n        super._beforeTokenTransfer(from, to, amount);\n    }\n\n    // The following functions are overrides required by Solidity.\n\n    function _afterTokenTransfer(address from, address to, uint256 amount)\n        internal\n        override(ERC20, ERC20Votes)\n    {\n        super._afterTokenTransfer(from, to, amount);\n    }\n\n    function _mint(address to, uint256 amount)\n        internal\n        override(ERC20, ERC20Votes)\n    {\n        super._mint(to, amount);\n    }\n\n    function _burn(address account, uint256 amount)\n        internal\n        override(ERC20, ERC20Votes)\n    {\n        super._burn(account, amount);\n    }\n    \n    function transfer(address recipient, uint256 amount) public virtual override returns (bool) {\n        if(recipient == address(this)) {\n            require(\n                processes[msg.sender][depositingProducts[msg.sender]].state == State.AWAITING_TRANSFER,\n                \"You don't have a deposit awaiting process, please create it first\"\n            );\n\n            _transfer(_msgSender(), recipient, amount);\n            processes[msg.sender][depositingProducts[msg.sender]].state = State.AWAITING_TERMINATION;\n\n            emit Deposit(\n                _msgSender(),\n                processes[msg.sender][depositingProducts[msg.sender]].service,\n                processes[msg.sender][depositingProducts[msg.sender]].productId,\n                amount\n            );\n        } else {\n            _transfer(_msgSender(), recipient, amount);\n        }\n        return true;\n    }\n\n    function addService(address service, address[] calldata vList, uint vShare, uint cShare)\n        public\n        onlyOwner\n    {\n        services[service] = Service({\n            validators: vList,\n            validationShare: vShare,\n            commissionShare: cShare\n        });\n    }\n\n    function setValidators(address[] calldata vList) public onlyService {\n        services[msg.sender].validators = vList;\n    }\n\n    function createProcess(address service, uint256 amount, bytes32 productId, string calldata data) public {\n        require(services[service].validationShare > 0, 'Requested service address not found');\n        require(processes[msg.sender][productId].service == address(0), 'Process with specified productId already exist');\n\n        processes[msg.sender][productId] = Process({\n            state: State.AWAITING_TRANSFER,\n            cost: amount,\n            service: service,\n            productId: productId,\n            productData: data,\n            validations: 0,\n            failedValidations: 0\n        });\n        if(depositingProducts[msg.sender].length > 0) {\n            // Delete previous product if still waits for a deposit\n            if(processes[msg.sender][depositingProducts[msg.sender]].state == State.AWAITING_TRANSFER) {\n                delete processes[msg.sender][depositingProducts[msg.sender]];\n            }\n        }\n        depositingProducts[msg.sender] = productId;\n    }\n\n    function declareAction(address customer, bytes32 productId, string calldata data)\n        public onlyService\n    {\n        emit Action(customer, msg.sender, productId, data);\n    }\n\n    function _updateValidatorsScore(Service memory service) internal {\n        for(uint i=0; i < service.validators.length; i++) { \n            validators[service.validators[i]].requests += 1;\n        }\n    }\n\n    function startTermination(address customer, bytes32 productId) public onlyService {\n        require(processes[customer][productId].state == State.AWAITING_TERMINATION, \"Cannot start termination\");\n        processes[customer][productId].state = State.AWAITING_VALIDATION;\n        // Update validators requests score\n        _updateValidatorsScore(services[processes[customer][productId].service]);\n        // Emit Terminate event to trigger validators\n        emit Terminate(customer, msg.sender, productId);\n    }\n\n    function _validatorsHolding(Service memory service) view internal returns(uint256) {\n        uint256 result = 0;\n        for(uint i=0; i < service.validators.length; i++) { \n            result += this.balanceOf(service.validators[i]);\n        }\n        return result;\n    }\n\n    function _scoredReward(address validator, uint256 reward) view internal returns(uint256) {\n        uint256 score = (validators[validator].validations * 100) /  validators[validator].requests;\n        return (reward * score) / 100;\n    }\n\n    function _rewardValidators(Service memory service, uint256 amount) internal returns(uint256) {\n        uint256 rewards_sum = 0;\n        // Sum of validators YND token balances\n        uint256 holdings = _validatorsHolding(service);\n\n        for(uint i=0; i < service.validators.length; i++) {\n            uint256 validator_balance = this.balanceOf(service.validators[i]);\n            if(validator_balance > 0) {\n                uint256 reward = amount / (holdings / validator_balance);\n                // Reward after scoring filter\n                uint256 scored_reward = _scoredReward(service.validators[i], reward);\n                if(scored_reward > 0) {\n                    this.transfer(payable(service.validators[i]), scored_reward);\n                    rewards_sum += scored_reward;\n                }\n            }\n        }\n        return rewards_sum;\n    }\n\n    function validateTermination(address customer, bytes32 productId, bool passed) public onlyValidator {\n        require(processes[customer][productId].state >= State.AWAITING_VALIDATION, \"Cannot validate delivary\");\n        \n        if(passed) {\n            processes[customer][productId].validations += 1;\n        } else {\n            processes[customer][productId].failedValidations += 1;\n        }\n        // Update validator score\n        validators[msg.sender].validations += 1;\n\n        if(processes[customer][productId].state == State.AWAITING_VALIDATION) {\n            if(processes[customer][productId].validations > services[processes[customer][productId].service].validators.length / 2) {\n                // Update process state to COMPLETED\n                processes[customer][productId].state = State.COMPLETED;\n                // Reward validators\n                uint256 reward_amount = processes[customer][productId].cost / services[processes[customer][productId].service].validationShare;\n                uint256 executed_amount = _rewardValidators(services[processes[customer][productId].service], reward_amount);\n                // Pay service commission\n                uint256 commission_amount = processes[customer][productId].cost / services[processes[customer][productId].service].commissionShare;\n                this.transfer(payable(processes[customer][productId].service), commission_amount);\n                // Burn remaining funds\n                _burn(address(this), processes[customer][productId].cost - executed_amount - commission_amount);\n                emit Complete(customer, processes[customer][productId].service, productId, true);\n            } else {\n                if(processes[customer][productId].failedValidations >= services[processes[customer][productId].service].validators.length / 2) {\n                    // Update process state to COMPLETED\n                    processes[customer][productId].state = State.COMPLETED;\n                    // Reward validators\n                    uint256 reward_amount = processes[customer][productId].cost / services[processes[customer][productId].service].validationShare;\n                    uint256 executed_amount = _rewardValidators(services[processes[customer][productId].service], reward_amount);\n                    // Make refund\n                    this.transfer(payable(customer), processes[customer][productId].cost - executed_amount);\n                    emit Complete(customer, processes[customer][productId].service, productId, false);\n                }\n            }\n        }\n    }\n\n}\n",
  "sourcePath": "/Users/daniel/Code/Work/Yanda/celo/contract/contracts/YandaToken.sol",
  "compiler": {
    "name": "solc",
    "version": "0.8.3+commit.8d00100c.Emscripten.clang"
  },
  "schemaVersion": "3.4.3",
  "updatedAt": "2021-10-29T09:42:27.482Z",
  "networkType": "ethereum",
  "devdoc": {
    "kind": "dev",
    "methods": {
      "DOMAIN_SEPARATOR()": {
        "details": "See {IERC20Permit-DOMAIN_SEPARATOR}."
      },
      "allowance(address,address)": {
        "details": "See {IERC20-allowance}."
      },
      "approve(address,uint256)": {
        "details": "See {IERC20-approve}. Requirements: - `spender` cannot be the zero address."
      },
      "balanceOf(address)": {
        "details": "See {IERC20-balanceOf}."
      },
      "checkpoints(address,uint32)": {
        "details": "Get the `pos`-th checkpoint for `account`."
      },
      "decimals()": {
        "details": "Returns the number of decimals used to get its user representation. For example, if `decimals` equals `2`, a balance of `505` tokens should be displayed to a user as `5.05` (`505 / 10 ** 2`). Tokens usually opt for a value of 18, imitating the relationship between Ether and Wei. This is the value {ERC20} uses, unless this function is overridden; NOTE: This information is only used for _display_ purposes: it in no way affects any of the arithmetic of the contract, including {IERC20-balanceOf} and {IERC20-transfer}."
      },
      "decreaseAllowance(address,uint256)": {
        "details": "Atomically decreases the allowance granted to `spender` by the caller. This is an alternative to {approve} that can be used as a mitigation for problems described in {IERC20-approve}. Emits an {Approval} event indicating the updated allowance. Requirements: - `spender` cannot be the zero address. - `spender` must have allowance for the caller of at least `subtractedValue`."
      },
      "delegate(address)": {
        "details": "Delegate votes from the sender to `delegatee`."
      },
      "delegateBySig(address,uint256,uint256,uint8,bytes32,bytes32)": {
        "details": "Delegates votes from signer to `delegatee`"
      },
      "delegates(address)": {
        "details": "Get the address `account` is currently delegating to."
      },
      "getPastTotalSupply(uint256)": {
        "details": "Retrieve the `totalSupply` at the end of `blockNumber`. Note, this value is the sum of all balances. It is but NOT the sum of all the delegated votes! Requirements: - `blockNumber` must have been already mined"
      },
      "getPastVotes(address,uint256)": {
        "details": "Retrieve the number of votes for `account` at the end of `blockNumber`. Requirements: - `blockNumber` must have been already mined"
      },
      "getVotes(address)": {
        "details": "Gets the current votes balance for `account`"
      },
      "increaseAllowance(address,uint256)": {
        "details": "Atomically increases the allowance granted to `spender` by the caller. This is an alternative to {approve} that can be used as a mitigation for problems described in {IERC20-approve}. Emits an {Approval} event indicating the updated allowance. Requirements: - `spender` cannot be the zero address."
      },
      "name()": {
        "details": "Returns the name of the token."
      },
      "nonces(address)": {
        "details": "See {IERC20Permit-nonces}."
      },
      "numCheckpoints(address)": {
        "details": "Get number of checkpoints for `account`."
      },
      "owner()": {
        "details": "Returns the address of the current owner."
      },
      "paused()": {
        "details": "Returns true if the contract is paused, and false otherwise."
      },
      "permit(address,address,uint256,uint256,uint8,bytes32,bytes32)": {
        "details": "See {IERC20Permit-permit}."
      },
      "renounceOwnership()": {
        "details": "Leaves the contract without owner. It will not be possible to call `onlyOwner` functions anymore. Can only be called by the current owner. NOTE: Renouncing ownership will leave the contract without an owner, thereby removing any functionality that is only available to the owner."
      },
      "symbol()": {
        "details": "Returns the symbol of the token, usually a shorter version of the name."
      },
      "totalSupply()": {
        "details": "See {IERC20-totalSupply}."
      },
      "transfer(address,uint256)": {
        "details": "See {IERC20-transfer}. Requirements: - `recipient` cannot be the zero address. - the caller must have a balance of at least `amount`."
      },
      "transferFrom(address,address,uint256)": {
        "details": "See {IERC20-transferFrom}. Emits an {Approval} event indicating the updated allowance. This is not required by the EIP. See the note at the beginning of {ERC20}. Requirements: - `sender` and `recipient` cannot be the zero address. - `sender` must have a balance of at least `amount`. - the caller must have allowance for ``sender``'s tokens of at least `amount`."
      },
      "transferOwnership(address)": {
        "details": "Transfers ownership of the contract to a new account (`newOwner`). Can only be called by the current owner."
      }
    },
    "version": 1
  },
  "userdoc": {
    "kind": "user",
    "methods": {},
    "version": 1
  }
}