{
  "_format": "hh-sol-artifact-1",
  "contractName": "YandaToken",
  "sourceName": "contracts/YandaToken.sol",
  "abi": [
    {
      "inputs": [],
      "stateMutability": "nonpayable",
      "type": "constructor"
    },
    {
      "anonymous": false,
      "inputs": [
        {
          "indexed": true,
          "internalType": "address",
          "name": "customer",
          "type": "address"
        },
        {
          "indexed": true,
          "internalType": "address",
          "name": "service",
          "type": "address"
        },
        {
          "indexed": true,
          "internalType": "bytes32",
          "name": "productId",
          "type": "bytes32"
        },
        {
          "indexed": false,
          "internalType": "string",
          "name": "data",
          "type": "string"
        }
      ],
      "name": "Action",
      "type": "event"
    },
    {
      "anonymous": false,
      "inputs": [
        {
          "indexed": true,
          "internalType": "address",
          "name": "owner",
          "type": "address"
        },
        {
          "indexed": true,
          "internalType": "address",
          "name": "spender",
          "type": "address"
        },
        {
          "indexed": false,
          "internalType": "uint256",
          "name": "value",
          "type": "uint256"
        }
      ],
      "name": "Approval",
      "type": "event"
    },
    {
      "anonymous": false,
      "inputs": [
        {
          "indexed": true,
          "internalType": "address",
          "name": "customer",
          "type": "address"
        },
        {
          "indexed": true,
          "internalType": "address",
          "name": "service",
          "type": "address"
        },
        {
          "indexed": true,
          "internalType": "bytes32",
          "name": "productId",
          "type": "bytes32"
        },
        {
          "indexed": false,
          "internalType": "bool",
          "name": "success",
          "type": "bool"
        }
      ],
      "name": "Complete",
      "type": "event"
    },
    {
      "anonymous": false,
      "inputs": [
        {
          "indexed": true,
          "internalType": "address",
          "name": "customer",
          "type": "address"
        },
        {
          "indexed": true,
          "internalType": "address",
          "name": "service",
          "type": "address"
        },
        {
          "indexed": true,
          "internalType": "bytes32",
          "name": "productId",
          "type": "bytes32"
        },
        {
          "indexed": false,
          "internalType": "string",
          "name": "data",
          "type": "string"
        }
      ],
      "name": "CostRequest",
      "type": "event"
    },
    {
      "anonymous": false,
      "inputs": [
        {
          "indexed": true,
          "internalType": "address",
          "name": "customer",
          "type": "address"
        },
        {
          "indexed": true,
          "internalType": "address",
          "name": "service",
          "type": "address"
        },
        {
          "indexed": true,
          "internalType": "bytes32",
          "name": "productId",
          "type": "bytes32"
        },
        {
          "indexed": false,
          "internalType": "uint256",
          "name": "cost",
          "type": "uint256"
        }
      ],
      "name": "CostResponse",
      "type": "event"
    },
    {
      "anonymous": false,
      "inputs": [
        {
          "indexed": true,
          "internalType": "address",
          "name": "delegator",
          "type": "address"
        },
        {
          "indexed": true,
          "internalType": "address",
          "name": "fromDelegate",
          "type": "address"
        },
        {
          "indexed": true,
          "internalType": "address",
          "name": "toDelegate",
          "type": "address"
        }
      ],
      "name": "DelegateChanged",
      "type": "event"
    },
    {
      "anonymous": false,
      "inputs": [
        {
          "indexed": true,
          "internalType": "address",
          "name": "delegate",
          "type": "address"
        },
        {
          "indexed": false,
          "internalType": "uint256",
          "name": "previousBalance",
          "type": "uint256"
        },
        {
          "indexed": false,
          "internalType": "uint256",
          "name": "newBalance",
          "type": "uint256"
        }
      ],
      "name": "DelegateVotesChanged",
      "type": "event"
    },
    {
      "anonymous": false,
      "inputs": [
        {
          "indexed": true,
          "internalType": "address",
          "name": "customer",
          "type": "address"
        },
        {
          "indexed": true,
          "internalType": "address",
          "name": "service",
          "type": "address"
        },
        {
          "indexed": true,
          "internalType": "bytes32",
          "name": "productId",
          "type": "bytes32"
        },
        {
          "indexed": false,
          "internalType": "uint256",
          "name": "weiAmount",
          "type": "uint256"
        }
      ],
      "name": "Deposit",
      "type": "event"
    },
    {
      "anonymous": false,
      "inputs": [
        {
          "indexed": false,
          "internalType": "address",
          "name": "account",
          "type": "address"
        }
      ],
      "name": "Paused",
      "type": "event"
    },
    {
      "anonymous": false,
      "inputs": [
        {
          "indexed": true,
          "internalType": "bytes32",
          "name": "role",
          "type": "bytes32"
        },
        {
          "indexed": true,
          "internalType": "bytes32",
          "name": "previousAdminRole",
          "type": "bytes32"
        },
        {
          "indexed": true,
          "internalType": "bytes32",
          "name": "newAdminRole",
          "type": "bytes32"
        }
      ],
      "name": "RoleAdminChanged",
      "type": "event"
    },
    {
      "anonymous": false,
      "inputs": [
        {
          "indexed": true,
          "internalType": "bytes32",
          "name": "role",
          "type": "bytes32"
        },
        {
          "indexed": true,
          "internalType": "address",
          "name": "account",
          "type": "address"
        },
        {
          "indexed": true,
          "internalType": "address",
          "name": "sender",
          "type": "address"
        }
      ],
      "name": "RoleGranted",
      "type": "event"
    },
    {
      "anonymous": false,
      "inputs": [
        {
          "indexed": true,
          "internalType": "bytes32",
          "name": "role",
          "type": "bytes32"
        },
        {
          "indexed": true,
          "internalType": "address",
          "name": "account",
          "type": "address"
        },
        {
          "indexed": true,
          "internalType": "address",
          "name": "sender",
          "type": "address"
        }
      ],
      "name": "RoleRevoked",
      "type": "event"
    },
    {
      "anonymous": false,
      "inputs": [
        {
          "indexed": true,
          "internalType": "address",
          "name": "customer",
          "type": "address"
        },
        {
          "indexed": true,
          "internalType": "address",
          "name": "service",
          "type": "address"
        },
        {
          "indexed": true,
          "internalType": "bytes32",
          "name": "productId",
          "type": "bytes32"
        }
      ],
      "name": "Terminate",
      "type": "event"
    },
    {
      "anonymous": false,
      "inputs": [
        {
          "indexed": true,
          "internalType": "address",
          "name": "from",
          "type": "address"
        },
        {
          "indexed": true,
          "internalType": "address",
          "name": "to",
          "type": "address"
        },
        {
          "indexed": false,
          "internalType": "uint256",
          "name": "value",
          "type": "uint256"
        }
      ],
      "name": "Transfer",
      "type": "event"
    },
    {
      "anonymous": false,
      "inputs": [
        {
          "indexed": false,
          "internalType": "address",
          "name": "account",
          "type": "address"
        }
      ],
      "name": "Unpaused",
      "type": "event"
    },
    {
      "inputs": [],
      "name": "DEFAULT_ADMIN_ROLE",
      "outputs": [
        {
          "internalType": "bytes32",
          "name": "",
          "type": "bytes32"
        }
      ],
      "stateMutability": "view",
      "type": "function"
    },
    {
      "inputs": [],
      "name": "DOMAIN_SEPARATOR",
      "outputs": [
        {
          "internalType": "bytes32",
          "name": "",
          "type": "bytes32"
        }
      ],
      "stateMutability": "view",
      "type": "function"
    },
    {
      "inputs": [],
      "name": "MINTER_ROLE",
      "outputs": [
        {
          "internalType": "bytes32",
          "name": "",
          "type": "bytes32"
        }
      ],
      "stateMutability": "view",
      "type": "function"
    },
    {
      "inputs": [],
      "name": "PAUSER_ROLE",
      "outputs": [
        {
          "internalType": "bytes32",
          "name": "",
          "type": "bytes32"
        }
      ],
      "stateMutability": "view",
      "type": "function"
    },
    {
      "inputs": [
        {
          "internalType": "address",
          "name": "service",
          "type": "address"
        },
        {
          "internalType": "address[]",
          "name": "vList",
          "type": "address[]"
        },
        {
          "internalType": "uint256",
          "name": "vPerc",
          "type": "uint256"
        },
        {
          "internalType": "uint256",
          "name": "cPerc",
          "type": "uint256"
        },
        {
          "internalType": "uint256",
          "name": "vVer",
          "type": "uint256"
        }
      ],
      "name": "addService",
      "outputs": [],
      "stateMutability": "nonpayable",
      "type": "function"
    },
    {
      "inputs": [
        {
          "internalType": "address",
          "name": "owner",
          "type": "address"
        },
        {
          "internalType": "address",
          "name": "spender",
          "type": "address"
        }
      ],
      "name": "allowance",
      "outputs": [
        {
          "internalType": "uint256",
          "name": "",
          "type": "uint256"
        }
      ],
      "stateMutability": "view",
      "type": "function"
    },
    {
      "inputs": [
        {
          "internalType": "address",
          "name": "spender",
          "type": "address"
        },
        {
          "internalType": "uint256",
          "name": "amount",
          "type": "uint256"
        }
      ],
      "name": "approve",
      "outputs": [
        {
          "internalType": "bool",
          "name": "",
          "type": "bool"
        }
      ],
      "stateMutability": "nonpayable",
      "type": "function"
    },
    {
      "inputs": [
        {
          "internalType": "address",
          "name": "account",
          "type": "address"
        }
      ],
      "name": "balanceOf",
      "outputs": [
        {
          "internalType": "uint256",
          "name": "",
          "type": "uint256"
        }
      ],
      "stateMutability": "view",
      "type": "function"
    },
    {
      "inputs": [
        {
          "internalType": "address",
          "name": "account",
          "type": "address"
        },
        {
          "internalType": "uint32",
          "name": "pos",
          "type": "uint32"
        }
      ],
      "name": "checkpoints",
      "outputs": [
        {
          "components": [
            {
              "internalType": "uint32",
              "name": "fromBlock",
              "type": "uint32"
            },
            {
              "internalType": "uint224",
              "name": "votes",
              "type": "uint224"
            }
          ],
          "internalType": "struct ERC20VotesUpgradeable.Checkpoint",
          "name": "",
          "type": "tuple"
        }
      ],
      "stateMutability": "view",
      "type": "function"
    },
    {
      "inputs": [
        {
          "internalType": "uint256",
          "name": "amount",
          "type": "uint256"
        }
      ],
      "name": "claimToken",
      "outputs": [
        {
          "internalType": "bool",
          "name": "",
          "type": "bool"
        }
      ],
      "stateMutability": "nonpayable",
      "type": "function"
    },
    {
      "inputs": [
        {
          "internalType": "address",
          "name": "service",
          "type": "address"
        },
        {
          "internalType": "bytes32",
          "name": "productId",
          "type": "bytes32"
        },
        {
          "internalType": "string",
          "name": "data",
          "type": "string"
        }
      ],
      "name": "createProcess",
      "outputs": [],
      "stateMutability": "nonpayable",
      "type": "function"
    },
    {
      "inputs": [],
      "name": "decimals",
      "outputs": [
        {
          "internalType": "uint8",
          "name": "",
          "type": "uint8"
        }
      ],
      "stateMutability": "view",
      "type": "function"
    },
    {
      "inputs": [
        {
          "internalType": "address",
          "name": "customer",
          "type": "address"
        },
        {
          "internalType": "bytes32",
          "name": "productId",
          "type": "bytes32"
        },
        {
          "internalType": "string",
          "name": "data",
          "type": "string"
        }
      ],
      "name": "declareAction",
      "outputs": [],
      "stateMutability": "nonpayable",
      "type": "function"
    },
    {
      "inputs": [
        {
          "internalType": "address",
          "name": "spender",
          "type": "address"
        },
        {
          "internalType": "uint256",
          "name": "subtractedValue",
          "type": "uint256"
        }
      ],
      "name": "decreaseAllowance",
      "outputs": [
        {
          "internalType": "bool",
          "name": "",
          "type": "bool"
        }
      ],
      "stateMutability": "nonpayable",
      "type": "function"
    },
    {
      "inputs": [
        {
          "internalType": "address",
          "name": "delegatee",
          "type": "address"
        }
      ],
      "name": "delegate",
      "outputs": [],
      "stateMutability": "nonpayable",
      "type": "function"
    },
    {
      "inputs": [
        {
          "internalType": "address",
          "name": "delegatee",
          "type": "address"
        },
        {
          "internalType": "uint256",
          "name": "nonce",
          "type": "uint256"
        },
        {
          "internalType": "uint256",
          "name": "expiry",
          "type": "uint256"
        },
        {
          "internalType": "uint8",
          "name": "v",
          "type": "uint8"
        },
        {
          "internalType": "bytes32",
          "name": "r",
          "type": "bytes32"
        },
        {
          "internalType": "bytes32",
          "name": "s",
          "type": "bytes32"
        }
      ],
      "name": "delegateBySig",
      "outputs": [],
      "stateMutability": "nonpayable",
      "type": "function"
    },
    {
      "inputs": [
        {
          "internalType": "address",
          "name": "account",
          "type": "address"
        }
      ],
      "name": "delegates",
      "outputs": [
        {
          "internalType": "address",
          "name": "",
          "type": "address"
        }
      ],
      "stateMutability": "view",
      "type": "function"
    },
    {
      "inputs": [
        {
          "internalType": "address",
          "name": "",
          "type": "address"
        }
      ],
      "name": "depositingProducts",
      "outputs": [
        {
          "internalType": "bytes32",
          "name": "",
          "type": "bytes32"
        }
      ],
      "stateMutability": "view",
      "type": "function"
    },
    {
      "inputs": [
        {
          "internalType": "uint256",
          "name": "blockNumber",
          "type": "uint256"
        }
      ],
      "name": "getPastTotalSupply",
      "outputs": [
        {
          "internalType": "uint256",
          "name": "",
          "type": "uint256"
        }
      ],
      "stateMutability": "view",
      "type": "function"
    },
    {
      "inputs": [
        {
          "internalType": "address",
          "name": "account",
          "type": "address"
        },
        {
          "internalType": "uint256",
          "name": "blockNumber",
          "type": "uint256"
        }
      ],
      "name": "getPastVotes",
      "outputs": [
        {
          "internalType": "uint256",
          "name": "",
          "type": "uint256"
        }
      ],
      "stateMutability": "view",
      "type": "function"
    },
    {
      "inputs": [
        {
          "internalType": "bytes32",
          "name": "role",
          "type": "bytes32"
        }
      ],
      "name": "getRoleAdmin",
      "outputs": [
        {
          "internalType": "bytes32",
          "name": "",
          "type": "bytes32"
        }
      ],
      "stateMutability": "view",
      "type": "function"
    },
    {
      "inputs": [
        {
          "internalType": "address",
          "name": "account",
          "type": "address"
        }
      ],
      "name": "getVotes",
      "outputs": [
        {
          "internalType": "uint256",
          "name": "",
          "type": "uint256"
        }
      ],
      "stateMutability": "view",
      "type": "function"
    },
    {
      "inputs": [
        {
          "internalType": "bytes32",
          "name": "role",
          "type": "bytes32"
        },
        {
          "internalType": "address",
          "name": "account",
          "type": "address"
        }
      ],
      "name": "grantRole",
      "outputs": [],
      "stateMutability": "nonpayable",
      "type": "function"
    },
    {
      "inputs": [
        {
          "internalType": "bytes32",
          "name": "role",
          "type": "bytes32"
        },
        {
          "internalType": "address",
          "name": "account",
          "type": "address"
        }
      ],
      "name": "hasRole",
      "outputs": [
        {
          "internalType": "bool",
          "name": "",
          "type": "bool"
        }
      ],
      "stateMutability": "view",
      "type": "function"
    },
    {
      "inputs": [
        {
          "internalType": "address",
          "name": "spender",
          "type": "address"
        },
        {
          "internalType": "uint256",
          "name": "addedValue",
          "type": "uint256"
        }
      ],
      "name": "increaseAllowance",
      "outputs": [
        {
          "internalType": "bool",
          "name": "",
          "type": "bool"
        }
      ],
      "stateMutability": "nonpayable",
      "type": "function"
    },
    {
      "inputs": [],
      "name": "initialize",
      "outputs": [],
      "stateMutability": "nonpayable",
      "type": "function"
    },
    {
      "inputs": [],
      "name": "name",
      "outputs": [
        {
          "internalType": "string",
          "name": "",
          "type": "string"
        }
      ],
      "stateMutability": "view",
      "type": "function"
    },
    {
      "inputs": [
        {
          "internalType": "address",
          "name": "owner",
          "type": "address"
        }
      ],
      "name": "nonces",
      "outputs": [
        {
          "internalType": "uint256",
          "name": "",
          "type": "uint256"
        }
      ],
      "stateMutability": "view",
      "type": "function"
    },
    {
      "inputs": [
        {
          "internalType": "address",
          "name": "account",
          "type": "address"
        }
      ],
      "name": "numCheckpoints",
      "outputs": [
        {
          "internalType": "uint32",
          "name": "",
          "type": "uint32"
        }
      ],
      "stateMutability": "view",
      "type": "function"
    },
    {
      "inputs": [],
      "name": "owner",
      "outputs": [
        {
          "internalType": "address",
          "name": "",
          "type": "address"
        }
      ],
      "stateMutability": "view",
      "type": "function"
    },
    {
      "inputs": [],
      "name": "pause",
      "outputs": [],
      "stateMutability": "nonpayable",
      "type": "function"
    },
    {
      "inputs": [],
      "name": "paused",
      "outputs": [
        {
          "internalType": "bool",
          "name": "",
          "type": "bool"
        }
      ],
      "stateMutability": "view",
      "type": "function"
    },
    {
      "inputs": [
        {
          "internalType": "address",
          "name": "owner",
          "type": "address"
        },
        {
          "internalType": "address",
          "name": "spender",
          "type": "address"
        },
        {
          "internalType": "uint256",
          "name": "value",
          "type": "uint256"
        },
        {
          "internalType": "uint256",
          "name": "deadline",
          "type": "uint256"
        },
        {
          "internalType": "uint8",
          "name": "v",
          "type": "uint8"
        },
        {
          "internalType": "bytes32",
          "name": "r",
          "type": "bytes32"
        },
        {
          "internalType": "bytes32",
          "name": "s",
          "type": "bytes32"
        }
      ],
      "name": "permit",
      "outputs": [],
      "stateMutability": "nonpayable",
      "type": "function"
    },
    {
      "inputs": [
        {
          "internalType": "address",
          "name": "",
          "type": "address"
        },
        {
          "internalType": "bytes32",
          "name": "",
          "type": "bytes32"
        }
      ],
      "name": "processes",
      "outputs": [
        {
          "internalType": "enum YandaToken.State",
          "name": "state",
          "type": "uint8"
        },
        {
          "internalType": "uint256",
          "name": "cost",
          "type": "uint256"
        },
        {
          "internalType": "address",
          "name": "service",
          "type": "address"
        },
        {
          "internalType": "bytes32",
          "name": "productId",
          "type": "bytes32"
        },
        {
          "internalType": "string",
          "name": "productData",
          "type": "string"
        },
        {
          "internalType": "uint256",
          "name": "validations",
          "type": "uint256"
        },
        {
          "internalType": "uint256",
          "name": "failedValidations",
          "type": "uint256"
        }
      ],
      "stateMutability": "view",
      "type": "function"
    },
    {
      "inputs": [
        {
          "internalType": "bytes32",
          "name": "role",
          "type": "bytes32"
        },
        {
          "internalType": "address",
          "name": "account",
          "type": "address"
        }
      ],
      "name": "renounceRole",
      "outputs": [],
      "stateMutability": "nonpayable",
      "type": "function"
    },
    {
      "inputs": [
        {
          "internalType": "bytes32",
          "name": "role",
          "type": "bytes32"
        },
        {
          "internalType": "address",
          "name": "account",
          "type": "address"
        }
      ],
      "name": "revokeRole",
      "outputs": [],
      "stateMutability": "nonpayable",
      "type": "function"
    },
    {
      "inputs": [
        {
          "internalType": "address",
          "name": "",
          "type": "address"
        }
      ],
      "name": "services",
      "outputs": [
        {
          "internalType": "uint256",
          "name": "validationPerc",
          "type": "uint256"
        },
        {
          "internalType": "uint256",
          "name": "commissionPerc",
          "type": "uint256"
        },
        {
          "internalType": "uint256",
          "name": "validatorVersion",
          "type": "uint256"
        }
      ],
      "stateMutability": "view",
      "type": "function"
    },
    {
      "inputs": [
        {
          "internalType": "address",
          "name": "customer",
          "type": "address"
        },
        {
          "internalType": "bytes32",
          "name": "productId",
          "type": "bytes32"
        },
        {
          "internalType": "uint256",
          "name": "cost",
          "type": "uint256"
        }
      ],
      "name": "setProcessCost",
      "outputs": [],
      "stateMutability": "nonpayable",
      "type": "function"
    },
    {
      "inputs": [
        {
          "internalType": "uint256",
          "name": "vVer",
          "type": "uint256"
        }
      ],
      "name": "setValidatorVer",
      "outputs": [],
      "stateMutability": "nonpayable",
      "type": "function"
    },
    {
      "inputs": [
        {
          "internalType": "address[]",
          "name": "vList",
          "type": "address[]"
        }
      ],
      "name": "setValidators",
      "outputs": [],
      "stateMutability": "nonpayable",
      "type": "function"
    },
    {
      "inputs": [
        {
          "internalType": "address",
          "name": "customer",
          "type": "address"
        },
        {
          "internalType": "bytes32",
          "name": "productId",
          "type": "bytes32"
        }
      ],
      "name": "startTermination",
      "outputs": [],
      "stateMutability": "nonpayable",
      "type": "function"
    },
    {
      "inputs": [
        {
          "internalType": "bytes4",
          "name": "interfaceId",
          "type": "bytes4"
        }
      ],
      "name": "supportsInterface",
      "outputs": [
        {
          "internalType": "bool",
          "name": "",
          "type": "bool"
        }
      ],
      "stateMutability": "view",
      "type": "function"
    },
    {
      "inputs": [],
      "name": "symbol",
      "outputs": [
        {
          "internalType": "string",
          "name": "",
          "type": "string"
        }
      ],
      "stateMutability": "view",
      "type": "function"
    },
    {
      "inputs": [],
      "name": "totalSupply",
      "outputs": [
        {
          "internalType": "uint256",
          "name": "",
          "type": "uint256"
        }
      ],
      "stateMutability": "view",
      "type": "function"
    },
    {
      "inputs": [
        {
          "internalType": "address",
          "name": "recipient",
          "type": "address"
        },
        {
          "internalType": "uint256",
          "name": "amount",
          "type": "uint256"
        }
      ],
      "name": "transfer",
      "outputs": [
        {
          "internalType": "bool",
          "name": "",
          "type": "bool"
        }
      ],
      "stateMutability": "nonpayable",
      "type": "function"
    },
    {
      "inputs": [
        {
          "internalType": "address",
          "name": "sender",
          "type": "address"
        },
        {
          "internalType": "address",
          "name": "recipient",
          "type": "address"
        },
        {
          "internalType": "uint256",
          "name": "amount",
          "type": "uint256"
        }
      ],
      "name": "transferFrom",
      "outputs": [
        {
          "internalType": "bool",
          "name": "",
          "type": "bool"
        }
      ],
      "stateMutability": "nonpayable",
      "type": "function"
    },
    {
      "inputs": [],
      "name": "unpause",
      "outputs": [],
      "stateMutability": "nonpayable",
      "type": "function"
    },
    {
      "inputs": [
        {
          "internalType": "address",
          "name": "customer",
          "type": "address"
        },
        {
          "internalType": "bytes32",
          "name": "productId",
          "type": "bytes32"
        },
        {
          "internalType": "bool",
          "name": "passed",
          "type": "bool"
        }
      ],
      "name": "validateTermination",
      "outputs": [],
      "stateMutability": "nonpayable",
      "type": "function"
    },
    {
      "inputs": [
        {
          "internalType": "address",
          "name": "",
          "type": "address"
        }
      ],
      "name": "validators",
      "outputs": [
        {
          "internalType": "uint256",
          "name": "requests",
          "type": "uint256"
        },
        {
          "internalType": "uint256",
          "name": "validations",
          "type": "uint256"
        },
        {
          "internalType": "bool",
          "name": "ready",
          "type": "bool"
        }
      ],
      "stateMutability": "view",
      "type": "function"
    }
  ],
  "bytecode": "0x60806040523480156200001157600080fd5b50600054610100900460ff166200002f5760005460ff161562000039565b62000039620000de565b620000a15760405162461bcd60e51b815260206004820152602e60248201527f496e697469616c697a61626c653a20636f6e747261637420697320616c72656160448201526d191e481a5b9a5d1a585b1a5e995960921b606482015260840160405180910390fd5b600054610100900460ff16158015620000c4576000805461ffff19166101011790555b8015620000d7576000805461ff00191690555b5062000102565b6000620000f630620000fc60201b620025641760201c565b15905090565b3b151590565b614ba580620001126000396000f3fe608060405234801561001057600080fd5b50600436106102bb5760003560e01c80637ecebe0011610182578063a9059cbb116100e9578063d547741f116100a2578063e63ab1e91161007c578063e63ab1e9146106d0578063ebd30af4146106e5578063f1127ed81461070b578063fa52c7d814610748576102bb565b8063d547741f14610663578063dd62ed3e14610676578063e4a7c46f146106af576102bb565b8063a9059cbb146105dd578063a9e7c2e5146105f0578063c0f99d6714610603578063c3cda52014610616578063d505accf14610629578063d53913931461063c576102bb565b806391d148541161013b57806391d14854146105815780639300c9261461059457806395d89b41146105a75780639ab24eb0146105af578063a217fddf146105c2578063a457c2d7146105ca576102bb565b80637ecebe00146105265780638129fc1c146105395780638456cb591461054157806389bf146a146105495780638da5cb5b1461055c5780638e539e8c1461056e576102bb565b806338f8f528116102265780635c19a95c116101df5780635c19a95c146104565780635c975abb1461046957806363de06f8146104745780636d966d01146104875780636fcfff45146104d557806370a08231146104fd576102bb565b806338f8f528146103bd57806339509351146103d05780633a46b1a8146103e35780633f4ba83a146103f657806343c51cc9146103fe578063587cde1e14610411576102bb565b806323b872dd1161027857806323b872dd1461034a578063248a9ca31461035d5780632f2ff15d14610380578063313ce567146103935780633644e515146103a257806336568abe146103aa576102bb565b806301ffc9a7146102c057806304f32b5d146102e857806306fdde03146102fd578063095ea7b3146103125780630e53e6331461032557806318160ddd14610338575b600080fd5b6102d36102ce36600461467e565b610798565b60405190151581526020015b60405180910390f35b6102fb6102f6366004614402565b6107d1565b005b61030561085e565b6040516102df91906147f3565b6102d361032036600461439a565b6108f0565b6102fb61033336600461439a565b610906565b6035545b6040519081526020016102df565b6102d361035836600461428f565b610b35565b61033c61036b366004614644565b600090815260c9602052604090206001015490565b6102fb61038e36600461465c565b610be1565b604051601281526020016102df565b61033c610c0d565b6102fb6103b836600461465c565b610c1c565b6102fb6103cb366004614484565b610c9a565b6102d36103de36600461439a565b610f64565b61033c6103f136600461439a565b610fa0565b6102fb611014565b6102fb61040c36600461452e565b611038565b61043e61041f366004614243565b6001600160a01b03908116600090815261016260205260409020541690565b6040516001600160a01b0390911681526020016102df565b6102fb610464366004614243565b611172565b60655460ff166102d3565b6102fb610482366004614644565b61117c565b6104ba610495366004614243565b6101976020526000908152604090206001810154600282015460039092015490919083565b604080519384526020840192909252908201526060016102df565b6104e86104e3366004614243565b6111c2565b60405163ffffffff90911681526020016102df565b61033c61050b366004614243565b6001600160a01b031660009081526033602052604090205490565b61033c610534366004614243565b6111e5565b6102fb611204565b6102fb6113c5565b6102fb6105573660046143c3565b6113e6565b610194546001600160a01b031661043e565b61033c61057c366004614644565b611bd3565b6102d361058f36600461465c565b611c30565b6102fb6105a23660046145f5565b611c5b565b610305611cb6565b61033c6105bd366004614243565b611cc5565b61033c600081565b6102d36105d836600461439a565b611d5c565b6102d36105eb36600461439a565b611df5565b6102d36105fe366004614644565b611ffc565b6102fb610611366004614333565b6120c2565b6102fb610624366004614560565b61214f565b6102fb6106373660046142ca565b612285565b61033c7f9f2df0fed2c77648de5860a4cc508cd0818c85b8b8a1ab4ceeef8d981c8956a681565b6102fb61067136600461465c565b6123cc565b61033c61068436600461425d565b6001600160a01b03918216600090815260346020908152604080832093909416825291909152205490565b61033c6106bd366004614243565b6101966020526000908152604090205481565b61033c600080516020614b5083398151915281565b6106f86106f336600461439a565b6123f2565b6040516102df979695949392919061475f565b61071e6107193660046145b7565b6124d1565b60408051825163ffffffff1681526020928301516001600160e01b031692810192909252016102df565b61077b610756366004614243565b6101986020526000908152604090208054600182015460029092015490919060ff1683565b6040805193845260208401929092521515908201526060016102df565b60006001600160e01b03198216637965db0b60e01b14806107c957506301ffc9a760e01b6001600160e01b03198316145b90505b919050565b336000908152610197602052604090206001015461080a5760405162461bcd60e51b815260040161080190614806565b60405180910390fd5b82336001600160a01b0316856001600160a01b03167fb67fab32200b6a6d186136689c0b4c4072ae0bd5dd17b98fb8105d1b9747939985856040516108509291906147c4565b60405180910390a450505050565b60606036805461086d90614ac5565b80601f016020809104026020016040519081016040528092919081815260200182805461089990614ac5565b80156108e65780601f106108bb576101008083540402835291602001916108e6565b820191906000526020600020905b8154815290600101906020018083116108c957829003601f168201915b5050505050905090565b60006108fd33848461256a565b50600192915050565b336000908152610197602052604090206001015415158061092f5750336001600160a01b038316145b6109995760405162461bcd60e51b815260206004820152603560248201527f4f6e6c792073657276696365206f722070726f6475637420637573746f6d65726044820152740818d85b8818d85b1b081d1a1a5cc81b595d1a1bd9605a1b6064820152608401610801565b60026001600160a01b03831660009081526101956020908152604080832085845290915290205460ff1660048111156109e257634e487b7160e01b600052602160045260246000fd5b14610a2f5760405162461bcd60e51b815260206004820152601860248201527f43616e6e6f74207374617274207465726d696e6174696f6e00000000000000006044820152606401610801565b6001600160a01b038281166000908152610195602090815260408083208584528252808320805460ff1916600317815560020154909316825261019781529082902082518154928302810160a090810190945260808101838152610af99491938492849190840182828015610acd57602002820191906000526020600020905b81546001600160a01b03168152600190910190602001808311610aaf575b50505050508152602001600182015481526020016002820154815260200160038201548152505061268e565b604051819033906001600160a01b038516907f3dc016b59ffc70a71e689716c312b2b7415f9e4f11803ff7cc3730801811497a90600090a45050565b6000610b42848484612718565b6001600160a01b038416600090815260346020908152604080832033845290915290205482811015610bc75760405162461bcd60e51b815260206004820152602860248201527f45524332303a207472616e7366657220616d6f756e74206578636565647320616044820152676c6c6f77616e636560c01b6064820152608401610801565b610bd4853385840361256a565b60019150505b9392505050565b600082815260c96020526040902060010154610bfe81335b6128fd565b610c088383612961565b505050565b6000610c176129e7565b905090565b6001600160a01b0381163314610c8c5760405162461bcd60e51b815260206004820152602f60248201527f416363657373436f6e74726f6c3a2063616e206f6e6c792072656e6f756e636560448201526e103937b632b9903337b91039b2b63360891b6064820152608401610801565b610c968282612a62565b5050565b6001600160a01b03831660009081526101976020526040902060010154610d0f5760405162461bcd60e51b815260206004820152602360248201527f52657175657374656420736572766963652061646472657373206e6f7420666f6044820152621d5b9960ea1b6064820152608401610801565b336000908152610195602090815260408083208584529091529020600201546001600160a01b031615610d9b5760405162461bcd60e51b815260206004820152602e60248201527f50726f636573732077697468207370656369666965642070726f64756374496460448201526d08185b1c9958591e48195e1a5cdd60921b6064820152608401610801565b610da733848484612ac9565b6040805160e081018252600080825260208083018290526001600160a01b03871683850152606083018690526080830185905260a0830182905260c08301829052338252610195815283822086835290529190912081518154829060ff19166001836004811115610e2857634e487b7160e01b600052602160045260246000fd5b0217905550602082810151600183015560408301516002830180546001600160a01b0319166001600160a01b039092169190911790556060830151600383015560808301518051610e7f926004850192019061406b565b5060a0820151600582015560c09091015160069091015533600090815261019560209081526040808320610196835281842054845290915290205460019060ff166004811115610edf57634e487b7160e01b600052602160045260246000fd5b1415610f4f573360009081526101956020908152604080832061019683528184205484529091528120805460ff19168155600181018290556002810180546001600160a01b03191690556003810182905590610f3e60048301826140eb565b506000600582018190556006909101555b50336000908152610196602052604090205550565b3360008181526034602090815260408083206001600160a01b038716845290915281205490916108fd918590610f9b908690614906565b61256a565b6000438210610ff15760405162461bcd60e51b815260206004820152601f60248201527f4552433230566f7465733a20626c6f636b206e6f7420796574206d696e6564006044820152606401610801565b6001600160a01b038316600090815261016360205260409020610bda9083612b0d565b600080516020614b5083398151915261102d8133610bf9565b611035612be6565b50565b336000908152610198602052604090206002015460ff1615156001146110705760405162461bcd60e51b815260040161080190614892565b6001600160a01b03831660009081526101956020908152604080832085845290915281205460ff1660048111156110b757634e487b7160e01b600052602160045260246000fd5b146110fa5760405162461bcd60e51b815260206004820152601360248201527210dbdcdd081a5cc8185b1c9958591e481cd95d606a1b6044820152606401610801565b6001600160a01b038381166000818152610195602090815260408083208784528252918290206001808201879055815460ff1916178155600201548251868152925187959190911693927f9829c39553001f6f75967caf0b4a8a903f5332af8a010a6b7e8532b7ed023f5192908290030190a4505050565b6110353382612c79565b33600090815261019760205260409020600101546111ac5760405162461bcd60e51b815260040161080190614806565b3360009081526101976020526040902060030155565b6001600160a01b038116600090815261016360205260408120546107c990612cf4565b6001600160a01b038116600090815261012f60205260408120546107c9565b600054610100900460ff1661121f5760005460ff1615611223565b303b155b6112865760405162461bcd60e51b815260206004820152602e60248201527f496e697469616c697a61626c653a20636f6e747261637420697320616c72656160448201526d191e481a5b9a5d1a585b1a5e995960921b6064820152608401610801565b600054610100900460ff161580156112a8576000805461ffff19166101011790555b6112ef6040518060400160405280600a8152602001692cb0b73230aa37b5b2b760b11b8152506040518060400160405280600381526020016216539160ea1b815250612d5d565b6112f7612d96565b6112ff612dcf565b61132a6040518060400160405280600a8152602001692cb0b73230aa37b5b2b760b11b815250612e0e565b61134d3361133a6012600a61497b565b61134890633b9aca00614a4c565b612e69565b61019480546001600160a01b0319163390811790915561136f90600090612961565b611387600080516020614b5083398151915233612961565b6113b17f9f2df0fed2c77648de5860a4cc508cd0818c85b8b8a1ab4ceeef8d981c8956a633612961565b8015611035576000805461ff001916905550565b600080516020614b508339815191526113de8133610bf9565b611035612e73565b336000908152610198602052604090206002015460ff16151560011461141e5760405162461bcd60e51b815260040161080190614892565b60036001600160a01b03841660009081526101956020908152604080832086845290915290205460ff16600481111561146757634e487b7160e01b600052602160045260246000fd5b10156114b55760405162461bcd60e51b815260206004820152601860248201527f43616e6e6f742076616c69646174652064656c697661727900000000000000006044820152606401610801565b80156114fe576001600160a01b03831660009081526101956020908152604080832085845290915281206005018054600192906114f3908490614906565b9091555061153c9050565b6001600160a01b0383166000908152610195602090815260408083208584529091528120600601805460019290611536908490614906565b90915550505b336000908152610198602052604081206001908101805491929091611562908490614906565b90915550600390506001600160a01b03841660009081526101956020908152604080832086845290915290205460ff1660048111156115b157634e487b7160e01b600052602160045260246000fd5b1415610c08576001600160a01b03808416600090815261019560209081526040808320868452825280832060029081015490941683526101979091529020546115fa919061491e565b6001600160a01b0384166000908152610195602090815260408083208684529091529020600501541115611913576001600160a01b03838116600090815261019560209081526040808320868452808352818420805460ff1916600417815560028101549095168452610197835290832060019081015487855291909252920154909160649161168a9190614a4c565b611694919061491e565b6001600160a01b03808616600090815261019560209081526040808320888452825280832060020154909316825261019781528282208351815460a0938102820184019095526080810185815295965092946117569491928492849184018282801561172957602002820191906000526020600020905b81546001600160a01b0316815260019091019060200180831161170b575b50505050508152602001600182015481526020016002820154815260200160038201548152505083612eee565b6001600160a01b0380871660009081526101956020908152604080832089845280835281842060028082015490961685526101978452918420909401548984529390915260010154929350916064916117ae91614a4c565b6117b8919061491e565b6001600160a01b038781166000908152610195602090815260408083208a84529091529081902060020154905163a9059cbb60e01b81529116600482015260248101829052909150309063a9059cbb90604401602060405180830381600087803b15801561182557600080fd5b505af1158015611839573d6000803e3d6000fd5b505050506040513d601f19601f8201168201806040525081019061185d9190614628565b506001600160a01b0386166000908152610195602090815260408083208884529091529020600101546118a89030908390611899908690614a6b565b6118a39190614a6b565b613105565b6001600160a01b038681166000818152610195602090815260408083208a84528252918290206002015491516001815289949290921692917f5c2cc6518d5891ba2f9c21f49d712982ba12450a2a8adeb21e4a41f85a995b70910160405180910390a4505050610c08565b6001600160a01b0380841660009081526101956020908152604080832086845282528083206002908101549094168352610197909152902054611956919061491e565b6001600160a01b03841660009081526101956020908152604080832086845290915290206006015410610c08576001600160a01b03838116600090815261019560209081526040808320868452808352818420805460ff191660041781556002810154909516845261019783529083206001908101548785529190925292015490916064916119e59190614a4c565b6119ef919061491e565b6001600160a01b03808616600090815261019560209081526040808320888452825280832060020154909316825261019781528282208351815460a093810282018401909552608081018581529596509294611aaf94919284928491840182828015611729576020028201919060005260206000209081546001600160a01b0316815260019091019060200180831161170b5750505050508152602001600182015481526020016002820154815260200160038201548152505083612eee565b6001600160a01b038616600090815261019560209081526040808320888452909152902060010154909150309063a9059cbb908790611aef908590614a6b565b6040516001600160e01b031960e085901b1681526001600160a01b0390921660048301526024820152604401602060405180830381600087803b158015611b3557600080fd5b505af1158015611b49573d6000803e3d6000fd5b505050506040513d601f19601f82011682018060405250810190611b6d9190614628565b506001600160a01b03858116600081815261019560209081526040808320898452825280832060020154905192835288941692917f5c2cc6518d5891ba2f9c21f49d712982ba12450a2a8adeb21e4a41f85a995b70910160405180910390a45050505050565b6000438210611c245760405162461bcd60e51b815260206004820152601f60248201527f4552433230566f7465733a20626c6f636b206e6f7420796574206d696e6564006044820152606401610801565b6107c961016483612b0d565b600091825260c9602090815260408084206001600160a01b0393909316845291905290205460ff1690565b3360009081526101976020526040902060010154611c8b5760405162461bcd60e51b815260040161080190614806565b336000908152610197602090815260409091208251611cac92840190614127565b506110358161310f565b60606037805461086d90614ac5565b6001600160a01b038116600090815261016360205260408120548015611d49576001600160a01b038316600090815261016360205260409020611d09600183614a6b565b81548110611d2757634e487b7160e01b600052603260045260246000fd5b60009182526020909120015464010000000090046001600160e01b0316611d4c565b60005b6001600160e01b03169392505050565b3360009081526034602090815260408083206001600160a01b038616845290915281205482811015611dde5760405162461bcd60e51b815260206004820152602560248201527f45524332303a2064656372656173656420616c6c6f77616e63652062656c6f77604482015264207a65726f60d81b6064820152608401610801565b611deb338585840361256a565b5060019392505050565b60006001600160a01b038316301415611ff357600133600090815261019560209081526040808320610196835281842054845290915290205460ff166004811115611e5057634e487b7160e01b600052602160045260246000fd5b14611ecd5760405162461bcd60e51b815260206004820152604160248201527f596f7520646f6e277420686176652061206465706f736974206177616974696e60448201527f672070726f636573732c20706c656173652063726561746520697420666972736064820152601d60fa1b608482015260a401610801565b3360009081526101956020908152604080832061019683528184205484529091529020600101548214611f5f5760405162461bcd60e51b815260206004820152603460248201527f4465706f73697420616d6f756e7420646f65736e2774206d61746368207769746044820152731a081d1a19481c995c5d595cdd19590818dbdcdd60621b6064820152608401610801565b611f6b335b8484612718565b33600081815261019560209081526040808320610196835281842080548552908352818420805460ff1916600290811790915590548452928190206003810154930154905186815292936001600160a01b039091169290917f1f0f1dee49a1720a0d98e3a0575a04dd9f143ff5e29555c3085471c1c70eed5b910160405180910390a46108fd565b6108fd33611f64565b6040516370a0823160e01b81523360048201526000906a0422ca8b0a00a4250000009030906370a082319060240160206040518083038186803b15801561204257600080fd5b505afa158015612056573d6000803e3d6000fd5b505050506040513d601f19601f8201168201806040525081019061207a91906146a6565b1080156120905750683635c9adc5dea000008211155b156120ba576120b26120ab610194546001600160a01b031690565b3384612718565b5060016107cc565b5060006107cc565b60006120ce8133610bf9565b604080516080810182528681526020808201879052818301869052606082018590526001600160a01b0389166000908152610197825292909220815180519293919261211d9284920190614127565b5060208201516001820155604082015160028201556060909101516003909101556121478561310f565b505050505050565b8342111561219f5760405162461bcd60e51b815260206004820152601d60248201527f4552433230566f7465733a207369676e617475726520657870697265640000006044820152606401610801565b604080517fe48329057bfd03d55e49b547132e39cffd9c1820ad7b9d4c5307691425d15adf60208201526001600160a01b038816918101919091526060810186905260808101859052600090612219906122119060a00160405160208183030381529060405280519060200120613189565b8585856131d7565b9050612224816131ff565b86146122725760405162461bcd60e51b815260206004820152601960248201527f4552433230566f7465733a20696e76616c6964206e6f6e6365000000000000006044820152606401610801565b61227c8188612c79565b50505050505050565b834211156122d55760405162461bcd60e51b815260206004820152601d60248201527f45524332305065726d69743a206578706972656420646561646c696e650000006044820152606401610801565b6000610130548888886122e78c6131ff565b6040805160208101969096526001600160a01b0394851690860152929091166060840152608083015260a082015260c0810186905260e001604051602081830303815290604052805190602001209050600061234282613189565b90506000612352828787876131d7565b9050896001600160a01b0316816001600160a01b0316146123b55760405162461bcd60e51b815260206004820152601e60248201527f45524332305065726d69743a20696e76616c6964207369676e617475726500006044820152606401610801565b6123c08a8a8a61256a565b50505050505050505050565b600082815260c960205260409020600101546123e88133610bf9565b610c088383612a62565b6101956020908152600092835260408084209091529082529020805460018201546002830154600384015460048501805460ff9095169593946001600160a01b0390931693919261244290614ac5565b80601f016020809104026020016040519081016040528092919081815260200182805461246e90614ac5565b80156124bb5780601f10612490576101008083540402835291602001916124bb565b820191906000526020600020905b81548152906001019060200180831161249e57829003601f168201915b5050505050908060050154908060060154905087565b60408051808201909152600080825260208201526001600160a01b038316600090815261016360205260409020805463ffffffff841690811061252457634e487b7160e01b600052603260045260246000fd5b60009182526020918290206040805180820190915291015463ffffffff8116825264010000000090046001600160e01b0316918101919091529392505050565b3b151590565b6001600160a01b0383166125cc5760405162461bcd60e51b8152602060048201526024808201527f45524332303a20617070726f76652066726f6d20746865207a65726f206164646044820152637265737360e01b6064820152608401610801565b6001600160a01b03821661262d5760405162461bcd60e51b815260206004820152602260248201527f45524332303a20617070726f766520746f20746865207a65726f206164647265604482015261737360f01b6064820152608401610801565b6001600160a01b0383811660008181526034602090815260408083209487168084529482529182902085905590518481527f8c5be1e5ebec7d5bd14f71427d1e84f3dd0314c0f7b2291e5b200ac8c7c3b925910160405180910390a3505050565b60005b815151811015610c965760016101986000846000015184815181106126c657634e487b7160e01b600052603260045260246000fd5b60200260200101516001600160a01b03166001600160a01b0316815260200190815260200160002060000160008282546127009190614906565b9091555081905061271081614afa565b915050612691565b6001600160a01b03831661277c5760405162461bcd60e51b815260206004820152602560248201527f45524332303a207472616e736665722066726f6d20746865207a65726f206164604482015264647265737360d81b6064820152608401610801565b6001600160a01b0382166127de5760405162461bcd60e51b815260206004820152602360248201527f45524332303a207472616e7366657220746f20746865207a65726f206164647260448201526265737360e81b6064820152608401610801565b6127e9838383613228565b6001600160a01b038316600090815260336020526040902054818110156128615760405162461bcd60e51b815260206004820152602660248201527f45524332303a207472616e7366657220616d6f756e7420657863656564732062604482015265616c616e636560d01b6064820152608401610801565b6001600160a01b03808516600090815260336020526040808220858503905591851681529081208054849290612898908490614906565b92505081905550826001600160a01b0316846001600160a01b03167fddf252ad1be2c89b69c2b068fc378daa952ba7f163c4a11628f55a4df523b3ef846040516128e491815260200190565b60405180910390a36128f7848484613273565b50505050565b6129078282611c30565b610c965761291f816001600160a01b0316601461327e565b61292a83602061327e565b60405160200161293b9291906146ea565b60408051601f198184030181529082905262461bcd60e51b8252610801916004016147f3565b61296b8282611c30565b610c9657600082815260c9602090815260408083206001600160a01b03851684529091529020805460ff191660011790556129a33390565b6001600160a01b0316816001600160a01b0316837f2f8788117e7eff1d82e926ec794901d17c78024a50270940304540a733656f0d60405160405180910390a45050565b6000610c177f8b73c3c69bb8fe3d512ecc4cf759cc79239f7b179b0ffacaa9a75d522b39400f612a1660fb5490565b60fc546040805160208101859052908101839052606081018290524660808201523060a082015260009060c0016040516020818303038152906040528051906020012090509392505050565b612a6c8282611c30565b15610c9657600082815260c9602090815260408083206001600160a01b0385168085529252808320805460ff1916905551339285917ff6391f5c32d9c69d2a47ea670b442974b53935d1edc7fd64eb21e047a839171b9190a45050565b81836001600160a01b0316856001600160a01b03167f3a9aed43c5ef0596ab67fbc10ecc1bebe53445fd5f3880fb2b0b638bcbbf8a798460405161085091906147f3565b8154600090815b81811015612b7f576000612b288284613460565b905084868281548110612b4b57634e487b7160e01b600052603260045260246000fd5b60009182526020909120015463ffffffff161115612b6b57809250612b79565b612b76816001614906565b91505b50612b14565b8115612bd15784612b91600184614a6b565b81548110612baf57634e487b7160e01b600052603260045260246000fd5b60009182526020909120015464010000000090046001600160e01b0316612bd4565b60005b6001600160e01b031695945050505050565b60655460ff16612c2f5760405162461bcd60e51b815260206004820152601460248201527314185d5cd8589b194e881b9bdd081c185d5cd95960621b6044820152606401610801565b6065805460ff191690557f5db9ee0a495bf2e6ff9c91a7834c1ba4fdd244a5e8aa4e537bd38aeae4b073aa335b6040516001600160a01b03909116815260200160405180910390a1565b6001600160a01b0382811660008181526101626020818152604080842080546033845282862054949093528787166001600160a01b03198416811790915590519190951694919391928592917f3134e8a2e6d97e929a7e54011ea5485d7d196dd5f0ba4d4ef95803e8e3fc257f9190a46128f782848361347b565b600063ffffffff821115612d595760405162461bcd60e51b815260206004820152602660248201527f53616665436173743a2076616c756520646f65736e27742066697420696e203360448201526532206269747360d01b6064820152608401610801565b5090565b600054610100900460ff16612d845760405162461bcd60e51b815260040161080190614847565b612d8c6135ba565b610c9682826135e1565b600054610100900460ff16612dbd5760405162461bcd60e51b815260040161080190614847565b612dc56135ba565b612dcd61362f565b565b600054610100900460ff16612df65760405162461bcd60e51b815260040161080190614847565b612dfe6135ba565b612e066135ba565b612dcd6135ba565b600054610100900460ff16612e355760405162461bcd60e51b815260040161080190614847565b612e3d6135ba565b612e6081604051806040016040528060018152602001603160f81b815250613662565b611035816136a3565b610c9682826136f2565b60655460ff1615612eb95760405162461bcd60e51b815260206004820152601060248201526f14185d5cd8589b194e881c185d5cd95960821b6044820152606401610801565b6065805460ff191660011790557f62e78cea01bee320cd4e420270b5ea74000d11b0c9f74754ebdbfc544b05a258612c5c3390565b60008080612efb8561377d565b905060005b8551518110156130fb576000306001600160a01b03166370a0823188600001518481518110612f3f57634e487b7160e01b600052603260045260246000fd5b60200260200101516040518263ffffffff1660e01b8152600401612f7291906001600160a01b0391909116815260200190565b60206040518083038186803b158015612f8a57600080fd5b505afa158015612f9e573d6000803e3d6000fd5b505050506040513d601f19601f82011682018060405250810190612fc291906146a6565b905080156130e8576000612fd6828561491e565b612fe0908861491e565b905060006130198960000151858151811061300b57634e487b7160e01b600052603260045260246000fd5b60200260200101518361385e565b905080156130e55788518051309163a9059cbb918790811061304b57634e487b7160e01b600052603260045260246000fd5b6020026020010151836040518363ffffffff1660e01b81526004016130859291906001600160a01b03929092168252602082015260400190565b602060405180830381600087803b15801561309f57600080fd5b505af11580156130b3573d6000803e3d6000fd5b505050506040513d601f19601f820116820180604052508101906130d79190614628565b506130e28187614906565b95505b50505b50806130f381614afa565b915050612f00565b5090949350505050565b610c9682826138b7565b60005b8151811015610c96576001610198600084848151811061314257634e487b7160e01b600052603260045260246000fd5b6020908102919091018101516001600160a01b03168252810191909152604001600020600201805460ff19169115159190911790558061318181614afa565b915050613112565b60006107c96131966129e7565b8360405161190160f01b6020820152602281018390526042810182905260009060620160405160208183030381529060405280519060200120905092915050565b60008060006131e8878787876138d0565b915091506131f5816139bd565b5095945050505050565b6001600160a01b038116600090815261012f602052604090208054600181018255905b50919050565b60655460ff161561326e5760405162461bcd60e51b815260206004820152601060248201526f14185d5cd8589b194e881c185d5cd95960821b6044820152606401610801565b610c08565b610c08838383613bc0565b6060600061328d836002614a4c565b613298906002614906565b67ffffffffffffffff8111156132be57634e487b7160e01b600052604160045260246000fd5b6040519080825280601f01601f1916602001820160405280156132e8576020820181803683370190505b509050600360fc1b8160008151811061331157634e487b7160e01b600052603260045260246000fd5b60200101906001600160f81b031916908160001a905350600f60fb1b8160018151811061334e57634e487b7160e01b600052603260045260246000fd5b60200101906001600160f81b031916908160001a9053506000613372846002614a4c565b61337d906001614906565b90505b6001811115613411576f181899199a1a9b1b9c1cb0b131b232b360811b85600f16601081106133bf57634e487b7160e01b600052603260045260246000fd5b1a60f81b8282815181106133e357634e487b7160e01b600052603260045260246000fd5b60200101906001600160f81b031916908160001a90535060049490941c9361340a81614aae565b9050613380565b508315610bda5760405162461bcd60e51b815260206004820181905260248201527f537472696e67733a20686578206c656e67746820696e73756666696369656e746044820152606401610801565b600061346f600284841861491e565b610bda90848416614906565b816001600160a01b0316836001600160a01b03161415801561349d5750600081115b15610c08576001600160a01b0383161561352c576001600160a01b03831660009081526101636020526040812081906134d990613bf385613bff565b91509150846001600160a01b03167fdec2bacdd2f05b59de34da9b523dff8be42e5e38e818c82fdb0bae774387a7248383604051613521929190918252602082015260400190565b60405180910390a250505b6001600160a01b03821615610c08576001600160a01b038216600090815261016360205260408120819061356390613da285613bff565b91509150836001600160a01b03167fdec2bacdd2f05b59de34da9b523dff8be42e5e38e818c82fdb0bae774387a72483836040516135ab929190918252602082015260400190565b60405180910390a25050505050565b600054610100900460ff16612dcd5760405162461bcd60e51b815260040161080190614847565b600054610100900460ff166136085760405162461bcd60e51b815260040161080190614847565b815161361b90603690602085019061406b565b508051610c0890603790602084019061406b565b600054610100900460ff166136565760405162461bcd60e51b815260040161080190614847565b6065805460ff19169055565b600054610100900460ff166136895760405162461bcd60e51b815260040161080190614847565b81516020928301208151919092012060fb9190915560fc55565b600054610100900460ff166136ca5760405162461bcd60e51b815260040161080190614847565b507f6e71edae12b1b97f4d1f60370fef10105fa2faae0126114a169c64845d6126c961013055565b6136fc8282613dae565b6035546001600160e01b03101561376e5760405162461bcd60e51b815260206004820152603060248201527f4552433230566f7465733a20746f74616c20737570706c79207269736b73206f60448201526f766572666c6f77696e6720766f74657360801b6064820152608401610801565b6128f7610164613da283613bff565b600080805b835151811015613857578351805130916370a0823191849081106137b657634e487b7160e01b600052603260045260246000fd5b60200260200101516040518263ffffffff1660e01b81526004016137e991906001600160a01b0391909116815260200190565b60206040518083038186803b15801561380157600080fd5b505afa158015613815573d6000803e3d6000fd5b505050506040513d601f19601f8201168201806040525081019061383991906146a6565b6138439083614906565b91508061384f81614afa565b915050613782565b5092915050565b6001600160a01b038216600090815261019860205260408120805460019091015482919061388d906064614a4c565b613897919061491e565b905060646138a58285614a4c565b6138af919061491e565b949350505050565b6138c18282613ea1565b6128f7610164613bf383613bff565b6000807f7fffffffffffffffffffffffffffffff5d576e7357a4501ddfe92f46681b20a083111561390757506000905060036139b4565b8460ff16601b1415801561391f57508460ff16601c14155b1561393057506000905060046139b4565b6040805160008082526020820180845289905260ff881692820192909252606081018690526080810185905260019060a0016020604051602081039080840390855afa158015613984573d6000803e3d6000fd5b5050604051601f1901519150506001600160a01b0381166139ad576000600192509250506139b4565b9150600090505b94509492505050565b60008160048111156139df57634e487b7160e01b600052602160045260246000fd5b14156139ea57611035565b6001816004811115613a0c57634e487b7160e01b600052602160045260246000fd5b1415613a5a5760405162461bcd60e51b815260206004820152601860248201527f45434453413a20696e76616c6964207369676e617475726500000000000000006044820152606401610801565b6002816004811115613a7c57634e487b7160e01b600052602160045260246000fd5b1415613aca5760405162461bcd60e51b815260206004820152601f60248201527f45434453413a20696e76616c6964207369676e6174757265206c656e677468006044820152606401610801565b6003816004811115613aec57634e487b7160e01b600052602160045260246000fd5b1415613b455760405162461bcd60e51b815260206004820152602260248201527f45434453413a20696e76616c6964207369676e6174757265202773272076616c604482015261756560f01b6064820152608401610801565b6004816004811115613b6757634e487b7160e01b600052602160045260246000fd5b14156110355760405162461bcd60e51b815260206004820152602260248201527f45434453413a20696e76616c6964207369676e6174757265202776272076616c604482015261756560f01b6064820152608401610801565b6001600160a01b0383811660009081526101626020526040808220548584168352912054610c089291821691168361347b565b6000610bda8284614a6b565b825460009081908015613c585785613c18600183614a6b565b81548110613c3657634e487b7160e01b600052603260045260246000fd5b60009182526020909120015464010000000090046001600160e01b0316613c5b565b60005b6001600160e01b03169250613c7483858763ffffffff16565b9150600081118015613cc057504386613c8e600184614a6b565b81548110613cac57634e487b7160e01b600052603260045260246000fd5b60009182526020909120015463ffffffff16145b15613d2e57613cce82614002565b86613cda600184614a6b565b81548110613cf857634e487b7160e01b600052603260045260246000fd5b9060005260206000200160000160046101000a8154816001600160e01b0302191690836001600160e01b03160217905550613d99565b856040518060400160405280613d4343612cf4565b63ffffffff168152602001613d5785614002565b6001600160e01b0390811690915282546001810184556000938452602093849020835194909301519091166401000000000263ffffffff909316929092179101555b50935093915050565b6000610bda8284614906565b6001600160a01b038216613e045760405162461bcd60e51b815260206004820152601f60248201527f45524332303a206d696e7420746f20746865207a65726f2061646472657373006044820152606401610801565b613e1060008383613228565b8060356000828254613e229190614906565b90915550506001600160a01b03821660009081526033602052604081208054839290613e4f908490614906565b90915550506040518181526001600160a01b038316906000907fddf252ad1be2c89b69c2b068fc378daa952ba7f163c4a11628f55a4df523b3ef9060200160405180910390a3610c9660008383613273565b6001600160a01b038216613f015760405162461bcd60e51b815260206004820152602160248201527f45524332303a206275726e2066726f6d20746865207a65726f206164647265736044820152607360f81b6064820152608401610801565b613f0d82600083613228565b6001600160a01b03821660009081526033602052604090205481811015613f815760405162461bcd60e51b815260206004820152602260248201527f45524332303a206275726e20616d6f756e7420657863656564732062616c616e604482015261636560f01b6064820152608401610801565b6001600160a01b0383166000908152603360205260408120838303905560358054849290613fb0908490614a6b565b90915550506040518281526000906001600160a01b038516907fddf252ad1be2c89b69c2b068fc378daa952ba7f163c4a11628f55a4df523b3ef9060200160405180910390a3610c0883600084613273565b60006001600160e01b03821115612d595760405162461bcd60e51b815260206004820152602760248201527f53616665436173743a2076616c756520646f65736e27742066697420696e20326044820152663234206269747360c81b6064820152608401610801565b82805461407790614ac5565b90600052602060002090601f01602090048101928261409957600085556140df565b82601f106140b257805160ff19168380011785556140df565b828001600101855582156140df579182015b828111156140df5782518255916020019190600101906140c4565b50612d5992915061417c565b5080546140f790614ac5565b6000825580601f106141095750611035565b601f016020900490600052602060002090810190611035919061417c565b8280548282559060005260206000209081019282156140df579160200282015b828111156140df57825182546001600160a01b0319166001600160a01b03909116178255602090920191600190910190614147565b5b80821115612d59576000815560010161417d565b80356001600160a01b03811681146107cc57600080fd5b600082601f8301126141b8578081fd5b8135602067ffffffffffffffff8211156141d4576141d4614b2b565b8160051b6141e38282016148d5565b8381528281019086840183880185018910156141fd578687fd5b8693505b858410156142265761421281614191565b835260019390930192918401918401614201565b50979650505050505050565b803560ff811681146107cc57600080fd5b600060208284031215614254578081fd5b610bda82614191565b6000806040838503121561426f578081fd5b61427883614191565b915061428660208401614191565b90509250929050565b6000806000606084860312156142a3578081fd5b6142ac84614191565b92506142ba60208501614191565b9150604084013590509250925092565b600080600080600080600060e0888a0312156142e4578283fd5b6142ed88614191565b96506142fb60208901614191565b9550604088013594506060880135935061431760808901614232565b925060a0880135915060c0880135905092959891949750929550565b600080600080600060a0868803121561434a578081fd5b61435386614191565b9450602086013567ffffffffffffffff81111561436e578182fd5b61437a888289016141a8565b959895975050505060408401359360608101359360809091013592509050565b600080604083850312156143ac578182fd5b6143b583614191565b946020939093013593505050565b6000806000606084860312156143d7578283fd5b6143e084614191565b92506020840135915060408401356143f781614b41565b809150509250925092565b60008060008060608587031215614417578384fd5b61442085614191565b935060208501359250604085013567ffffffffffffffff80821115614443578384fd5b818701915087601f830112614456578384fd5b813581811115614464578485fd5b886020828501011115614475578485fd5b95989497505060200194505050565b600080600060608486031215614498578081fd5b6144a184614191565b92506020808501359250604085013567ffffffffffffffff808211156144c5578384fd5b818701915087601f8301126144d8578384fd5b8135818111156144ea576144ea614b2b565b6144fc601f8201601f191685016148d5565b91508082528884828501011115614511578485fd5b808484018584013784848284010152508093505050509250925092565b600080600060608486031215614542578081fd5b61454b84614191565b95602085013595506040909401359392505050565b60008060008060008060c08789031215614578578384fd5b61458187614191565b9550602087013594506040870135935061459d60608801614232565b92506080870135915060a087013590509295509295509295565b600080604083850312156145c9578182fd5b6145d283614191565b9150602083013563ffffffff811681146145ea578182fd5b809150509250929050565b600060208284031215614606578081fd5b813567ffffffffffffffff81111561461c578182fd5b6138af848285016141a8565b600060208284031215614639578081fd5b8151610bda81614b41565b600060208284031215614655578081fd5b5035919050565b6000806040838503121561466e578182fd5b8235915061428660208401614191565b60006020828403121561468f578081fd5b81356001600160e01b031981168114610bda578182fd5b6000602082840312156146b7578081fd5b5051919050565b600081518084526146d6816020860160208601614a82565b601f01601f19169290920160200192915050565b60007f416363657373436f6e74726f6c3a206163636f756e742000000000000000000082528351614722816017850160208801614a82565b7001034b99036b4b9b9b4b733903937b6329607d1b6017918401918201528351614753816028840160208801614a82565b01602801949350505050565b60006005891061477d57634e487b7160e01b81526021600452602481fd5b88825287602083015260018060a01b038716604083015285606083015260e060808301526147ae60e08301866146be565b60a08301949094525060c0015295945050505050565b60006020825282602083015282846040840137818301604090810191909152601f909201601f19160101919050565b600060208252610bda60208301846146be565b60208082526021908201527f4f6e6c7920736572766963652063616e2063616c6c2074686973206d6574686f6040820152601960fa1b606082015260800190565b6020808252602b908201527f496e697469616c697a61626c653a20636f6e7472616374206973206e6f74206960408201526a6e697469616c697a696e6760a81b606082015260800190565b60208082526023908201527f4f6e6c792076616c696461746f722063616e2063616c6c2074686973206d65746040820152621a1bd960ea1b606082015260800190565b604051601f8201601f1916810167ffffffffffffffff811182821017156148fe576148fe614b2b565b604052919050565b6000821982111561491957614919614b15565b500190565b60008261493957634e487b7160e01b81526012600452602481fd5b500490565b80825b600180861161495057506139b4565b81870482111561496257614962614b15565b8086161561496f57918102915b9490941c938002614941565b6000610bda60001960ff85168460008261499757506001610bda565b816149a457506000610bda565b81600181146149ba57600281146149c4576149f1565b6001915050610bda565b60ff8411156149d5576149d5614b15565b6001841b9150848211156149eb576149eb614b15565b50610bda565b5060208310610133831016604e8410600b8410161715614a24575081810a83811115614a1f57614a1f614b15565b610bda565b614a31848484600161493e565b808604821115614a4357614a43614b15565b02949350505050565b6000816000190483118215151615614a6657614a66614b15565b500290565b600082821015614a7d57614a7d614b15565b500390565b60005b83811015614a9d578181015183820152602001614a85565b838111156128f75750506000910152565b600081614abd57614abd614b15565b506000190190565b600181811c90821680614ad957607f821691505b6020821081141561322257634e487b7160e01b600052602260045260246000fd5b6000600019821415614b0e57614b0e614b15565b5060010190565b634e487b7160e01b600052601160045260246000fd5b634e487b7160e01b600052604160045260246000fd5b801515811461103557600080fdfe65d7a28e3265b37a6474929f336521b332c1681b933f6cb9f3376673440d862aa26469706673582212209e5be5af361e4375e934d2355bdff23a942ee36ce9f04eccbfb7eb22ed3e142164736f6c63430008030033",
  "linkReferences": {},
  "deployedLinkReferences": {}
}