{
  "contractName": "HelloWorld",
  "abi": [
    {
      "inputs": [],
      "name": "getName",
      "outputs": [
        {
          "internalType": "string",
          "name": "",
          "type": "string"
        }
      ],
      "stateMutability": "view",
      "type": "function"
    },
    {
      "inputs": [
        {
          "internalType": "string",
          "name": "newName",
          "type": "string"
        }
      ],
      "name": "setName",
      "outputs": [],
      "stateMutability": "nonpayable",
      "type": "function"
    }
  ],
  "bytecode": "0x60c0604052600460808190527f43656c6f0000000000000000000000000000000000000000000000000000000060a090815261003e9160009190610051565b5034801561004b57600080fd5b506100ec565b828054600181600116156101000203166002900490600052602060002090601f016020900481019282601f1061009257805160ff19168380011785556100bf565b828001600101855582156100bf579182015b828111156100bf5782518255916020019190600101906100a4565b506100cb9291506100cf565b5090565b6100e991905b808211156100cb57600081556001016100d5565b90565b6102a0806100fb6000396000f3fe608060405234801561001057600080fd5b50600436106100365760003560e01c806317d7de7c1461003b578063c47f0027146100b8575b600080fd5b61004361012a565b6040805160208082528351818301528351919283929083019185019080838360005b8381101561007d578181015183820152602001610065565b50505050905090810190601f1680156100aa5780820380516001836020036101000a031916815260200191505b509250505060405180910390f35b610128600480360360208110156100ce57600080fd5b8101906020810181356401000000008111156100e957600080fd5b8201836020820111156100fb57600080fd5b8035906020019184600183028401116401000000008311171561011d57600080fd5b5090925090506101c1565b005b60008054604080516020601f60026000196101006001881615020190951694909404938401819004810282018101909252828152606093909290918301828280156101b65780601f1061018b576101008083540402835291602001916101b6565b820191906000526020600020905b81548152906001019060200180831161019957829003601f168201915b505050505090505b90565b6101cd600083836101d2565b505050565b828054600181600116156101000203166002900490600052602060002090601f016020900481019282601f106102135782800160ff19823516178555610240565b82800160010185558215610240579182015b82811115610240578235825591602001919060010190610225565b5061024c929150610250565b5090565b6101be91905b8082111561024c576000815560010161025656fea26469706673582212202da4f7383cfec1a913825c131602c0f21b7ab7b2bb1c8c88f0b942eafa17296564736f6c63430006000033",
  "source": "pragma solidity >=0.5.0 <0.9.0;\n\ncontract HelloWorld {\n  string name = 'Celo';\n\n  function getName() public view returns (string memory) {\n    return name;\n  }\n\n  function setName(string calldata newName) external {\n    name = newName;\n  }\n}\n",
  "sourcePath": "/Users/daniel/Code/Work/Yanda/celo/network/contracts/HelloWorld.sol",
  "compiler": {
    "name": "solc",
    "version": "0.6.0+commit.26b70077.Emscripten.clang"
  },
  "schemaVersion": "3.4.2",
  "updatedAt": "2021-07-30T13:37:51.165Z",
  "devdoc": {
    "methods": {}
  },
  "userdoc": {
    "methods": {}
  }
}