{
  "contractName": "YandaToken",
  "abi": [
    {
      "inputs": [],
      "stateMutability": "nonpayable",
      "type": "constructor"
    },
    {
      "anonymous": false,
      "inputs": [
        {
          "indexed": true,
          "internalType": "address",
          "name": "owner",
          "type": "address"
        },
        {
          "indexed": true,
          "internalType": "address",
          "name": "spender",
          "type": "address"
        },
        {
          "indexed": false,
          "internalType": "uint256",
          "name": "value",
          "type": "uint256"
        }
      ],
      "name": "Approval",
      "type": "event"
    },
    {
      "anonymous": false,
      "inputs": [
        {
          "indexed": true,
          "internalType": "address",
          "name": "customer",
          "type": "address"
        },
        {
          "indexed": true,
          "internalType": "address",
          "name": "service",
          "type": "address"
        },
        {
          "indexed": true,
          "internalType": "string",
          "name": "productId",
          "type": "string"
        },
        {
          "indexed": false,
          "internalType": "bool",
          "name": "success",
          "type": "bool"
        }
      ],
      "name": "Completed",
      "type": "event"
    },
    {
      "anonymous": false,
      "inputs": [
        {
          "indexed": true,
          "internalType": "address",
          "name": "delegator",
          "type": "address"
        },
        {
          "indexed": true,
          "internalType": "address",
          "name": "fromDelegate",
          "type": "address"
        },
        {
          "indexed": true,
          "internalType": "address",
          "name": "toDelegate",
          "type": "address"
        }
      ],
      "name": "DelegateChanged",
      "type": "event"
    },
    {
      "anonymous": false,
      "inputs": [
        {
          "indexed": true,
          "internalType": "address",
          "name": "delegate",
          "type": "address"
        },
        {
          "indexed": false,
          "internalType": "uint256",
          "name": "previousBalance",
          "type": "uint256"
        },
        {
          "indexed": false,
          "internalType": "uint256",
          "name": "newBalance",
          "type": "uint256"
        }
      ],
      "name": "DelegateVotesChanged",
      "type": "event"
    },
    {
      "anonymous": false,
      "inputs": [
        {
          "indexed": true,
          "internalType": "address",
          "name": "customer",
          "type": "address"
        },
        {
          "indexed": true,
          "internalType": "address",
          "name": "service",
          "type": "address"
        },
        {
          "indexed": true,
          "internalType": "string",
          "name": "productId",
          "type": "string"
        }
      ],
      "name": "Delivered",
      "type": "event"
    },
    {
      "anonymous": false,
      "inputs": [
        {
          "indexed": true,
          "internalType": "address",
          "name": "customer",
          "type": "address"
        },
        {
          "indexed": true,
          "internalType": "address",
          "name": "service",
          "type": "address"
        },
        {
          "indexed": true,
          "internalType": "string",
          "name": "productId",
          "type": "string"
        },
        {
          "indexed": false,
          "internalType": "uint256",
          "name": "weiAmount",
          "type": "uint256"
        }
      ],
      "name": "Deposited",
      "type": "event"
    },
    {
      "anonymous": false,
      "inputs": [
        {
          "indexed": true,
          "internalType": "address",
          "name": "previousOwner",
          "type": "address"
        },
        {
          "indexed": true,
          "internalType": "address",
          "name": "newOwner",
          "type": "address"
        }
      ],
      "name": "OwnershipTransferred",
      "type": "event"
    },
    {
      "anonymous": false,
      "inputs": [
        {
          "indexed": false,
          "internalType": "address",
          "name": "account",
          "type": "address"
        }
      ],
      "name": "Paused",
      "type": "event"
    },
    {
      "anonymous": false,
      "inputs": [
        {
          "indexed": true,
          "internalType": "address",
          "name": "from",
          "type": "address"
        },
        {
          "indexed": true,
          "internalType": "address",
          "name": "to",
          "type": "address"
        },
        {
          "indexed": false,
          "internalType": "uint256",
          "name": "value",
          "type": "uint256"
        }
      ],
      "name": "Transfer",
      "type": "event"
    },
    {
      "anonymous": false,
      "inputs": [
        {
          "indexed": false,
          "internalType": "address",
          "name": "account",
          "type": "address"
        }
      ],
      "name": "Unpaused",
      "type": "event"
    },
    {
      "inputs": [],
      "name": "DOMAIN_SEPARATOR",
      "outputs": [
        {
          "internalType": "bytes32",
          "name": "",
          "type": "bytes32"
        }
      ],
      "stateMutability": "view",
      "type": "function",
      "constant": true
    },
    {
      "inputs": [
        {
          "internalType": "address",
          "name": "owner",
          "type": "address"
        },
        {
          "internalType": "address",
          "name": "spender",
          "type": "address"
        }
      ],
      "name": "allowance",
      "outputs": [
        {
          "internalType": "uint256",
          "name": "",
          "type": "uint256"
        }
      ],
      "stateMutability": "view",
      "type": "function",
      "constant": true
    },
    {
      "inputs": [
        {
          "internalType": "address",
          "name": "spender",
          "type": "address"
        },
        {
          "internalType": "uint256",
          "name": "amount",
          "type": "uint256"
        }
      ],
      "name": "approve",
      "outputs": [
        {
          "internalType": "bool",
          "name": "",
          "type": "bool"
        }
      ],
      "stateMutability": "nonpayable",
      "type": "function"
    },
    {
      "inputs": [
        {
          "internalType": "address",
          "name": "account",
          "type": "address"
        }
      ],
      "name": "balanceOf",
      "outputs": [
        {
          "internalType": "uint256",
          "name": "",
          "type": "uint256"
        }
      ],
      "stateMutability": "view",
      "type": "function",
      "constant": true
    },
    {
      "inputs": [
        {
          "internalType": "address",
          "name": "account",
          "type": "address"
        },
        {
          "internalType": "uint32",
          "name": "pos",
          "type": "uint32"
        }
      ],
      "name": "checkpoints",
      "outputs": [
        {
          "components": [
            {
              "internalType": "uint32",
              "name": "fromBlock",
              "type": "uint32"
            },
            {
              "internalType": "uint224",
              "name": "votes",
              "type": "uint224"
            }
          ],
          "internalType": "struct ERC20Votes.Checkpoint",
          "name": "",
          "type": "tuple"
        }
      ],
      "stateMutability": "view",
      "type": "function",
      "constant": true
    },
    {
      "inputs": [],
      "name": "decimals",
      "outputs": [
        {
          "internalType": "uint8",
          "name": "",
          "type": "uint8"
        }
      ],
      "stateMutability": "view",
      "type": "function",
      "constant": true
    },
    {
      "inputs": [
        {
          "internalType": "address",
          "name": "spender",
          "type": "address"
        },
        {
          "internalType": "uint256",
          "name": "subtractedValue",
          "type": "uint256"
        }
      ],
      "name": "decreaseAllowance",
      "outputs": [
        {
          "internalType": "bool",
          "name": "",
          "type": "bool"
        }
      ],
      "stateMutability": "nonpayable",
      "type": "function"
    },
    {
      "inputs": [
        {
          "internalType": "address",
          "name": "delegatee",
          "type": "address"
        }
      ],
      "name": "delegate",
      "outputs": [],
      "stateMutability": "nonpayable",
      "type": "function"
    },
    {
      "inputs": [
        {
          "internalType": "address",
          "name": "delegatee",
          "type": "address"
        },
        {
          "internalType": "uint256",
          "name": "nonce",
          "type": "uint256"
        },
        {
          "internalType": "uint256",
          "name": "expiry",
          "type": "uint256"
        },
        {
          "internalType": "uint8",
          "name": "v",
          "type": "uint8"
        },
        {
          "internalType": "bytes32",
          "name": "r",
          "type": "bytes32"
        },
        {
          "internalType": "bytes32",
          "name": "s",
          "type": "bytes32"
        }
      ],
      "name": "delegateBySig",
      "outputs": [],
      "stateMutability": "nonpayable",
      "type": "function"
    },
    {
      "inputs": [
        {
          "internalType": "address",
          "name": "account",
          "type": "address"
        }
      ],
      "name": "delegates",
      "outputs": [
        {
          "internalType": "address",
          "name": "",
          "type": "address"
        }
      ],
      "stateMutability": "view",
      "type": "function",
      "constant": true
    },
    {
      "inputs": [
        {
          "internalType": "uint256",
          "name": "blockNumber",
          "type": "uint256"
        }
      ],
      "name": "getPastTotalSupply",
      "outputs": [
        {
          "internalType": "uint256",
          "name": "",
          "type": "uint256"
        }
      ],
      "stateMutability": "view",
      "type": "function",
      "constant": true
    },
    {
      "inputs": [
        {
          "internalType": "address",
          "name": "account",
          "type": "address"
        },
        {
          "internalType": "uint256",
          "name": "blockNumber",
          "type": "uint256"
        }
      ],
      "name": "getPastVotes",
      "outputs": [
        {
          "internalType": "uint256",
          "name": "",
          "type": "uint256"
        }
      ],
      "stateMutability": "view",
      "type": "function",
      "constant": true
    },
    {
      "inputs": [
        {
          "internalType": "address",
          "name": "account",
          "type": "address"
        }
      ],
      "name": "getVotes",
      "outputs": [
        {
          "internalType": "uint256",
          "name": "",
          "type": "uint256"
        }
      ],
      "stateMutability": "view",
      "type": "function",
      "constant": true
    },
    {
      "inputs": [
        {
          "internalType": "address",
          "name": "spender",
          "type": "address"
        },
        {
          "internalType": "uint256",
          "name": "addedValue",
          "type": "uint256"
        }
      ],
      "name": "increaseAllowance",
      "outputs": [
        {
          "internalType": "bool",
          "name": "",
          "type": "bool"
        }
      ],
      "stateMutability": "nonpayable",
      "type": "function"
    },
    {
      "inputs": [],
      "name": "name",
      "outputs": [
        {
          "internalType": "string",
          "name": "",
          "type": "string"
        }
      ],
      "stateMutability": "view",
      "type": "function",
      "constant": true
    },
    {
      "inputs": [
        {
          "internalType": "address",
          "name": "owner",
          "type": "address"
        }
      ],
      "name": "nonces",
      "outputs": [
        {
          "internalType": "uint256",
          "name": "",
          "type": "uint256"
        }
      ],
      "stateMutability": "view",
      "type": "function",
      "constant": true
    },
    {
      "inputs": [
        {
          "internalType": "address",
          "name": "account",
          "type": "address"
        }
      ],
      "name": "numCheckpoints",
      "outputs": [
        {
          "internalType": "uint32",
          "name": "",
          "type": "uint32"
        }
      ],
      "stateMutability": "view",
      "type": "function",
      "constant": true
    },
    {
      "inputs": [],
      "name": "owner",
      "outputs": [
        {
          "internalType": "address",
          "name": "",
          "type": "address"
        }
      ],
      "stateMutability": "view",
      "type": "function",
      "constant": true
    },
    {
      "inputs": [],
      "name": "paused",
      "outputs": [
        {
          "internalType": "bool",
          "name": "",
          "type": "bool"
        }
      ],
      "stateMutability": "view",
      "type": "function",
      "constant": true
    },
    {
      "inputs": [
        {
          "internalType": "address",
          "name": "owner",
          "type": "address"
        },
        {
          "internalType": "address",
          "name": "spender",
          "type": "address"
        },
        {
          "internalType": "uint256",
          "name": "value",
          "type": "uint256"
        },
        {
          "internalType": "uint256",
          "name": "deadline",
          "type": "uint256"
        },
        {
          "internalType": "uint8",
          "name": "v",
          "type": "uint8"
        },
        {
          "internalType": "bytes32",
          "name": "r",
          "type": "bytes32"
        },
        {
          "internalType": "bytes32",
          "name": "s",
          "type": "bytes32"
        }
      ],
      "name": "permit",
      "outputs": [],
      "stateMutability": "nonpayable",
      "type": "function"
    },
    {
      "inputs": [
        {
          "internalType": "address",
          "name": "",
          "type": "address"
        }
      ],
      "name": "processes",
      "outputs": [
        {
          "internalType": "enum YandaToken.State",
          "name": "state",
          "type": "uint8"
        },
        {
          "internalType": "uint256",
          "name": "bill",
          "type": "uint256"
        },
        {
          "internalType": "address",
          "name": "service",
          "type": "address"
        },
        {
          "internalType": "string",
          "name": "productId",
          "type": "string"
        },
        {
          "internalType": "uint256",
          "name": "validations",
          "type": "uint256"
        },
        {
          "internalType": "uint256",
          "name": "failedValidations",
          "type": "uint256"
        },
        {
          "internalType": "uint256",
          "name": "onBalance",
          "type": "uint256"
        }
      ],
      "stateMutability": "view",
      "type": "function",
      "constant": true
    },
    {
      "inputs": [],
      "name": "renounceOwnership",
      "outputs": [],
      "stateMutability": "nonpayable",
      "type": "function"
    },
    {
      "inputs": [
        {
          "internalType": "address",
          "name": "",
          "type": "address"
        }
      ],
      "name": "services",
      "outputs": [
        {
          "internalType": "uint256",
          "name": "validationShare",
          "type": "uint256"
        },
        {
          "internalType": "uint256",
          "name": "commissionShare",
          "type": "uint256"
        }
      ],
      "stateMutability": "view",
      "type": "function",
      "constant": true
    },
    {
      "inputs": [],
      "name": "symbol",
      "outputs": [
        {
          "internalType": "string",
          "name": "",
          "type": "string"
        }
      ],
      "stateMutability": "view",
      "type": "function",
      "constant": true
    },
    {
      "inputs": [],
      "name": "totalSupply",
      "outputs": [
        {
          "internalType": "uint256",
          "name": "",
          "type": "uint256"
        }
      ],
      "stateMutability": "view",
      "type": "function",
      "constant": true
    },
    {
      "inputs": [
        {
          "internalType": "address",
          "name": "sender",
          "type": "address"
        },
        {
          "internalType": "address",
          "name": "recipient",
          "type": "address"
        },
        {
          "internalType": "uint256",
          "name": "amount",
          "type": "uint256"
        }
      ],
      "name": "transferFrom",
      "outputs": [
        {
          "internalType": "bool",
          "name": "",
          "type": "bool"
        }
      ],
      "stateMutability": "nonpayable",
      "type": "function"
    },
    {
      "inputs": [
        {
          "internalType": "address",
          "name": "newOwner",
          "type": "address"
        }
      ],
      "name": "transferOwnership",
      "outputs": [],
      "stateMutability": "nonpayable",
      "type": "function"
    },
    {
      "inputs": [
        {
          "internalType": "address",
          "name": "",
          "type": "address"
        }
      ],
      "name": "validators",
      "outputs": [
        {
          "internalType": "bool",
          "name": "",
          "type": "bool"
        }
      ],
      "stateMutability": "view",
      "type": "function",
      "constant": true
    },
    {
      "inputs": [],
      "name": "pause",
      "outputs": [],
      "stateMutability": "nonpayable",
      "type": "function"
    },
    {
      "inputs": [],
      "name": "unpause",
      "outputs": [],
      "stateMutability": "nonpayable",
      "type": "function"
    },
    {
      "inputs": [
        {
          "internalType": "address",
          "name": "to",
          "type": "address"
        },
        {
          "internalType": "uint256",
          "name": "amount",
          "type": "uint256"
        }
      ],
      "name": "mint",
      "outputs": [],
      "stateMutability": "nonpayable",
      "type": "function"
    },
    {
      "inputs": [
        {
          "internalType": "address",
          "name": "recipient",
          "type": "address"
        },
        {
          "internalType": "uint256",
          "name": "amount",
          "type": "uint256"
        }
      ],
      "name": "transfer",
      "outputs": [
        {
          "internalType": "bool",
          "name": "",
          "type": "bool"
        }
      ],
      "stateMutability": "nonpayable",
      "type": "function"
    },
    {
      "inputs": [
        {
          "internalType": "address",
          "name": "service",
          "type": "address"
        },
        {
          "internalType": "address[]",
          "name": "vList",
          "type": "address[]"
        },
        {
          "internalType": "uint256",
          "name": "vShare",
          "type": "uint256"
        },
        {
          "internalType": "uint256",
          "name": "cShare",
          "type": "uint256"
        }
      ],
      "name": "addService",
      "outputs": [],
      "stateMutability": "nonpayable",
      "type": "function"
    },
    {
      "inputs": [
        {
          "internalType": "address[]",
          "name": "vList",
          "type": "address[]"
        }
      ],
      "name": "setValidators",
      "outputs": [],
      "stateMutability": "nonpayable",
      "type": "function"
    },
    {
      "inputs": [
        {
          "internalType": "address",
          "name": "customer",
          "type": "address"
        },
        {
          "internalType": "uint256",
          "name": "bill",
          "type": "uint256"
        },
        {
          "internalType": "string",
          "name": "productId",
          "type": "string"
        }
      ],
      "name": "addProcess",
      "outputs": [],
      "stateMutability": "nonpayable",
      "type": "function"
    },
    {
      "inputs": [
        {
          "internalType": "address",
          "name": "customer",
          "type": "address"
        }
      ],
      "name": "getProcess",
      "outputs": [
        {
          "components": [
            {
              "internalType": "enum YandaToken.State",
              "name": "state",
              "type": "uint8"
            },
            {
              "internalType": "uint256",
              "name": "bill",
              "type": "uint256"
            },
            {
              "internalType": "address",
              "name": "service",
              "type": "address"
            },
            {
              "internalType": "string",
              "name": "productId",
              "type": "string"
            },
            {
              "internalType": "uint256",
              "name": "validations",
              "type": "uint256"
            },
            {
              "internalType": "uint256",
              "name": "failedValidations",
              "type": "uint256"
            },
            {
              "internalType": "uint256",
              "name": "onBalance",
              "type": "uint256"
            }
          ],
          "internalType": "struct YandaToken.Process",
          "name": "",
          "type": "tuple"
        }
      ],
      "stateMutability": "view",
      "type": "function",
      "constant": true
    },
    {
      "inputs": [
        {
          "internalType": "address",
          "name": "customer",
          "type": "address"
        }
      ],
      "name": "confirmDelivery",
      "outputs": [],
      "stateMutability": "nonpayable",
      "type": "function"
    },
    {
      "inputs": [
        {
          "internalType": "address",
          "name": "customer",
          "type": "address"
        },
        {
          "internalType": "bool",
          "name": "passed",
          "type": "bool"
        }
      ],
      "name": "validateDelivery",
      "outputs": [],
      "stateMutability": "nonpayable",
      "type": "function"
    }
  ],
  "bytecode": "0x6101406040527f6e71edae12b1b97f4d1f60370fef10105fa2faae0126114a169c64845d6126c9610120523480156200003757600080fd5b506040518060400160405280600a8152602001692cb0b73230aa37b5b2b760b11b81525080604051806040016040528060018152602001603160f81b8152506040518060400160405280600a8152602001692cb0b73230aa37b5b2b760b11b8152506040518060400160405280600381526020016216539160ea1b8152508160039080519060200190620000cd929190620008bd565b508051620000e3906004906020840190620008bd565b50506005805460ff1916905550620000fb3362000190565b815160208084019190912082519183019190912060c082905260e08190524660a0527f8b73c3c69bb8fe3d512ecc4cf759cc79239f7b179b0ffacaa9a75d522b39400f6200014b818484620001ea565b60805261010052506200018a935033925062000168915050601290565b6200017590600a620009c1565b6200018490620186a062000aac565b62000234565b62000b3b565b600580546001600160a01b03838116610100818102610100600160a81b031985161790945560405193909204169182907f8be0079c531659141344cd1fd0a4f28419497f9722a3daafe3b4186f6b6457e090600090a35050565b6040805160208101859052908101839052606081018290524660808201523060a082015260009060c0016040516020818303038152906040528051906020012090505b9392505050565b6200024b82826200024f60201b62001dfc1760201c565b5050565b6200026682826200030660201b62001e8c1760201c565b6001600160e01b036200027a620004038216565b1115620002e75760405162461bcd60e51b815260206004820152603060248201527f4552433230566f7465733a20746f74616c20737570706c79207269736b73206f60448201526f766572666c6f77696e6720766f74657360801b60648201526084015b60405180910390fd5b62000300600962001f7f6200040960201b178362000417565b50505050565b6001600160a01b0382166200035e5760405162461bcd60e51b815260206004820152601f60248201527f45524332303a206d696e7420746f20746865207a65726f2061646472657373006044820152606401620002de565b6200036c60008383620005ed565b806002600082825462000380919062000959565b90915550506001600160a01b03821660009081526020819052604081208054839290620003af90849062000959565b90915550506040518181526001600160a01b038316906000907fddf252ad1be2c89b69c2b068fc378daa952ba7f163c4a11628f55a4df523b3ef9060200160405180910390a36200024b6000838362000652565b60025490565b60006200022d828462000959565b8254600090819080156200047557856200043360018362000ace565b815481106200045257634e487b7160e01b600052603260045260246000fd5b60009182526020909120015464010000000090046001600160e01b031662000478565b60005b6001600160e01b031692506200048f83858760201c565b9150600081118015620004df57504386620004ac60018462000ace565b81548110620004cb57634e487b7160e01b600052603260045260246000fd5b60009182526020909120015463ffffffff16145b156200055f57620004fb826200066a60201b62001f8b1760201c565b866200050960018462000ace565b815481106200052857634e487b7160e01b600052603260045260246000fd5b9060005260206000200160000160046101000a8154816001600160e01b0302191690836001600160e01b03160217905550620005e4565b8560405180604001604052806200058143620006d960201b62001ff81760201c565b63ffffffff168152602001620005a2856200066a60201b62001f8b1760201c565b6001600160e01b0390811690915282546001810184556000938452602093849020835194909301519091166401000000000263ffffffff909316929092179101555b50935093915050565b60055460ff1615620006355760405162461bcd60e51b815260206004820152601060248201526f14185d5cd8589b194e881c185d5cd95960821b6044820152606401620002de565b6200064d8383836200064d60201b6200205d1760201c565b505050565b6200064d8383836200074060201b620020621760201c565b60006001600160e01b03821115620006d55760405162461bcd60e51b815260206004820152602760248201527f53616665436173743a2076616c756520646f65736e27742066697420696e20326044820152663234206269747360c81b6064820152608401620002de565b5090565b600063ffffffff821115620006d55760405162461bcd60e51b815260206004820152602660248201527f53616665436173743a2076616c756520646f65736e27742066697420696e203360448201526532206269747360d01b6064820152608401620002de565b620007588383836200064d60201b6200205d1760201c565b6001600160a01b038381166000908152600760205260408082205485841683529120546200064d92918216911683818314801590620007975750600081115b156200064d576001600160a01b0383161562000824576001600160a01b038316600090815260086020908152604082208291620007e19190620008af901b6200207d178562000417565b91509150846001600160a01b03166000805160206200459f833981519152838360405162000819929190918252602082015260400190565b60405180910390a250505b6001600160a01b038216156200064d576001600160a01b03821660009081526008602090815260408220829162000868919062000409901b62001f7f178562000417565b91509150836001600160a01b03166000805160206200459f8339815191528383604051620008a0929190918252602082015260400190565b60405180910390a25050505050565b60006200022d828462000ace565b828054620008cb9062000ae8565b90600052602060002090601f016020900481019282620008ef57600085556200093a565b82601f106200090a57805160ff19168380011785556200093a565b828001600101855582156200093a579182015b828111156200093a5782518255916020019190600101906200091d565b50620006d59291505b80821115620006d5576000815560010162000943565b600082198211156200096f576200096f62000b25565b500190565b80825b6001808611620009885750620009b8565b8187048211156200099d576200099d62000b25565b80861615620009ab57918102915b9490941c93800262000977565b94509492505050565b60006200022d60001960ff851684600082620009e0575060016200022d565b81620009ef575060006200022d565b816001811462000a08576002811462000a135762000a47565b60019150506200022d565b60ff84111562000a275762000a2762000b25565b6001841b91508482111562000a405762000a4062000b25565b506200022d565b5060208310610133831016604e8410600b841016171562000a7f575081810a8381111562000a795762000a7962000b25565b6200022d565b62000a8e848484600162000974565b80860482111562000aa35762000aa362000b25565b02949350505050565b600081600019048311821515161562000ac95762000ac962000b25565b500290565b60008282101562000ae35762000ae362000b25565b500390565b600181811c9082168062000afd57607f821691505b6020821081141562000b1f57634e487b7160e01b600052602260045260246000fd5b50919050565b634e487b7160e01b600052601160045260246000fd5b60805160a05160c05160e0516101005161012051613a1462000b8b6000396000611ae9015260006123e4015260006124330152600061240e01526000612390015260006123b90152613a146000f3fe608060405234801561001057600080fd5b50600436106102325760003560e01c80637ecebe0011610130578063a457c2d7116100b8578063dd62ed3e1161007c578063dd62ed3e14610503578063f1127ed81461053c578063f2fde38b14610579578063f47554571461058c578063fa52c7d8146105b257610232565b8063a457c2d714610497578063a9059cbb146104aa578063c3cda520146104bd578063d30a9aff146104d0578063d505accf146104f057610232565b80639300c926116100ff5780639300c9261461044357806395d89b41146104565780639ab24eb01461045e5780639ee05dd1146104715780639f7aee821461048457610232565b80637ecebe00146103fe5780638456cb59146104115780638da5cb5b146104195780638e539e8c1461043057610232565b806340c10f19116101be57806369ab782c1161018257806369ab782c146103535780636d966d01146103665780636fcfff45146103a557806370a08231146103cd578063715018a6146103f657610232565b806340c10f19146102e457806344715aaa146102f7578063587cde1e1461030a5780635c19a95c146103355780635c975abb1461034857610232565b8063313ce56711610205578063313ce5671461029d5780633644e515146102ac57806339509351146102b45780633a46b1a8146102c75780633f4ba83a146102da57610232565b806306fdde0314610237578063095ea7b31461025557806318160ddd1461027857806323b872dd1461028a575b600080fd5b61023f6105d5565b60405161024c919061381e565b60405180910390f35b610268610263366004613517565b610668565b604051901515815260200161024c565b6002545b60405190815260200161024c565b6102686102983660046133da565b61067e565b6040516012815260200161024c565b61027c61072d565b6102686102c2366004613517565b61073c565b61027c6102d5366004613517565b610778565b6102e26107f2565b005b6102e26102f2366004613517565b61082c565b6102e261030536600461347e565b61086a565b61031d61031836600461338e565b61093a565b6040516001600160a01b03909116815260200161024c565b6102e261034336600461338e565b61095b565b60055460ff16610268565b6102e26103613660046134e1565b610968565b61039061037436600461338e565b600b602052600090815260409020600181015460029091015482565b6040805192835260208301919091520161024c565b6103b86103b336600461338e565b611120565b60405163ffffffff909116815260200161024c565b61027c6103db36600461338e565b6001600160a01b031660009081526020819052604090205490565b6102e2611148565b61027c61040c36600461338e565b611182565b6102e26111a0565b61031d60055461010090046001600160a01b031690565b61027c61043e3660046136a8565b6111d8565b6102e261045136600461364c565b611234565b61023f611288565b61027c61046c36600461338e565b611297565b6102e261047f366004613540565b61132c565b6102e261049236600461338e565b611484565b6102686104a5366004613517565b6115b1565b6102686104b8366004613517565b61164a565b6102e26104cb3660046135c2565b6117d2565b6104e36104de36600461338e565b611908565b60405161024c91906138a7565b6102e26104fe366004613415565b611a95565b61027c6105113660046133a8565b6001600160a01b03918216600090815260016020908152604080832093909416825291909152205490565b61054f61054a366004613619565b611bf9565b60408051825163ffffffff1681526020928301516001600160e01b0316928101929092520161024c565b6102e261058736600461338e565b611c8b565b61059f61059a36600461338e565b611d29565b60405161024c97969594939291906137c8565b6102686105c036600461338e565b600c6020526000908152604090205460ff1681565b6060600380546105e49061396a565b80601f01602080910402602001604051908101604052809291908181526020018280546106109061396a565b801561065d5780601f106106325761010080835404028352916020019161065d565b820191906000526020600020905b81548152906001019060200180831161064057829003601f168201915b505050505090505b90565b6000610675338484612089565b50600192915050565b600061068b8484846121ad565b6001600160a01b0384166000908152600160209081526040808320338452909152902054828110156107155760405162461bcd60e51b815260206004820152602860248201527f45524332303a207472616e7366657220616d6f756e74206578636565647320616044820152676c6c6f77616e636560c01b60648201526084015b60405180910390fd5b6107228533858403612089565b506001949350505050565b600061073761238c565b905090565b3360008181526001602090815260408083206001600160a01b0387168452909152812054909161067591859061077390869061391b565b612089565b60004382106107c95760405162461bcd60e51b815260206004820152601f60248201527f4552433230566f7465733a20626c6f636b206e6f7420796574206d696e656400604482015260640161070c565b6001600160a01b03831660009081526008602052604090206107eb9083612483565b9392505050565b6005546001600160a01b036101009091041633146108225760405162461bcd60e51b815260040161070c90613831565b61082a61255c565b565b6005546001600160a01b0361010090910416331461085c5760405162461bcd60e51b815260040161070c90613831565b61086682826125ef565b5050565b6005546001600160a01b0361010090910416331461089a5760405162461bcd60e51b815260040161070c90613831565b60405180606001604052808585808060200260200160405190810160405280939291908181526020018383602002808284376000920182905250938552505050602080830186905260409283018590526001600160a01b0389168252600b8152919020825180519192610912928492909101906131a3565b506020820151600182015560409091015160029091015561093384846125f9565b5050505050565b6001600160a01b03808216600090815260076020526040902054165b919050565b61096533826126d4565b50565b336000908152600c602052604090205460ff1615156001146109d85760405162461bcd60e51b815260206004820152602360248201527f4f6e6c792076616c696461746f722063616e2063616c6c2074686973206d65746044820152621a1bd960ea1b606482015260840161070c565b60026001600160a01b0383166000908152600a602052604090205460ff166002811115610a1557634e487b7160e01b600052602160045260246000fd5b14610a625760405162461bcd60e51b815260206004820152601860248201527f43616e6e6f742076616c69646174652064656c69766172790000000000000000604482015260640161070c565b8015610a9f576001600160a01b0382166000908152600a60205260408120600401805460019290610a9490849061391b565b90915550610ad19050565b6001600160a01b0382166000908152600a60205260408120600501805460019290610acb90849061391b565b90915550505b6001600160a01b038083166000908152600a602090815260408083206002908101549094168352600b909152902054610b0a9190613933565b6001600160a01b0383166000908152600a60205260409020600401541115610e35576001600160a01b038083166000818152600a6020818152604080842060028101549096168452600b8252832060019081015494845291905290920154610b729190613933565b6001600160a01b038085166000908152600a60209081526040808320600201549093168252600b815282822083518154608093810282018401909552606081018581529596509294610c2094919284928491840182828015610bfd57602002820191906000526020600020905b81546001600160a01b03168152600190910190602001808311610bdf575b50505050508152602001600182015481526020016002820154815250508361276a565b6001600160a01b038086166000818152600a602081815260408084206002808201549097168552600b835290842090950154938352526001909201549293509091610c6b9190613933565b6001600160a01b038681166000908152600a60205260409081902060020154905163a9059cbb60e01b81529116600482015260248101829052909150309063a9059cbb90604401602060405180830381600087803b158015610ccc57600080fd5b505af1158015610ce0573d6000803e3d6000fd5b505050506040513d601f19601f82011682018060405250810190610d04919061368c565b506001600160a01b0385166000908152600a6020526040902060010154610d439030908390610d34908690613953565b610d3e9190613953565b61286c565b6001600160a01b0385166000908152600a6020526040908190209051610d6c916003019061372d565b604080519182900382206001600160a01b038881166000818152600a602090815294902060020154600186529294929091169290917f7daf08d0e44003419a73f3ea5ab6a43b1186f608b3f033fcc4e272b143ae1ae5910160405180910390a46001600160a01b0385166000908152600a60205260408120805460ff19168155600181018290556002810180546001600160a01b031916905590610e136003830182613204565b6004820160009055600582016000905560068201600090555050505050610866565b6001600160a01b038083166000908152600a602090815260408083206002908101549094168352600b909152902054610e6e9190613933565b6001600160a01b0383166000908152600a602052604090206005015410610866576001600160a01b038083166000818152600a6020818152604080842060028101549096168452600b8252832060019081015494845291905290920154610ed59190613933565b6001600160a01b038085166000908152600a60209081526040808320600201549093168252600b815282822083518154608093810282018401909552606081018581529596509294610f8194919284928491840182828015610bfd576020028201919060005260206000209081546001600160a01b03168152600190910190602001808311610bdf5750505050508152602001600182015481526020016002820154815250508361276a565b6001600160a01b0385166000908152600a6020526040902060010154909150309063a9059cbb908690610fb5908590613953565b6040516001600160e01b031960e085901b1681526001600160a01b0390921660048301526024820152604401602060405180830381600087803b158015610ffb57600080fd5b505af115801561100f573d6000803e3d6000fd5b505050506040513d601f19601f82011682018060405250810190611033919061368c565b506001600160a01b0384166000908152600a602052604090819020905161105d916003019061372d565b604080519182900382206001600160a01b038781166000818152600a6020908152948120600201549086529294929091169290917f7daf08d0e44003419a73f3ea5ab6a43b1186f608b3f033fcc4e272b143ae1ae5910160405180910390a46001600160a01b0384166000908152600a60205260408120805460ff19168155600181018290556002810180546001600160a01b0319169055906111036003830182613204565b506000600482018190556005820181905560069091015550505050565b6001600160a01b03811660009081526008602052604081205461114290611ff8565b92915050565b6005546001600160a01b036101009091041633146111785760405162461bcd60e51b815260040161070c90613831565b61082a6000612876565b6001600160a01b038116600090815260066020526040812054611142565b6005546001600160a01b036101009091041633146111d05760405162461bcd60e51b815260040161070c90613831565b61082a6128d0565b60004382106112295760405162461bcd60e51b815260206004820152601f60248201527f4552433230566f7465733a20626c6f636b206e6f7420796574206d696e656400604482015260640161070c565b611142600983612483565b336000908152600b60205260409020600101546112635760405162461bcd60e51b815260040161070c90613866565b336000908152600b6020526040902061127d908383613240565b5061086682826125f9565b6060600480546105e49061396a565b6001600160a01b0381166000908152600860205260408120548015611319576001600160a01b03831660009081526008602052604090206112d9600183613953565b815481106112f757634e487b7160e01b600052603260045260246000fd5b60009182526020909120015464010000000090046001600160e01b031661131c565b60005b6001600160e01b03169392505050565b336000908152600b602052604090206001015461135b5760405162461bcd60e51b815260040161070c90613866565b6040805160e081019091528060008152602001848152602001336001600160a01b0316815260200183838080601f01602080910402602001604051908101604052809392919081815260200183838082843760009201829052509385525050506020808301829052604080840183905260609093018290526001600160a01b0388168252600a90522081518154829060ff1916600183600281111561141057634e487b7160e01b600052602160045260246000fd5b0217905550602082810151600183015560408301516002830180546001600160a01b0319166001600160a01b039092169190911790556060830151805161145d9260038501920190613293565b506080820151600482015560a0820151600582015560c09091015160069091015550505050565b336000908152600b60205260409020600101546114b35760405162461bcd60e51b815260040161070c90613866565b60016001600160a01b0382166000908152600a602052604090205460ff1660028111156114f057634e487b7160e01b600052602160045260246000fd5b1461153d5760405162461bcd60e51b815260206004820152601760248201527f43616e6e6f7420636f6e6669726d2064656c6976657279000000000000000000604482015260640161070c565b6001600160a01b0381166000908152600a602052604090819020805460ff191660021781559051611571916003019061372d565b6040519081900381209033906001600160a01b038416907f65a33da1084d21f791087adc5dffa850ccd3ed0d4d2ec2f1144c2d47ea69d72890600090a450565b3360009081526001602090815260408083206001600160a01b0386168452909152812054828110156116335760405162461bcd60e51b815260206004820152602560248201527f45524332303a2064656372656173656420616c6c6f77616e63652062656c6f77604482015264207a65726f60d81b606482015260840161070c565b6116403385858403612089565b5060019392505050565b60006116573384846121ad565b6001600160a01b03831630141561067557336000908152600a602052604081205460ff16600281111561169a57634e487b7160e01b600052602160045260246000fd5b146116d65760405162461bcd60e51b815260206004820152600c60248201526b105b1c9958591e481c185a5960a21b604482015260640161070c565b336000908152600a602052604090206001015482146117285760405162461bcd60e51b815260206004820152600e60248201526d125b9d985b1a5908185b5bdd5b9d60921b604482015260640161070c565b336000908152600a602052604090819020805460ff191660011781559051611753916003019061372d565b6040518091039020600a60006117663390565b6001600160a01b03908116825260208201929092526040016000206002015416336001600160a01b03167f760e3eeb6db4722a21233470bd7d3a6965f6254960a40159e25e520e24b0f2be856040516117c191815260200190565b60405180910390a450600192915050565b834211156118225760405162461bcd60e51b815260206004820152601d60248201527f4552433230566f7465733a207369676e61747572652065787069726564000000604482015260640161070c565b604080517fe48329057bfd03d55e49b547132e39cffd9c1820ad7b9d4c5307691425d15adf60208201526001600160a01b03881691810191909152606081018690526080810185905260009061189c906118949060a0016040516020818303038152906040528051906020012061294b565b858585612999565b90506118a7816129c1565b86146118f55760405162461bcd60e51b815260206004820152601960248201527f4552433230566f7465733a20696e76616c6964206e6f6e636500000000000000604482015260640161070c565b6118ff81886126d4565b50505050505050565b6119526040805160e0810190915280600081526020016000815260200160006001600160a01b03168152602001606081526020016000815260200160008152602001600081525090565b6001600160a01b0382166000908152600a602052604090819020815160e081019092528054829060ff16600281111561199b57634e487b7160e01b600052602160045260246000fd5b60028111156119ba57634e487b7160e01b600052602160045260246000fd5b81526001820154602082015260028201546001600160a01b031660408201526003820180546060909201916119ee9061396a565b80601f0160208091040260200160405190810160405280929190818152602001828054611a1a9061396a565b8015611a675780601f10611a3c57610100808354040283529160200191611a67565b820191906000526020600020905b815481529060010190602001808311611a4a57829003601f168201915b5050505050815260200160048201548152602001600582015481526020016006820154815250509050919050565b83421115611ae55760405162461bcd60e51b815260206004820152601d60248201527f45524332305065726d69743a206578706972656420646561646c696e65000000604482015260640161070c565b60007f0000000000000000000000000000000000000000000000000000000000000000888888611b148c6129c1565b6040805160208101969096526001600160a01b0394851690860152929091166060840152608083015260a082015260c0810186905260e0016040516020818303038152906040528051906020012090506000611b6f8261294b565b90506000611b7f82878787612999565b9050896001600160a01b0316816001600160a01b031614611be25760405162461bcd60e51b815260206004820152601e60248201527f45524332305065726d69743a20696e76616c6964207369676e61747572650000604482015260640161070c565b611bed8a8a8a612089565b50505050505050505050565b60408051808201909152600080825260208201526001600160a01b0383166000908152600860205260409020805463ffffffff8416908110611c4b57634e487b7160e01b600052603260045260246000fd5b60009182526020918290206040805180820190915291015463ffffffff8116825264010000000090046001600160e01b0316918101919091529392505050565b6005546001600160a01b03610100909104163314611cbb5760405162461bcd60e51b815260040161070c90613831565b6001600160a01b038116611d205760405162461bcd60e51b815260206004820152602660248201527f4f776e61626c653a206e6577206f776e657220697320746865207a65726f206160448201526564647265737360d01b606482015260840161070c565b61096581612876565b600a60205260009081526040902080546001820154600283015460038401805460ff9094169492936001600160a01b039092169291611d679061396a565b80601f0160208091040260200160405190810160405280929190818152602001828054611d939061396a565b8015611de05780601f10611db557610100808354040283529160200191611de0565b820191906000526020600020905b815481529060010190602001808311611dc357829003601f168201915b5050505050908060040154908060050154908060060154905087565b611e068282611e8c565b6002546001600160e01b031015611e785760405162461bcd60e51b815260206004820152603060248201527f4552433230566f7465733a20746f74616c20737570706c79207269736b73206f60448201526f766572666c6f77696e6720766f74657360801b606482015260840161070c565b611e866009611f7f836129e9565b50505050565b6001600160a01b038216611ee25760405162461bcd60e51b815260206004820152601f60248201527f45524332303a206d696e7420746f20746865207a65726f206164647265737300604482015260640161070c565b611eee60008383612b8c565b8060026000828254611f00919061391b565b90915550506001600160a01b03821660009081526020819052604081208054839290611f2d90849061391b565b90915550506040518181526001600160a01b038316906000907fddf252ad1be2c89b69c2b068fc378daa952ba7f163c4a11628f55a4df523b3ef9060200160405180910390a361086660008383612bd7565b60006107eb828461391b565b60006001600160e01b03821115611ff45760405162461bcd60e51b815260206004820152602760248201527f53616665436173743a2076616c756520646f65736e27742066697420696e20326044820152663234206269747360c81b606482015260840161070c565b5090565b600063ffffffff821115611ff45760405162461bcd60e51b815260206004820152602660248201527f53616665436173743a2076616c756520646f65736e27742066697420696e203360448201526532206269747360d01b606482015260840161070c565b505050565b61205d61206e8461093a565b6120778461093a565b83612be2565b60006107eb8284613953565b6001600160a01b0383166120eb5760405162461bcd60e51b8152602060048201526024808201527f45524332303a20617070726f76652066726f6d20746865207a65726f206164646044820152637265737360e01b606482015260840161070c565b6001600160a01b03821661214c5760405162461bcd60e51b815260206004820152602260248201527f45524332303a20617070726f766520746f20746865207a65726f206164647265604482015261737360f01b606482015260840161070c565b6001600160a01b0383811660008181526001602090815260408083209487168084529482529182902085905590518481527f8c5be1e5ebec7d5bd14f71427d1e84f3dd0314c0f7b2291e5b200ac8c7c3b925910160405180910390a3505050565b6001600160a01b0383166122115760405162461bcd60e51b815260206004820152602560248201527f45524332303a207472616e736665722066726f6d20746865207a65726f206164604482015264647265737360d81b606482015260840161070c565b6001600160a01b0382166122735760405162461bcd60e51b815260206004820152602360248201527f45524332303a207472616e7366657220746f20746865207a65726f206164647260448201526265737360e81b606482015260840161070c565b61227e838383612b8c565b6001600160a01b038316600090815260208190526040902054818110156122f65760405162461bcd60e51b815260206004820152602660248201527f45524332303a207472616e7366657220616d6f756e7420657863656564732062604482015265616c616e636560d01b606482015260840161070c565b6001600160a01b0380851660009081526020819052604080822085850390559185168152908120805484929061232d90849061391b565b92505081905550826001600160a01b0316846001600160a01b03167fddf252ad1be2c89b69c2b068fc378daa952ba7f163c4a11628f55a4df523b3ef8460405161237991815260200190565b60405180910390a3611e86848484612bd7565b60007f00000000000000000000000000000000000000000000000000000000000000004614156123dd57507f0000000000000000000000000000000000000000000000000000000000000000610665565b50604080517f00000000000000000000000000000000000000000000000000000000000000006020808301919091527f0000000000000000000000000000000000000000000000000000000000000000828401527f000000000000000000000000000000000000000000000000000000000000000060608301524660808301523060a0808401919091528351808403909101815260c09092019092528051910120610665565b8154600090815b818110156124f557600061249e8284612d1f565b9050848682815481106124c157634e487b7160e01b600052603260045260246000fd5b60009182526020909120015463ffffffff1611156124e1578092506124ef565b6124ec81600161391b565b91505b5061248a565b81156125475784612507600184613953565b8154811061252557634e487b7160e01b600052603260045260246000fd5b60009182526020909120015464010000000090046001600160e01b031661254a565b60005b6001600160e01b031695945050505050565b60055460ff166125a55760405162461bcd60e51b815260206004820152601460248201527314185d5cd8589b194e881b9bdd081c185d5cd95960621b604482015260640161070c565b6005805460ff191690557f5db9ee0a495bf2e6ff9c91a7834c1ba4fdd244a5e8aa4e537bd38aeae4b073aa335b6040516001600160a01b03909116815260200160405180910390a1565b6108668282611dfc565b60005b8181101561205d57600c600084848481811061262857634e487b7160e01b600052603260045260246000fd5b905060200201602081019061263d919061338e565b6001600160a01b0316815260208101919091526040016000205460ff166126c2576001600c600085858581811061268457634e487b7160e01b600052603260045260246000fd5b9050602002016020810190612699919061338e565b6001600160a01b031681526020810191909152604001600020805460ff19169115159190911790555b806126cc8161399f565b9150506125fc565b60006126df8361093a565b90506000612702846001600160a01b031660009081526020819052604090205490565b6001600160a01b0385811660008181526007602052604080822080546001600160a01b031916898616908117909155905194955093928616927f3134e8a2e6d97e929a7e54011ea5485d7d196dd5f0ba4d4ef95803e8e3fc257f9190a4611e86828483612be2565b8151516000908190819061277e9085613933565b905060005b8551518110156128625785518051309163a9059cbb91849081106127b757634e487b7160e01b600052603260045260246000fd5b6020026020010151846040518363ffffffff1660e01b81526004016127f19291906001600160a01b03929092168252602082015260400190565b602060405180830381600087803b15801561280b57600080fd5b505af115801561281f573d6000803e3d6000fd5b505050506040513d601f19601f82011682018060405250810190612843919061368c565b5061284e828461391b565b92508061285a8161399f565b915050612783565b5090949350505050565b6108668282612d3a565b600580546001600160a01b03838116610100818102610100600160a81b031985161790945560405193909204169182907f8be0079c531659141344cd1fd0a4f28419497f9722a3daafe3b4186f6b6457e090600090a35050565b60055460ff16156129165760405162461bcd60e51b815260206004820152601060248201526f14185d5cd8589b194e881c185d5cd95960821b604482015260640161070c565b6005805460ff191660011790557f62e78cea01bee320cd4e420270b5ea74000d11b0c9f74754ebdbfc544b05a2586125d23390565b600061114261295861238c565b8360405161190160f01b6020820152602281018390526042810182905260009060620160405160208183030381529060405280519060200120905092915050565b60008060006129aa87878787612d52565b915091506129b781612e3f565b5095945050505050565b6001600160a01b03811660009081526006602052604090208054600181018255905b50919050565b825460009081908015612a425785612a02600183613953565b81548110612a2057634e487b7160e01b600052603260045260246000fd5b60009182526020909120015464010000000090046001600160e01b0316612a45565b60005b6001600160e01b03169250612a5e83858763ffffffff16565b9150600081118015612aaa57504386612a78600184613953565b81548110612a9657634e487b7160e01b600052603260045260246000fd5b60009182526020909120015463ffffffff16145b15612b1857612ab882611f8b565b86612ac4600184613953565b81548110612ae257634e487b7160e01b600052603260045260246000fd5b9060005260206000200160000160046101000a8154816001600160e01b0302191690836001600160e01b03160217905550612b83565b856040518060400160405280612b2d43611ff8565b63ffffffff168152602001612b4185611f8b565b6001600160e01b0390811690915282546001810184556000938452602093849020835194909301519091166401000000000263ffffffff909316929092179101555b50935093915050565b60055460ff1615612bd25760405162461bcd60e51b815260206004820152601060248201526f14185d5cd8589b194e881c185d5cd95960821b604482015260640161070c565b61205d565b61205d838383612062565b816001600160a01b0316836001600160a01b031614158015612c045750600081115b1561205d576001600160a01b03831615612c92576001600160a01b03831660009081526008602052604081208190612c3f9061207d856129e9565b91509150846001600160a01b03167fdec2bacdd2f05b59de34da9b523dff8be42e5e38e818c82fdb0bae774387a7248383604051612c87929190918252602082015260400190565b60405180910390a250505b6001600160a01b0382161561205d576001600160a01b03821660009081526008602052604081208190612cc890611f7f856129e9565b91509150836001600160a01b03167fdec2bacdd2f05b59de34da9b523dff8be42e5e38e818c82fdb0bae774387a7248383604051612d10929190918252602082015260400190565b60405180910390a25050505050565b6000612d2e6002848418613933565b6107eb9084841661391b565b612d448282613042565b611e86600961207d836129e9565b6000807f7fffffffffffffffffffffffffffffff5d576e7357a4501ddfe92f46681b20a0831115612d895750600090506003612e36565b8460ff16601b14158015612da157508460ff16601c14155b15612db25750600090506004612e36565b6040805160008082526020820180845289905260ff881692820192909252606081018690526080810185905260019060a0016020604051602081039080840390855afa158015612e06573d6000803e3d6000fd5b5050604051601f1901519150506001600160a01b038116612e2f57600060019250925050612e36565b9150600090505b94509492505050565b6000816004811115612e6157634e487b7160e01b600052602160045260246000fd5b1415612e6c57610965565b6001816004811115612e8e57634e487b7160e01b600052602160045260246000fd5b1415612edc5760405162461bcd60e51b815260206004820152601860248201527f45434453413a20696e76616c6964207369676e61747572650000000000000000604482015260640161070c565b6002816004811115612efe57634e487b7160e01b600052602160045260246000fd5b1415612f4c5760405162461bcd60e51b815260206004820152601f60248201527f45434453413a20696e76616c6964207369676e6174757265206c656e67746800604482015260640161070c565b6003816004811115612f6e57634e487b7160e01b600052602160045260246000fd5b1415612fc75760405162461bcd60e51b815260206004820152602260248201527f45434453413a20696e76616c6964207369676e6174757265202773272076616c604482015261756560f01b606482015260840161070c565b6004816004811115612fe957634e487b7160e01b600052602160045260246000fd5b14156109655760405162461bcd60e51b815260206004820152602260248201527f45434453413a20696e76616c6964207369676e6174757265202776272076616c604482015261756560f01b606482015260840161070c565b6001600160a01b0382166130a25760405162461bcd60e51b815260206004820152602160248201527f45524332303a206275726e2066726f6d20746865207a65726f206164647265736044820152607360f81b606482015260840161070c565b6130ae82600083612b8c565b6001600160a01b038216600090815260208190526040902054818110156131225760405162461bcd60e51b815260206004820152602260248201527f45524332303a206275726e20616d6f756e7420657863656564732062616c616e604482015261636560f01b606482015260840161070c565b6001600160a01b0383166000908152602081905260408120838303905560028054849290613151908490613953565b90915550506040518281526000906001600160a01b038516907fddf252ad1be2c89b69c2b068fc378daa952ba7f163c4a11628f55a4df523b3ef9060200160405180910390a361205d83600084612bd7565b8280548282559060005260206000209081019282156131f8579160200282015b828111156131f857825182546001600160a01b0319166001600160a01b039091161782556020909201916001909101906131c3565b50611ff4929150613307565b5080546132109061396a565b6000825580601f106132225750610965565b601f0160209004906000526020600020908101906109659190613307565b8280548282559060005260206000209081019282156131f8579160200282015b828111156131f85781546001600160a01b0319166001600160a01b03843516178255602090920191600190910190613260565b82805461329f9061396a565b90600052602060002090601f0160209004810192826132c157600085556131f8565b82601f106132da57805160ff19168380011785556131f8565b828001600101855582156131f8579182015b828111156131f85782518255916020019190600101906132ec565b5b80821115611ff45760008155600101613308565b80356001600160a01b038116811461095657600080fd5b60008083601f840112613344578182fd5b50813567ffffffffffffffff81111561335b578182fd5b6020830191508360208260051b850101111561337657600080fd5b9250929050565b803560ff8116811461095657600080fd5b60006020828403121561339f578081fd5b6107eb8261331c565b600080604083850312156133ba578081fd5b6133c38361331c565b91506133d16020840161331c565b90509250929050565b6000806000606084860312156133ee578081fd5b6133f78461331c565b92506134056020850161331c565b9150604084013590509250925092565b600080600080600080600060e0888a03121561342f578283fd5b6134388861331c565b96506134466020890161331c565b955060408801359450606088013593506134626080890161337d565b925060a0880135915060c0880135905092959891949750929550565b600080600080600060808688031215613495578081fd5b61349e8661331c565b9450602086013567ffffffffffffffff8111156134b9578182fd5b6134c588828901613333565b9699909850959660408101359660609091013595509350505050565b600080604083850312156134f3578182fd5b6134fc8361331c565b9150602083013561350c816139d0565b809150509250929050565b60008060408385031215613529578182fd5b6135328361331c565b946020939093013593505050565b60008060008060608587031215613555578384fd5b61355e8561331c565b935060208501359250604085013567ffffffffffffffff80821115613581578384fd5b818701915087601f830112613594578384fd5b8135818111156135a2578485fd5b8860208285010111156135b3578485fd5b95989497505060200194505050565b60008060008060008060c087890312156135da578182fd5b6135e38761331c565b955060208701359450604087013593506135ff6060880161337d565b92506080870135915060a087013590509295509295509295565b6000806040838503121561362b578182fd5b6136348361331c565b9150602083013563ffffffff8116811461350c578182fd5b6000806020838503121561365e578182fd5b823567ffffffffffffffff811115613674578283fd5b61368085828601613333565b90969095509350505050565b60006020828403121561369d578081fd5b81516107eb816139d0565b6000602082840312156136b9578081fd5b5035919050565b600381106136de57634e487b7160e01b600052602160045260246000fd5b9052565b60008151808452815b81811015613707576020818501810151868301820152016136eb565b818111156137185782602083870101525b50601f01601f19169290920160200192915050565b600080835482600182811c91508083168061374957607f831692505b602080841082141561376957634e487b7160e01b87526022600452602487fd5b81801561377d576001811461378e576137ba565b60ff198616895284890196506137ba565b60008a815260209020885b868110156137b25781548b820152908501908301613799565b505084890196505b509498975050505050505050565b60006137d4828a6136c0565b602082018890526001600160a01b038716604083015260e0606083018190526137ff908301876136e2565b60808301959095525060a081019290925260c090910152949350505050565b6000602082526107eb60208301846136e2565b6020808252818101527f4f776e61626c653a2063616c6c6572206973206e6f7420746865206f776e6572604082015260600190565b60208082526021908201527f4f6e6c7920736572766963652063616e2063616c6c2074686973206d6574686f6040820152601960fa1b606082015260800190565b6000602082526138bb6020830184516136c0565b6020830151604083015260018060a01b036040840151166060830152606083015160e060808401526138f16101008401826136e2565b9050608084015160a084015260a084015160c084015260c084015160e08401528091505092915050565b6000821982111561392e5761392e6139ba565b500190565b60008261394e57634e487b7160e01b81526012600452602481fd5b500490565b600082821015613965576139656139ba565b500390565b600181811c9082168061397e57607f821691505b602082108114156129e357634e487b7160e01b600052602260045260246000fd5b60006000198214156139b3576139b36139ba565b5060010190565b634e487b7160e01b600052601160045260246000fd5b801515811461096557600080fdfea2646970667358221220e757e5cbe53838cb116352e04c78d3b0188009bdc6eb77661987335eecbed95d64736f6c63430008030033dec2bacdd2f05b59de34da9b523dff8be42e5e38e818c82fdb0bae774387a724",
  "immutableReferences": {
    "1518": [
      {
        "length": 32,
        "start": 6889
      }
    ],
    "2164": [
      {
        "length": 32,
        "start": 9145
      }
    ],
    "2166": [
      {
        "length": 32,
        "start": 9104
      }
    ],
    "2168": [
      {
        "length": 32,
        "start": 9230
      }
    ],
    "2170": [
      {
        "length": 32,
        "start": 9267
      }
    ],
    "2172": [
      {
        "length": 32,
        "start": 9188
      }
    ]
  },
  "source": "// SPDX-License-Identifier: MIT\npragma solidity ^0.8.3;\n\nimport \"@openzeppelin/contracts/token/ERC20/ERC20.sol\";\nimport \"@openzeppelin/contracts/security/Pausable.sol\";\nimport \"@openzeppelin/contracts/access/Ownable.sol\";\nimport \"@openzeppelin/contracts/token/ERC20/extensions/draft-ERC20Permit.sol\";\nimport \"@openzeppelin/contracts/token/ERC20/extensions/ERC20Votes.sol\";\n\n\ncontract YandaToken is ERC20, Pausable, Ownable, ERC20Permit, ERC20Votes {\n    enum State { AWAITING_PAYMENT, AWAITING_DELIVERY, AWAITING_VALIDATION }\n    struct Process {\n        State state;\n        uint bill;\n        address service;\n        string productId;\n        uint validations;\n        uint failedValidations;\n        uint256 onBalance;\n    }\n    struct Service {\n        address[] validators;\n        uint validationShare;\n        uint commissionShare;\n        // The rest will burn\n    }\n    mapping(address => Process) public processes;\n    mapping(address => Service) public services;\n    mapping(address => bool) public validators;\n\n    event Deposited(\n        address indexed customer,\n        address indexed service,\n        string indexed productId,\n        uint256 weiAmount\n    );\n    event Delivered(\n        address indexed customer,\n        address indexed service,\n        string indexed productId\n    );\n    event Completed(\n        address indexed customer,\n        address indexed service, \n        string indexed productId,\n        bool success\n    );\n\n    modifier onlyService() {\n        require(services[msg.sender].validationShare > 0, \"Only service can call this method\");\n        _;\n    }\n\n    modifier onlyValidator() {\n        require(validators[msg.sender] == true, \"Only validator can call this method\");\n        _;\n    }\n\n    constructor() ERC20(\"YandaToken\", \"YND\") ERC20Permit(\"YandaToken\") {\n        _mint(msg.sender, 100000 * 10 ** decimals());\n    }\n\n    function pause() public onlyOwner {\n        _pause();\n    }\n\n    function unpause() public onlyOwner {\n        _unpause();\n    }\n\n    function mint(address to, uint256 amount) public onlyOwner {\n        _mint(to, amount);\n    }\n\n    function _beforeTokenTransfer(address from, address to, uint256 amount)\n        internal\n        whenNotPaused\n        override\n    {\n        super._beforeTokenTransfer(from, to, amount);\n    }\n\n    // The following functions are overrides required by Solidity.\n\n    function _afterTokenTransfer(address from, address to, uint256 amount)\n        internal\n        override(ERC20, ERC20Votes)\n    {\n        super._afterTokenTransfer(from, to, amount);\n    }\n\n    function _mint(address to, uint256 amount)\n        internal\n        override(ERC20, ERC20Votes)\n    {\n        super._mint(to, amount);\n    }\n\n    function _burn(address account, uint256 amount)\n        internal\n        override(ERC20, ERC20Votes)\n    {\n        super._burn(account, amount);\n    }\n    \n    function transfer(address recipient, uint256 amount) public virtual override returns (bool) {\n        _transfer(_msgSender(), recipient, amount);\n\n        if(recipient == address(this)) {\n            require(processes[_msgSender()].state == State.AWAITING_PAYMENT, \"Already paid\");\n            require(processes[_msgSender()].bill == amount, \"Invalid amount\");\n            processes[_msgSender()].state = State.AWAITING_DELIVERY;\n            emit Deposited(\n                _msgSender(),\n                processes[_msgSender()].service,\n                processes[_msgSender()].productId,\n                amount\n            );\n        }\n\n        return true;\n    }\n\n    function _updateValidatorsMapping(address[] calldata new_validators) internal {\n        for(uint i=0; i < new_validators.length; i++) {\n            if(!validators[new_validators[i]]) {\n                validators[new_validators[i]] = true;\n            }\n        }\n    }\n\n    function addService(address service, address[] calldata vList, uint vShare, uint cShare)\n        public\n        onlyOwner\n    {\n        services[service] = Service({\n            validators: vList,\n            validationShare: vShare,\n            commissionShare: cShare\n        });\n        _updateValidatorsMapping(vList);\n    }\n\n    function setValidators(address[] calldata vList) public onlyService {\n        services[msg.sender].validators = vList;\n        _updateValidatorsMapping(vList);\n    }\n\n    function addProcess(address customer, uint256 bill, string calldata productId)\n        public\n        onlyService\n    {\n        processes[customer] = Process({\n            state: State.AWAITING_PAYMENT,\n            bill: bill,\n            service: msg.sender,\n            productId: productId,\n            validations: 0,\n            failedValidations: 0,\n            onBalance: 0\n        });\n    }\n\n    function getProcess(address customer) public view returns(Process memory) {\n        return processes[customer];\n    }\n\n    function confirmDelivery(address customer) public onlyService {\n        require(processes[customer].state == State.AWAITING_DELIVERY, \"Cannot confirm delivery\");\n        processes[customer].state = State.AWAITING_VALIDATION;\n        emit Delivered(customer, msg.sender, processes[customer].productId);\n    }\n\n    function _rewardValidators(Service memory service, uint256 amount) internal returns(uint256) {\n        uint256 rewards_sum = 0;\n        uint256 reward = amount / service.validators.length;\n\n        for(uint i=0; i < service.validators.length; i++) {\n            this.transfer(payable(service.validators[i]), reward);\n            rewards_sum += reward;\n        }\n        return rewards_sum;\n    }\n\n    function validateDelivery(address customer, bool passed) public onlyValidator {\n        require(processes[customer].state == State.AWAITING_VALIDATION, \"Cannot validate delivary\");\n        \n        if(passed) {\n            processes[customer].validations += 1;\n        } else {\n            processes[customer].failedValidations += 1;\n        }\n\n        if(processes[customer].validations > services[processes[customer].service].validators.length / 2) {\n            // Reward validators\n            uint256 reward_amount = processes[customer].bill / services[processes[customer].service].validationShare;\n            uint256 executed_amount = _rewardValidators(services[processes[customer].service], reward_amount);\n            // Pay service commission\n            uint256 commission_amount = processes[customer].bill / services[processes[customer].service].commissionShare;\n            this.transfer(payable(processes[customer].service), commission_amount);\n            // Burn remaining funds\n            _burn(address(this), processes[customer].bill - executed_amount - commission_amount);\n            emit Completed(customer, processes[customer].service, processes[customer].productId, true);\n            // Delete completed process\n            delete processes[customer];\n        } else {\n            if(processes[customer].failedValidations >= services[processes[customer].service].validators.length / 2) {\n                // Reward validators\n                uint256 reward_amount = processes[customer].bill / services[processes[customer].service].validationShare;\n                uint256 executed_amount = _rewardValidators(services[processes[customer].service], reward_amount);\n                // Make refund\n                this.transfer(payable(customer), processes[customer].bill - executed_amount);\n                emit Completed(customer, processes[customer].service, processes[customer].productId, false);\n                // Delete completed process\n                delete processes[customer];\n            }\n        }\n    }\n\n}\n",
  "sourcePath": "/Users/daniel/Code/Work/Yanda/celo/network/contracts/YandaToken.sol",
  "compiler": {
    "name": "solc",
    "version": "0.8.3+commit.8d00100c.Emscripten.clang"
  },
  "schemaVersion": "3.4.3",
  "updatedAt": "2021-10-01T14:49:14.074Z",
  "networkType": "ethereum",
  "devdoc": {
    "kind": "dev",
    "methods": {
      "DOMAIN_SEPARATOR()": {
        "details": "See {IERC20Permit-DOMAIN_SEPARATOR}."
      },
      "allowance(address,address)": {
        "details": "See {IERC20-allowance}."
      },
      "approve(address,uint256)": {
        "details": "See {IERC20-approve}. Requirements: - `spender` cannot be the zero address."
      },
      "balanceOf(address)": {
        "details": "See {IERC20-balanceOf}."
      },
      "checkpoints(address,uint32)": {
        "details": "Get the `pos`-th checkpoint for `account`."
      },
      "decimals()": {
        "details": "Returns the number of decimals used to get its user representation. For example, if `decimals` equals `2`, a balance of `505` tokens should be displayed to a user as `5.05` (`505 / 10 ** 2`). Tokens usually opt for a value of 18, imitating the relationship between Ether and Wei. This is the value {ERC20} uses, unless this function is overridden; NOTE: This information is only used for _display_ purposes: it in no way affects any of the arithmetic of the contract, including {IERC20-balanceOf} and {IERC20-transfer}."
      },
      "decreaseAllowance(address,uint256)": {
        "details": "Atomically decreases the allowance granted to `spender` by the caller. This is an alternative to {approve} that can be used as a mitigation for problems described in {IERC20-approve}. Emits an {Approval} event indicating the updated allowance. Requirements: - `spender` cannot be the zero address. - `spender` must have allowance for the caller of at least `subtractedValue`."
      },
      "delegate(address)": {
        "details": "Delegate votes from the sender to `delegatee`."
      },
      "delegateBySig(address,uint256,uint256,uint8,bytes32,bytes32)": {
        "details": "Delegates votes from signer to `delegatee`"
      },
      "delegates(address)": {
        "details": "Get the address `account` is currently delegating to."
      },
      "getPastTotalSupply(uint256)": {
        "details": "Retrieve the `totalSupply` at the end of `blockNumber`. Note, this value is the sum of all balances. It is but NOT the sum of all the delegated votes! Requirements: - `blockNumber` must have been already mined"
      },
      "getPastVotes(address,uint256)": {
        "details": "Retrieve the number of votes for `account` at the end of `blockNumber`. Requirements: - `blockNumber` must have been already mined"
      },
      "getVotes(address)": {
        "details": "Gets the current votes balance for `account`"
      },
      "increaseAllowance(address,uint256)": {
        "details": "Atomically increases the allowance granted to `spender` by the caller. This is an alternative to {approve} that can be used as a mitigation for problems described in {IERC20-approve}. Emits an {Approval} event indicating the updated allowance. Requirements: - `spender` cannot be the zero address."
      },
      "name()": {
        "details": "Returns the name of the token."
      },
      "nonces(address)": {
        "details": "See {IERC20Permit-nonces}."
      },
      "numCheckpoints(address)": {
        "details": "Get number of checkpoints for `account`."
      },
      "owner()": {
        "details": "Returns the address of the current owner."
      },
      "paused()": {
        "details": "Returns true if the contract is paused, and false otherwise."
      },
      "permit(address,address,uint256,uint256,uint8,bytes32,bytes32)": {
        "details": "See {IERC20Permit-permit}."
      },
      "renounceOwnership()": {
        "details": "Leaves the contract without owner. It will not be possible to call `onlyOwner` functions anymore. Can only be called by the current owner. NOTE: Renouncing ownership will leave the contract without an owner, thereby removing any functionality that is only available to the owner."
      },
      "symbol()": {
        "details": "Returns the symbol of the token, usually a shorter version of the name."
      },
      "totalSupply()": {
        "details": "See {IERC20-totalSupply}."
      },
      "transfer(address,uint256)": {
        "details": "See {IERC20-transfer}. Requirements: - `recipient` cannot be the zero address. - the caller must have a balance of at least `amount`."
      },
      "transferFrom(address,address,uint256)": {
        "details": "See {IERC20-transferFrom}. Emits an {Approval} event indicating the updated allowance. This is not required by the EIP. See the note at the beginning of {ERC20}. Requirements: - `sender` and `recipient` cannot be the zero address. - `sender` must have a balance of at least `amount`. - the caller must have allowance for ``sender``'s tokens of at least `amount`."
      },
      "transferOwnership(address)": {
        "details": "Transfers ownership of the contract to a new account (`newOwner`). Can only be called by the current owner."
      }
    },
    "version": 1
  },
  "userdoc": {
    "kind": "user",
    "methods": {},
    "version": 1
  }
}