{
  "contractName": "YandaEscrow",
  "abi": [
    {
      "inputs": [
        {
          "internalType": "address payable",
          "name": "_service",
          "type": "address"
        }
      ],
      "stateMutability": "nonpayable",
      "type": "constructor"
    },
    {
      "anonymous": false,
      "inputs": [
        {
          "indexed": true,
          "internalType": "address",
          "name": "payee",
          "type": "address"
        },
        {
          "indexed": false,
          "internalType": "uint256",
          "name": "weiAmount",
          "type": "uint256"
        }
      ],
      "name": "Deposited",
      "type": "event"
    },
    {
      "inputs": [],
      "name": "commission",
      "outputs": [
        {
          "internalType": "uint256",
          "name": "",
          "type": "uint256"
        }
      ],
      "stateMutability": "view",
      "type": "function",
      "constant": true
    },
    {
      "inputs": [],
      "name": "currState",
      "outputs": [
        {
          "internalType": "enum YandaEscrow.State",
          "name": "",
          "type": "uint8"
        }
      ],
      "stateMutability": "view",
      "type": "function",
      "constant": true
    },
    {
      "inputs": [],
      "name": "validator_reward",
      "outputs": [
        {
          "internalType": "uint256",
          "name": "",
          "type": "uint256"
        }
      ],
      "stateMutability": "view",
      "type": "function",
      "constant": true
    },
    {
      "stateMutability": "payable",
      "type": "receive",
      "payable": true
    },
    {
      "inputs": [
        {
          "internalType": "uint256",
          "name": "_commission",
          "type": "uint256"
        }
      ],
      "name": "setCommission",
      "outputs": [],
      "stateMutability": "nonpayable",
      "type": "function"
    },
    {
      "inputs": [
        {
          "internalType": "uint256",
          "name": "_fee",
          "type": "uint256"
        },
        {
          "internalType": "address payable[]",
          "name": "_validators",
          "type": "address[]"
        }
      ],
      "name": "confirmDelivery",
      "outputs": [],
      "stateMutability": "nonpayable",
      "type": "function"
    },
    {
      "inputs": [
        {
          "internalType": "uint256",
          "name": "_fee",
          "type": "uint256"
        }
      ],
      "name": "validateDelivery",
      "outputs": [],
      "stateMutability": "nonpayable",
      "type": "function"
    },
    {
      "inputs": [],
      "name": "getState",
      "outputs": [
        {
          "internalType": "enum YandaEscrow.State",
          "name": "",
          "type": "uint8"
        }
      ],
      "stateMutability": "view",
      "type": "function",
      "constant": true
    },
    {
      "inputs": [],
      "name": "getComission",
      "outputs": [
        {
          "internalType": "uint256",
          "name": "",
          "type": "uint256"
        }
      ],
      "stateMutability": "view",
      "type": "function",
      "constant": true
    },
    {
      "inputs": [],
      "name": "getValidator",
      "outputs": [
        {
          "internalType": "address",
          "name": "",
          "type": "address"
        }
      ],
      "stateMutability": "view",
      "type": "function",
      "constant": true
    },
    {
      "inputs": [],
      "name": "getReward",
      "outputs": [
        {
          "internalType": "uint256",
          "name": "",
          "type": "uint256"
        }
      ],
      "stateMutability": "view",
      "type": "function",
      "constant": true
    }
  ],
  "bytecode": "0x6080604052600a60035534801561001557600080fd5b506040516108373803806108378339818101604052602081101561003857600080fd5b5051600180546001600160a01b0319166001600160a01b039092169190911790556107cf806100686000396000f3fe6080604052600436106100955760003560e01c806370d3f8541161005957806370d3f8541461023557806379c1b3b91461024a578063afe01043146102ce578063dd6d3ca7146102e3578063e1489191146102f857610149565b80631195e07e1461014e5780631865c57d1461017f578063355e6b43146101b85780633d18b912146101e45780636869d32b1461020b57610149565b36610149576000805460ff1660038111156100ac57fe5b146100ed576040805162461bcd60e51b815260206004820152600c60248201526b105b1c9958591e481c185a5960a21b604482015290519081900360640190fd5b6000805460ff1961010033908102610100600160a81b031990931692909217166001179091556040805134815290517f2da466a7b24304f47e87fa2e1e5a81b9831ce54fec19055ce277ca2f39ba42c4916020908290030190a2005b600080fd5b34801561015a57600080fd5b5061016361030d565b604080516001600160a01b039092168252519081900360200190f35b34801561018b57600080fd5b5061019461031c565b604051808260038111156101a457fe5b60ff16815260200191505060405180910390f35b3480156101c457600080fd5b506101e2600480360360208110156101db57600080fd5b5035610325565b005b3480156101f057600080fd5b506101f9610373565b60408051918252519081900360200190f35b34801561021757600080fd5b506101e26004803603602081101561022e57600080fd5b5035610379565b34801561024157600080fd5b506101f961054a565b34801561025657600080fd5b506101e26004803603604081101561026d57600080fd5b8135919081019060408101602082013564010000000081111561028f57600080fd5b8201836020820111156102a157600080fd5b803590602001918460208302840111640100000000831117156102c357600080fd5b509092509050610550565b3480156102da57600080fd5b50610194610657565b3480156102ef57600080fd5b506101f9610660565b34801561030457600080fd5b506101f9610666565b6002546001600160a01b031690565b60005460ff1690565b6001546001600160a01b0316331461036e5760405162461bcd60e51b815260040180806020018281038252602181526020018061072b6021913960400191505060405180910390fd5b600355565b60055490565b6002546001600160a01b031633146103c25760405162461bcd60e51b815260040180806020018281038252602381526020018061074c6023913960400191505060405180910390fd5b600260005460ff1660038111156103d557fe5b14610427576040805162461bcd60e51b815260206004820152601860248201527f43616e6e6f742076616c69646174652064656c69766172790000000000000000604482015290519081900360640190fd5b600454819081146104695760405162461bcd60e51b815260040180806020018281038252602b81526020018061076f602b913960400191505060405180910390fd5b600a6004548161047557fe5b0460058190556002546040516001600160a01b039091169180156108fc02916000818181858888f193505050501580156104b3573d6000803e3d6000fd5b506001546005546004546040516001600160a01b039093169291900380156108fc02916000818181858888f193505050501580156104f5573d6000803e3d6000fd5b50600080546040516001600160a01b036101009092049190911691303180156108fc02929091818181858888f19350505050158015610538573d6000803e3d6000fd5b50506000805460ff1916600317905550565b60055481565b6001546001600160a01b031633146105995760405162461bcd60e51b815260040180806020018281038252602181526020018061072b6021913960400191505060405180910390fd5b600160005460ff1660038111156105ac57fe5b146105fe576040805162461bcd60e51b815260206004820152601760248201527f43616e6e6f7420636f6e6669726d2064656c6976657279000000000000000000604482015290519081900360640190fd5b6004839055818161060e8161066c565b60ff1681811061061a57fe5b6002805460209290920293909301356001600160a01b03166001600160a01b0319909116178255506000805460ff19166001830217905550505050565b60005460ff1681565b60035490565b60035481565b604080516002808252606080830184526000939092919060208301908038833901905050905042816000815181106106a057fe5b60200260200101818152505044816001815181106106ba57fe5b602002602001018181525050828160405160200180828051906020019060200280838360005b838110156106f85781810151838201526020016106e0565b505050509050019150506040516020818303038152906040528051906020012060001c8161072257fe5b06939250505056fe4f6e6c7920736572766963652063616e2063616c6c2074686973206d6574686f644f6e6c792076616c696461746f722063616e2063616c6c2074686973206d6574686f645365727669636520616e642056616c696461746f722076616c75657320646f65736e2774206d6174636821a2646970667358221220dd08adc63f983cf70a0c356bc19ba77f2165cceb04f7375f569763c0bf0d8fda64736f6c63430006000033",
  "source": "// SPDX-License-Identifier: MIT\npragma solidity >=0.5.0 <0.7.0;\n\ncontract YandaEscrow {\n  enum State { AWAITING_PAYMENT, AWAITING_DELIVERY, AWAITING_VALIDATION, COMPLETE }\n  State public currState;\n  address payable customer;\n  address payable service;\n  address payable validator;\n  uint public commission = 10;\n  uint serviceResult;\n  uint public validator_reward;\n  uint constant reward_divisor = 10;\n\n  event Deposited(address indexed payee, uint256 weiAmount);\n\n  modifier onlyService() {\n    require(msg.sender == service, \"Only service can call this method\");\n    _;\n  }\n\n  modifier onlyValidator() {\n    require(msg.sender == validator, \"Only validator can call this method\");\n    _;\n  }\n\n  constructor(address payable _service) public {\n    service = _service;\n  }\n\n  receive() external payable {\n    require(currState == State.AWAITING_PAYMENT, \"Already paid\");\n    customer = msg.sender;\n    currState = State.AWAITING_DELIVERY;\n    emit Deposited(msg.sender, msg.value);\n  }\n\n  function setCommission(uint _commission) onlyService external {\n    commission = _commission;\n  }\n\n  function random(uint max) private view returns (uint8) {\n    uint[] memory random_data = new uint[](2);\n    random_data[0] = block.timestamp;\n    random_data[1] = block.difficulty;\n    return uint8(uint256(keccak256(abi.encodePacked(random_data))) % max);\n  }\n\n  function confirmDelivery(uint _fee, address payable[] calldata _validators) onlyService external {\n    require(currState == State.AWAITING_DELIVERY, \"Cannot confirm delivery\");\n    serviceResult = _fee;\n    // Random weighted random pick\n    validator = _validators[random(_validators.length)];\n    currState = State.AWAITING_VALIDATION;\n  }\n\n  function validateDelivery(uint _fee) onlyValidator external {\n    require(currState == State.AWAITING_VALIDATION, \"Cannot validate delivary\");\n    uint validatorResult = _fee;\n    require(serviceResult == validatorResult, \"Service and Validator values doesn't match!\");\n\n    validator_reward = serviceResult / reward_divisor;\n\n    validator.transfer(validator_reward);\n    service.transfer(serviceResult - validator_reward);\n    customer.transfer(address(this).balance);\n\n    currState = State.COMPLETE;\n  }\n\n  function getState() public view returns (State) {\n    return currState;\n  }\n\n  function getComission() public view returns (uint) {\n    return commission;\n  }\n\n  function getValidator() public view returns (address) {\n    return validator;\n  }\n\n  function getReward() public view returns (uint) {\n    return validator_reward;\n  }\n\n}\n",
  "sourcePath": "/Users/daniel/Code/Work/Yanda/celo/network/contracts/YandaEscrow.sol",
  "compiler": {
    "name": "solc",
    "version": "0.6.0+commit.26b70077.Emscripten.clang"
  },
  "schemaVersion": "3.4.2",
  "updatedAt": "2021-07-30T15:59:16.795Z",
  "networkType": "ethereum",
  "devdoc": {
    "methods": {}
  },
  "userdoc": {
    "methods": {}
  }
}