{
  "contractName": "YandaToken",
  "abi": [
    {
      "inputs": [],
      "stateMutability": "nonpayable",
      "type": "constructor"
    },
    {
      "anonymous": false,
      "inputs": [
        {
          "indexed": true,
          "internalType": "address",
          "name": "customer",
          "type": "address"
        },
        {
          "indexed": true,
          "internalType": "address",
          "name": "service",
          "type": "address"
        },
        {
          "indexed": true,
          "internalType": "string",
          "name": "productId",
          "type": "string"
        },
        {
          "indexed": false,
          "internalType": "string",
          "name": "data",
          "type": "string"
        }
      ],
      "name": "Action",
      "type": "event"
    },
    {
      "anonymous": false,
      "inputs": [
        {
          "indexed": true,
          "internalType": "address",
          "name": "owner",
          "type": "address"
        },
        {
          "indexed": true,
          "internalType": "address",
          "name": "spender",
          "type": "address"
        },
        {
          "indexed": false,
          "internalType": "uint256",
          "name": "value",
          "type": "uint256"
        }
      ],
      "name": "Approval",
      "type": "event"
    },
    {
      "anonymous": false,
      "inputs": [
        {
          "indexed": true,
          "internalType": "address",
          "name": "customer",
          "type": "address"
        },
        {
          "indexed": true,
          "internalType": "address",
          "name": "service",
          "type": "address"
        },
        {
          "indexed": false,
          "internalType": "string",
          "name": "productId",
          "type": "string"
        },
        {
          "indexed": false,
          "internalType": "bool",
          "name": "success",
          "type": "bool"
        }
      ],
      "name": "Complete",
      "type": "event"
    },
    {
      "anonymous": false,
      "inputs": [
        {
          "indexed": true,
          "internalType": "address",
          "name": "delegator",
          "type": "address"
        },
        {
          "indexed": true,
          "internalType": "address",
          "name": "fromDelegate",
          "type": "address"
        },
        {
          "indexed": true,
          "internalType": "address",
          "name": "toDelegate",
          "type": "address"
        }
      ],
      "name": "DelegateChanged",
      "type": "event"
    },
    {
      "anonymous": false,
      "inputs": [
        {
          "indexed": true,
          "internalType": "address",
          "name": "delegate",
          "type": "address"
        },
        {
          "indexed": false,
          "internalType": "uint256",
          "name": "previousBalance",
          "type": "uint256"
        },
        {
          "indexed": false,
          "internalType": "uint256",
          "name": "newBalance",
          "type": "uint256"
        }
      ],
      "name": "DelegateVotesChanged",
      "type": "event"
    },
    {
      "anonymous": false,
      "inputs": [
        {
          "indexed": true,
          "internalType": "address",
          "name": "customer",
          "type": "address"
        },
        {
          "indexed": true,
          "internalType": "address",
          "name": "service",
          "type": "address"
        },
        {
          "indexed": true,
          "internalType": "string",
          "name": "productId",
          "type": "string"
        },
        {
          "indexed": false,
          "internalType": "uint256",
          "name": "weiAmount",
          "type": "uint256"
        }
      ],
      "name": "Deposit",
      "type": "event"
    },
    {
      "anonymous": false,
      "inputs": [
        {
          "indexed": true,
          "internalType": "address",
          "name": "previousOwner",
          "type": "address"
        },
        {
          "indexed": true,
          "internalType": "address",
          "name": "newOwner",
          "type": "address"
        }
      ],
      "name": "OwnershipTransferred",
      "type": "event"
    },
    {
      "anonymous": false,
      "inputs": [
        {
          "indexed": false,
          "internalType": "address",
          "name": "account",
          "type": "address"
        }
      ],
      "name": "Paused",
      "type": "event"
    },
    {
      "anonymous": false,
      "inputs": [
        {
          "indexed": true,
          "internalType": "address",
          "name": "customer",
          "type": "address"
        },
        {
          "indexed": true,
          "internalType": "address",
          "name": "service",
          "type": "address"
        },
        {
          "indexed": false,
          "internalType": "string",
          "name": "productId",
          "type": "string"
        }
      ],
      "name": "Terminate",
      "type": "event"
    },
    {
      "anonymous": false,
      "inputs": [
        {
          "indexed": true,
          "internalType": "address",
          "name": "from",
          "type": "address"
        },
        {
          "indexed": true,
          "internalType": "address",
          "name": "to",
          "type": "address"
        },
        {
          "indexed": false,
          "internalType": "uint256",
          "name": "value",
          "type": "uint256"
        }
      ],
      "name": "Transfer",
      "type": "event"
    },
    {
      "anonymous": false,
      "inputs": [
        {
          "indexed": false,
          "internalType": "address",
          "name": "account",
          "type": "address"
        }
      ],
      "name": "Unpaused",
      "type": "event"
    },
    {
      "inputs": [],
      "name": "DOMAIN_SEPARATOR",
      "outputs": [
        {
          "internalType": "bytes32",
          "name": "",
          "type": "bytes32"
        }
      ],
      "stateMutability": "view",
      "type": "function",
      "constant": true
    },
    {
      "inputs": [
        {
          "internalType": "address",
          "name": "owner",
          "type": "address"
        },
        {
          "internalType": "address",
          "name": "spender",
          "type": "address"
        }
      ],
      "name": "allowance",
      "outputs": [
        {
          "internalType": "uint256",
          "name": "",
          "type": "uint256"
        }
      ],
      "stateMutability": "view",
      "type": "function",
      "constant": true
    },
    {
      "inputs": [
        {
          "internalType": "address",
          "name": "spender",
          "type": "address"
        },
        {
          "internalType": "uint256",
          "name": "amount",
          "type": "uint256"
        }
      ],
      "name": "approve",
      "outputs": [
        {
          "internalType": "bool",
          "name": "",
          "type": "bool"
        }
      ],
      "stateMutability": "nonpayable",
      "type": "function"
    },
    {
      "inputs": [
        {
          "internalType": "address",
          "name": "account",
          "type": "address"
        }
      ],
      "name": "balanceOf",
      "outputs": [
        {
          "internalType": "uint256",
          "name": "",
          "type": "uint256"
        }
      ],
      "stateMutability": "view",
      "type": "function",
      "constant": true
    },
    {
      "inputs": [
        {
          "internalType": "address",
          "name": "account",
          "type": "address"
        },
        {
          "internalType": "uint32",
          "name": "pos",
          "type": "uint32"
        }
      ],
      "name": "checkpoints",
      "outputs": [
        {
          "components": [
            {
              "internalType": "uint32",
              "name": "fromBlock",
              "type": "uint32"
            },
            {
              "internalType": "uint224",
              "name": "votes",
              "type": "uint224"
            }
          ],
          "internalType": "struct ERC20Votes.Checkpoint",
          "name": "",
          "type": "tuple"
        }
      ],
      "stateMutability": "view",
      "type": "function",
      "constant": true
    },
    {
      "inputs": [],
      "name": "decimals",
      "outputs": [
        {
          "internalType": "uint8",
          "name": "",
          "type": "uint8"
        }
      ],
      "stateMutability": "view",
      "type": "function",
      "constant": true
    },
    {
      "inputs": [
        {
          "internalType": "address",
          "name": "spender",
          "type": "address"
        },
        {
          "internalType": "uint256",
          "name": "subtractedValue",
          "type": "uint256"
        }
      ],
      "name": "decreaseAllowance",
      "outputs": [
        {
          "internalType": "bool",
          "name": "",
          "type": "bool"
        }
      ],
      "stateMutability": "nonpayable",
      "type": "function"
    },
    {
      "inputs": [
        {
          "internalType": "address",
          "name": "delegatee",
          "type": "address"
        }
      ],
      "name": "delegate",
      "outputs": [],
      "stateMutability": "nonpayable",
      "type": "function"
    },
    {
      "inputs": [
        {
          "internalType": "address",
          "name": "delegatee",
          "type": "address"
        },
        {
          "internalType": "uint256",
          "name": "nonce",
          "type": "uint256"
        },
        {
          "internalType": "uint256",
          "name": "expiry",
          "type": "uint256"
        },
        {
          "internalType": "uint8",
          "name": "v",
          "type": "uint8"
        },
        {
          "internalType": "bytes32",
          "name": "r",
          "type": "bytes32"
        },
        {
          "internalType": "bytes32",
          "name": "s",
          "type": "bytes32"
        }
      ],
      "name": "delegateBySig",
      "outputs": [],
      "stateMutability": "nonpayable",
      "type": "function"
    },
    {
      "inputs": [
        {
          "internalType": "address",
          "name": "account",
          "type": "address"
        }
      ],
      "name": "delegates",
      "outputs": [
        {
          "internalType": "address",
          "name": "",
          "type": "address"
        }
      ],
      "stateMutability": "view",
      "type": "function",
      "constant": true
    },
    {
      "inputs": [
        {
          "internalType": "uint256",
          "name": "blockNumber",
          "type": "uint256"
        }
      ],
      "name": "getPastTotalSupply",
      "outputs": [
        {
          "internalType": "uint256",
          "name": "",
          "type": "uint256"
        }
      ],
      "stateMutability": "view",
      "type": "function",
      "constant": true
    },
    {
      "inputs": [
        {
          "internalType": "address",
          "name": "account",
          "type": "address"
        },
        {
          "internalType": "uint256",
          "name": "blockNumber",
          "type": "uint256"
        }
      ],
      "name": "getPastVotes",
      "outputs": [
        {
          "internalType": "uint256",
          "name": "",
          "type": "uint256"
        }
      ],
      "stateMutability": "view",
      "type": "function",
      "constant": true
    },
    {
      "inputs": [
        {
          "internalType": "address",
          "name": "account",
          "type": "address"
        }
      ],
      "name": "getVotes",
      "outputs": [
        {
          "internalType": "uint256",
          "name": "",
          "type": "uint256"
        }
      ],
      "stateMutability": "view",
      "type": "function",
      "constant": true
    },
    {
      "inputs": [
        {
          "internalType": "address",
          "name": "spender",
          "type": "address"
        },
        {
          "internalType": "uint256",
          "name": "addedValue",
          "type": "uint256"
        }
      ],
      "name": "increaseAllowance",
      "outputs": [
        {
          "internalType": "bool",
          "name": "",
          "type": "bool"
        }
      ],
      "stateMutability": "nonpayable",
      "type": "function"
    },
    {
      "inputs": [],
      "name": "name",
      "outputs": [
        {
          "internalType": "string",
          "name": "",
          "type": "string"
        }
      ],
      "stateMutability": "view",
      "type": "function",
      "constant": true
    },
    {
      "inputs": [
        {
          "internalType": "address",
          "name": "owner",
          "type": "address"
        }
      ],
      "name": "nonces",
      "outputs": [
        {
          "internalType": "uint256",
          "name": "",
          "type": "uint256"
        }
      ],
      "stateMutability": "view",
      "type": "function",
      "constant": true
    },
    {
      "inputs": [
        {
          "internalType": "address",
          "name": "account",
          "type": "address"
        }
      ],
      "name": "numCheckpoints",
      "outputs": [
        {
          "internalType": "uint32",
          "name": "",
          "type": "uint32"
        }
      ],
      "stateMutability": "view",
      "type": "function",
      "constant": true
    },
    {
      "inputs": [],
      "name": "owner",
      "outputs": [
        {
          "internalType": "address",
          "name": "",
          "type": "address"
        }
      ],
      "stateMutability": "view",
      "type": "function",
      "constant": true
    },
    {
      "inputs": [],
      "name": "paused",
      "outputs": [
        {
          "internalType": "bool",
          "name": "",
          "type": "bool"
        }
      ],
      "stateMutability": "view",
      "type": "function",
      "constant": true
    },
    {
      "inputs": [
        {
          "internalType": "address",
          "name": "owner",
          "type": "address"
        },
        {
          "internalType": "address",
          "name": "spender",
          "type": "address"
        },
        {
          "internalType": "uint256",
          "name": "value",
          "type": "uint256"
        },
        {
          "internalType": "uint256",
          "name": "deadline",
          "type": "uint256"
        },
        {
          "internalType": "uint8",
          "name": "v",
          "type": "uint8"
        },
        {
          "internalType": "bytes32",
          "name": "r",
          "type": "bytes32"
        },
        {
          "internalType": "bytes32",
          "name": "s",
          "type": "bytes32"
        }
      ],
      "name": "permit",
      "outputs": [],
      "stateMutability": "nonpayable",
      "type": "function"
    },
    {
      "inputs": [
        {
          "internalType": "address",
          "name": "",
          "type": "address"
        }
      ],
      "name": "processes",
      "outputs": [
        {
          "internalType": "enum YandaToken.State",
          "name": "state",
          "type": "uint8"
        },
        {
          "internalType": "uint256",
          "name": "cost",
          "type": "uint256"
        },
        {
          "internalType": "address",
          "name": "service",
          "type": "address"
        },
        {
          "internalType": "string",
          "name": "productId",
          "type": "string"
        },
        {
          "internalType": "uint256",
          "name": "validations",
          "type": "uint256"
        },
        {
          "internalType": "uint256",
          "name": "failedValidations",
          "type": "uint256"
        }
      ],
      "stateMutability": "view",
      "type": "function",
      "constant": true
    },
    {
      "inputs": [],
      "name": "renounceOwnership",
      "outputs": [],
      "stateMutability": "nonpayable",
      "type": "function"
    },
    {
      "inputs": [
        {
          "internalType": "address",
          "name": "",
          "type": "address"
        }
      ],
      "name": "services",
      "outputs": [
        {
          "internalType": "uint256",
          "name": "validationShare",
          "type": "uint256"
        },
        {
          "internalType": "uint256",
          "name": "commissionShare",
          "type": "uint256"
        }
      ],
      "stateMutability": "view",
      "type": "function",
      "constant": true
    },
    {
      "inputs": [],
      "name": "symbol",
      "outputs": [
        {
          "internalType": "string",
          "name": "",
          "type": "string"
        }
      ],
      "stateMutability": "view",
      "type": "function",
      "constant": true
    },
    {
      "inputs": [],
      "name": "totalSupply",
      "outputs": [
        {
          "internalType": "uint256",
          "name": "",
          "type": "uint256"
        }
      ],
      "stateMutability": "view",
      "type": "function",
      "constant": true
    },
    {
      "inputs": [
        {
          "internalType": "address",
          "name": "sender",
          "type": "address"
        },
        {
          "internalType": "address",
          "name": "recipient",
          "type": "address"
        },
        {
          "internalType": "uint256",
          "name": "amount",
          "type": "uint256"
        }
      ],
      "name": "transferFrom",
      "outputs": [
        {
          "internalType": "bool",
          "name": "",
          "type": "bool"
        }
      ],
      "stateMutability": "nonpayable",
      "type": "function"
    },
    {
      "inputs": [
        {
          "internalType": "address",
          "name": "newOwner",
          "type": "address"
        }
      ],
      "name": "transferOwnership",
      "outputs": [],
      "stateMutability": "nonpayable",
      "type": "function"
    },
    {
      "inputs": [
        {
          "internalType": "address",
          "name": "",
          "type": "address"
        }
      ],
      "name": "validators",
      "outputs": [
        {
          "internalType": "bool",
          "name": "",
          "type": "bool"
        }
      ],
      "stateMutability": "view",
      "type": "function",
      "constant": true
    },
    {
      "inputs": [],
      "name": "pause",
      "outputs": [],
      "stateMutability": "nonpayable",
      "type": "function"
    },
    {
      "inputs": [],
      "name": "unpause",
      "outputs": [],
      "stateMutability": "nonpayable",
      "type": "function"
    },
    {
      "inputs": [
        {
          "internalType": "address",
          "name": "to",
          "type": "address"
        },
        {
          "internalType": "uint256",
          "name": "amount",
          "type": "uint256"
        }
      ],
      "name": "mint",
      "outputs": [],
      "stateMutability": "nonpayable",
      "type": "function"
    },
    {
      "inputs": [
        {
          "internalType": "address",
          "name": "recipient",
          "type": "address"
        },
        {
          "internalType": "uint256",
          "name": "amount",
          "type": "uint256"
        }
      ],
      "name": "transfer",
      "outputs": [
        {
          "internalType": "bool",
          "name": "",
          "type": "bool"
        }
      ],
      "stateMutability": "nonpayable",
      "type": "function"
    },
    {
      "inputs": [
        {
          "internalType": "address",
          "name": "service",
          "type": "address"
        },
        {
          "internalType": "address[]",
          "name": "vList",
          "type": "address[]"
        },
        {
          "internalType": "uint256",
          "name": "vShare",
          "type": "uint256"
        },
        {
          "internalType": "uint256",
          "name": "cShare",
          "type": "uint256"
        }
      ],
      "name": "addService",
      "outputs": [],
      "stateMutability": "nonpayable",
      "type": "function"
    },
    {
      "inputs": [
        {
          "internalType": "address[]",
          "name": "vList",
          "type": "address[]"
        }
      ],
      "name": "setValidators",
      "outputs": [],
      "stateMutability": "nonpayable",
      "type": "function"
    },
    {
      "inputs": [
        {
          "internalType": "address",
          "name": "service",
          "type": "address"
        },
        {
          "internalType": "uint256",
          "name": "amount",
          "type": "uint256"
        },
        {
          "internalType": "string",
          "name": "productId",
          "type": "string"
        }
      ],
      "name": "createProcess",
      "outputs": [
        {
          "internalType": "bool",
          "name": "",
          "type": "bool"
        }
      ],
      "stateMutability": "nonpayable",
      "type": "function"
    },
    {
      "inputs": [
        {
          "internalType": "address",
          "name": "customer",
          "type": "address"
        }
      ],
      "name": "getProcess",
      "outputs": [
        {
          "components": [
            {
              "internalType": "enum YandaToken.State",
              "name": "state",
              "type": "uint8"
            },
            {
              "internalType": "uint256",
              "name": "cost",
              "type": "uint256"
            },
            {
              "internalType": "address",
              "name": "service",
              "type": "address"
            },
            {
              "internalType": "string",
              "name": "productId",
              "type": "string"
            },
            {
              "internalType": "uint256",
              "name": "validations",
              "type": "uint256"
            },
            {
              "internalType": "uint256",
              "name": "failedValidations",
              "type": "uint256"
            }
          ],
          "internalType": "struct YandaToken.Process",
          "name": "",
          "type": "tuple"
        }
      ],
      "stateMutability": "view",
      "type": "function",
      "constant": true
    },
    {
      "inputs": [
        {
          "internalType": "address",
          "name": "customer",
          "type": "address"
        },
        {
          "internalType": "string",
          "name": "productId",
          "type": "string"
        },
        {
          "internalType": "string",
          "name": "data",
          "type": "string"
        }
      ],
      "name": "declareAction",
      "outputs": [],
      "stateMutability": "nonpayable",
      "type": "function"
    },
    {
      "inputs": [
        {
          "internalType": "address",
          "name": "customer",
          "type": "address"
        }
      ],
      "name": "startTermination",
      "outputs": [],
      "stateMutability": "nonpayable",
      "type": "function"
    },
    {
      "inputs": [
        {
          "internalType": "address",
          "name": "customer",
          "type": "address"
        },
        {
          "internalType": "bool",
          "name": "passed",
          "type": "bool"
        }
      ],
      "name": "validateTermination",
      "outputs": [],
      "stateMutability": "nonpayable",
      "type": "function"
    }
  ],
  "bytecode": "0x6101406040527f6e71edae12b1b97f4d1f60370fef10105fa2faae0126114a169c64845d6126c9610120523480156200003757600080fd5b506040518060400160405280600a8152602001692cb0b73230aa37b5b2b760b11b81525080604051806040016040528060018152602001603160f81b8152506040518060400160405280600a8152602001692cb0b73230aa37b5b2b760b11b8152506040518060400160405280600381526020016216539160ea1b8152508160039080519060200190620000cd929190620008bd565b508051620000e3906004906020840190620008bd565b50506005805460ff1916905550620000fb3362000190565b815160208084019190912082519183019190912060c082905260e08190524660a0527f8b73c3c69bb8fe3d512ecc4cf759cc79239f7b179b0ffacaa9a75d522b39400f6200014b818484620001ea565b60805261010052506200018a935033925062000168915050601290565b6200017590600a620009c1565b6200018490620186a062000aac565b62000234565b62000b3b565b600580546001600160a01b03838116610100818102610100600160a81b031985161790945560405193909204169182907f8be0079c531659141344cd1fd0a4f28419497f9722a3daafe3b4186f6b6457e090600090a35050565b6040805160208101859052908101839052606081018290524660808201523060a082015260009060c0016040516020818303038152906040528051906020012090505b9392505050565b6200024b82826200024f60201b62001dfb1760201c565b5050565b6200026682826200030660201b62001e8b1760201c565b6001600160e01b036200027a620004038216565b1115620002e75760405162461bcd60e51b815260206004820152603060248201527f4552433230566f7465733a20746f74616c20737570706c79207269736b73206f60448201526f766572666c6f77696e6720766f74657360801b60648201526084015b60405180910390fd5b62000300600962001f7e6200040960201b178362000417565b50505050565b6001600160a01b0382166200035e5760405162461bcd60e51b815260206004820152601f60248201527f45524332303a206d696e7420746f20746865207a65726f2061646472657373006044820152606401620002de565b6200036c60008383620005ed565b806002600082825462000380919062000959565b90915550506001600160a01b03821660009081526020819052604081208054839290620003af90849062000959565b90915550506040518181526001600160a01b038316906000907fddf252ad1be2c89b69c2b068fc378daa952ba7f163c4a11628f55a4df523b3ef9060200160405180910390a36200024b6000838362000652565b60025490565b60006200022d828462000959565b8254600090819080156200047557856200043360018362000ace565b815481106200045257634e487b7160e01b600052603260045260246000fd5b60009182526020909120015464010000000090046001600160e01b031662000478565b60005b6001600160e01b031692506200048f83858760201c565b9150600081118015620004df57504386620004ac60018462000ace565b81548110620004cb57634e487b7160e01b600052603260045260246000fd5b60009182526020909120015463ffffffff16145b156200055f57620004fb826200066a60201b62001f8a1760201c565b866200050960018462000ace565b815481106200052857634e487b7160e01b600052603260045260246000fd5b9060005260206000200160000160046101000a8154816001600160e01b0302191690836001600160e01b03160217905550620005e4565b8560405180604001604052806200058143620006d960201b62001ff71760201c565b63ffffffff168152602001620005a2856200066a60201b62001f8a1760201c565b6001600160e01b0390811690915282546001810184556000938452602093849020835194909301519091166401000000000263ffffffff909316929092179101555b50935093915050565b60055460ff1615620006355760405162461bcd60e51b815260206004820152601060248201526f14185d5cd8589b194e881c185d5cd95960821b6044820152606401620002de565b6200064d8383836200064d60201b6200205c1760201c565b505050565b6200064d8383836200074060201b620020611760201c565b60006001600160e01b03821115620006d55760405162461bcd60e51b815260206004820152602760248201527f53616665436173743a2076616c756520646f65736e27742066697420696e20326044820152663234206269747360c81b6064820152608401620002de565b5090565b600063ffffffff821115620006d55760405162461bcd60e51b815260206004820152602660248201527f53616665436173743a2076616c756520646f65736e27742066697420696e203360448201526532206269747360d01b6064820152608401620002de565b620007588383836200064d60201b6200205c1760201c565b6001600160a01b038381166000908152600760205260408082205485841683529120546200064d92918216911683818314801590620007975750600081115b156200064d576001600160a01b0383161562000824576001600160a01b038316600090815260086020908152604082208291620007e19190620008af901b6200207c178562000417565b91509150846001600160a01b0316600080516020620046da833981519152838360405162000819929190918252602082015260400190565b60405180910390a250505b6001600160a01b038216156200064d576001600160a01b03821660009081526008602090815260408220829162000868919062000409901b62001f7e178562000417565b91509150836001600160a01b0316600080516020620046da8339815191528383604051620008a0929190918252602082015260400190565b60405180910390a25050505050565b60006200022d828462000ace565b828054620008cb9062000ae8565b90600052602060002090601f016020900481019282620008ef57600085556200093a565b82601f106200090a57805160ff19168380011785556200093a565b828001600101855582156200093a579182015b828111156200093a5782518255916020019190600101906200091d565b50620006d59291505b80821115620006d5576000815560010162000943565b600082198211156200096f576200096f62000b25565b500190565b80825b6001808611620009885750620009b8565b8187048211156200099d576200099d62000b25565b80861615620009ab57918102915b9490941c93800262000977565b94509492505050565b60006200022d60001960ff851684600082620009e0575060016200022d565b81620009ef575060006200022d565b816001811462000a08576002811462000a135762000a47565b60019150506200022d565b60ff84111562000a275762000a2762000b25565b6001841b91508482111562000a405762000a4062000b25565b506200022d565b5060208310610133831016604e8410600b841016171562000a7f575081810a8381111562000a795762000a7962000b25565b6200022d565b62000a8e848484600162000974565b80860482111562000aa35762000aa362000b25565b02949350505050565b600081600019048311821515161562000ac95762000ac962000b25565b500290565b60008282101562000ae35762000ae362000b25565b500390565b600181811c9082168062000afd57607f821691505b6020821081141562000b1f57634e487b7160e01b600052602260045260246000fd5b50919050565b634e487b7160e01b600052601160045260246000fd5b60805160a05160c05160e0516101005161012051613b4f62000b8b6000396000611396015260006123e3015260006124320152600061240d0152600061238f015260006123b80152613b4f6000f3fe608060405234801561001057600080fd5b506004361061023d5760003560e01c80637ecebe001161013b578063c3cda520116100b8578063e3fdfaee1161007c578063e3fdfaee14610547578063f1127ed81461055a578063f2fde38b14610597578063f4755457146105aa578063fa52c7d8146105cf5761023d565b8063c3cda520146104b5578063cfdb0c1c146104c8578063d30a9aff146104db578063d505accf146104fb578063dd62ed3e1461050e5761023d565b80639300c926116100ff5780639300c9261461046157806395d89b41146104745780639ab24eb01461047c578063a457c2d71461048f578063a9059cbb146104a25761023d565b80637ecebe00146104095780638456cb591461041c5780638a3c11ea146104245780638da5cb5b146104375780638e539e8c1461044e5761023d565b80633f4ba83a116101c95780635c975abb1161018d5780635c975abb146103665780636d966d01146103715780636fcfff45146103b057806370a08231146103d8578063715018a6146104015761023d565b80633f4ba83a146102fa57806340c10f191461030257806344715aaa14610315578063587cde1e146103285780635c19a95c146103535761023d565b806323b872dd1161021057806323b872dd146102aa578063313ce567146102bd5780633644e515146102cc57806339509351146102d45780633a46b1a8146102e75761023d565b806306fdde0314610242578063074d5a9a14610260578063095ea7b31461027557806318160ddd14610298575b600080fd5b61024a6105f2565b604051610257919061392d565b60405180910390f35b61027361026e3660046133c9565b610685565b005b6102886102833660046135d0565b6107ab565b6040519015158152602001610257565b6002545b604051908152602001610257565b6102886102b8366004613415565b6107c1565b60405160128152602001610257565b61029c61086b565b6102886102e23660046135d0565b61087a565b61029c6102f53660046135d0565b6108b6565b610273610930565b6102736103103660046135d0565b61096a565b6102736103233660046134b9565b6109a8565b61033b6103363660046133c9565b610a78565b6040516001600160a01b039091168152602001610257565b6102736103613660046133c9565b610a99565b60055460ff16610288565b61039b61037f3660046133c9565b600b602052600090815260409020600181015460029091015482565b60408051928352602083019190915201610257565b6103c36103be3660046133c9565b610aa6565b60405163ffffffff9091168152602001610257565b61029c6103e63660046133c9565b6001600160a01b031660009081526020819052604090205490565b610273610ace565b61029c6104173660046133c9565b610b08565b610273610b26565b610273610432366004613552565b610b5e565b61033b60055461010090046001600160a01b031690565b61029c61045c366004613737565b610bf9565b61027361046f3660046136db565b610c55565b61024a610ca9565b61029c61048a3660046133c9565b610cb8565b61028861049d3660046135d0565b610d4d565b6102886104b03660046135d0565b610de6565b6102736104c3366004613651565b610f53565b6102886104d63660046135f9565b611089565b6104ee6104e93660046133c9565b6111c6565b60405161025791906139ed565b610273610509366004613450565b611342565b61029c61051c3660046133e3565b6001600160a01b03918216600090815260016020908152604080832093909416825291909152205490565b61027361055536600461351c565b6114a6565b61056d6105683660046136a8565b611bfe565b60408051825163ffffffff1681526020928301516001600160e01b03169281019290925201610257565b6102736105a53660046133c9565b611c90565b6105bd6105b83660046133c9565b611d2e565b604051610257969594939291906138b2565b6102886105dd3660046133c9565b600c6020526000908152604090205460ff1681565b60606003805461060190613aa5565b80601f016020809104026020016040519081016040528092919081815260200182805461062d90613aa5565b801561067a5780601f1061064f5761010080835404028352916020019161067a565b820191906000526020600020905b81548152906001019060200180831161065d57829003601f168201915b505050505090505b90565b336000908152600b60205260409020600101546106bd5760405162461bcd60e51b81526004016106b4906139ac565b60405180910390fd5b60016001600160a01b0382166000908152600a602052604090205460ff1660028111156106fa57634e487b7160e01b600052602160045260246000fd5b146107475760405162461bcd60e51b815260206004820152601860248201527f43616e6e6f74207374617274207465726d696e6174696f6e000000000000000060448201526064016106b4565b6001600160a01b0381166000818152600a602052604090819020805460ff1916600217815590513392917f426b7efed52a7e3dcb0ed591d02e61bf0d8c251c2bd963f3808c6288b6d5caf7916107a09160030190613940565b60405180910390a350565b60006107b8338484612088565b50600192915050565b60006107ce8484846121ac565b6001600160a01b0384166000908152600160209081526040808320338452909152902054828110156108535760405162461bcd60e51b815260206004820152602860248201527f45524332303a207472616e7366657220616d6f756e74206578636565647320616044820152676c6c6f77616e636560c01b60648201526084016106b4565b6108608533858403612088565b506001949350505050565b600061087561238b565b905090565b3360008181526001602090815260408083206001600160a01b038716845290915281205490916107b89185906108b1908690613a56565b612088565b60004382106109075760405162461bcd60e51b815260206004820152601f60248201527f4552433230566f7465733a20626c6f636b206e6f7420796574206d696e65640060448201526064016106b4565b6001600160a01b03831660009081526008602052604090206109299083612482565b9392505050565b6005546001600160a01b036101009091041633146109605760405162461bcd60e51b81526004016106b490613977565b61096861255b565b565b6005546001600160a01b0361010090910416331461099a5760405162461bcd60e51b81526004016106b490613977565b6109a482826125ee565b5050565b6005546001600160a01b036101009091041633146109d85760405162461bcd60e51b81526004016106b490613977565b60405180606001604052808585808060200260200160405190810160405280939291908181526020018383602002808284376000920182905250938552505050602080830186905260409283018590526001600160a01b0389168252600b8152919020825180519192610a50928492909101906131a2565b5060208201516001820155604090910151600290910155610a7184846125f8565b5050505050565b6001600160a01b03808216600090815260076020526040902054165b919050565b610aa333826126d3565b50565b6001600160a01b038116600090815260086020526040812054610ac890611ff7565b92915050565b6005546001600160a01b03610100909104163314610afe5760405162461bcd60e51b81526004016106b490613977565b6109686000612769565b6001600160a01b038116600090815260066020526040812054610ac8565b6005546001600160a01b03610100909104163314610b565760405162461bcd60e51b81526004016106b490613977565b6109686127c3565b336000908152600b6020526040902060010154610b8d5760405162461bcd60e51b81526004016106b4906139ac565b8383604051610b9d929190613833565b6040518091039020336001600160a01b0316866001600160a01b03167feae9271f8fe118b30a31a6fe313a060029adc5eeb1eb8bcd40df93c32fc4eb458585604051610bea9291906138fe565b60405180910390a45050505050565b6000438210610c4a5760405162461bcd60e51b815260206004820152601f60248201527f4552433230566f7465733a20626c6f636b206e6f7420796574206d696e65640060448201526064016106b4565b610ac8600983612482565b336000908152600b6020526040902060010154610c845760405162461bcd60e51b81526004016106b4906139ac565b336000908152600b60205260409020610c9e908383613203565b506109a482826125f8565b60606004805461060190613aa5565b6001600160a01b0381166000908152600860205260408120548015610d3a576001600160a01b0383166000908152600860205260409020610cfa600183613a8e565b81548110610d1857634e487b7160e01b600052603260045260246000fd5b60009182526020909120015464010000000090046001600160e01b0316610d3d565b60005b6001600160e01b03169392505050565b3360009081526001602090815260408083206001600160a01b038616845290915281205482811015610dcf5760405162461bcd60e51b815260206004820152602560248201527f45524332303a2064656372656173656420616c6c6f77616e63652062656c6f77604482015264207a65726f60d81b60648201526084016106b4565b610ddc3385858403612088565b5060019392505050565b60006001600160a01b038316301415610f4a57336000908152600a602052604081205460ff166002811115610e2b57634e487b7160e01b600052602160045260246000fd5b14610e9e5760405162461bcd60e51b815260206004820152603760248201527f596f75206861766520616e6f74686572206163746976652070726f636573732c60448201527f20706c656173652066696e69736820697420666972737400000000000000000060648201526084016106b4565b610eaa335b84846121ac565b336000908152600a602052604090819020805460ff191660011781559051610ed59160030190613843565b6040805191829003909120336000908152600a60205291909120600201546001600160a01b0316610f033390565b6001600160a01b03167f2dc24880b34b2026fb1cd0231e65ef42ca1c78e4efdd9711b7629740206bfa4685604051610f3d91815260200190565b60405180910390a46107b8565b6107b833610ea3565b83421115610fa35760405162461bcd60e51b815260206004820152601d60248201527f4552433230566f7465733a207369676e6174757265206578706972656400000060448201526064016106b4565b604080517fe48329057bfd03d55e49b547132e39cffd9c1820ad7b9d4c5307691425d15adf60208201526001600160a01b03881691810191909152606081018690526080810185905260009061101d906110159060a0016040516020818303038152906040528051906020012061283e565b85858561288c565b9050611028816128b4565b86146110765760405162461bcd60e51b815260206004820152601960248201527f4552433230566f7465733a20696e76616c6964206e6f6e63650000000000000060448201526064016106b4565b61108081886126d3565b50505050505050565b6001600160a01b0384166000908152600b6020526040812060010154156111ba576040805160c081019091528060008152602001858152602001866001600160a01b0316815260200184848080601f016020809104026020016040519081016040528093929190818152602001838380828437600092018290525093855250505060208083018290526040928301829052338252600a90522081518154829060ff1916600183600281111561114e57634e487b7160e01b600052602160045260246000fd5b0217905550602082810151600183015560408301516002830180546001600160a01b0319166001600160a01b039092169190911790556060830151805161119b9260038501920190613256565b506080820151600482015560a0909101516005909101555060016111be565b5060005b949350505050565b6112096040805160c0810190915280600081526020016000815260200160006001600160a01b031681526020016060815260200160008152602001600081525090565b6001600160a01b0382166000908152600a602052604090819020815160c081019092528054829060ff16600281111561125257634e487b7160e01b600052602160045260246000fd5b600281111561127157634e487b7160e01b600052602160045260246000fd5b81526001820154602082015260028201546001600160a01b031660408201526003820180546060909201916112a590613aa5565b80601f01602080910402602001604051908101604052809291908181526020018280546112d190613aa5565b801561131e5780601f106112f35761010080835404028352916020019161131e565b820191906000526020600020905b81548152906001019060200180831161130157829003601f168201915b50505050508152602001600482015481526020016005820154815250509050919050565b834211156113925760405162461bcd60e51b815260206004820152601d60248201527f45524332305065726d69743a206578706972656420646561646c696e6500000060448201526064016106b4565b60007f00000000000000000000000000000000000000000000000000000000000000008888886113c18c6128b4565b6040805160208101969096526001600160a01b0394851690860152929091166060840152608083015260a082015260c0810186905260e001604051602081830303815290604052805190602001209050600061141c8261283e565b9050600061142c8287878761288c565b9050896001600160a01b0316816001600160a01b03161461148f5760405162461bcd60e51b815260206004820152601e60248201527f45524332305065726d69743a20696e76616c6964207369676e6174757265000060448201526064016106b4565b61149a8a8a8a612088565b50505050505050505050565b336000908152600c602052604090205460ff1615156001146115165760405162461bcd60e51b815260206004820152602360248201527f4f6e6c792076616c696461746f722063616e2063616c6c2074686973206d65746044820152621a1bd960ea1b60648201526084016106b4565b60026001600160a01b0383166000908152600a602052604090205460ff16600281111561155357634e487b7160e01b600052602160045260246000fd5b146115a05760405162461bcd60e51b815260206004820152601860248201527f43616e6e6f742076616c69646174652064656c6976617279000000000000000060448201526064016106b4565b80156115dd576001600160a01b0382166000908152600a602052604081206004018054600192906115d2908490613a56565b9091555061160f9050565b6001600160a01b0382166000908152600a60205260408120600501805460019290611609908490613a56565b90915550505b6001600160a01b038083166000908152600a602090815260408083206002908101549094168352600b9091529020546116489190613a6e565b6001600160a01b0383166000908152600a60205260409020600401541115611943576001600160a01b038083166000818152600a6020818152604080842060028101549096168452600b82528320600190810154948452919052909201546116b09190613a6e565b6001600160a01b038085166000908152600a60209081526040808320600201549093168252600b81528282208351815460809381028201840190955260608101858152959650929461175e9491928492849184018282801561173b57602002820191906000526020600020905b81546001600160a01b0316815260019091019060200180831161171d575b5050505050815260200160018201548152602001600282015481525050836128dc565b6001600160a01b038086166000818152600a602081815260408084206002808201549097168552600b8352908420909501549383525260019092015492935090916117a99190613a6e565b6001600160a01b038681166000908152600a60205260409081902060020154905163a9059cbb60e01b81529116600482015260248101829052909150309063a9059cbb90604401602060405180830381600087803b15801561180a57600080fd5b505af115801561181e573d6000803e3d6000fd5b505050506040513d601f19601f82011682018060405250810190611842919061371b565b506001600160a01b0385166000908152600a60205260409020600101546118819030908390611872908690613a8e565b61187c9190613a8e565b6129de565b6001600160a01b038086166000818152600a6020526040908190206002810154915191909316927f936acf07f9d71277f73d74c43435f18ac3df682d3020a9206a454735db68a7a9916118da9160030190600190613953565b60405180910390a36001600160a01b0385166000908152600a60205260408120805460ff19168155600181018290556002810180546001600160a01b03191690559061192960038301826132ca565b6004820160009055600582016000905550505050506109a4565b6001600160a01b038083166000908152600a602090815260408083206002908101549094168352600b90915290205461197c9190613a6e565b6001600160a01b0383166000908152600a6020526040902060050154106109a4576001600160a01b038083166000818152600a6020818152604080842060028101549096168452600b82528320600190810154948452919052909201546119e39190613a6e565b6001600160a01b038085166000908152600a60209081526040808320600201549093168252600b815282822083518154608093810282018401909552606081018581529596509294611a8f9491928492849184018282801561173b576020028201919060005260206000209081546001600160a01b0316815260019091019060200180831161171d575050505050815260200160018201548152602001600282015481525050836128dc565b6001600160a01b0385166000908152600a6020526040902060010154909150309063a9059cbb908690611ac3908590613a8e565b6040516001600160e01b031960e085901b1681526001600160a01b0390921660048301526024820152604401602060405180830381600087803b158015611b0957600080fd5b505af1158015611b1d573d6000803e3d6000fd5b505050506040513d601f19601f82011682018060405250810190611b41919061371b565b506001600160a01b038085166000818152600a60205260408082206002810154915191909416937f936acf07f9d71277f73d74c43435f18ac3df682d3020a9206a454735db68a7a992611b9992600390920191613953565b60405180910390a36001600160a01b0384166000908152600a60205260408120805460ff19168155600181018290556002810180546001600160a01b031916905590611be860038301826132ca565b5060006004820181905560059091015550505050565b60408051808201909152600080825260208201526001600160a01b0383166000908152600860205260409020805463ffffffff8416908110611c5057634e487b7160e01b600052603260045260246000fd5b60009182526020918290206040805180820190915291015463ffffffff8116825264010000000090046001600160e01b0316918101919091529392505050565b6005546001600160a01b03610100909104163314611cc05760405162461bcd60e51b81526004016106b490613977565b6001600160a01b038116611d255760405162461bcd60e51b815260206004820152602660248201527f4f776e61626c653a206e6577206f776e657220697320746865207a65726f206160448201526564647265737360d01b60648201526084016106b4565b610aa381612769565b600a60205260009081526040902080546001820154600283015460038401805460ff9094169492936001600160a01b039092169291611d6c90613aa5565b80601f0160208091040260200160405190810160405280929190818152602001828054611d9890613aa5565b8015611de55780601f10611dba57610100808354040283529160200191611de5565b820191906000526020600020905b815481529060010190602001808311611dc857829003601f168201915b5050505050908060040154908060050154905086565b611e058282611e8b565b6002546001600160e01b031015611e775760405162461bcd60e51b815260206004820152603060248201527f4552433230566f7465733a20746f74616c20737570706c79207269736b73206f60448201526f766572666c6f77696e6720766f74657360801b60648201526084016106b4565b611e856009611f7e836129e8565b50505050565b6001600160a01b038216611ee15760405162461bcd60e51b815260206004820152601f60248201527f45524332303a206d696e7420746f20746865207a65726f20616464726573730060448201526064016106b4565b611eed60008383612b8b565b8060026000828254611eff9190613a56565b90915550506001600160a01b03821660009081526020819052604081208054839290611f2c908490613a56565b90915550506040518181526001600160a01b038316906000907fddf252ad1be2c89b69c2b068fc378daa952ba7f163c4a11628f55a4df523b3ef9060200160405180910390a36109a460008383612bd6565b60006109298284613a56565b60006001600160e01b03821115611ff35760405162461bcd60e51b815260206004820152602760248201527f53616665436173743a2076616c756520646f65736e27742066697420696e20326044820152663234206269747360c81b60648201526084016106b4565b5090565b600063ffffffff821115611ff35760405162461bcd60e51b815260206004820152602660248201527f53616665436173743a2076616c756520646f65736e27742066697420696e203360448201526532206269747360d01b60648201526084016106b4565b505050565b61205c61206d84610a78565b61207684610a78565b83612be1565b60006109298284613a8e565b6001600160a01b0383166120ea5760405162461bcd60e51b8152602060048201526024808201527f45524332303a20617070726f76652066726f6d20746865207a65726f206164646044820152637265737360e01b60648201526084016106b4565b6001600160a01b03821661214b5760405162461bcd60e51b815260206004820152602260248201527f45524332303a20617070726f766520746f20746865207a65726f206164647265604482015261737360f01b60648201526084016106b4565b6001600160a01b0383811660008181526001602090815260408083209487168084529482529182902085905590518481527f8c5be1e5ebec7d5bd14f71427d1e84f3dd0314c0f7b2291e5b200ac8c7c3b925910160405180910390a3505050565b6001600160a01b0383166122105760405162461bcd60e51b815260206004820152602560248201527f45524332303a207472616e736665722066726f6d20746865207a65726f206164604482015264647265737360d81b60648201526084016106b4565b6001600160a01b0382166122725760405162461bcd60e51b815260206004820152602360248201527f45524332303a207472616e7366657220746f20746865207a65726f206164647260448201526265737360e81b60648201526084016106b4565b61227d838383612b8b565b6001600160a01b038316600090815260208190526040902054818110156122f55760405162461bcd60e51b815260206004820152602660248201527f45524332303a207472616e7366657220616d6f756e7420657863656564732062604482015265616c616e636560d01b60648201526084016106b4565b6001600160a01b0380851660009081526020819052604080822085850390559185168152908120805484929061232c908490613a56565b92505081905550826001600160a01b0316846001600160a01b03167fddf252ad1be2c89b69c2b068fc378daa952ba7f163c4a11628f55a4df523b3ef8460405161237891815260200190565b60405180910390a3611e85848484612bd6565b60007f00000000000000000000000000000000000000000000000000000000000000004614156123dc57507f0000000000000000000000000000000000000000000000000000000000000000610682565b50604080517f00000000000000000000000000000000000000000000000000000000000000006020808301919091527f0000000000000000000000000000000000000000000000000000000000000000828401527f000000000000000000000000000000000000000000000000000000000000000060608301524660808301523060a0808401919091528351808403909101815260c09092019092528051910120610682565b8154600090815b818110156124f457600061249d8284612d1e565b9050848682815481106124c057634e487b7160e01b600052603260045260246000fd5b60009182526020909120015463ffffffff1611156124e0578092506124ee565b6124eb816001613a56565b91505b50612489565b81156125465784612506600184613a8e565b8154811061252457634e487b7160e01b600052603260045260246000fd5b60009182526020909120015464010000000090046001600160e01b0316612549565b60005b6001600160e01b031695945050505050565b60055460ff166125a45760405162461bcd60e51b815260206004820152601460248201527314185d5cd8589b194e881b9bdd081c185d5cd95960621b60448201526064016106b4565b6005805460ff191690557f5db9ee0a495bf2e6ff9c91a7834c1ba4fdd244a5e8aa4e537bd38aeae4b073aa335b6040516001600160a01b03909116815260200160405180910390a1565b6109a48282611dfb565b60005b8181101561205c57600c600084848481811061262757634e487b7160e01b600052603260045260246000fd5b905060200201602081019061263c91906133c9565b6001600160a01b0316815260208101919091526040016000205460ff166126c1576001600c600085858581811061268357634e487b7160e01b600052603260045260246000fd5b905060200201602081019061269891906133c9565b6001600160a01b031681526020810191909152604001600020805460ff19169115159190911790555b806126cb81613ada565b9150506125fb565b60006126de83610a78565b90506000612701846001600160a01b031660009081526020819052604090205490565b6001600160a01b0385811660008181526007602052604080822080546001600160a01b031916898616908117909155905194955093928616927f3134e8a2e6d97e929a7e54011ea5485d7d196dd5f0ba4d4ef95803e8e3fc257f9190a4611e85828483612be1565b600580546001600160a01b03838116610100818102610100600160a81b031985161790945560405193909204169182907f8be0079c531659141344cd1fd0a4f28419497f9722a3daafe3b4186f6b6457e090600090a35050565b60055460ff16156128095760405162461bcd60e51b815260206004820152601060248201526f14185d5cd8589b194e881c185d5cd95960821b60448201526064016106b4565b6005805460ff191660011790557f62e78cea01bee320cd4e420270b5ea74000d11b0c9f74754ebdbfc544b05a2586125d13390565b6000610ac861284b61238b565b8360405161190160f01b6020820152602281018390526042810182905260009060620160405160208183030381529060405280519060200120905092915050565b600080600061289d87878787612d39565b915091506128aa81612e26565b5095945050505050565b6001600160a01b03811660009081526006602052604090208054600181018255905b50919050565b815151600090819081906128f09085613a6e565b905060005b8551518110156129d45785518051309163a9059cbb918490811061292957634e487b7160e01b600052603260045260246000fd5b6020026020010151846040518363ffffffff1660e01b81526004016129639291906001600160a01b03929092168252602082015260400190565b602060405180830381600087803b15801561297d57600080fd5b505af1158015612991573d6000803e3d6000fd5b505050506040513d601f19601f820116820180604052508101906129b5919061371b565b506129c08284613a56565b9250806129cc81613ada565b9150506128f5565b5090949350505050565b6109a48282613029565b825460009081908015612a415785612a01600183613a8e565b81548110612a1f57634e487b7160e01b600052603260045260246000fd5b60009182526020909120015464010000000090046001600160e01b0316612a44565b60005b6001600160e01b03169250612a5d83858763ffffffff16565b9150600081118015612aa957504386612a77600184613a8e565b81548110612a9557634e487b7160e01b600052603260045260246000fd5b60009182526020909120015463ffffffff16145b15612b1757612ab782611f8a565b86612ac3600184613a8e565b81548110612ae157634e487b7160e01b600052603260045260246000fd5b9060005260206000200160000160046101000a8154816001600160e01b0302191690836001600160e01b03160217905550612b82565b856040518060400160405280612b2c43611ff7565b63ffffffff168152602001612b4085611f8a565b6001600160e01b0390811690915282546001810184556000938452602093849020835194909301519091166401000000000263ffffffff909316929092179101555b50935093915050565b60055460ff1615612bd15760405162461bcd60e51b815260206004820152601060248201526f14185d5cd8589b194e881c185d5cd95960821b60448201526064016106b4565b61205c565b61205c838383612061565b816001600160a01b0316836001600160a01b031614158015612c035750600081115b1561205c576001600160a01b03831615612c91576001600160a01b03831660009081526008602052604081208190612c3e9061207c856129e8565b91509150846001600160a01b03167fdec2bacdd2f05b59de34da9b523dff8be42e5e38e818c82fdb0bae774387a7248383604051612c86929190918252602082015260400190565b60405180910390a250505b6001600160a01b0382161561205c576001600160a01b03821660009081526008602052604081208190612cc790611f7e856129e8565b91509150836001600160a01b03167fdec2bacdd2f05b59de34da9b523dff8be42e5e38e818c82fdb0bae774387a7248383604051612d0f929190918252602082015260400190565b60405180910390a25050505050565b6000612d2d6002848418613a6e565b61092990848416613a56565b6000807f7fffffffffffffffffffffffffffffff5d576e7357a4501ddfe92f46681b20a0831115612d705750600090506003612e1d565b8460ff16601b14158015612d8857508460ff16601c14155b15612d995750600090506004612e1d565b6040805160008082526020820180845289905260ff881692820192909252606081018690526080810185905260019060a0016020604051602081039080840390855afa158015612ded573d6000803e3d6000fd5b5050604051601f1901519150506001600160a01b038116612e1657600060019250925050612e1d565b9150600090505b94509492505050565b6000816004811115612e4857634e487b7160e01b600052602160045260246000fd5b1415612e5357610aa3565b6001816004811115612e7557634e487b7160e01b600052602160045260246000fd5b1415612ec35760405162461bcd60e51b815260206004820152601860248201527f45434453413a20696e76616c6964207369676e6174757265000000000000000060448201526064016106b4565b6002816004811115612ee557634e487b7160e01b600052602160045260246000fd5b1415612f335760405162461bcd60e51b815260206004820152601f60248201527f45434453413a20696e76616c6964207369676e6174757265206c656e6774680060448201526064016106b4565b6003816004811115612f5557634e487b7160e01b600052602160045260246000fd5b1415612fae5760405162461bcd60e51b815260206004820152602260248201527f45434453413a20696e76616c6964207369676e6174757265202773272076616c604482015261756560f01b60648201526084016106b4565b6004816004811115612fd057634e487b7160e01b600052602160045260246000fd5b1415610aa35760405162461bcd60e51b815260206004820152602260248201527f45434453413a20696e76616c6964207369676e6174757265202776272076616c604482015261756560f01b60648201526084016106b4565b6130338282613041565b611e85600961207c836129e8565b6001600160a01b0382166130a15760405162461bcd60e51b815260206004820152602160248201527f45524332303a206275726e2066726f6d20746865207a65726f206164647265736044820152607360f81b60648201526084016106b4565b6130ad82600083612b8b565b6001600160a01b038216600090815260208190526040902054818110156131215760405162461bcd60e51b815260206004820152602260248201527f45524332303a206275726e20616d6f756e7420657863656564732062616c616e604482015261636560f01b60648201526084016106b4565b6001600160a01b0383166000908152602081905260408120838303905560028054849290613150908490613a8e565b90915550506040518281526000906001600160a01b038516907fddf252ad1be2c89b69c2b068fc378daa952ba7f163c4a11628f55a4df523b3ef9060200160405180910390a361205c83600084612bd6565b8280548282559060005260206000209081019282156131f7579160200282015b828111156131f757825182546001600160a01b0319166001600160a01b039091161782556020909201916001909101906131c2565b50611ff3929150613302565b8280548282559060005260206000209081019282156131f7579160200282015b828111156131f75781546001600160a01b0319166001600160a01b03843516178255602090920191600190910190613223565b82805461326290613aa5565b90600052602060002090601f01602090048101928261328457600085556131f7565b82601f1061329d57805160ff19168380011785556131f7565b828001600101855582156131f7579182015b828111156131f75782518255916020019190600101906132af565b5080546132d690613aa5565b6000825580601f106132e85750610aa3565b601f016020900490600052602060002090810190610aa391905b5b80821115611ff35760008155600101613303565b80356001600160a01b0381168114610a9457600080fd5b60008083601f84011261333f578182fd5b50813567ffffffffffffffff811115613356578182fd5b6020830191508360208260051b850101111561337157600080fd5b9250929050565b60008083601f840112613389578182fd5b50813567ffffffffffffffff8111156133a0578182fd5b60208301915083602082850101111561337157600080fd5b803560ff81168114610a9457600080fd5b6000602082840312156133da578081fd5b61092982613317565b600080604083850312156133f5578081fd5b6133fe83613317565b915061340c60208401613317565b90509250929050565b600080600060608486031215613429578081fd5b61343284613317565b925061344060208501613317565b9150604084013590509250925092565b600080600080600080600060e0888a03121561346a578283fd5b61347388613317565b965061348160208901613317565b9550604088013594506060880135935061349d608089016133b8565b925060a0880135915060c0880135905092959891949750929550565b6000806000806000608086880312156134d0578081fd5b6134d986613317565b9450602086013567ffffffffffffffff8111156134f4578182fd5b6135008882890161332e565b9699909850959660408101359660609091013595509350505050565b6000806040838503121561352e578182fd5b61353783613317565b9150602083013561354781613b0b565b809150509250929050565b600080600080600060608688031215613569578081fd5b61357286613317565b9450602086013567ffffffffffffffff8082111561358e578283fd5b61359a89838a01613378565b909650945060408801359150808211156135b2578283fd5b506135bf88828901613378565b969995985093965092949392505050565b600080604083850312156135e2578182fd5b6135eb83613317565b946020939093013593505050565b6000806000806060858703121561360e578384fd5b61361785613317565b935060208501359250604085013567ffffffffffffffff811115613639578283fd5b61364587828801613378565b95989497509550505050565b60008060008060008060c08789031215613669578182fd5b61367287613317565b9550602087013594506040870135935061368e606088016133b8565b92506080870135915060a087013590509295509295509295565b600080604083850312156136ba578182fd5b6136c383613317565b9150602083013563ffffffff81168114613547578182fd5b600080602083850312156136ed578182fd5b823567ffffffffffffffff811115613703578283fd5b61370f8582860161332e565b90969095509350505050565b60006020828403121561372c578081fd5b815161092981613b0b565b600060208284031215613748578081fd5b5035919050565b6003811061376d57634e487b7160e01b600052602160045260246000fd5b9052565b60008151808452815b818110156137965760208185018101518683018201520161377a565b818111156137a75782602083870101525b50601f01601f19169290920160200192915050565b600081546137c981613aa5565b8085526020600183811680156137e657600181146137fa57613828565b60ff19851688840152604088019550613828565b866000528260002060005b858110156138205781548a8201860152908301908401613805565b890184019650505b505050505092915050565b6000828483379101908152919050565b600080835461385181613aa5565b60018281168015613869576001811461387a576138a6565b60ff198416875282870194506138a6565b8786526020808720875b8581101561389d5781548a820152908401908201613884565b50505082870194505b50929695505050505050565b60006138be828961374f565b602082018790526001600160a01b038616604083015260c0606083018190526138e990830186613771565b60808301949094525060a00152949350505050565b60006020825282602083015282846040840137818301604090810191909152601f909201601f19160101919050565b6000602082526109296020830184613771565b60006020825261092960208301846137bc565b60006040825261396660408301856137bc565b905082151560208301529392505050565b6020808252818101527f4f776e61626c653a2063616c6c6572206973206e6f7420746865206f776e6572604082015260600190565b60208082526021908201527f4f6e6c7920736572766963652063616e2063616c6c2074686973206d6574686f6040820152601960fa1b606082015260800190565b600060208252613a0160208301845161374f565b6020830151604083015260018060a01b036040840151166060830152606083015160c06080840152613a3660e0840182613771565b9050608084015160a084015260a084015160c08401528091505092915050565b60008219821115613a6957613a69613af5565b500190565b600082613a8957634e487b7160e01b81526012600452602481fd5b500490565b600082821015613aa057613aa0613af5565b500390565b600181811c90821680613ab957607f821691505b602082108114156128d657634e487b7160e01b600052602260045260246000fd5b6000600019821415613aee57613aee613af5565b5060010190565b634e487b7160e01b600052601160045260246000fd5b8015158114610aa357600080fdfea2646970667358221220105c850e7455b2fb57bf98bca45d6634c958b920db7dff14168d24c29d088d5364736f6c63430008030033dec2bacdd2f05b59de34da9b523dff8be42e5e38e818c82fdb0bae774387a724",
  "immutableReferences": {
    "1518": [
      {
        "length": 32,
        "start": 5014
      }
    ],
    "2164": [
      {
        "length": 32,
        "start": 9144
      }
    ],
    "2166": [
      {
        "length": 32,
        "start": 9103
      }
    ],
    "2168": [
      {
        "length": 32,
        "start": 9229
      }
    ],
    "2170": [
      {
        "length": 32,
        "start": 9266
      }
    ],
    "2172": [
      {
        "length": 32,
        "start": 9187
      }
    ]
  },
  "source": "// SPDX-License-Identifier: MIT\npragma solidity ^0.8.3;\n\nimport \"@openzeppelin/contracts/token/ERC20/ERC20.sol\";\nimport \"@openzeppelin/contracts/security/Pausable.sol\";\nimport \"@openzeppelin/contracts/access/Ownable.sol\";\nimport \"@openzeppelin/contracts/token/ERC20/extensions/draft-ERC20Permit.sol\";\nimport \"@openzeppelin/contracts/token/ERC20/extensions/ERC20Votes.sol\";\n\n\ncontract YandaToken is ERC20, Pausable, Ownable, ERC20Permit, ERC20Votes {\n    enum State { AWAITING_TRANSFER, AWAITING_TERMINATION, AWAITING_VALIDATION }\n    struct Process {\n        State state;\n        uint cost;\n        address service;\n        string productId;\n        uint validations;\n        uint failedValidations;\n    }\n    struct Service {\n        address[] validators;\n        uint validationShare;\n        uint commissionShare;\n    }\n    mapping(address => Process) public processes;\n    mapping(address => Service) public services;\n    mapping(address => bool) public validators;\n\n    event Deposit(\n        address indexed customer,\n        address indexed service,\n        string indexed productId,\n        uint256 weiAmount\n    );\n    event Action(\n        address indexed customer,\n        address indexed service,\n        string indexed productId,\n        string data\n    );\n    event Terminate(\n        address indexed customer,\n        address indexed service,\n        string productId\n    );\n    event Complete(\n        address indexed customer,\n        address indexed service, \n        string productId,\n        bool success\n    );\n\n    modifier onlyService() {\n        require(services[msg.sender].validationShare > 0, \"Only service can call this method\");\n        _;\n    }\n\n    modifier onlyValidator() {\n        require(validators[msg.sender] == true, \"Only validator can call this method\");\n        _;\n    }\n\n    constructor() ERC20(\"YandaToken\", \"YND\") ERC20Permit(\"YandaToken\") {\n        _mint(msg.sender, 100000 * 10 ** decimals());\n    }\n\n    function pause() public onlyOwner {\n        _pause();\n    }\n\n    function unpause() public onlyOwner {\n        _unpause();\n    }\n\n    function mint(address to, uint256 amount) public onlyOwner {\n        _mint(to, amount);\n    }\n\n    function _beforeTokenTransfer(address from, address to, uint256 amount)\n        internal\n        whenNotPaused\n        override\n    {\n        super._beforeTokenTransfer(from, to, amount);\n    }\n\n    // The following functions are overrides required by Solidity.\n\n    function _afterTokenTransfer(address from, address to, uint256 amount)\n        internal\n        override(ERC20, ERC20Votes)\n    {\n        super._afterTokenTransfer(from, to, amount);\n    }\n\n    function _mint(address to, uint256 amount)\n        internal\n        override(ERC20, ERC20Votes)\n    {\n        super._mint(to, amount);\n    }\n\n    function _burn(address account, uint256 amount)\n        internal\n        override(ERC20, ERC20Votes)\n    {\n        super._burn(account, amount);\n    }\n    \n    function transfer(address recipient, uint256 amount) public virtual override returns (bool) {\n        if(recipient == address(this)) {\n            require(\n                processes[msg.sender].state == State.AWAITING_TRANSFER,\n                \"You have another active process, please finish it first\"\n            );\n\n            _transfer(_msgSender(), recipient, amount);\n            processes[msg.sender].state = State.AWAITING_TERMINATION;\n\n            emit Deposit(\n                _msgSender(),\n                processes[msg.sender].service,\n                processes[msg.sender].productId,\n                amount\n            );\n        } else {\n            _transfer(_msgSender(), recipient, amount);\n        }\n        return true;\n    }\n\n    function _updateValidatorsMapping(address[] calldata new_validators) internal {\n        for(uint i=0; i < new_validators.length; i++) {\n            if(!validators[new_validators[i]]) {\n                validators[new_validators[i]] = true;\n            }\n        }\n    }\n\n    function addService(address service, address[] calldata vList, uint vShare, uint cShare)\n        public\n        onlyOwner\n    {\n        services[service] = Service({\n            validators: vList,\n            validationShare: vShare,\n            commissionShare: cShare\n        });\n        _updateValidatorsMapping(vList);\n    }\n\n    function setValidators(address[] calldata vList) public onlyService {\n        services[msg.sender].validators = vList;\n        _updateValidatorsMapping(vList);\n    }\n\n    function createProcess(address service, uint256 amount, string calldata productId)\n        public returns(bool)\n    {\n        if(services[service].validationShare > 0) {\n            processes[msg.sender] = Process({\n                state: State.AWAITING_TRANSFER,\n                cost: amount,\n                service: service,\n                productId: productId,\n                validations: 0,\n                failedValidations: 0\n            });\n            return true;\n        } else {\n            return false;\n        }\n    }\n\n    function getProcess(address customer) public view returns(Process memory) {\n        return processes[customer];\n    }\n\n    function declareAction(address customer, string calldata productId, string calldata data)\n        public onlyService\n    {\n        emit Action(customer, msg.sender, productId, data);\n    }\n\n    function startTermination(address customer) public onlyService {\n        require(processes[customer].state == State.AWAITING_TERMINATION, \"Cannot start termination\");\n        processes[customer].state = State.AWAITING_VALIDATION;\n        emit Terminate(customer, msg.sender, processes[customer].productId);\n    }\n\n    function _rewardValidators(Service memory service, uint256 amount) internal returns(uint256) {\n        uint256 rewards_sum = 0;\n        uint256 reward = amount / service.validators.length;\n\n        for(uint i=0; i < service.validators.length; i++) {\n            this.transfer(payable(service.validators[i]), reward);\n            rewards_sum += reward;\n        }\n        return rewards_sum;\n    }\n\n    function validateTermination(address customer, bool passed) public onlyValidator {\n        require(processes[customer].state == State.AWAITING_VALIDATION, \"Cannot validate delivary\");\n        \n        if(passed) {\n            processes[customer].validations += 1;\n        } else {\n            processes[customer].failedValidations += 1;\n        }\n\n        if(processes[customer].validations > services[processes[customer].service].validators.length / 2) {\n            // Reward validators\n            uint256 reward_amount = processes[customer].cost / services[processes[customer].service].validationShare;\n            uint256 executed_amount = _rewardValidators(services[processes[customer].service], reward_amount);\n            // Pay service commission\n            uint256 commission_amount = processes[customer].cost / services[processes[customer].service].commissionShare;\n            this.transfer(payable(processes[customer].service), commission_amount);\n            // Burn remaining funds\n            _burn(address(this), processes[customer].cost - executed_amount - commission_amount);\n            emit Complete(customer, processes[customer].service, processes[customer].productId, true);\n            // Delete completed process\n            delete processes[customer];\n        } else {\n            if(processes[customer].failedValidations >= services[processes[customer].service].validators.length / 2) {\n                // Reward validators\n                uint256 reward_amount = processes[customer].cost / services[processes[customer].service].validationShare;\n                uint256 executed_amount = _rewardValidators(services[processes[customer].service], reward_amount);\n                // Make refund\n                this.transfer(payable(customer), processes[customer].cost - executed_amount);\n                emit Complete(customer, processes[customer].service, processes[customer].productId, false);\n                // Delete completed process\n                delete processes[customer];\n            }\n        }\n    }\n\n}\n",
  "sourcePath": "/Users/daniel/Code/Work/Yanda/celo/network/contracts/YandaToken.sol",
  "compiler": {
    "name": "solc",
    "version": "0.8.3+commit.8d00100c.Emscripten.clang"
  },
  "schemaVersion": "3.4.3",
  "updatedAt": "2021-10-11T14:42:02.043Z",
  "networkType": "ethereum",
  "devdoc": {
    "kind": "dev",
    "methods": {
      "DOMAIN_SEPARATOR()": {
        "details": "See {IERC20Permit-DOMAIN_SEPARATOR}."
      },
      "allowance(address,address)": {
        "details": "See {IERC20-allowance}."
      },
      "approve(address,uint256)": {
        "details": "See {IERC20-approve}. Requirements: - `spender` cannot be the zero address."
      },
      "balanceOf(address)": {
        "details": "See {IERC20-balanceOf}."
      },
      "checkpoints(address,uint32)": {
        "details": "Get the `pos`-th checkpoint for `account`."
      },
      "decimals()": {
        "details": "Returns the number of decimals used to get its user representation. For example, if `decimals` equals `2`, a balance of `505` tokens should be displayed to a user as `5.05` (`505 / 10 ** 2`). Tokens usually opt for a value of 18, imitating the relationship between Ether and Wei. This is the value {ERC20} uses, unless this function is overridden; NOTE: This information is only used for _display_ purposes: it in no way affects any of the arithmetic of the contract, including {IERC20-balanceOf} and {IERC20-transfer}."
      },
      "decreaseAllowance(address,uint256)": {
        "details": "Atomically decreases the allowance granted to `spender` by the caller. This is an alternative to {approve} that can be used as a mitigation for problems described in {IERC20-approve}. Emits an {Approval} event indicating the updated allowance. Requirements: - `spender` cannot be the zero address. - `spender` must have allowance for the caller of at least `subtractedValue`."
      },
      "delegate(address)": {
        "details": "Delegate votes from the sender to `delegatee`."
      },
      "delegateBySig(address,uint256,uint256,uint8,bytes32,bytes32)": {
        "details": "Delegates votes from signer to `delegatee`"
      },
      "delegates(address)": {
        "details": "Get the address `account` is currently delegating to."
      },
      "getPastTotalSupply(uint256)": {
        "details": "Retrieve the `totalSupply` at the end of `blockNumber`. Note, this value is the sum of all balances. It is but NOT the sum of all the delegated votes! Requirements: - `blockNumber` must have been already mined"
      },
      "getPastVotes(address,uint256)": {
        "details": "Retrieve the number of votes for `account` at the end of `blockNumber`. Requirements: - `blockNumber` must have been already mined"
      },
      "getVotes(address)": {
        "details": "Gets the current votes balance for `account`"
      },
      "increaseAllowance(address,uint256)": {
        "details": "Atomically increases the allowance granted to `spender` by the caller. This is an alternative to {approve} that can be used as a mitigation for problems described in {IERC20-approve}. Emits an {Approval} event indicating the updated allowance. Requirements: - `spender` cannot be the zero address."
      },
      "name()": {
        "details": "Returns the name of the token."
      },
      "nonces(address)": {
        "details": "See {IERC20Permit-nonces}."
      },
      "numCheckpoints(address)": {
        "details": "Get number of checkpoints for `account`."
      },
      "owner()": {
        "details": "Returns the address of the current owner."
      },
      "paused()": {
        "details": "Returns true if the contract is paused, and false otherwise."
      },
      "permit(address,address,uint256,uint256,uint8,bytes32,bytes32)": {
        "details": "See {IERC20Permit-permit}."
      },
      "renounceOwnership()": {
        "details": "Leaves the contract without owner. It will not be possible to call `onlyOwner` functions anymore. Can only be called by the current owner. NOTE: Renouncing ownership will leave the contract without an owner, thereby removing any functionality that is only available to the owner."
      },
      "symbol()": {
        "details": "Returns the symbol of the token, usually a shorter version of the name."
      },
      "totalSupply()": {
        "details": "See {IERC20-totalSupply}."
      },
      "transfer(address,uint256)": {
        "details": "See {IERC20-transfer}. Requirements: - `recipient` cannot be the zero address. - the caller must have a balance of at least `amount`."
      },
      "transferFrom(address,address,uint256)": {
        "details": "See {IERC20-transferFrom}. Emits an {Approval} event indicating the updated allowance. This is not required by the EIP. See the note at the beginning of {ERC20}. Requirements: - `sender` and `recipient` cannot be the zero address. - `sender` must have a balance of at least `amount`. - the caller must have allowance for ``sender``'s tokens of at least `amount`."
      },
      "transferOwnership(address)": {
        "details": "Transfers ownership of the contract to a new account (`newOwner`). Can only be called by the current owner."
      }
    },
    "version": 1
  },
  "userdoc": {
    "kind": "user",
    "methods": {},
    "version": 1
  }
}