{
  "contractName": "YandaEscrow",
  "abi": [
    {
      "inputs": [
        {
          "internalType": "address payable",
          "name": "_customer",
          "type": "address"
        },
        {
          "internalType": "address payable",
          "name": "_service",
          "type": "address"
        },
        {
          "internalType": "uint256",
          "name": "_commission",
          "type": "uint256"
        }
      ],
      "stateMutability": "nonpayable",
      "type": "constructor"
    },
    {
      "anonymous": false,
      "inputs": [
        {
          "indexed": true,
          "internalType": "address",
          "name": "payee",
          "type": "address"
        },
        {
          "indexed": false,
          "internalType": "uint256",
          "name": "weiAmount",
          "type": "uint256"
        }
      ],
      "name": "Deposited",
      "type": "event"
    },
    {
      "inputs": [],
      "name": "commission",
      "outputs": [
        {
          "internalType": "uint256",
          "name": "",
          "type": "uint256"
        }
      ],
      "stateMutability": "view",
      "type": "function",
      "constant": true
    },
    {
      "inputs": [],
      "name": "currState",
      "outputs": [
        {
          "internalType": "enum YandaEscrow.State",
          "name": "",
          "type": "uint8"
        }
      ],
      "stateMutability": "view",
      "type": "function",
      "constant": true
    },
    {
      "inputs": [],
      "name": "customer",
      "outputs": [
        {
          "internalType": "address payable",
          "name": "",
          "type": "address"
        }
      ],
      "stateMutability": "view",
      "type": "function",
      "constant": true
    },
    {
      "inputs": [],
      "name": "service",
      "outputs": [
        {
          "internalType": "address payable",
          "name": "",
          "type": "address"
        }
      ],
      "stateMutability": "view",
      "type": "function",
      "constant": true
    },
    {
      "inputs": [],
      "name": "serviceResult",
      "outputs": [
        {
          "internalType": "uint256",
          "name": "",
          "type": "uint256"
        }
      ],
      "stateMutability": "view",
      "type": "function",
      "constant": true
    },
    {
      "inputs": [],
      "name": "validator",
      "outputs": [
        {
          "internalType": "address payable",
          "name": "",
          "type": "address"
        }
      ],
      "stateMutability": "view",
      "type": "function",
      "constant": true
    },
    {
      "inputs": [],
      "name": "validator_reward",
      "outputs": [
        {
          "internalType": "uint256",
          "name": "",
          "type": "uint256"
        }
      ],
      "stateMutability": "view",
      "type": "function",
      "constant": true
    },
    {
      "stateMutability": "payable",
      "type": "receive",
      "payable": true
    },
    {
      "inputs": [
        {
          "internalType": "uint256",
          "name": "_fee",
          "type": "uint256"
        },
        {
          "internalType": "address payable[]",
          "name": "_validators",
          "type": "address[]"
        }
      ],
      "name": "confirmDelivery",
      "outputs": [],
      "stateMutability": "nonpayable",
      "type": "function"
    },
    {
      "inputs": [
        {
          "internalType": "uint256",
          "name": "_fee",
          "type": "uint256"
        }
      ],
      "name": "validateDelivery",
      "outputs": [],
      "stateMutability": "nonpayable",
      "type": "function"
    },
    {
      "inputs": [],
      "name": "getState",
      "outputs": [
        {
          "internalType": "enum YandaEscrow.State",
          "name": "",
          "type": "uint8"
        }
      ],
      "stateMutability": "view",
      "type": "function",
      "constant": true
    },
    {
      "inputs": [],
      "name": "getValidator",
      "outputs": [
        {
          "internalType": "address",
          "name": "",
          "type": "address"
        }
      ],
      "stateMutability": "view",
      "type": "function",
      "constant": true
    },
    {
      "inputs": [],
      "name": "getReward",
      "outputs": [
        {
          "internalType": "uint256",
          "name": "",
          "type": "uint256"
        }
      ],
      "stateMutability": "view",
      "type": "function",
      "constant": true
    }
  ],
  "bytecode": "0x608060405234801561001057600080fd5b506040516108ca3803806108ca8339818101604052606081101561003357600080fd5b5080516020820151604090920151600080546001600160a01b0393841661010002610100600160a81b031990911617905560018054929093166001600160a01b031990921691909117909155600355610839806100916000396000f3fe6080604052600436106100ab5760003560e01c806370d3f8541161006457806370d3f8541461028457806379c1b3b914610299578063a48092a01461031d578063afe0104314610332578063d598d4c914610347578063e14891911461035c57610198565b80631195e07e1461019d5780631865c57d146101ce5780632804b2c0146102075780633a5381b51461021c5780633d18b912146102315780636869d32b1461025857610198565b366101985760005461010090046001600160a01b031633146100fe5760405162461bcd60e51b81526004018080602001828103825260228152602001806107736022913960400191505060405180910390fd5b6000805460ff16600381111561011057fe5b14610151576040805162461bcd60e51b815260206004820152600c60248201526b105b1c9958591e481c185a5960a21b604482015290519081900360640190fd5b60008054600160ff1990911617905560408051348152905133917f2da466a7b24304f47e87fa2e1e5a81b9831ce54fec19055ce277ca2f39ba42c4919081900360200190a2005b600080fd5b3480156101a957600080fd5b506101b2610371565b604080516001600160a01b039092168252519081900360200190f35b3480156101da57600080fd5b506101e3610380565b604051808260038111156101f357fe5b60ff16815260200191505060405180910390f35b34801561021357600080fd5b506101b2610389565b34801561022857600080fd5b506101b261039d565b34801561023d57600080fd5b506102466103ac565b60408051918252519081900360200190f35b34801561026457600080fd5b506102826004803603602081101561027b57600080fd5b50356103b2565b005b34801561029057600080fd5b50610246610583565b3480156102a557600080fd5b50610282600480360360408110156102bc57600080fd5b813591908101906040810160208201356401000000008111156102de57600080fd5b8201836020820111156102f057600080fd5b8035906020019184602083028401116401000000008311171561031257600080fd5b509092509050610589565b34801561032957600080fd5b50610246610690565b34801561033e57600080fd5b506101e3610696565b34801561035357600080fd5b506101b261069f565b34801561036857600080fd5b506102466106ae565b6002546001600160a01b031690565b60005460ff1690565b60005461010090046001600160a01b031681565b6002546001600160a01b031681565b60055490565b6002546001600160a01b031633146103fb5760405162461bcd60e51b81526004018080602001828103825260238152602001806107b66023913960400191505060405180910390fd5b600260005460ff16600381111561040e57fe5b14610460576040805162461bcd60e51b815260206004820152601860248201527f43616e6e6f742076616c69646174652064656c69766172790000000000000000604482015290519081900360640190fd5b600454819081146104a25760405162461bcd60e51b815260040180806020018281038252602b8152602001806107d9602b913960400191505060405180910390fd5b600a600454816104ae57fe5b0460058190556002546040516001600160a01b039091169180156108fc02916000818181858888f193505050501580156104ec573d6000803e3d6000fd5b506001546005546004546040516001600160a01b039093169291900380156108fc02916000818181858888f1935050505015801561052e573d6000803e3d6000fd5b50600080546040516001600160a01b036101009092049190911691303180156108fc02929091818181858888f19350505050158015610571573d6000803e3d6000fd5b50506000805460ff1916600317905550565b60055481565b6001546001600160a01b031633146105d25760405162461bcd60e51b81526004018080602001828103825260218152602001806107956021913960400191505060405180910390fd5b600160005460ff1660038111156105e557fe5b14610637576040805162461bcd60e51b815260206004820152601760248201527f43616e6e6f7420636f6e6669726d2064656c6976657279000000000000000000604482015290519081900360640190fd5b60048390558181610647816106b4565b60ff1681811061065357fe5b6002805460209290920293909301356001600160a01b03166001600160a01b0319909116178255506000805460ff19166001830217905550505050565b60045481565b60005460ff1681565b6001546001600160a01b031681565b60035481565b604080516002808252606080830184526000939092919060208301908038833901905050905042816000815181106106e857fe5b602002602001018181525050448160018151811061070257fe5b602002602001018181525050828160405160200180828051906020019060200280838360005b83811015610740578181015183820152602001610728565b505050509050019150506040516020818303038152906040528051906020012060001c8161076a57fe5b06939250505056fe4f6e6c7920637573746f6d65722063616e2063616c6c2074686973206d6574686f644f6e6c7920736572766963652063616e2063616c6c2074686973206d6574686f644f6e6c792076616c696461746f722063616e2063616c6c2074686973206d6574686f645365727669636520616e642056616c696461746f722076616c75657320646f65736e2774206d6174636821a2646970667358221220fd96352f703b48123f350d2f0888d0aa86dee94430583208d9bd43a2bf8b908e64736f6c63430006000033",
  "source": "// SPDX-License-Identifier: MIT\npragma solidity >=0.5.0 <0.7.0;\n\ncontract YandaEscrow {\n  enum State { AWAITING_PAYMENT, AWAITING_DELIVERY, AWAITING_VALIDATION, COMPLETE }\n  State public currState;\n  address payable public customer;\n  address payable public service;\n  address payable public validator;\n  uint public commission;\n  uint public serviceResult;\n  uint public validator_reward;\n  uint constant reward_divisor = 10;\n\n  event Deposited(address indexed payee, uint256 weiAmount);\n\n  modifier onlyCustomer() {\n    require(msg.sender == customer, \"Only customer can call this method\");\n    _;\n  }\n\n  modifier onlyService() {\n    require(msg.sender == service, \"Only service can call this method\");\n    _;\n  }\n\n  modifier onlyValidator() {\n    require(msg.sender == validator, \"Only validator can call this method\");\n    _;\n  }\n\n  constructor(address payable _customer, address payable _service, uint _commission) public {\n    customer = _customer;\n    service = _service;\n    commission = _commission;\n  }\n\n  receive() onlyCustomer external payable {\n    require(currState == State.AWAITING_PAYMENT, \"Already paid\");\n    currState = State.AWAITING_DELIVERY;\n    emit Deposited(msg.sender, msg.value);\n  }\n\n  function random(uint max) private view returns (uint8) {\n    uint[] memory random_data = new uint[](2);\n    random_data[0] = block.timestamp;\n    random_data[1] = block.difficulty;\n    return uint8(uint256(keccak256(abi.encodePacked(random_data))) % max);\n  }\n\n  function confirmDelivery(uint _fee, address payable[] calldata _validators) onlyService external {\n    require(currState == State.AWAITING_DELIVERY, \"Cannot confirm delivery\");\n    serviceResult = _fee;\n    // Random weighted random pick\n    validator = _validators[random(_validators.length)];\n    currState = State.AWAITING_VALIDATION;\n  }\n\n  function validateDelivery(uint _fee) onlyValidator external {\n    require(currState == State.AWAITING_VALIDATION, \"Cannot validate delivary\");\n    uint validatorResult = _fee;\n    require(serviceResult == validatorResult, \"Service and Validator values doesn't match!\");\n\n    validator_reward = serviceResult / reward_divisor;\n\n    validator.transfer(validator_reward);\n    service.transfer(serviceResult - validator_reward);\n    customer.transfer(address(this).balance);\n\n    currState = State.COMPLETE;\n  }\n\n  function getState() public view returns (State) {\n    return currState;\n  }\n\n  function getValidator() public view returns (address) {\n    return validator;\n  }\n\n  function getReward() public view returns (uint) {\n    return validator_reward;\n  }\n\n}\n",
  "sourcePath": "/Users/daniel/Code/Work/Yanda/celo/network/contracts/YandaEscrow.sol",
  "compiler": {
    "name": "solc",
    "version": "0.6.0+commit.26b70077.Emscripten.clang"
  },
  "schemaVersion": "3.4.2",
  "updatedAt": "2021-07-30T13:41:01.414Z",
  "networkType": "ethereum",
  "devdoc": {
    "methods": {}
  },
  "userdoc": {
    "methods": {}
  }
}